:100000000C9420100C943D100C943D100C944C2238
:100010000C943D100C943D100C943D100C943D102C
:100020000C943D100C943D100C943D100C943D101C
:100030000C943D100C94952E0C943D100C943D1096
:100040000C943D100C943D100C943D100C943D10FC
:100050000C94302F0C943D100C943D100C943D10DA
:100060000C943D100C943D100C943D100C943D10DC
:100070000C943D100C943D100C943D1041424344AF
:1000800045464748494A4B4C4D4E4F5051525354A8
:1000900055565758595A6162636465666768696A5C
:1000A0006B6C6D6E6F707172737475767778797A28
:1000B000303132333435363738392B2F3D00524505
:1000C00053455420202D2072657365742074686533
:1000D00020415652202D20436F6E74726F6C6C65F8
:1000E000720D0A415250202020202D206C6973741B
:1000F0002074686520415250207461626C650D0A5D
:10010000544350202020202D206C69737420746883
:100110006520746370207461626C650D0A4950201B
:10012000202020202D206C6973742F6368616E6716
:10013000652069700D0A4E4554202020202D206C2A
:100140006973742F6368616E6765206E65746D6195
:10015000736B0D0A524F55544552202D206C697314
:10016000742F6368616E676520726F7574657220A5
:1001700069700D0A4E5450202020202D206C697388
:10018000742F6368616E6765204E54500D0A4E549B
:1001900050522020202D204E54502052656672650A
:1001A00073680D0A4D4143202020202D206C697377
:1001B00074204D41432D616464726573730D0A565A
:1001C0004552202020202D206C69737420656E63B9
:1001D0002076657273696F6E206E756D6265720D43
:1001E0000A535620202020202D207365742076612C
:1001F000726961626C650D0A50494E472020202DBE
:100200002073656E642050696E670D0A54494D4530
:100210002020202D206765742074696D650D0A48C3
:10022000454C502020202D207072696E7420486546
:100230006C70746578740D0A3F2020202020202DDA
:10024000207072696E742048656C70746578740DE6
:100250000A002563000A0D54494D453A20253269AC
:100260003A2532693A2532690D0A00496E68616C97
:100270007420646572205661726961626C655B25E9
:1002800032695D203D202532690D0A002020546925
:100290006D653A2534690D0A002020504F52543ABA
:1002A000253469002E253369002E253369002E255B
:1002B000336900202049503A25336900253269000E
:1002C000202054696D653A2534690D0A002E2533C6
:1002D00069002E253369002E2533690020204950FE
:1002E0003A253369002E253278002E253278002EEB
:1002F000253278002E253278002E253278002532DE
:100300006920204D41433A25327800454E4332382A
:100310004A36302D56657273696F6E3A20253178F2
:100320000D0A004D79204D41433A202532783A2577
:1003300032783A2532783A2532783A2532783A2599
:1003400032780D0A00526F757465722049503A2058
:100350002531692E2531692E2531692E2531690D0A
:100360000A004E45544D41534B3A202531692E2504
:1003700031692E2531692E2531690D0A004E545000
:100380005F5365727665723A202531692E25316991
:100390002E2531692E2531690D0A004D79204950ED
:1003A0003A202531692E2531692E2531692E2531D6
:1003B000690D0A00474554202F676C6F62616C77A6
:1003C0006561746865722E61736D782F4765745727
:1003D0006561746865723F436974794E616D653D0E
:1003E0005061646572626F726E26436F756E7472CF
:1003F000794E616D653D4765726D616E7920485437
:1004000054502F312E310D0A486F73743A2077778C
:10041000772E77656273657276696365782E6E658F
:10042000740D0A4B6565702D416C6976653A203311
:1004300030300D0A436F6E6E656374696F6E3A20DB
:100440004B6565702D416C6976650D0A0D0A000DCE
:100450000A0D0A0D0A446174656E20416E666F7262
:100460006465726E0D0A005443502045696E7472C3
:10047000616720676566756E64656E202848545410
:10048000505F434C49454E5429210D0A00544350B6
:100490002045696E74726167206E696368742067B5
:1004A0006566756E64656E2028485454505F434CF1
:1004B00049454E5429210D0A004152502052657180
:1004C000756573740A0D002563003C21444F435445
:1004D0005950452068746D6C205055424C4943205A
:1004E000222D2F2F5733432F2F4454442048544D4F
:1004F0004C20342E3031205472616E736974696FF0
:100500006E616C2F2F454E222022687474703A2F32
:100510002F7777772E77332E6F72672F54522F688D
:10052000746D6C342F6C6F6F73652E647464223E2F
:100530000D0A3C68746D6C3E3C686561643E0D0A52
:100540003C6D65746120687474702D657175697691
:100550003D22636F6E74656E742D74797065222010
:10056000636F6E74656E743D22746578742F687461
:100570006D6C3B20636861727365743D49534F2D08
:10058000383835392D31223E0D0A3C7469746C655A
:100590003E415652206D696E6920576562736572DF
:1005A000766572203A20486F6D653C2F7469746CD3
:1005B000653E0D0A3C6C696E6B2072656C3D227362
:1005C00074796C6573686565742220747970653D13
:1005D00022746578742F63737322202068726566B5
:1005E0003D227374796C65732E637373223E3C2FC6
:1005F000686561643E3C626F64793E0D0A3C683117
:100600003E415652206D696E69205765627365726E
:10061000766572203A20486F6D653C2F68313E0D3B
:100620000A3C6469762069643D226E6176223E3C14
:100630006120687265663D22696E6465782E687413
:100640006D223E486F6D653C2F613E3C61206872B3
:1006500065663D227374617475732E68746D223EF5
:100660005374617475733C2F613E3C2F6469763E10
:100670000D0A3C6469762069643D226D61696E22D1
:100680003E3C68323E476CFC636B77756E73636803
:10069000213C2F68323E3C62723E0D0A3C62723E43
:1006A0003C62723E0D0A3C703E4475206861737472
:1006B000206573206765736368616666743A2044D9
:1006C000657220576562736572766572206CE47599
:1006D0006674213C2F703E3C62723E3C68723E3C28
:1006E00062723E0D0A3C646976207374796C653DD4
:1006F0002277696474683A32303070783B6D617289
:1007000067696E3A2030206175746F3B223E0D0A96
:100710003C646976207374796C653D22666C6F6108
:10072000743A6C6566743B77696474683A3130304A
:100730007078223E0D0A3C666F726D206D6574689C
:100740006F643D22706F73742220616374696F6EF1
:100750003D22696E6465782E68746D223E0D0A3CF8
:10076000696E707574206E616D653D224F5554221F
:1007700020747970653D22636865636B626F7822CF
:100780002076616C75653D2241222025504F5254E0
:1007900041303E506F727420412050696E20303CD1
:1007A00062723E0D0A3C696E707574206E616D65F3
:1007B0003D224F55542220747970653D226368654F
:1007C000636B626F78222076616C75653D224222F0
:1007D0002025504F525441313E506F7274204120B9
:1007E00050696E20313C62723E0D0A3C696E707534
:1007F00074206E616D653D224F55542220747970CE
:10080000653D22636865636B626F78222076616C58
:1008100075653D2243222025504F525441323E50AF
:100820006F727420412050696E20323C62723E3CEF
:1008300062723E0D0A3C696E707574206E616D6562
:100840003D22535542222076616C75653D225365E9
:100850006E64656E2220747970653D227375626DD9
:100860006974223E0D0A3C2F666F726D3E3C2F6408
:1008700069763E0D0A3C646976207374796C653D37
:1008800022666C6F61743A6C6566743B20776964AC
:1008900074683A3130307078223E0D0A3C696D67D9
:1008A000207372633D222550494E44372220616CEB
:1008B000743D22223E20506F727420442050696E95
:1008C00020373C62723E3C696D67207372633D2243
:1008D0002550494E44362220616C743D22223E2030
:1008E000506F727420442050696E20363C62723E14
:1008F0003C696D67207372633D222550494E443533
:100900002220616C743D22223E20506F727420447C
:100910002050696E20353C62723E3C2F6469763E01
:100920003C2F6469763E0D0A3C64697620636C61F5
:1009300073733D22636C656172223E3C2F6469765D
:100940003E0D0A3C62723E3C68723E3C62723E0D55
:100950000A3C7461626C6520626F726465723D224C
:10096000302220636C6173733D2274656D70546234
:100970006C2220616C69676E3D2263656E746572DE
:10098000222077696474683D2234303070783B22CD
:100990003E0D0A3C74723E0D0A3C74683E45696E19
:1009A00067616E673C2F74683E0D0A3C74683E4276
:1009B000616C6B656E3C2F74683E0D0A3C74683E3A
:1009C00054656D70657261747572205BB0435D3CF7
:1009D0002F74683E0D0A3C2F74723E3C74723E0DBB
:1009E0000A3C74643E41442D4B616E616C303C2F77
:1009F00074643E0D0A3C7464207374796C653D2206
:100A0000746578742D616C69676E3A6C65667422E2
:100A10003E3C696D67207372633D22696E64657840
:100A20002D4461746569656E2F62616C6B652E671C
:100A300069662220616C743D2222206865696768BE
:100A4000743D223130222077696474683D22255636
:100A500041403030223E3C2F74643E0D0A3C7464A9
:100A60003E2556414030303C2F74643E0D0A3C2FE9
:100A700074723E3C74723E0D0A3C74643E41442DD7
:100A80004B616E616C313C2F74643E0D0A3C7464A2
:100A9000207374796C653D22746578742D616C697E
:100AA000676E3A6C656674223E3C696D67207372AE
:100AB000633D22696E6465782D4461746569656E75
:100AC0002F62616C6B652E6769662220616C743DD4
:100AD0002222206865696768743D223130222077C0
:100AE000696474683D22255641403031223E3C2FD6
:100AF00074643E0D0A3C74643E2556414030313CDE
:100B00002F74643E0D0A3C2F74723E3C74723E0D8D
:100B10000A3C74643E41442D4B616E616C323C2F43
:100B200074643E0D0A3C7464207374796C653D22D4
:100B3000746578742D616C69676E3A6C65667422B1
:100B40003E3C696D67207372633D22696E6465780F
:100B50002D4461746569656E2F62616C6B652E67EB
:100B600069662220616C743D22222068656967688D
:100B7000743D223130222077696474683D22255605
:100B800041403032223E3C2F74643E0D0A3C746476
:100B90003E2556414030323C2F74643E0D0A3C2FB6
:100BA00074723E3C74723E0D0A3C74643E41442DA6
:100BB0004B616E616C333C2F74643E0D0A3C74646F
:100BC000207374796C653D22746578742D616C694D
:100BD000676E3A6C656674223E3C696D672073727D
:100BE000633D22696E6465782D4461746569656E44
:100BF0002F62616C6B652E6769662220616C743DA3
:100C00002222206865696768743D2231302220778E
:100C1000696474683D22255641403033223E3C2FA2
:100C200074643E0D0A3C74643E2556414030333CAA
:100C30002F74643E0D0A3C2F74723E0D0A3C2F74D3
:100C400061626C653E0D0A3C2F6469763E3C6469C6
:100C5000762069643D227461696C223E3C612068A3
:100C60007265663D22687474703A2F2F7777772EFD
:100C7000756C7269636872616469672E6465223E8F
:100C80007777772E756C7269636872616469672E15
:100C900064653C2F613E20556C7269636820526127
:100CA00064696720323030383C2F6469763E0D0A23
:100CB0003C2F626F64793E3C2F68746D6C3E254515
:100CC0004E44003C21444F43545950452068746DB4
:100CD0006C205055424C494320222D2F2F5733432F
:100CE0002F2F4454442048544D4C20342E30312072
:100CF0005472616E736974696F6E616C2F2F454E0B
:100D0000222022687474703A2F2F7777772E7733EA
:100D10002E6F72672F54522F68746D6C342F6C6F66
:100D20006F73652E647464223E0D0A3C68746D6CAA
:100D30003E3C686561643E0D0A3C6D6574612068E7
:100D40007474702D65717569763D22636F6E74657C
:100D50006E742D747970652220636F6E74656E7485
:100D60003D22746578742F68746D6C3B20636861F4
:100D7000727365743D49534F2D383835392D312202
:100D80003E0D0A3C7469746C653E415652206D6993
:100D90006E6920576562736572766572203A2053DA
:100DA00074617475733C2F7469746C653E0D0A3CF4
:100DB0006C696E6B2072656C3D227374796C65731F
:100DC000686565742220747970653D227465787455
:100DD0002F637373222020687265663D22737479D5
:100DE0006C65732E637373223E3C2F686561643EAD
:100DF0003C626F64793E3C68313E415652206D69D9
:100E00006E6920576562736572766572203A205369
:100E100074617475733C2F68313E0D0A3C646976C9
:100E20002069643D226E6176223E3C6120687265D5
:100E3000663D22696E6465782E68746D223E486F47
:100E40006D653C2F613E3C6120687265663D227392
:100E500074617475732E68746D223E537461747579
:100E6000733C2F613E3C2F6469763E0D0A3C6469F9
:100E7000762069643D226D61696E223E0D0A436FE2
:100E80006D70696C6965727420616D204E6F76209B
:100E90002033203230313020756D2031323A3132FA
:100EA0003A33303C62723E3C62723E0D0A436F6DD3
:100EB00070696C69657274206D69742047434320C2
:100EC00056657273696F6E20342E332E333C627216
:100ED0003E3C62723E0D0A4265737563686572201E
:100EE000736569742053746172742064657320574C
:100EF00065627365727665727320282556414030AD
:100F000039293C62723E3C62723E0D0A416B747537
:100F1000656C6C65205A6569743A202554494D45C5
:100F20003C62723E3C62723E0D0A3C2F6469763E22
:100F30003C6469762069643D227461696C223E3CA0
:100F40006120687265663D22687474703A2F2F774D
:100F500077772E756C7269636872616469672E6455
:100F600065223E7777772E756C726963687261646B
:100F700069672E64653C2F613E20556C7269636819
:100F800020526164696720323030383C2F646976C2
:100F90003E0D0A3C2F626F64793E3C2F68746D6C85
:100FA0003E0D0A25454E4400626F64797B6D617287
:100FB00067696E3A20343070783B7D20626F6479C7
:100FC0002C702C6469762C68312C68322C74642C5B
:100FD00074687B666F6E742D66616D696C793A73A7
:100FE000616E732D73657269663B666F6E742D73E7
:100FF000697A653A313170787D68317B666F6E74DD
:101000002D73697A653A323070783B636F6C6F721A
:101010003A77686974653B206261636B67726F75CC
:101020006E642D636F6C6F723A23393642313143EF
:101030003B6D617267696E3A3170783B70616464D0
:10104000696E673A3570783B746578742D616C69A8
:10105000676E3A63656E7465723B7D68327B666F5E
:101060006E742D73697A653A313870783B636F6CB2
:101070006F723A233936423131437D702C68327BAE
:101080006D617267696E3A3070783070783570785B
:101090003070787D696D677B626F726465723A301B
:1010A0007D68727B636F6C6F723A73696C76657280
:1010B0003B206261636B67726F756E642D636F6C4A
:1010C0006F723A73696C7665723B626F72646572B7
:1010D0003A303B6865696768743A3170787D236E91
:1010E00061767B666F6E742D73697A653A2031364E
:1010F00070783B206261636B67726F756E642D63FD
:101100006F6C6F723A73696C7665723B6D61726772
:10111000696E3A3170783B70616464696E673A3524
:1011200070783B666F6E742D7765696768743A6294
:101130006F6C647D236E617620612C20237461695D
:101140006C20617B636F6C6F723A77686974653B82
:101150002070616464696E673A313070783B746501
:1011600078742D6465636F726174696F6E3A6E6F27
:101170006E657D236E617620613A686F7665722CAC
:10118000237461696C20613A686F7665727B74655F
:1011900078742D6465636F726174696F6E3A756EF1
:1011A0006465726C696E657D237461696C7B206314
:1011B0006F6C6F723A77686974653B206261636B2C
:1011C00067726F756E642D636F6C6F723A73696CC2
:1011D0007665723B746578742D616C69676E3A63ED
:1011E000656E7465723B70616464696E673A3570F0
:1011F000787D236D61696E7B746578742D616C698F
:10120000676E3A63656E7465723B6D617267696E95
:101210003A323070787D2E636C6561727B636C65E9
:1012200061723A6C6566747D2E74656D7054626C83
:10123000207B7461626C652D6C61796F75743A61A5
:1012400075746F3B626F726465722D737061636950
:101250006E673A307D2E74656D7054626C207464D4
:101260007B746578742D616C69676E3A63656E7422
:1012700065723B70616464696E673A3770787D2E81
:1012800074656D7054626C2074687B6261636B6717
:10129000726F756E642D636F6C6F723A73696C76E2
:1012A00065727D25454E4400474946383961110035
:1012B0001100A2070062626219AD2121E22CA5A5EE
:1012C000A564E66BA5F3A9D5D5D5FFFFFF21F904E9
:1012D00001000007002C00000000110011000003B5
:1012E0006078AAD6F366C9D3EABB5156127A1700C2
:1012F000302C4DF109A8D085591308444CA46A48F4
:10130000192A51EC73BA0E2ED8AE10A30544411D14
:101310008F56130D5EB2A231F478A17ACCA3D3CA52
:101320009C020C4F6EF777A8767D364AE8E4D38EA0
:101330001483B5C7439D1842F8FC7B528EE3F70A2D
:1013400009003B25454E4447494638396111001193
:1013500000A207005756576969697E7E7E90919179
:10136000B0B0B0C8C8C8E7E7E7FFFFFF21F9040144
:10137000000007002C000000001100110000036FA6
:1013800078AA5645B0AC794C73706839AD19012014
:101390000642492C56416A43199001670503446887
:1013A000A5F00A55D1128E47CBA503AA6A85C62D92
:1013B000A7A3390048CCB03482406B99A94004B04F
:1013C0000A58386615C42CBB00029FCE9C23750FAB
:1013D0002D125B0708280A2E793BF45610767C758F
:1013E0007C2713782F5C55140B372124840B0900BC
:1013F0003B25454E4447494638396102000A00A260
:101400000000A2A5ED848FE5667CDD4960D621440D
:10141000DAFE010200000000000021F904051400BA
:1014200005002C0000000002000A0000030A4834F6
:1014300023120148001D5309003B25454E444749EE
:10144000463839615A005C00A204007979D8F6F474
:10145000E1C9C9E09C98D8FFFFFFF4F6B0F9FD7C24
:10146000A6A48E21F90401000004002C0000000055
:101470005A005C000003FF48BADCFE2E2C4982A50E
:10148000B35A21B49618068D64697A8D85A65CA539
:10149000A88F78CEB429BF99300C541FD7C0E00B69
:1014A00036C4650803C0C018E84C6EC228E9C22CD7
:1014B0001061802C2EB0937A69A04B58614D55B2C3
:1014C000CB854009837EDF9FDE6E27085FD6EC5711
:1014D000B2FE72C2836E165620493B597C61783C3D
:1014E0001549794D7C7F80442F05655C4A0B7B4F05
:1014F0008A9968126B7E9133622E13959F8E4D5997
:10150000228A1B9E4D7B6E66A2712201950567752E
:10151000033AAF139A04781D9769A5B45362B6B81D
:101520001600BB599E4F3B206B3CAABCC647C70C5C
:1015300017832015CB01ABC1070790DF052D153AA6
:101540002087A3B25282A7210506A785F176B7DDD1
:101550001A75E8E5B693B0450A03CE14BD41B1E46F
:10156000A90860A05E087C4364F8785763E2B96517
:1015700094E8D53BD30CFF1C8886959EDCF2A1A095
:101580000EAC39739C488C716524A145FA1C6AA87D
:10159000041215008FB740E6A260A59B0E434A9E39
:1015A0003DE345D1863E668E3426D3B8F1D28153D1
:1015B000DF1ACABC50AE97D0431C1A350B18459F92
:1015C00095A1FD6A4E90BA33CB017D511D3ED22AC2
:1015D00094688F4B5B6D40007850119B9C213F8A33
:1015E0004D380897D5ABBC4C4EE840CDDC082ADB23
:1015F00020E06A648817CD4115C85AD8034EC0014F
:10160000B687DA20A9C38183129546BEE8632C54BD
:1016100080C6534CCB911340D60A1E349030F0A0B4
:1016200016B85D9C6C5304FE6A86F9A9CED4E568B1
:10163000D63B35D41B150985B0668EE04256B2E321
:101640005B9270E9DDFAF76372955EA721D5449548
:10165000A77B22B92373C91D390058CDD030052985
:10166000B53DF6ECCF86254EFEB9D173852BE6C687
:10167000537861556061FFEBB5D75E01C15572408B
:101680007C0F5503562F1BE08213185E6124CC1C7F
:1016900043AD67A1813D3DA59D1C48F032140199E1
:1016A00071E0A03C15CD34A277577972DA7A677968
:1016B000155C38F1BD70DE6B5B0913C059273AF732
:1016C000033723FE445F85023674A069FE3CF5D5DE
:1016D00087C87986206CEFED03CF7E12D687C67956
:1016E00041D6438E95375971A0501450832035163A
:1016F000F806996E42C454532CAEB056E56300B45C
:10170000A81563EAB4E5DD2DEF8D51D42C89E544AD
:10171000965D4205285C439C31560782483C33D98C
:10172000564D3257620AF19055085BA691859D90FF
:10173000E830E6CA2B9C3068594FC655F4DC0D667C
:101740001A306456663145A0985AC608171A2511F2
:101750009584862671F59C1950E6F8C4410560B65B
:10176000CA80A6B245C1A399750763766DF038A209
:1017700093DB1C7BAC18FF8FF90854A441127895B9
:101780000BB114320C1E46DAE120AF24EA37A280F6
:10179000CAC2D899B57E0AE38B74C13C6A15913DE3
:1017A00005D8DA984FB0F4A74E96B1AB8856BEED87
:1017B00069DF67BF02104C8A866EBB26B2C5CAEAD3
:1017C000154834667BD9B8879CF69A3554EC01707D
:1017D000A9550E470A9E571401258D6D1A59188D6B
:1017E000CBC009A60B1C6FD5C4A4D196815B62CC7B
:1017F000D9525285A756A26B96D2F24B4D29343A54
:10180000E62EAFC9CC45E60F71B201D201F5E86A08
:10181000E496E2C4F27271A755DCCDC59E7ECACEB5
:1018200056B8106D40CE05BEF9B21334B2EB1A397A
:101830004D3E8D4FCF2DD79A239AB80CFD2ABB4829
:10184000C7050A4766DD62D99655851D61B80B3517
:10185000D7E8C01E1FF8CF85B8E63A25D7E7AD1AFE
:10186000A96B6E556DF58003F3C76CDA551A5929CB
:10187000D857AED9C84FFFBFFC952FE594435E31D2
:101880007B39CE1AD1B1553DF2C8DCE0A2E309267E
:101890002A681EA088A7FE9DB2E352BB7CEB207392
:1018A000736E64B45B32131B5C4446DBD0A1F9E277
:1018B0005D828E796744D3E2038AABCE220A5C6EE6
:1018C000AAE7C3C7E7A0E8DE00B1D0E36B0E783922
:1018D00072D0C3C8C38A93120D5FC30FDE898D32E5
:1018E0000237EEF133242F819498EFD55F9556D0CF
:1018F0000E47B07E2C5FF4B9901AAA1FABD4609E3D
:101900007CE9EF46476B5B9BF2671DA9F9CC7FFF33
:10191000930A76E686A2D8F0E255015A8DA974376B
:10192000AFD989ED2DA3EBE0FFD0911D67D08101E8
:10193000ADE0DDBC8E558F08864E6FCA8AE16336F6
:1019400028B90985427A1174A10CF1B6BDBBD10E3C
:101950004A8C1B1A1B38108686E55087A8B9CFA77A
:1019600022203ABD852A48306ADDD47677441DE6C8
:10197000AD76EA63949EFF2A7689D6A5EB333B6366
:101980004F156B923DA8E1C904D4AB92304A0217BF
:101990000302507F221CA1CA7E16AFC3EC2D7592A4
:1019A00061157AD86021C9516E8C3AE18AF60E969B
:1019B000BAB411CB50872A5C0C75F7B96FB5267B8A
:1019C00092E8A0B284F89314D54177C1D9541AB9DA
:1019D000B5378F94088818E9A4222AF98C002E9034
:1019E0005403108E6BE208995A91D11D3EB4C44C39
:1019F000C8D216544A4E756E425FEC82172DF631EE
:101A000005313EC36206B668005D718698AA4B65D3
:101A100001866296DCB19224FB211B4B7AE632648C
:101A20004EE92A6E04494796591A7DCCED994770C4
:101A3000A01DA1D380158202338EE11D6B6A360092
:101A40000362C8913A99263073131064DE880780C8
:101A5000B14CE48A470E625A898C2B7C484444631B
:101A600021DFD1C63F37999D75B8F54841F00A6826
:101A7000803091645471FF23255CAE9D3B0BE3BB2A
:101A80004C350455CE110E66BB030F8664ADDDC523
:101A9000B13A1335D53C66F8D1AE18AB585B394432
:101AA0007CBCE627860254A55B98A120077994B7F1
:101AB000B493183662214A6B52503385A414119A9C
:101AC000A724667512EF0CAA4D2B5A6141FFD40D65
:101AD0004342B3204F229BE9D0A320A80234A56043
:101AE00025632703914579027321DFA3862A1DFA16
:101AF00055B14AC614810C8D5CFF10021BFD444F8A
:101B0000550DAB5AB6988B8C582C04DA88C01A61E4
:101B1000111685AC68ACB39489F2A01258A41222B5
:101B2000582DC02BB3C42AD9C4CEF1A52B39067ABF
:101B30000473BBBD4A961B62010146B670144595FD
:101B4000691B5DB2D627221BA15BEDF51C8ABD88FF
:101B50002C6B51D6131CE724A0E98E8964E9D0CB05
:101B6000E2E5B6587562637BE196FE8DCDB51FFD4B
:101B70006DB2BAE5C4DA5BE6461D88E85F0879EB2A
:101B8000155F22E6B82B13453541F8969EC290B1F9
:101B9000CAA34B4B032B50634041109AB988754937
:101BA0006BC6C69A964CE8156F5F6F75D6F6BA7716
:101BB000A9A0026F47EBA9D4FB9E9689060BB073D0
:101BC000FD6B94F3F697C08DDDA97D114C5EE42189
:101BD0003801003B25454E44485454502F312E3097
:101BE0002032303020446F63756D656E7420666FEF
:101BF0006C6C6F77730D0A5365727665723A20418B
:101C000056525F536D616C6C5F5765627365727697
:101C100065720D0A436F6E74656E742D547970652C
:101C20003A20746578742F706C61696E0D0A0D0A24
:101C300000485454502F312E302032303020446F21
:101C400063756D656E7420666F6C6C6F77730D0ACB
:101C50005365727665723A204156525F536D616CDE
:101C60006C5F5765627365727665720D0A436F6EBD
:101C700074656E742D547970653A20746578742F8C
:101C800068746D6C0D0A0D0A00485454502F312EA3
:101C9000302034303120556E617574686F72697A06
:101CA00065640D0A5365727665723A204156525F3B
:101CB000536D616C6C5F5765627365727665720D0A
:101CC0000A5757572D41757468656E74696361745E
:101CD000653A204261736963207265616C6D3D22D3
:101CE0004E65656450617373776F7264220D0A43A9
:101CF0006F6E74656E742D547970653A20746578D2
:101D0000742F68746D6C0D0A0D0A00485454502FDE
:101D1000312E302032303020446F63756D656E7423
:101D200020666F6C6C6F77730D0A536572766572FF
:101D30003A204156525F536D616C6C5F5765627318
:101D400065727665720D0A436F6E74656E742D54FC
:101D50007970653A20696D6167652F6A7065670DF6
:101D60000A0D0A00485454502F312E3020323030A2
:101D700020446F63756D656E7420666F6C6C6F7751
:101D8000730D0A5365727665723A204156525F535D
:101D90006D616C6C5F5765627365727665720D0A72
:101DA00043616368652D436F6E74726F6C3A206D8A
:101DB00061782D6167653D36303030303030436FAB
:101DC0006E74656E742D547970653A20696D616723
:101DD000652F6769660D0A0D0A00485454502F316B
:101DE0002E302032303020446F63756D656E742064
:101DF000666F6C6C6F77730D0A5365727665723A15
:101E0000204156525F536D616C6C5F57656273651C
:101E1000727665720D0A43616368652D436F6E7457
:101E2000726F6C3A206D61782D6167653D36303098
:101E300030303030436F6E74656E742D5479706538
:101E40003A20746578742F6373730D0A0D0A003499
:101E5000303120556E617574686F72697A656425DA
:101E6000454E44006C65646F66662E676966006C5B
:101E700065646F6E2E676966000000636865636B5A
:101E800065640025732C20257300504F5354004780
:101E9000657420504F4E473A2025692E25692E251E
:101EA000692E25690D0A004552524F520D0A0D0A3E
:101EB0000052656164790D0A0D0A000D0A004E5446
:101EC00050204572722E0D0A0047572020202531E0
:101ED000692E2531692E2531692E2531690D0A00BB
:101EE0004D41534B202531692E2531692E2531690D
:101EF0002E2531690D0A000D0A4950202020253178
:101F0000692E2531692E2531692E2531690D0A008A
:101F1000436F6D70696C69657274206D69742047D8
:101F200043432056657273696F6E20342E332E330F
:101F30000D0A00436F6D70696C6965727420616D84
:101F4000204E6F76202033203230313020756D20C6
:101F500031323A31323A33300D0A000A0D53797377
:101F600074656D2052656164790A0D00D9000AFA22
:101F7000000000000001040000000000000000005C
:101F80000000000000000000000000000000000051
:101F900000000000C7D6AC7208000000536F004D6F
:101FA0006F004469004D6900446F00467200536140
:101FB000002532753A253032753A253032750020C9
:101FC00025752E253032752E253034750025732C5D
:101FD0002025730053746172742054656C6E6574AF
:101FE000205365727665723A0D0A002A2A204C4306
:101FF000442044415441204745542042797465733C
:102000003A202569202A2A0D0A000400051A06FF35
:10201000071F080009000AFF0B19C100C00DC233D9
:10202000CAEECB05C415C612E400E520E218E3B100
:10203000E015E16F7500FFFF000100140742FFFF8C
:1020400011241FBECFEFD8E0DEBFCDBF12E0A0E06D
:10205000B1E0E8E1F1E702C005900D92AE36B107BC
:10206000D9F718E0AEE6B2E001C01D92A63EB10776
:10207000E1F70E94A21D0C948A380C940000CF93C3
:10208000DF93EC01DB0134C086958695FD018193D9
:10209000888183708295807F11968C9311979981A6
:1020A000992321F4DF01119642E026C092959F709A
:1020B000890F11968C93119789818F70880F880FE3
:1020C00012968C9312979A81992319F4139641E0F2
:1020D00013C09295969596959370890F12968C934E
:1020E00012978A818F7313968C9313971496239665
:1020F0008881882349F640E01C92EB0108C0E88102
:10210000F0E0EF73F070E458FF4FE491E993CA17E1
:10211000DB07A9F7FD01842F9DE302C09193815055
:102120008823E1F7A40FB11D1C92DF91CF91089590
:10213000E0E0F0E00994089508958EE190E040EC2D
:1021400058EA60E073E60E948D2C6093D10870938A
:10215000D2088093D3089093D40882E290E04FEFA6
:102160005FEF6FEF70E00E948D2C6093D908709341
:10217000DA088093DB089093DC0886E290E040EC7C
:1021800058EA60E071E00E948D2C6093D50870934E
:10219000D6088093D7089093D8080895CF93DF93FB
:1021A000CEE1D0E0F999FECFFE01ED54F74FCE011C
:1021B00060810E9475372196C232D10599F7C2E23B
:1021C000D0E0F999FECFFE01E954F74FCE016081CE
:1021D0000E9475372196C632D10599F7C6E2D0E044
:1021E000F999FECFFE01E155F74FCE0160810E94C3
:1021F00075372196CA32D10599F7DF91CF910895AD
:102200000F931F93CF93DF938C01809119039091CB
:102210001A03892BA1F0C0E0D0E0F999FECFFE01AE
:10222000EE0FFF1FE75EFC4F60817181CE01800FD2
:10223000911F0E9475372196C430D10571F7DF9147
:10224000CF911F910F910895EF92FF921F93CF931B
:10225000DF93CEEBD0E092E5E92E92E0F92EFE017D
:102260002196149100D000D0EDB7FEB73196ADB7EE
:10227000BEB71296FC92EE921197128313820E94BF
:10228000C12F0F900F900F900F90112341F7DF9106
:10229000CF911F91FF90EF9008958F929F92AF92F0
:1022A000BF92CF92DF92EF92FF920F931F936091B4
:1022B000B5037091B6038091B7039091B803C090B5
:1022C000B503D090B603E090B703F090B8038090C8
:1022D000B5039090B603A090B703B090B8032DB7A4
:1022E0003EB7285030400FB6F8943EBF0FBE2DBF0A
:1022F0000DB71EB70F5F1F4F25E532E0EDB7FEB7F4
:102300003283218320E13EE040E050E00E94003330
:10231000CA01B90128E130E040E050E00E940033FA
:10232000F80162831382C701B6012CE330E040E07C
:1023300050E00E940033CA01B9012CE330E040E0D4
:1023400050E00E940033F80164831582C501B40196
:102350002CE330E040E050E00E940033F801668357
:1023600017820E94C12F2DB73EB7285F3F4F0FB68F
:10237000F8943EBF0FBE2DBF1F910F91FF90EF90BD
:10238000DF90CF90BF90AF909F908F900895CF93A4
:10239000DF93E0911903F0911A0380911B03909150
:1023A0001C03AEE4B2E0EE0FFF1FEA0FFB1F9183A8
:1023B00080834091190350911A03209119033091A1
:1023C0001A0300D000D000D0EDB7FEB731968BE6EF
:1023D00092E0CDB7DEB79A83898353834283220F7D
:1023E000331FA20FB31F8D919C91958384830E940C
:1023F000C12F8DB79EB706960FB6F8949EBF0FBE3D
:102400008DBFDF91CF9108952F923F924F925F92AF
:102410006F927F928F929F92AF92BF92CF92DF92F4
:10242000EF92FF920F931F93CF93DF93C0E0D0E022
:10243000F6E12F2E312CE3EB4E2EE2E05E2E7EEA0B
:10244000672E72E0772E69EA862E62E0962E54EAB5
:10245000A52E52E0B52E49E9C42E42E0D42E3CE828
:10246000E32E32E0F32E00D000D0ECEBF2E0ADB77B
:10247000BEB71296FC93EE9311971496DC93CE930D
:1024800013970E94C12FC29D8001C39D100DD29D44
:10249000100D1124025D1C4FF80180819181A281F1
:1024A000B38100D0EDB7FEB7528241829070A07028
:1024B000B07083839483A583B6830E94C12FF801F3
:1024C00080819181A281B381EDB7FEB77282618272
:1024D000892F90E0A0E0B0E083839483A583B68346
:1024E0000E94C12FF80180819181A281B381EDB753
:1024F000FEB7928281828A2F90E0A0E0B0E08383D1
:102500009483A583B6830E94C12FF80180819181B5
:10251000A281B381EDB7FEB7B282A1828B2F99273A
:10252000AA27BB2783839483A583B6830E94C12FE8
:10253000D80114962D913C91159714968D919C91EC
:1025400015970F900F90EDB7FEB7D282C182892FF9
:102550009927322F2227822B932B948383830E94E7
:10256000C12FD80153968C91EDB7FEB73196ADB718
:10257000BEB71296FC92EE921197828313820E944C
:10258000C12F21960F900F900F900F90C530D1055D
:1025900009F069CFDF91CF911F910F91FF90EF90DC
:1025A000DF90CF90BF90AF909F908F907F906F9073
:1025B0005F904F903F902F9008952F923F924F92AF
:1025C0005F926F927F928F929F92AF92BF92CF92C3
:1025D000DF92EF92FF920F931F93CF93DF93C0E0B0
:1025E000D0E0A5EE2A2EA2E03A2EFCED4F2EF2E02E
:1025F0005F2EE7ED6E2EE2E07E2E72ED872E72E00A
:10260000972E6DECA62E62E0B62E50ECC52E52E051
:10261000D52E8E01000F111F0C0F1D1F000F111F53
:10262000000F111F2CEDE22E22E0F22EE00EF11E23
:10263000D7018C9100D000D000D0EDB7FEB7319615
:102640002EEF32E0ADB7BEB712963C932E931197A2
:10265000D383C283848315820E94C12FD701119630
:102660008C910F900F90EDB7FEB7319629EF32E0C5
:10267000ADB7BEB712963C932E9311978283138207
:102680000E94C12FF801E252FD4F8081EDB7FEB7E5
:10269000319624EF32E0ADB7BEB712963C932E933D
:1026A0001197828313820E94C12FD70113968C91B8
:1026B000EDB7FEB731962FEE32E0ADB7BEB712964A
:1026C0003C932E931197828313820E94C12F005254
:1026D0001D4FD8018C91EDB7FEB731962AEE32E04E
:1026E000ADB7BEB712963C932E9311978283138297
:1026F0000E94C12FD70115968C91EDB7FEB7319688
:10270000ADB7BEB712963C922E9211978283138278
:102710000E94C12FF70186819781A085B18500D0E5
:10272000EDB7FEB7528241829070A070B070838383
:102730009483A583B6830E94C12FF7018681978178
:10274000A085B185EDB7FEB772826182892F90E0D6
:10275000A0E0B0E083839483A583B6830E94C12F59
:10276000F70186819781A085B185EDB7FEB792828A
:1027700081828A2F90E0A0E0B0E083839483A583D8
:10278000B6830E94C12FF70186819781A085B1850C
:10279000EDB7FEB7B282A1828B2F9927AA27BB275C
:1027A00083839483A583B6830E94C12FD7011A9691
:1027B0008D919C911B970F900F90EDB7FEB7D28231
:1027C000C182948383830E94C12F21960F900F9022
:1027D0000F900F90C530D10509F01BCFDF91CF913D
:1027E0001F910F91FF90EF90DF90CF90BF90AF902F
:1027F0009F908F907F906F905F904F903F902F9021
:10280000089500D000D0EDB7FEB731968BE093E08D
:10281000ADB7BEB712969C938E9311978091A1028B
:10282000828313820E94C12F0F900F900F900F9000
:1028300008958DB79EB70E970FB6F8949EBF0FBE42
:102840008DBFEDB7FEB7319683E293E0ADB7BEB76B
:1028500012969C938E9311978091DE088283138247
:102860008091DF08848315828091E0088683178237
:102870008091E108808711868091E2088287138623
:102880008091E308848715860E94C12F8DB79EB77B
:102890000E960FB6F8949EBF0FBE8DBF089586E2C8
:1028A00090E00E94001186E290E040EC58EA60E07F
:1028B00071E00E948D2C6093D5087093D6088093A8
:1028C000D7089093D8088DB79EB70A970FB6F8949B
:1028D0009EBF0FBE8DBFEDB7FEB7319685E493E086
:1028E000ADB7BEB712969C938E9311978091D50881
:1028F000828313828091D608848315828091D708C1
:10290000868317828091D808808711860E94C12F04
:102910008DB79EB70A960FB6F8949EBF0FBE8DBFB7
:10292000089582E290E00E94001182E290E04FEF71
:102930005FEF6FEF70E00E948D2C6093D908709369
:10294000DA088093DB089093DC088DB79EB70A976E
:102950000FB6F8949EBF0FBE8DBFEDB7FEB7319690
:1029600082E693E0ADB7BEB712969C938E93119713
:102970008091D908828313828091DA08848315823A
:102980008091DB08868317828091DC08808711861E
:102990000E94C12F8DB79EB70A960FB6F8949EBFBE
:1029A0000FBE8DBF089582E390E00E94001182E384
:1029B00090E04DE455E266E07BE30E948D2C60934D
:1029C000D8027093D9028093DA029093DB028DB71C
:1029D0009EB70A970FB6F8949EBF0FBE8DBFEDB796
:1029E000FEB731968DE793E0ADB7BEB712969C93D4
:1029F0008E9311978091D802828313828091D9029D
:102A0000848315828091DA02868317828091DB02AB
:102A1000808711860E94C12F8DB79EB70A960FB688
:102A2000F8949EBF0FBE8DBF08958EE190E00E9486
:102A300000118EE190E040EC58EA60E073E60E94FD
:102A40008D2C6093D1087093D2088093D308909313
:102A5000D4088DB79EB70A970FB6F8949EBF0FBEE5
:102A60008DBFEDB7FEB731968BE993E0ADB7BEB73A
:102A700012969C938E9311978091D1088283138232
:102A80008091D208848315828091D308868317822F
:102A90008091D408808711860E94C12F8DB79EB780
:102AA0000A960FB6F8949EBF0FBE8DBF0895AF92E1
:102AB000BF92CF92DF92EF92FF920F931F9380917C
:102AC000190390911A03892B09F44AC0A0901903A5
:102AD000B0901A0360911B0370911C0320911D0399
:102AE00030911E03E0901F03F090200380E090E0FF
:102AF000982F872F762F662740E050E0A9013327D3
:102B00002227620F731F841F951FCC24DD246A0DBA
:102B10007B1D8C1D9D1D00E010E01E2D0027FF2455
:102B2000EE246E0D7F1D801F911F6093C908709366
:102B3000CA088093CB089093CC080E949C2B60918C
:102B4000C9087091CA088091CB089091CC0848E0E0
:102B500020E001E010E0B1E0EB2EF12C0E94CD2945
:102B60001F910F91FF90EF90DF90CF90BF90AF90AB
:102B700008950E94FD200895CF92DF92EF92FF9278
:102B80000F931F93DF93CF9300D0CDB7DEB79A8317
:102B90008983CE01019660E071E00E942B356C01C3
:102BA00010E00FC01F5FE12FF0E0EE0FFF1FEE0FF0
:102BB000FF1FE95BFE4F80819181892B11F480E03A
:102BC0003AC0E12EFF24F701EE0FFF1FEE0FFF1FAB
:102BD000E95BFE4F80819181B6010E94B134892B5F
:102BE00009F700E010E06E010894C11CD11CC60179
:102BF00062E071E00E942B3560E070E040E050E060
:102C00000E942233F801EE0FFF1FE75EFC4F718335
:102C100060830F5F1F4F0A30110549F7EE0CFF1C50
:102C2000EE0CFF1C89E491E0E80EF91ED701ED914E
:102C3000FC91099581E00F900F90CF91DF911F914A
:102C40000F91FF90EF90DF90CF900895DF92EF9279
:102C5000FF920F931F93CF93DF9380916E02909119
:102C60006F02029778F080916E0290916F02449704
:102C700048F480916E0290916F02019690936F02DA
:102C800080936E0280916E0290916F02892B09F001
:102C900092C000D089EB94E0EDB7FEB792838183B8
:102CA0000E94C12F0F900F9082E399E06FE177E1CE
:102CB0000E94E12161ED72EA8AEB9CE30E949C2B69
:102CC000882309F472C080E090E0A0E0B0E000004A
:102CD0000196A11DB11D8038F4E89F07FEE1AF0702
:102CE000F0E0BF07A1F761ED72EA8AEB9CE340E0F8
:102CF00050E529E032E30E94A52685E0E82EF12C7C
:102D0000012D112DDD24C6E1D0E022C061ED72EA73
:102D10008AEB9CE340E050E50E9432252FE1D21679
:102D200061F400D08DE894E0EDB7FEB79283818323
:102D30000E94C12F0F900F907AC0E82EFF2400E070
:102D400010E0F5E0EF16F1040105110570F0D394E1
:102D5000EC9EF001ED9EF00DFC9EF00D1124E25D65
:102D6000FC4F81899289019789F600D087E694E02B
:102D7000EDB7FEB7928381830E94C12F86E190E078
:102D8000E89EF001E99EF00DF89EF00D1124ED5B38
:102D9000FC4F80818160808382E090E090936F029D
:102DA00080936E020F900F9006C081E090E09093A8
:102DB0006F0280936E0280916E0290916F020B976A
:102DC000B0F180916E0290916F02449780F500D02F
:102DD0008FE494E0EDB7FEB7928381830E94C12F08
:102DE0000F900F9061ED72EA8AEB9CE340E050E5B2
:102DF0000E943225D82EE82EFF248EE494E064EB66
:102E000073E04AE950E00E94773486E190E0E89E62
:102E1000F001E99EF00DF89EF00D1124E25DFC4FEB
:102E200088E1808B8AE990E06D2D0E94E525DF9195
:102E3000CF911F910F91FF90EF90DF900895BF9277
:102E4000CF92DF92EF92FF920F931F93CF93DF9376
:102E5000B82E80914604C82FD0E0C07FD070D595A1
:102E6000C795D595C795A29668E1E62E64E0F62E43
:102E7000EC0EFD1E57ECC52E54E0D52E17C000D029
:102E800000D0EDB7FEB73196ADB7BEB71296DC9263
:102E9000CE921197D7018D917D01828313820E947A
:102EA000C12F21960F900F900F900F902091290421
:102EB00030E02E5D3F4F1091280400E0200F311FBD
:102EC0008091460490E0807F9070959587959595C8
:102ED0008795281B390BC217D3078CF22B2D30E0B6
:102EE00086E190E0289FF001299FF00D389FF00DBA
:102EF0001124E25DFC4F8FEF838B80E1808B80E0BB
:102F000090E06B2D0E94E525DF91CF911F910F91ED
:102F1000FF90EF90DF90CF90BF90089590E02DE06C
:102F200030E0A901849F9001859F300D949F300D62
:102F30001124EFEDF3E0DF01A20FB31F8C91807E2F
:102F400082608C933897E20FF31F138212821182F2
:102F500010828C918F7D8C9389EB93E09583848391
:102F60008CE292E09287818781E392E09487838765
:102F700082E692E09783868308952F923F924F9244
:102F80005F926F927F928F929F92AF92BF92CF92F9
:102F9000DF92EF92FF920F931F93DF93CF93CDB702
:102FA000DEB7A9970FB6F894DEBF0FBECDBF382E9F
:102FB000482E55248DE090E0489E9001499E300DAA
:102FC000589E300D1124F901E152FC4F808180FDA3
:102FD00007C0F901E952FC4F8FE49EE1938382839D
:102FE00086E190E0489EF001499EF00D589EF00D5C
:102FF0001124E25DFC4F8089882379F48DE090E014
:10300000489EF001499EF00D589EF00D1124E952A2
:10301000FC4F80819181938382838DE090E0489E74
:10302000F001499EF00D589EF00D1124E952FC4F1D
:103030008281938191838083EE24FF2442E0C42E19
:10304000D12CCE0EDF1E4E010894811C911C31E064
:10305000632E712C2AE0222ED6010D911C9111971E
:10306000B8016F5F7F4F6D937C93F80184919EE46C
:10307000A92E94E0B92EAE0CBF1CD5018C938532DD
:1030800009F085C187E891E043E050E00E94873471
:10309000892B89F50C5F1F4FF80184910F5F1F4F3B
:1030A000F80124912051829DC0011124280FE22FA4
:1030B000F0E0EE0FFF1FE25BFD4F80819181B401D4
:1030C0004AE050E00E944335C4016AE070E00E948B
:1030D0002035082F10E0C501B401A8010E949F34DB
:1030E00001501040E00EF11ED6018D919C91119778
:1030F00005968D939C93F601608171818BE891E038
:1031000044E050E00E948734892B09F061C080912F
:10311000B403823039F480E991E065E971E00E94FE
:1031200019353BC06091B5037091B6038091B70328
:103130009091B803AE01455F5F4F0E94FF1E4DB7EF
:103140005EB7485050400FB6F8945EBF0FBE4DBFFB
:10315000EDB7FEB7319646E352E0ADB7BEB7129673
:103160005C934E93119783E89EE193838283A3E15E
:10317000B0E0AC0FBD1FB583A48341E250E04C0F1B
:103180005D1F578346830E946C358DB79EB70896A6
:103190000FB6F8949EBF0FBE8DBF86E392E068E144
:1031A00070E00E942035082F10E0C701825B9B4F22
:1031B00066E372E0A8010E949F3401501040E00EC7
:1031C000F11ED6018D919C91119704968D939C933D
:1031D000F6010081118187E991E0B80144E050E0F7
:1031E0000E948734892B09F055C00B5F1F4FF801EF
:1031F0008491805301501040F8016491623461F071
:10320000633418F4613441F505C0633471F06434FB
:1032100019F514C022B113C025B1D30102C0AA0F01
:10322000BB1F8A95E2F7CD0111C028B1F30102C09E
:10323000EE0FFF1F8A95E2F7CF0108C02BB1A30163
:1032400002C0440F551F8A95E2F7CA01282321F0D6
:10325000C4016BE77EE103C0C40169E77EE10E941F
:103260008034C4016AE070E00E942035082F10E02D
:10327000C701825B9B4FB401A8010E949F3401509B
:103280001040E00EF11ED6018D919C91119706968B
:103290008D939C93F601008111818CE991E0B80136
:1032A00043E050E00E948734892B09F055C00C5F41
:1032B0001F4FF8018491805301501040F801649130
:1032C000623461F0633418F4613441F505C063344D
:1032D00071F0643419F514C020B113C023B1D301C7
:1032E00002C0AA0FBB1F8A95E2F7CD0111C026B11B
:1032F000F30102C0EE0FFF1F8A95E2F7CF0108C06D
:1033000029B1A30102C0440F551F8A95E2F7CA01F3
:10331000282321F0C4016FE67EE103C0C40164E606
:103320007EE10E948034C4016AE070E00E94203592
:10333000082F10E0C701825B9B4FB401A8010E94D7
:103340009F3401501040E00EF11ED6018D919C91EA
:10335000119705968D939C93F6016081718180EAA7
:1033600091E043E050E00E948734892B81F486E1AC
:1033700090E0489EF001499EF00D589EF00D1124FA
:10338000E25DFC4F8DEF9FEF928B818B09C008941B
:10339000E11CF11CF4EEEF16F3E0FF0608F45CCE3E
:1033A00086E190E0489EF001499EF00D589EF00D98
:1033B0001124E25DFC4F88E1808BC701632D0E94E0
:1033C000E525A9960FB6F894DEBF0FBECDBFCF910D
:1033D000DF911F910F91FF90EF90DF90CF90BF9002
:1033E000AF909F908F907F906F905F904F903F90A5
:1033F0002F9008954F925F926F927F929F92AF921B
:10340000BF92CF92DF92EF92FF920F931F93CF93D1
:10341000DF93982E80914604082F10E0007F1070F3
:103420001595079515950795C801865C9B4F6AE829
:103430007EE10E94E934892B81F0292D30E08DE076
:1034400090E0289FF001299FF00D389FF00D112486
:10345000E152FC4F808180628083C92CDD248DE0A5
:1034600090E0C89EA001C99E500DD89E500D112419
:10347000DA01A952BC4F36E0A32EB12CAA0EBB1E16
:103480001696ED91FC9117978081882309F45BC013
:1034900022E2E22EF12CE00EF11E80912904282F69
:1034A00030E02E5D3F4F9091280480E0280F391FB7
:1034B000201B310BB701685E7B4FEA01C152DC4F24
:1034C000149699EB692E93E0792EA50182E6A82E39
:1034D00082E0B82E35C0888180FD17C0FB01808155
:1034E000ED91FC91119791911196FC93EE938917B0
:1034F00019F011967C926E92ED91FC91119780815A
:10350000882319F4888181608883FB018081FA0116
:1035100040805180F20191912F01FA015182408245
:10352000891711F0B182A0826F5F7F4FFA0180810D
:103530009181FC018081882331F00894E11CF11C09
:10354000E216F30640F28DE090E0C89EB001C99EFD
:10355000700DD89E700D1124FB01E152FC4FE081EB
:10356000E0FF76C0E5FF74C0F2E2EF2EF12CE00E32
:10357000F11E80912904282F30E02E5D3F4F90915D
:10358000280480E0280F391F201B310BA701485E5B
:103590005B4FCB0189529C4FDC011996ECE2AE2EB9
:1035A000E2E0BE2EEC012B9681E3682E82E0782EBD
:1035B0004BC0FA019081ED91FC9111978191119688
:1035C000FC93EE93981719F01196BC92AE92ED9180
:1035D000FC91119780818823C1F4FA0181818234A2
:1035E00041F0833451F0813469F4809170028F5F2F
:1035F00007C0809170028E5F03C0809170028C5F63
:10360000809370021196BC92AE92E881F98181910B
:10361000F983E883981711F0798268824F5F5F4FD2
:10362000E881F9818081882361F4FB01E152FC4F3C
:1036300080818F7D80838091700282B910927002A8
:1036400007C00894E11CF11CE216F30608F4B1CFA0
:103650008DE090E0C89EF001C99EF00DD89EF00D5F
:103660001124E952FC4F82819381892B09F0CFC04C
:10367000F801B79680912904282F30E02E5D3F4F46
:103680009091280480E0280F391F201B310BDF01A7
:10369000A85EBB4F08C08D918D3021F4E85EFB4FD2
:1036A000108204C03196E217F307A8F38DE090E092
:1036B000C89EF001C99EF00DD89EF00D1124E9526C
:1036C000FC4F1382128280914604C82FD0E0C07F45
:1036D000D070D595C795D595C795C65CDB4FFF24AF
:1036E00087C0CE01B8010E94C434892B09F47FC081
:1036F000C80164EA71E00E94C434892B79F08DE03E
:1037000090E0C89EF001C99EF00DD89EF00D1124E6
:10371000E152FC4F8081817F88604FC0C80169EA17
:1037200071E00E94C434892B79F08DE090E0C89E4E
:10373000F001C99EF00DD89EF00D1124E152FC4F0E
:103740008081817F8A6039C0C8016EEA71E00E9481
:10375000C434892B79F08DE090E0C89EF001C99EB9
:10376000F00DD89EF00D1124E152FC4F8081817F35
:10377000826023C0C80163EB71E00E94C434892BCE
:1037800079F08DE090E0C89EF001C99EF00DD89EC2
:10379000F00D1124E152FC4F8081817F86600DC0C5
:1037A0008DE090E0C89EF001C99EF00DD89EF00D0E
:1037B0001124E152FC4F8081817F80838DE090E075
:1037C000C89EF001C99EF00DD89EF00D1124E9525B
:1037D000FC4FAA0CBB1CAA0CBB1C8EE092E0A80EEE
:1037E000B91ED5018D919C919383828310C0F3946F
:1037F000AF2CBB24F501EE0FFF1FEE0FFF1FE45FA0
:10380000FD4F008111810115110509F06ACF8DE08E
:1038100090E0C89E9001C99E300DD89E300D1124B5
:10382000D901A952BC4F1696ED91FC911797808152
:10383000882331F4F901E152FC4FE081E5FF1BC020
:1038400086E190E0C89E8001C99E100DD89E100DA3
:103850001124025D1C4F80E1F801808B80E090E034
:10386000692D0E94E52581E090E0D80152969C9355
:103870008E935197F4C0E0FD31C086E190E0C89E80
:10388000E001C99ED00DD89ED00D1124C25DDC4F41
:10389000888983FF23C08FE49EE113969C938E93C7
:1038A00012978091460490E0807F9070959587955F
:1038B00095958795865C9B4F69E87CE141E850E0EF
:1038C0000E94773488E1888B81E890E0692D0E941E
:1038D000E52582E090E09A8B898BC1C08DE090E075
:1038E000C89EF001C99EF00DD89EF00D1124DF0195
:1038F000A952BC4F12968D919C911397892BA9F4D4
:103900008091600290916102019690936102809390
:1039100060028AEC94E013969C938E931297E15286
:10392000FC4F8081817F8260808386E190E0C89E29
:10393000E001C99ED00DD89ED00D1124C25DDC4F90
:1039400082E090E09A8B898B8DE090E0C89EF00138
:10395000C99EF00DD89EF00D1124E152FC4F8081DC
:103960008695877090E08330910509F460C08430BB
:10397000910534F4009759F0019709F070C015C013
:103980008430910541F1059709F069C03AC08091F2
:10399000460490E0807F90709595879595958795E2
:1039A000865C9B4F68ED7BE123C08091460490E0EC
:1039B000807F90709595879595958795865C9B4FB0
:1039C00061E37CE147E550E00E94773488E1888B31
:1039D00087E590E041C08091460490E0807F907040
:1039E0009595879595958795865C9B4F6BE07DE1D6
:1039F00048E550E00E94773488E1888B88E590E0C4
:103A00002BC08091460490E0807F907095958795BB
:103A100095958795865C9B4F64E67DE145E750E090
:103A20000E94773488E1888B85E790E015C080910B
:103A3000460490E0807F9070959587959595879541
:103A4000865C9B4F6AED7DE144E750E00E9477344D
:103A500088E1888B84E790E0692D0E94E525DF915D
:103A6000CF911F910F91FF90EF90DF90CF90BF907B
:103A7000AF909F907F906F905F904F9008951F93AD
:103A8000CF93DF93182FC82FD0E086E190E0C89F36
:103A9000F001C99FF00DD89FF00D1124E25DFC4F9D
:103AA000808980FD3EC081899289019719F4812F18
:103AB0000E948E1786E190E0C89FF001C99FF00D2B
:103AC000D89FF00D1124E25DFC4F81899289039704
:103AD00020F4812F0E94FA1924C0818992890397CA
:103AE00048F0818992898E5F9F4F20F4812F0E9438
:103AF000BD1717C086E190E0C89FF001C99FF00D87
:103B0000D89FF00D1124E25DFC4F818992898E5F70
:103B10009F4F38F08EEF9FEF928B818B812F0E9409
:103B20001027DF91CF911F91089588EB91E069EB09
:103B300073E00E943F1080E590E06FE37DE10E941A
:103B4000E1210895AF92BF92CF92DF92EF92FF9260
:103B50000F931F93CF93DF9387E081B986E087B9F6
:103B60001AB860E875E280E090E00E94FC2E00D078
:103B70008BE59FE1ADB7BEB712969C938E931197DC
:103B80000E94C12F83E39FE1EDB7FEB7928381834B
:103B90000E94C12F80E19FE1ADB7BEB712969C9302
:103BA0008E9311970E94C12F80E090E0A0E0B0E0DA
:103BB0000F900F9000000196A11DB11D8034E2E42A
:103BC0009E07EFE0AE07E0E0BE07A1F70E94DF2C02
:103BD000EA9A78948DB79EB70A970FB6F8949EBF6D
:103BE0000FBE8DBFEDB7FEB7319687EF9EE1ADB743
:103BF000BEB712969C938E9311978091D1088283C1
:103C000013828091D208848315828091D3088683A1
:103C100017828091D408808711860E94C12FEDB74A
:103C2000FEB7319680EE9EE1ADB7BEB712969C937B
:103C30008E9311978091D908828313828091DA083C
:103C4000848315828091DB08868317828091DC084B
:103C5000808711860E94C12FEDB7FEB7319689EC9F
:103C60009EE1ADB7BEB712969C938E93119780914B
:103C7000D508828313828091D6088483158280912F
:103C8000D708868317828091D808808711860E9482
:103C9000C12FEDB7FEB73A960FB6F894FEBF0FBE30
:103CA000EDBF0E94522180E090E0A0E0B0E0000073
:103CB0000196A11DB11D8034F2E49F07FFE0AF071C
:103CC000F0E0BF07A1F70E94FD200E943221882367
:103CD00071F000D08EEB9EE1ADB7BEB712969C930B
:103CE0008E9311970E94C12F0F900F9002C00E94D7
:103CF0004D112BEBA22E2EE1B22E97EAC92E9EE19A
:103D0000D92E81EBE82E8EE1F82E04E714E0CFE8FF
:103D1000DEE10E94732B8091A50280FF25C000D0B8
:103D2000EDB7FEB7B282A1820E94C12F0F900F9013
:103D300086EA92E00E94BC15882341F000D0ADB71E
:103D4000BEB71296FC92EE92119705C000D0EDB767
:103D5000FEB7D282C1820E94C12F0F900F90809136
:103D6000A5028E7F8093A5028091670290916802E0
:103D7000892B31F410936802009367020E94FD20A2
:103D80008091CE08882329F28DB79EB70A970FB687
:103D9000F8949EBF0FBE8DBFEDB7FEB73196ADB79D
:103DA000BEB71296DC93CE9311978091C908828397
:103DB00013828091CA08848315828091CB08868300
:103DC00017828091CC08808711860E94C12F1092A3
:103DD000CE08EDB7FEB73A960FB6F894FEBF0FBE09
:103DE000EDBF97CF613011F4845E0895673008F01D
:103DF000615060FD02C08FE108958EE10895AF9299
:103E0000BF92CF92DF92EF92FF920F931F93CF93C7
:103E1000DF937B018C01EA0182EB97E09F838E8325
:103E200080E891E8A5E5BCE7E80EF91E0A1F1B1F14
:103E3000C801B70120E831E541E050E00E940033BD
:103E4000D62EC72EB82EA92EC801B70120E831E51D
:103E500041E050E00E94003389016D2D7C2D8B2DB7
:103E60009A2D2CE330E040E050E00E94003368835C
:103E70006D2D7C2D8B2D9A2D20E13EE040E050E011
:103E80000E9400332CE330E040E050E00E94003319
:103E900029836D2D7C2D8B2D9A2D20E13EE040E075
:103EA00050E00E9400332A83C801049667E070E066
:103EB0000E94EC328C8322EB37E019C0EF2B89F49F
:103EC000C90164E670E00E94EC32892B39F4C90123
:103ED00060E971E00E94EC32892B19F48EE691E0E2
:103EE00002C08DE691E0081B190B2F5F3F4FF901CF
:103EF000E370F070309789F4C90164E670E00E94C5
:103F0000EC32892B39F4C90160E971E00E94EC328E
:103F1000892B19F48EE691E002C08DE691E0081736
:103F2000190760F63F832E831D8222C0AB2819F04B
:103F300080E090E016C0C60164E670E00E94EC32BA
:103F4000892B19F081E090E00CC020E030E0C60140
:103F500060E971E00E94EC32892B11F421E030E03D
:103F6000C9016E2D0E94F21E081B1109E394ED8217
:103F7000CE80DF8083E0A82EB12CAC20BD20A11420
:103F8000B10419F080E090E016C0C60164E670E06C
:103F90000E94EC32892B19F081E090E00CC020E007
:103FA00030E0C60160E971E00E94EC32892B11F427
:103FB00021E030E0C901ED806E2D0E94F21E90E0FC
:103FC0000817190708F0B2CF6E2D6F5F6D83802F31
:103FD0008F5F8B832C8190E0821B9109499744F07D
:103FE000222319F48A81823018F06A3019F43EC015
:103FF0006330E1F163506830C8F58A818F5F8A834E
:104000008831A1F51A828C818F5F8C83873009F407
:104010001C821B812E813F81C90183709070892B86
:1040200019F080E090E016C0C90164E670E00E94DB
:10403000EC32892B19F081E090E00CC0E0E0F0E078
:10404000C90160E971E00E94EC32892B11F4E1E0D2
:10405000F0E0CF016D810E94F21E181721F41B823F
:104060008D818F5F8D838B818F5F8B836C8183E0EC
:10407000689FB00111246456704ECE0108960E94CC
:104080008034ADB7BEB71A970FB6F894BEBF0FBE57
:10409000ADBFEDB7FEB731962A961296DC93CE935C
:1040A00011972A978FEB9FE1938382838B8184837F
:1040B00015828D81868317828E819F81918780876B
:1040C0000E946C35EDB7FEB731966696ADB7BEB7B8
:1040D0001296DC93CE931197669781EB9FE19383C1
:1040E00082838A818483158289818683178288816D
:1040F000808711860E946C358DB79EB70A960FB6E1
:10410000F8949EBF0FBE8DBFDF91CF911F910F918D
:10411000FF90EF90DF90CF90BF90AF900895DF9326
:10412000CF93CDB7DEB76F970FB6F894DEBF0FBE53
:10413000CDBF60916A0470916B0480916C04909182
:104140006D040E946D21605F714F8F4F9F4F609390
:104150006A0470936B0480936C0490936D04609375
:10416000B5037093B6038093B7039093B80360913F
:10417000B5037091B6038091B7039091B803AE0177
:104180004F5F5F4F0E94FF1E809136028E3449F5CB
:104190008DB79EB708970FB6F8949EBF0FBE8DBF20
:1041A000EDB7FEB7319686E392E0ADB7BEB7129693
:1041B0009C938E9311978DEC9FE193838283CE0124
:1041C000099695838483CE014796978386830E94C0
:1041D0006C358DB79EB708960FB6F8949EBF0FBE8C
:1041E0008DBF83E08093B4036F960FB6F894DEBF63
:1041F0000FBECDBFCF91DF910895EF92FF920F9345
:104200001F93E090D802F090D9020091DA02109149
:10421000DB02C801B7010E949C2B8130D9F480E0F9
:1042200090E0FC01E459F04EE491DC01A85EBB4F44
:104230009A96EC9301968033910599F780E390E08C
:104240006CEF78E04BE750E0980187010E94672906
:1042500081E001C082E08093B4031F910F91FF9031
:10426000EF9008951092B4030E94FD208091B40352
:104270008130A9F485E080932D030E94732B8091F7
:10428000B403813029F480912D038823B1F707C04E
:10429000833029F480912D0390E0882309F491E084
:1042A000892F08958CEF98E06FE870E20E941E223B
:1042B00082E390E04DE455E266E07BE30E948D2CC2
:1042C0006093D8027093D9028093DA029093DB0254
:1042D0000895282F892F922F0895EF92FF920F9320
:1042E0001F93162F0027FF24EE24292F332744275E
:1042F0005527E20EF31E041F151F9B01AC01207011
:1043000030705070232F342F452F5527E20EF31EA7
:10431000041F151F607080709070982F872F762F64
:104320006627E60EF71E081F191FB701C8011F9167
:104330000F91FF90EF90089540E050E09A01220F16
:10434000331F240F351FD901AA0FBB1FAA0FBB1F94
:10435000A452BD4F1A968D919C911B97892B09F5FC
:104360001C9211961C921197F901EE0FFF1FEE0F90
:10437000FF1FE252FD4F108213961C921397F90112
:10438000EE0FFF1FEE0FFF1FE052FD4F108215963C
:104390001C92159716961D921D921D921C921997AC
:1043A00009C01A968D919C911B9701971B969C931F
:1043B0008E931A974F5F5F4F4530510509F0BECF7E
:1043C0000895AC0120E001C02F5FA22FB0E0FD01F5
:1043D000EE0FFF1FEE0FFF1FEF58FD4F8081918101
:1043E000892B91F7253050F451834083AA0FBB1FCE
:1043F000AA0FBB1FAD58BD4F6D937C93089520E06D
:1044000001C02F5FA22FB0E0FD01EE0FFF1FEE0FE6
:10441000FF1FEF58FD4F0190F081E02D309719F00C
:10442000E817F90771F7253040F4AA0FBB1FAA0F50
:10443000BB1FAF58BD4F6D937C930895AC0120E036
:1044400001C02F5FA22FB0E0FD01EE0FFF1FEE0FA6
:10445000FF1FEB57FD4F80819181892B91F725300C
:1044600050F451834083AA0FBB1FAA0FBB1FA9574B
:10447000BD4F6D937C9308959C01E5E8F2E0808147
:1044800091818217930711F411821082349682E091
:10449000E939F807A1F708951F920F920FB60F920E
:1044A00011248F93809118038160809318031092D8
:1044B000B3031092B203EA988F910F900FBE0F9042
:1044C0001F9018950F931F93CF93DF9300912404AF
:1044D0001091250460E070E086E008301807C1F410
:1044E000FB01EE0FFF1FE60FF71FEE0FFF1FEE0F92
:1044F000FF1FE452FD4F2681378140855185809111
:10450000340490913504A0913604B09137041AC058
:104510000830110509F5FB01EE0FFF1FE60FF71F2D
:10452000EE0FFF1FEE0FFF1FE452FD4F2681378174
:10453000408551858091320490913304A0913404D8
:10454000B0913504281739074A075B0729F484E638
:1045500090E09387828788C06F5F7F4F65307105D9
:1045600009F0BACF20E030E0A901440F551F420FF7
:10457000531FEA01CC0FDD1FCC0FDD1FC452DD4FEE
:10458000BE016A5F7F4F8E819F81A885B9850097A4
:10459000A105B10509F062C0E6E008301E0749F543
:1045A00080911E04888380911F0489838091200458
:1045B000FA01EE0FFF1FEE0FFF1FE252FD4F808347
:1045C000809121048B8380912204FA01EE0FFF1F5A
:1045D000EE0FFF1FE052FD4F8083809123048D83F7
:1045E0008091340490913504A0913604B091370441
:1045F0002BC008301105C1F580911E04888380917D
:104600001F04898380912004FA01EE0FFF1FEE0F33
:10461000FF1FE252FD4F8083809121048B838091A4
:104620002204FA01EE0FFF1FEE0FFF1FE052FD4FB5
:104630008083809123048D83809132049091330490
:10464000A0913404B0913504FB0180839183A2834F
:10465000B38384E690E09B878A8706C02F5F3F4F35
:104660002530310509F080CFDF91CF911F910F9157
:1046700008951F93AB01BC0120E030E0122FF90137
:10468000EE0FFF1FE20FF31FEE0FFF1FEE0FFF1FD6
:10469000E452FD4F86819781A085B18584179507E7
:1046A000A607B70731F02F5F3F4F2530310531F7AF
:1046B00015E0812F1F910895FF920F931F93182FDC
:1046C000092F20E030E0F22EF901EE0FFF1FE20F7C
:1046D000F31FEE0FFF1FEE0FFF1FE452FD4F868109
:1046E0009781A085B18584179507A607B70731F094
:1046F0002F5F3F4F2530310531F726C0212F302F56
:10470000C901DC0140E050E08F2D90E09C01220FB8
:10471000331F280F391F220F331F220F331FF901B8
:10472000E40FF51FE452FD4F80818C93FA01E252B1
:10473000F74F808116968C9316974F5F5F4F1196B7
:104740004630510561F70FC0AEEDB8E0812F902FD4
:104750009C01F9019FEF90838D918683319688E0CB
:10476000A43EB807C1F71F910F91FF900895EF92F3
:10477000FF920F931F93CF93DF937C018B01EC018A
:1047800011C0888199812296F82FE0E0DF01A90FFE
:10479000B11DCD01A0E0B0E0280F391F4A1F5B1FFB
:1047A000625070406230710560F7F801EE7FEE0DE7
:1047B000FF1D00FF08C0908180E0A0E0B0E0280F5E
:1047C000391F4A1F5B1FCA01AA27BB2740705070C0
:1047D000820F931FA41FB51F9D0144275527A0706A
:1047E000B070280F391F4A1F5B1F20953095C901F3
:1047F000DF91CF911F910F91FF90EF900895AF92AD
:10480000BF92CF92DF92EF92FF920F931F937C01A2
:104810005A016B018C01025F1F4F0E945C2388E0EC
:1048200090E0F701958784872091990230919A0250
:104830002F5F3F4F30939A022093990280E490E0DB
:10484000F8019783868380E880873483258385E415
:10485000F7018687F8011182A08AB18AC28AD38AB9
:104860008091D1089091D208A091D308B091D4083A
:1048700084879587A687B78713861286C80164E167
:1048800070E020E030E040E050E00E94B723F80103
:10489000928783871F910F91FF90EF90DF90CF90C9
:1048A000BF90AF900895AF92BF92CF92DF92EF92F8
:1048B000FF920F931F93CF93DF938C01EC01A2968D
:1048C000BC01625F7F4FDB011C96CD90DD90ED90C7
:1048D000FC901F9740E050E0E6E1AE2EB12C4A9DDF
:1048E000F0014B9DF00D5A9DF00D1124E25DFC4F3F
:1048F00080819181A281B3818C159D05AE05BF0594
:1049000009F056C02481358188819981281739079B
:1049100009F04EC088859985AA85BB8580879187D7
:10492000A287B3878C819D81AE81BF818487958763
:10493000A687B7878D85808B83898F3F11F083E0B1
:10494000838BFB01F280E3808CEE9FEFE80EF91E73
:104950008C8590E0807F907095958795959587954B
:10496000E81AF90A00E010E086E190E0489F600153
:10497000499FD00C589FD00C1124AEE2B3E0CA0E70
:10498000DB1EF60164857585868597850E946D21FD
:10499000E60EF71E081F191FC801B7010E946D21FE
:1049A000D6011C966D937D938D939C931F974FC05A
:1049B0004F5F5F4F4530510509F091CF20E030E067
:1049C00066E170E0269FA001279F500D369F500D95
:1049D0001124FA01E25DFC4F80819181A281B381B3
:1049E0000097A105B10569F5C082D182E282F38208
:1049F000D80192968D919C919397958384838A8117
:104A00009B819783868388859985AA85BB858087C6
:104A10009187A287B3878C819D81AE81BF81848776
:104A20009587A687B7878D85808B128A118A83E048
:104A3000838B148AFA01ED5BFC4F80818E7F80832B
:104A400006C02F5F3F4F2530310509F0BBCFDF9106
:104A5000CF911F910F91FF90EF90DF90CF90BF907B
:104A6000AF900895EF92FF920F931F93CF93DF9330
:104A70007B018C0120E030E0C6E1D0E0622F2C9F6A
:104A8000F0012D9FF00D3C9FF00D1124E25DFC4FD5
:104A900080819181A281B3818E159F05A007B10706
:104AA00029F4848195818417950731F02F5F3F4F5A
:104AB0002530310519F765E0862FDF91CF911F91E1
:104AC0000F91FF90EF90089520E001C02F5FA22F7B
:104AD000B0E0FD01EE0FFF1FEE0FFF1FEB57FD4F84
:104AE0000190F081E02D309789F090913C04809105
:104AF0003D04E817F90751F7AA0FBB1FAA0FBB1F08
:104B0000A957BD4FED91FC9180E009950895CF9391
:104B1000DF93582FC1E7D2E0E0E0F0E0282F30E04B
:104B200086E190E0289FD001299FB00D389FB00DFD
:104B30001124AC5CBC4F8D919C911197382F292F7B
:104B4000888199818217930731F031962496E63057
:104B5000F10589F70DC0E53058F4EE0FFF1FEE0F99
:104B6000FF1FED58FD4F0190F081E02D852F099535
:104B7000DF91CF910895863038F5282F30E086E117
:104B800090E0289FD001299FB00D389FB00D1124CF
:104B9000FD01E25DFC4F10821182128213821582A8
:104BA0001482178216821086118612861386148646
:104BB000158616861786108A128A118A138AAD5BAB
:104BC000BC4F8C918E7F8C930895CF92DF92EF92A1
:104BD000FF920F931F93CF93DF93EC0136E2E32E06
:104BE00034E0F32EC62EDD2486E190E0C89E8001DD
:104BF000C99E100DD89E100D1124025D1C4FF801A6
:104C00008681978190933B0480933A0484819581B7
:104C100090933D0480933C0410924D0410924C04F8
:104C200084E09CE4909349048093480480E5809359
:104C3000460464857585868597850E946D219B0154
:104C4000AC01F801808980934704808981FF14C0FA
:104C50002F5F3F4F4F4F5F4F82E080934E0484E0C1
:104C600080934F04809350048CE48093510480E639
:104C700080934604C4E0D0E0CA01B9010E946D21CE
:104C800060934204709343048093440490934504DA
:104C900086E190E0C89E8001C99E100DD89E100D3F
:104CA0001124025D1C4FF80180859185A285B38592
:104CB00080933E0490933F04A0934004B09341043A
:104CC000CE018896F7019283838386E08187F8017D
:104CD000408151816281738188E194E00E94FF23C9
:104CE00010924B0410924A04709128046091290498
:104CF000685F7F4F8091260490E08F709070880FDE
:104D0000991F880F991F681B790B625070409B0197
:104D100040E050E06E5F7F4F82E394E00E94B72353
:104D200090934A0480934B04CE01C69668E174E0E8
:104D30000E943131F801108ADF91CF911F910F91BC
:104D4000FF90EF90DF90CF9008958F929F92AF9257
:104D5000BF92DF92EF92FF920F931F93CF93DF9357
:104D60007B018C015A014901EA9820E030E046E1DC
:104D700050E0D22E249FE001259FD00D349FD00D0E
:104D80001124C25DDC4F88819981AA81BB81009783
:104D9000A105B105F1F4822F0E94BB25E882F982BA
:104DA0000A831B83BD82AC829F828E8282ED94E057
:104DB000A0E0B0E088879987AA87BB8789E299E05D
:104DC000A0E0B0E08C879D87AE87BF878EE18B8B9C
:104DD00006C0D3942F5F3F4F2530310551F62D2D5E
:104DE00030E086E190E0289FF001299FF00D389F88
:104DF000F00D1124E25DFC4F82E0808B80E090E0BA
:104E00006D2D0E94E525EA9ADF91CF911F910F91B8
:104E1000FF90EF90DF90BF90AF909F908F9008959C
:104E2000682F282F30E086E190E0289FF001299F2D
:104E3000F00D389FF00D1124E25DFC4F8FEF9FEFD6
:104E4000928B818B81E1808B80E090E00E94E52550
:104E50000895AF92BF92DF92EF92FF920F931F934C
:104E6000CF93DF9320E001C02F5F022F10E0F80105
:104E7000EE0FFF1FEE0FFF1FEF58FD4F0190F08167
:104E8000E02D309709F4CFC190913C0480913D040E
:104E9000E817F90749F740914704242F30E0C9018A
:104EA00082719070429709F065C088E194E00E9499
:104EB0005324409132045091330460913404709132
:104EC000350400913A0410913B04C0E0D0E0A6E123
:104ED000EA2EF12C2C2FCE9DF001CF9DF00DDE9D02
:104EE000F00D1124E25DFC4F80819181A281B3819C
:104EF00084179507A607B70729F484819581801741
:104F0000910729F02196C530D10521F78CC130E0F9
:104F100086E190E0289F8001299F100D389F100D99
:104F20001124025D1C4F8EE1D80153968C93539748
:104F30001C966D917D918D919C911F970E946D2182
:104F40006F5F7F4F8F4F9F4F0E946D21F8016487E5
:104F500075878687978780E1808B80E090E06C2F53
:104F60000E94E52581E090E0D80152969C938E93B3
:104F7000519759C1423009F046C088E194E00E943F
:104F800053242091320430913304409134045091E1
:104F90003504C0913A04D0913B0460E070E0F6E142
:104FA000EF2EF12C6E9DF0016F9DF00D7E9DF00DAA
:104FB0001124E25DFC4F80819181A281B38182172F
:104FC0009307A407B50729F4848195818C179D0761
:104FD00031F06F5F7F4F6530710521F724C1262FB7
:104FE00030E086E190E0289FF001299FF00D389F86
:104FF000F00D1124E25DFC4F82E1808B80E090E0B7
:105000000E94E52510C14091320450913304609113
:10501000340470913504E0903A04F0903B04C0E011
:10502000D0E0E6E1AE2EB12CDC2ECA9DF001CB9D86
:10503000F00DDA9DF00D1124E25DFC4F808191812D
:10504000A281B38184179507A607B70729F4848145
:1050500095818E159F0529F02196C530D10521F740
:10506000DDC088E194E00E9453244C2F50E086E19B
:1050700090E0489FF001499FF00D589FF00D1124DA
:10508000E25DFC4F808980FF2BC02DC088E194E059
:105090000E9453246091A8037091A9038091AA03F0
:1050A0009091AB030E946D216F5F7F4F8F4F9F4F99
:1050B0000E946D216093A8037093A9038093AA03B3
:1050C0009093AB038091AC0380FF08C080E1809394
:1050D000AC0380E090E065E00E94E52585E034C007
:1050E000808982FF34C086E190E0489FE001499FBB
:1050F000D00D589FD00D1124C25DDC4F6C857D858D
:105100008E859F850E946D216F5F7F4F8F4F9F4FD0
:105110000E946D216C877D878E879F87888980FF9D
:1051200012C0000F111F000F111F0D581D4FD80185
:10513000ED91FC918D2D099581E1888B80E090E0C7
:105140006D2D0E94E5258D2D0E94BB256CC08089A8
:1051500083FF15C0808984FF12C0818992890196DE
:10516000928B818B88E1808B000F111F000F111F24
:105170000D581D4FD801ED91FC918C2F4DC086E14B
:1051800090E0489F9001499F300D589F300D1124A9
:10519000F901E25DFC4F808984FF0AC0F901ED5BF3
:1051A000FC4F808180FD04C08081816080833BC092
:1051B00086E190E0489FF001499FF00D589FF00D67
:1051C0001124DF01A25DBC4F50968C91509784FF53
:1051D0002AC0ED5BFC4F808180FF25C051968D91E8
:1051E0009C9152978F5F9F4FF1F080E150968C9386
:1051F000509751968D919C915297019652969C93FF
:105200008E935197000F111F000F111F0D581D4F46
:10521000D801ED91FC918D2D099505C02570307058
:10522000232B09F033CFDF91CF911F910F91FF9086
:10523000EF90DF90BF90AF900895EF92FF920F93A1
:105240001F93CF93DF93C0E0D0E006E110E093E03E
:10525000E92E84E1F82EC09FF001C19FF00DD09F90
:10526000F00D1124E25DFC4F83898823F9F48081DD
:105270009181A281B3810097A105B105E9F0E38A8C
:1052800084898F5F848B8150863060F0EA98F08A41
:1052900080E090E06C2F0E94E525EA9A8C2F0E9416
:1052A000BB250AC08C2F0E94872506C083898F3FAB
:1052B00019F083898150838B2196C530D10559F629
:1052C000DF91CF911F910F91FF90EF9008958F92F2
:1052D0009F92AF92BF92CF92DF92EF92FF920F9385
:1052E0001F935C01FAE3CF2EF4E0DF2EECEEEE2EFE
:1052F000EFEFFE2EEC0CFD1C70933A0460933B0420
:1053000050933C0440933D04089690933E04809350
:105310003F04C5014C96F7019283838381E1818725
:105320004EED842E4FEF942E8C0C9D1CC401B901C0
:10533000A8010E94FF231092410410924004F7013B
:1053400072816381685F7F4F808190E08F70907081
:10535000880F991F880F991F681B790B675F7F4F14
:105360009B0140E050E069507040C60108970E94E0
:10537000B7239093400480934104C5018A96B401F9
:105380000E9431311F910F91FF90EF90DF90CF90ED
:10539000BF90AF909F908F9008956F927F928F9261
:1053A0009F92AF92BF92CF92DF92EF92FF920F93B4
:1053B0001F933B014C0186E2A82E84E0B82EB4E195
:1053C000CB2ED12CCA0CDB1C40933A04F60121836E
:1053D000F582E482178306831382128280E094E5CB
:1053E000909329048093280481E080932F0482EF16
:1053F0009FEFA80EB91EC501B401A3010E94FF23AF
:1054000070912804609129048091260490E08F70A7
:105410009070880F991F880F991F681B790BC60120
:1054200020E030E040E050E00E94B723F601928394
:10543000838382E690E0B5010E9431311F910F9184
:10544000FF90EF90DF90CF90BF90AF909F908F90A4
:105450007F906F9008950F931F93809126049091F1
:1054600027048050914009F0C1C080912804909198
:105470002904089709F0BAC080912A04863009F0FF
:10548000B5C080912B04843009F0B0C020913E0457
:1054900030913F0440914004509141048091D108E3
:1054A0009091D208A091D308B091D4082817390759
:1054B0004A075B0709F09AC080912C0490912D0453
:1054C000E1E080309E0709F08CC00E94622206E273
:1054D00014E00E5010404091340450913504609116
:1054E000360470913704C8010E945C2388E096E07E
:1054F000F801958784874091340450913504609178
:1055000036047091370420E030E0F901EE0FFF1F00
:10551000E20FF31FEE0FFF1FEE0FFF1FE452FD4FD0
:1055200086819781A085B18584179507A607B7075F
:1055300031F02F5F3F4F2530310539F725C0A6E206
:10554000B4E040E050E0822F90E09C01220F331F36
:10555000280F391F220F331F220F331FF901E40FC9
:10556000F51FE452FD4F808152968C935297FA01B9
:10557000E252F74F808118968C9318974F5F5F4FD8
:1055800011964630510551F780E092E090932D043A
:1055900080932C048091340490913504A0913604BA
:1055A000B091370480933E0490933F04A09340044D
:1055B000B09341048091D1089091D208A091D30872
:1055C000B091D4088093340490933504A0933604AA
:1055D000B09337048CE390E068E174E00E943131CD
:1055E00005C08050924011F40E9462221F910F91D9
:1055F0000895EF92FF920F931F938091240490914E
:10560000250426E08830920719F40E942B2A66C0F0
:10561000089709F063C02091360430913704409117
:105620003804509139048091D1089091D208A0910A
:10563000D308B091D408281739074A075B0709F047
:1056400042C00E94622280912F048130B9F580917E
:105650003A048823C1F0883009F040C060913204D8
:10566000709133048091340490913504009140048A
:1056700010914104E0903E04F0903F0440E020E0AF
:105680000E94CD292BC02091C9083091CA084091B1
:10569000CB085091CC088091320490913304A091B2
:1056A0003404B0913504281739074A075B07B1F471
:1056B0008091CE0881608093CE0810C0863041F47E
:1056C0000E94292705C02F5F3F4F4F4F5F4F31F496
:1056D00080912F04813111F40E9464251F910F9154
:1056E000FF90EF9008958091180381FF09C00E94F8
:1056F0001D290E949C21809118038D7F809318039F
:105700008091180380FD0FC0089580EB94E068E15C
:1057100074E00E945432FC01009729F0E85EFB4FD0
:1057200011820E94F92A1A9BF0CF809118038E7F74
:1057300080931803EA9A08958F929F92AF92BF9236
:10574000CF92DF92EF92FF920F931F93DF93CF934D
:10575000CDB7DEB7AA970FB6F894DEBF0FBECDBFA8
:105760004B015C018E01015F1F4F8091D108909128
:10577000D208A091D308B091D40888259925AA25EC
:10578000BB252091D9083091DA084091DB0850916F
:10579000DC0882239323A423B5230097A105B10538
:1057A00019F47501640108C0C090D508D090D608DE
:1057B000E090D708F090D80888E096E09E878D8723
:1057C000CE010196B701A6010E945C238091D10809
:1057D0009091D208A091D308B091D408F80186879F
:1057E0009787A08BB18BC08ED18EE28EF38EAEEDFB
:1057F000B8E08D918087128A319628E0A43EB207E6
:10580000C1F720E031E0F8013183208388E090E0A7
:105810009383828386E0848384E085833783268331
:105820008AE290E0BE016F5F7F4F0E94313110E04D
:105830005AC0422FF901EE0FFF1FE20FF31FEE0FC8
:10584000FF1FEE0FFF1FE452FD4F86819781A08559
:10585000B18588159905AA05BB0531F02F5F3F4F2B
:105860002530310531F745E020E030E0F901EE0F59
:10587000FF1FE20FF31FEE0FFF1FEE0FFF1FE4529B
:10588000FD4F86819781A085B1858C159D05AE055C
:10589000BF0531F02F5F3F4F2530310539F73AC052
:1058A000453021F5822F90E0FC01EE0FFF1FE80F3D
:1058B000F91FEE0FFF1FEE0FFF1FE452FD4F868210
:1058C0009782A086B18612C080E090E00000019629
:1058D000F7E280319F07D1F70E94732B1F5F1431CD
:1058E00011F480E004C020E030E0A3CF81E0AA966C
:1058F0000FB6F894DEBF0FBECDBFCF91DF911F91E1
:105900000F91FF90EF90DF90CF90BF90AF909F905E
:105910008F9008954530C1F2E9CF8F929F92AF9258
:10592000BF92CF92DF92EF92FF920F931F93DF937C
:10593000CF9300D000D0CDB7DEB77C01B42EA52E1A
:10594000962E872E00E010E06E010894C11CD11C39
:10595000F999FECFC8018E0D9F1D0E946D37F6018B
:10596000E00FF11F80830F5F1F4F0430110581F797
:1059700029813A814B815C812F3F8FEF38078FEF70
:1059800048078FEF580741F42B2D3A2D492D582DFC
:10599000C901DA019C01AD01B901CA010F900F9054
:1059A0000F900F90CF91DF911F910F91FF90EF908B
:1059B000DF90CF90BF90AF909F908F9008950E94FE
:1059C000802E8EE190E040EC58EA60E073E60E94A1
:1059D0008D2C6093D1087093D2088093D308909354
:1059E000D40882E290E04FEF5FEF6FEF70E00E942B
:1059F0008D2C6093D9087093DA088093DB0890931C
:105A0000DC0886E290E040EC58EA60E071E00E9439
:105A10008D2C6093D5087093D6088093D708909307
:105A2000D8081092DE0880E28093DF0888E1809336
:105A3000E00881EB8093E10885E18093E2088FE63E
:105A40008093E3080E94AE310895FF920F931F9355
:105A5000CF93DF93C0916902D0916A028091CF0801
:105A60009091D008C817D90709F469C060E070E0C8
:105A700026E130E0F62E629FF001639FF00D729FE9
:105A8000F00D1124E25DFC4F868197818050974193
:105A900009F046C08091DD0880FD51C08091DD088D
:105AA00081608093DD0880916B0290916C029093ED
:105AB000D0088093CF0840E050E015C0FA01E85EBE
:105AC000FB4FD9018D9186ABB093D008A093CF083E
:105AD000A75DB24031F4205330403093D00820937A
