:100000000C94EA170C9409180C9409180C9409180C
:100010000C9409180C94771A0C9409180C9409186C
:100020000C9409180C9409180C9409180C940918CC
:100030000C9462250C9409180C9409180C94091856
:100040000C9409180C9409180C94A1180C94091814
:100050000C9409180C9409180C9409180C9409189C
:100060000C9409180C9409180C9409180C9409188C
:100070000C9409180C9409180C9409180C9409187C
:100080000C9409180C9409180C9409184552524FF5
:10009000520D0A0D0A0052656164790D0A0D0A00BD
:1000A0000A0D53797374656D2052656164790A0D88
:1000B000004D792049503A202531692E2531692E8D
:1000C0002531692E2531690D0A0D0A00524541443A
:1000D00059210D0A000A0D4E494320696E69743A90
:1000E00000524553455420202D20726573657420BD
:1000F00074686520415652202D20436F6E74726FD4
:100100006C6C65720D0A415250202020202D206C0D
:100110006973742074686520415250207461626C68
:10012000650D0A544350202020202D206C697374E3
:100130002074686520746370207461626C650D0AB8
:10014000495020202020202D206C6973742F636873
:10015000616E67652069700D0A4E4554202020208D
:100160002D206C6973742F6368616E6765206E65FE
:10017000746D61736B0D0A524F55544552202D20FA
:100180006C6973742F6368616E676520726F757434
:1001900065722069700D0A4E5450202020202D20B9
:1001A0006C6973742F6368616E6765204E54500DDF
:1001B0000A4E5450522020202D204E54502052657B
:1001C00066726573680D0A4D4143202020202D2062
:1001D0006C697374204D41432D616464726573735F
:1001E0000D0A564552202020202D206C6973742062
:1001F000656E632076657273696F6E206E756D62D1
:1002000065720D0A535620202020202D207365741E
:10021000207661726961626C650D0A574F4C20202F
:1002200020202D2073656E6420574F4C202F2073A3
:100230006574204D4143202F20736574204D414348
:1002400020616E642049500D0A54494D45202020FC
:100250002D206765742074696D650D0A48454C5002
:100260002020202D207072696E742048656C707497
:100270006578740D0A3F2020202020202D207072E8
:10028000696E742048656C70746578740D0A002579
:1002900063000A0D54494D453A202532693A25320A
:1002A000693A2532690D0A00496E68616C742064F0
:1002B0006572205661726961626C655B2532695DA9
:1002C000203D202532690D0A00202054696D653AD1
:1002D0002534690D0A002020504F52543A253469C4
:1002E000002E253369002E253369002E2533690041
:1002F000202049503A2533690025326900202054D6
:10030000696D653A2534690D0A002E253369002E82
:10031000253369002E25336900202049503A2533C2
:1003200069002E253278002E253278002E2532786D
:10033000002E253278002E253278002532692020C3
:100340004D41433A2532780052544C3830313920EF
:1003500045746865726E6574636172640D0A004D60
:1003600079204D41433A202532783A2532783A2592
:1003700032783A2532783A2532783A2532780D0AA1
:1003800000526F757465722049503A202531692EEC
:100390002531692E2531692E2531690D0A004E451A
:1003A000544D41534B3A202531692E2531692E2574
:1003B00031692E2531690D0A004E54505F53657224
:1003C0007665723A202531692E2531692E253169ED
:1003D0002E2531690D0A004D792049503A202531EA
:1003E000692E2531692E2531692E2531690D0A00C6
:1003F0000D0A003C686561643E3C6D65746120686F
:100400007474702D65717569763D22436F6E7465E5
:100410006E742D547970652220636F6E74656E74EE
:100420003D22746578742F68746D6C3B206368613D
:10043000727365743D69736F2D383835392D3122EB
:10044000202F3E0D0A3C7469746C653E4156522063
:100450006D696E69205765627365727665723C2FAF
:100460007469746C653E0D0A3C7374796C65207414
:100470007970653D22746578742F637373223E0D25
:100480000A3C212D2D0D0A424F4459207B096D61F4
:100490007267696E3A20302030203020303B206275
:1004A00061636B67726F756E642D636F6C6F723A08
:1004B0002077686974653B20746578742D616C6978
:1004C000676E3A63656E7465723B207D0D0A502C31
:1004D000204449562C2048312C204832207B666F1E
:1004E0006E742D66616D696C793A2076657264610F
:1004F0006E612C20617269616C3B20666F6E742D99
:1005000073697A653A20313170783B7D0D0A483144
:10051000207B20206261636B67726F756E642D6350
:100520006F6C6F723A20234343434346463B20702F
:10053000616464696E672D746F703A3570783B2022
:1005400070616464696E672D626F74746F6D3A35A3
:1005500070783B666F6E742D73697A653A2032301D
:1005600070783B20636F6C6F723A202330303430E8
:1005700036303B20666F6E742D7765696768743A14
:10058000626F6C643B206C65747465722D7370616E
:1005900063696E673A203870783B626F7264657287
:1005A0002D746F703A2032707820736F6C696420FC
:1005B000234545454545453B20626F726465722D74
:1005C0006C6566743A2032707820736F6C696420B1
:1005D000234545454545453B626F726465722D6212
:1005E0006F74746F6D3A2032707820736F6C696429
:1005F00020233030343036303B20626F72646572B5
:100600002D72696768743A2032707820736F6C6954
:100610006420233030343036303B7D0D0A483220A0
:100620007B20666F6E742D73697A653A2031357060
:10063000783B2070616464696E672D746F703A2036
:10064000323070783B2070616464696E672D6C6530
:1006500066743A353070783B2070616464696E6707
:100660002D72696768743A353070783B636F6C6FD0
:10067000723A233030343038303B20666F6E742D40
:100680007765696768743A626F6C643B207465785B
:10069000742D6465636F726174696F6E3A756E6410
:1006A00065726C696E653B626F726465722D746F02
:1006B000703A2031707820736F6C69642023303079
:1006C000343038303B7D20502C2048312C204832AB
:1006D000207B6D617267696E3A20307078203070CF
:1006E0007820357078203070783B7D0D0A2D2D3EB6
:1006F0000D0A3C2F7374796C653E3C2F686561640C
:100700003E0D0A3C626C6F636B71756F74653E0DD4
:100710000A3C626C6F636B71756F74653E0D0A3CC9
:10072000626C6F636B71756F74653E0D0A3C626F2E
:1007300064793E3C64697620616C69676E3D226332
:10074000656E746572223E0D0A3C68313E41565218
:10075000206D696E69205765627365727665723CBB
:100760002F68313E0D0A3C2F6469763E3C42523E72
:100770000D0A3C68323E476C2675756D6C3B636BA9
:1007800077756E7363683C2F68323E3C42523E0D73
:100790000A3C703E57656E6E20647520646965730F
:1007A000656E2054657874206C6573656E206B618E
:1007B0006E6E73742C206861737420647520657389
:1007C000206765736368616666743A3C2F703E3CCF
:1007D00042523E3C42523E0D0A3C703E3C696D67BF
:1007E000207372633D2272616B65742E67696622A5
:1007F0002077696474683D22393022206865696712
:1008000068743D223932223E3C2F703E3C42523EBB
:100810000D0A3C703E4465722057656273657276BE
:100820006572206C2661756D6C3B756674202121A4
:1008300021203C2F703E3C42523E0D0A3C666F72B6
:100840006D206E616D653D22666F726D3122206D87
:100850006574686F643D22706F73742220616374E5
:10086000696F6E3D22223E0D0A3C7020616C696703
:100870006E3D226C656674223E266E6273703B206C
:100880002020203C2F703E0D0A3C7020616C69676F
:100890006E3D226C656674223E0D0A3C696E707571
:1008A0007420747970653D22636865636B626F784C
:1008B00022206E616D653D224F5554222076616C79
:1008C00075653D2241222025504F525441303E0D46
:1008D0000A3C7370616E20636C6173733D225374C4
:1008E000696C32223E506F727420412050696E2034
:1008F000303C2F7370616E3E3C2F703E0D0A3C7091
:1009000020616C69676E3D226C656674223E0D0A3B
:100910003C696E70757420747970653D22636865FA
:10092000636B626F7822206E616D653D224F555476
:10093000222076616C75653D2242222025504F525F
:100940005441313E0D0A3C7370616E20636C6173DB
:10095000733D225374696C32223E506F7274204191
:100960002050696E20313C2F7370616E3E3C2F70B9
:100970003E0D0A3C7020616C69676E3D226C6566B5
:1009800074223E0D0A3C696E70757420747970652E
:100990003D22636865636B626F7822206E616D65CE
:1009A0003D224F5554222076616C75653D224322CD
:1009B0002025504F525441323E0D0A3C7370616EF7
:1009C00020636C6173733D225374696C32223E5014
:1009D0006F727420412050696E20323C2F73706119
:1009E0006E3E3C2F703E0D0A3C64697620616C6956
:1009F000676E3D226C656674223E0D0A3C7072651E
:100A000020616C69676E3D226C656674223E3C69AC
:100A10006E70757420747970653D227375626D69AE
:100A20007422206E616D653D22535542222076610D
:100A30006C75653D2253656E64656E223E3C2F7079
:100A400072653E0D0A3C62723E0D0A3C62723E0DBA
:100A50000A3C703E3C696D67207372633D222550ED
:100A6000494E4437222077696474683D2231372229
:100A7000206865696768743D223137223E20506FD7
:100A8000727420442050696E20373C2F703E0D0A4E
:100A90003C703E3C696D67207372633D222550496E
:100AA0004E4436222077696474683D223137222013
:100AB0006865696768743D223137223E20506F7245
:100AC0007420442050696E20363C2F703E0D0A3C45
:100AD000703E3C696D67207372633D222550494E1C
:100AE0004435222077696474683D223137222068BA
:100AF00065696768743D223137223E20506F7274F9
:100B000020442050696E20353C2F703E0D0A3C6217
:100B1000723E0D0A3C62723E0D0A3C7461626C6565
:100B200020616C69676E3D2263656E746572222078
:100B300077696474683D223530302220626F7264B8
:100B400065723D2230223E0D0A3C74723E0D0A3C15
:100B500074682073636F70653D22636F6C223E3C46
:100B60007020616C69676E3D2263656E74657222E8
:100B70003E45696E67616E673C2F703E3C2F74681E
:100B80003E0D0A3C74682073636F70653D22636F8D
:100B90006C223E3C7020616C69676E3D2263656E1D
:100BA000746572223E42616C6B656E3C2F703E3CF8
:100BB0002F74683E0D0A3C74682073636F70653D46
:100BC00022636F6C223E3C7020616C69676E3D222F
:100BD00063656E746572223E54656D7065726174F2
:100BE0007572205B266465673B435D3C2F703E3C1D
:100BF0002F74683E0D0A3C2F74723E0D0A3C7472CD
:100C00003E0D0A3C74643E3C7020616C69676E3D29
:100C10002263656E746572223E41442D4B616E61A4
:100C20006C303C2F703E3C2F74643E0D0A3C746463
:100C30003E3C7020616C69676E3D2263656E746531
:100C400072223E3C2F703E3C696D67207372633D9B
:100C50002262616C6B652E67696622207769647415
:100C6000683D22255641403030222068656967681A
:100C7000743D223130223E3C2F74643E0D0A3C7498
:100C8000643E3C7020616C69676E3D2263656E74E2
:100C90006572223E2556414030303C2F703E3C2F3D
:100CA00074643E0D0A3C2F74723E0D0A3C74723E11
:100CB0000D0A3C74643E3C7020616C69676E3D2295
:100CC00063656E746572223E41442D4B616E616CAA
:100CD000313C2F703E3C2F74643E0D0A3C74643EE0
:100CE0003C7020616C69676E3D2263656E7465724D
:100CF000223E3C2F703E3C696D67207372633D223B
:100D000062616C6B652E676966222077696474681E
:100D10003D2225564140303122206865696768745C
:100D20003D223130223E3C2F74643E0D0A3C7464F7
:100D30003E3C7020616C69676E3D2263656E746530
:100D400072223E2556414030313C2F703E3C2F747C
:100D5000643E0D0A3C2F74723E0D0A3C74723E0DC7
:100D60000A3C74643E3C7020616C69676E3D22638E
:100D7000656E746572223E41442D4B616E616C322A
:100D80003C2F703E202020203C2F74643E0D0A3CF6
:100D900074643E3C7020616C69676E3D2263656ED1
:100DA000746572223E3C2F703E3C696D6720737201
:100DB000633D2262616C6B652E67696622207769EC
:100DC0006474683D222025564140303222686569AE
:100DD0006768743D223130223E3C2F74643E0D0A18
:100DE0003C74643E3C7020616C69676E3D226365B3
:100DF0006E746572223E2556414030323C2F703E63
:100E00003C2F74643E0D0A3C2F74723E0D0A3C74F4
:100E1000723E0D0A3C74643E3C7020616C69676EE2
:100E20003D2263656E746572223E41442D4B616EB6
:100E3000616C333C2F703E202020203C2F74643E98
:100E40000D0A3C74643E3C7020616C69676E3D2203
:100E500063656E746572223E3C2F703E3C696D671F
:100E6000207372633D2262616C6B652E6769662236
:100E70002077696474683D22202556414030322233
:100E80006865696768743D223130223E3C2F746486
:100E90003E0D0A3C74643E3C7020616C69676E3D97
:100EA0002263656E746572223E2556414030323CA5
:100EB0002F703E3C2F74643E0D0A3C2F74723E0D21
:100EC0000A3C2F7461626C653E0D0A3C42523E3C06
:100ED00042523E203C7020616C69676E3D226C6519
:100EE0006674223E203C68323E3C2F68323E3C42D3
:100EF000523E0D0A3C703E3C6120687265663D22A0
:100F00005374617475732E68746D223E53746174EA
:100F100075733C2F613E3C2F703E3C42523E0D0AA1
:100F20003C42523E3C42523E203C7020616C69671C
:100F30006E3D226C656674223E203C68323E3C2F3A
:100F400068323E3C42523E0D0A3C703E3C61206895
:100F50007265663D22687474703A2F2F7777772E0A
:100F6000756C7269636872616469672E6465223E9C
:100F70007777772E756C7269636872616469672E22
:100F800064653C2F613E3C2F703E3C42523E0D0A50
:100F90003C7020616C69676E3D226C656674223E10
:100FA000556C726963682052616469672032303021
:100FB00038203C42523E3C42523E3C2F703E0D0A8D
:100FC0003C2F626F64793E3C2F68746D6C3E0D0A55
:100FD0000D0A25454E44003C626C6F636B71756F62
:100FE00074653E0D0A3C626C6F636B71756F74655E
:100FF0003E0D0A3C626C6F636B71756F74653E0DDC
:101000000A3C626F64793E3C64697620616C696772
:101010006E3D2263656E746572223E0D0A3C683136
:101020003E53746174757320506167653C2F68315D
:101030003E0D0A3C2F6469763E3C42523E0D0A3C0E
:101040006469763E436F6D70696C69657274206186
:101050006D204A616E203237203230303820756D75
:101060002032303A31353A35333C76723E20436F88
:101070006D70696C69657274206D697420474343B3
:101080002056657273696F6E20342E322E322028FE
:1010900057696E4156522032303037313232312961
:1010A0003C2F6469763E0D0A3C6469763E42657366
:1010B0007563686572207365697420537461727416
:1010C000206465732057656273657276657273205C
:1010D00028255641403039293C2F6469763E0D0A57
:1010E0003C42523E3C42523E203C7020616C69675B
:1010F0006E3D226C656674223E203C68323E3C2F79
:1011000068323E3C42523E0D0A3C703E3C612068D3
:101110007265663D22696E6465782E68746D223E44
:10112000486175707473656974653C2F613E3C2F2E
:10113000703E3C42523E0D0A3C42523E3C42523EC0
:101140003C7020616C69676E3D226C656674223E5E
:10115000203C68323E3C2F68323E3C42523E0D0AF3
:101160003C703E3C6120687265663D226874747014
:101170003A2F2F7777772E756C7269636872616486
:1011800069672E6465223E7777772E756C72696386
:101190006872616469672E64653C62723E0D0A3C48
:1011A0002F613E3C62723E556C72696368205261E9
:1011B00064696720323030373C2F703E3C42523EEB
:1011C0003C2F736D616C6C3E0D0A3C2F626F64792D
:1011D0003E3C2F68746D6C3E0D0A25454E44004719
:1011E000494638396111001100A53F004D4D4D5061
:1011F000504F545454416A445C5C5C3F7342626299
:10120000626A6B6B16A71E6F6F6F5F7A6019AD21F4
:101210001CB2255694597B7B7B1ABD2323BA2C1B09
:10122000C3258383831CCA267C8B7D1CD3268B8B92
:101230008B2DCC361CD8261DDF289091911DE128DE
:101240001EE22921E22C35DB3F2EE4389C9D9D3E99
:10125000E64740E649A5A5A547E75050E458A9A9A7
:10126000A94EE856AEAEADAFB0AFB0B0B064E66B6D
:10127000B4B4B5B8B8B96CEC7377ED7DBFC0BFC07E
:10128000C0C0C2C2C2A6DAA9C9C8C993F198CCCC61
:10129000CCD1D1D1A5F3A9D5D5D5DEDEDEE0E0E015
:1012A000C5F7C8E7E7E7EFEFEFFFFFFF21F904011C
:1012B0000A003F002C00000000110011000006EDA4
:1012C000C09F50D8CBC954A9966DC8FCF974371A81
:1012D0008C65026940B4A66FA72B2D10E0C545E2CE
:1012E000680D7DBB1923E2097D3295C7A291800963
:1012F000753AC6C5F5729D3E1B15130B09123F3D8D
:10130000371E112B3538352E221D1B180F10062CB9
:1013100039340B1E2F383C382F241D1B1B150B0690
:1013200016323008212E3538352E221CA418080418
:10133000072A2C081F272E2F2E271FA41B1908044D
:1013400002292608191F2224221FC41B190802067D
:101350002D200B181B1DDED31B150B0212361A1085
:101360000FE0D3111000283F20140B13EA1B130BBE
:10137000030942340E0D0B0F18326CC880E1C18294
:101380000200580C69914001840560102C60100027
:10139000C008263F624830608000010102002460DE
:1013A0008171080B0B0704189080026310003B2525
:1013B000454E4447494638396111001100A53F00A8
:1013C0004D4D4D5050505252525454545756575AF6
:1013D0005A595D5D5D5E5D5D5E5E5E60606062622D
:1013E000626363636464646565656969696E6E6E92
:1013F0007070707777777878787A7A7A7B7B7B7E73
:101400007E7E7F7F7F8080808181818383838787C9
:10141000878989898B8B8B8E8E8E909191919192F9
:101420009393939797979A9A9A9C9C9CA5A5A5A904
:10143000A9A9ABABABACACACAEAEADAFAFAFAFB0E0
:10144000AFB0B0B0B2B2B2B4B4B4B4B4B5B5B5B56F
:10145000B8B8B9BFC0BFBFC0C0C0C0C0C2C2C2C898
:10146000C8C8C9C9C9CCCCCCD1D1D1D5D5D5DDDD81
:10147000DDDEDFDEE0E0E0E7E7E7EFEFEFFFFFFFD5
:1014800021F904010A003F002C00000000110011A6
:10149000000006ECC09F50D8CBD1562AD86DC8FCAE
:1014A000F976B85AEC551A7946B5A68FA7133510B8
:1014B00006C442A3A1C0863EDECC31E97C36950944
:1014C000A41181C8843B9DA373629D461B1616120E
:1014D0000C0F183F3D381F1327343734272018824C
:1014E00010120A2E39360D1D2C373B372C2119824C
:1014F000130A091C3431081F263437342720178279
:101500001508070E2B2F061B23272C27231B82824F
:10151000060503292508151B2021201BC3161508C5
:10152000040C30230B1316181918D116130A0219BC
:10153000371E1710DFD1101500283F231A0D12E9AE
:1015400016120A010F423514110C1013152C549861
:1015500000414101002D86C080F040820204061047
:10156000287810000089263330284860A000010147
:10157000001EB46832C405070703186440D124086C
:10158000003B25454E4447494638396102000A0070
:10159000A20000A2A5ED848FE5667CDD4960D6211E
:1015A00044DAFE010200000000000021F9040514E5
:1015B0000005002C0000000002000A0000030A4899
:1015C0003423120148001D5309003B25454E444772
:1015D00049463839615A005C00F700006C6E64BC03
:1015E000BA4CB7B5AC6161AF908CA8DADCAF6F666E
:1015F000D8DCDE71DEDEE28F8DD7DCDE88B6B6E0C9
:101600007979D8F0F0B0EFF0878378A9F6F4E18C1F
:101610008E549F9FDAA1A2A9C9C9E07F78F0EFF0AC
:10162000C7E9F2A2BAB782C9CAB07878C1E9F16253
:101630007569F1929279EBF1FBC4C981918EEFF05B
:10164000F2708C8CC0DEDEFAE3E0C8B7B4FA8A84AC
:10165000D7C8C9FBF8FD88A4A2787168BFA3A0F021
:101660009F9FC0776E97FAFDB0DFDF9F8883C0BA77
:10167000B8C78784F0FAFDC8F9FD717870D8CEC973
:10168000C57F78E48183A9D7E7FCF8FDA0B4B497BF
:101690009C98D8FCFDE0FCFEFB9897C1979391774E
:1016A00070C08C8088DEE8AFE6EA87EEEF94727057
:1016B000EEF0F0BC7E78CC8178FCB0ACF2F2F3D4E2
:1016C000BFC89F9998F0C0C0FBD2D4FBA09AA8BF16
:1016D000BFE0857BD9D1D3E1D3D3B0B1ACA6DEE8EE
:1016E000C9A8ACC081809A7E79B4F7F39EC7C77150
:1016F000C1C0B1EAF07C7264E4EAE9DFA090D6F4FC
:10170000F6B0ACACD8F8FD94C4C2C9D5DB94F4F6FD
:1017100088F2F0ECF5F6C7857CC1F6FE5BF7F4FBCA
:10172000F9FD7C7870E4A19C93827EF1878BCCEDEF
:10173000E0FCA6A48EBCC09A7871CC7870FC8D8C2D
:10174000E4A7A34F928FFCBEBAFAFAFDBCEAE8FB0D
:10175000D4D599726CA7928EB4DCDEBCB9B7EC8993
:101760007F61B7B6699A9461A1A06C847E7CE1E741
:1017700067807888C4C27CA19B79D4D480CFD6C935
:10178000EBE8A0C0C064D4CA97ACAE78A9A3E49A31
:101790009EB4C5C7EC6967CC888898CCCE647E7748
:1017A00099949A44AAAA92848769E8E9BCDFE894EC
:1017B0009497B4D7D5ECD4D4BCE6E8D4B9B5BCE0A2
:1017C000E17CE1E0ECB4B58C999284C6C78CDEE094
:1017D000D4A5A2FCA4A0CCB2B4D4CECCD4746CB4A6
:1017E0007C66B4C8BAE0AEA4AACCCEBCF7F56474EB
:1017F00069FCD5CDFBB4B8A492939C90926CD0CCEC
:10180000A48B888BACAA688583E48D85CCFBFDD442
:101810008483B49A98CCA098FCA9ABCCC2C0D49ACB
:101820009B9CC4C2A4BCB674888878E9E294968E66
:10183000CC7668CC7C7274A2A5848A83FC9A99E4E5
:10184000FCFEECEEE7B27D70F1AEABFCDDD5FBBC8F
:10185000C2ECE0D2E0B4ADB4EDE9C8C1C0BCB4AEF6
:10186000E4F8FE64D0D6A4E9EA749C9A8498899935
:10187000BFBAB19692A6E4E2B0736AD9867EA9A2F5
:10188000A6D9CCCEE49A92C4AEA6F2A9A6BCD4CE78
:10189000CCC4C28CDCD6D4B4B65CECE8ECA4A29C7C
:1018A00088806CC2C174AFAA84C8CF74ACAE9CDC13
:1018B000CAEC817EE4F4F694F0F6BC7E7ECC807EA9
:1018C000FC847EB4F3F67C716AE4F6F6ECA8A6B468
:1018D000D4CE8CADA6CCC0BAD47572B421F90401B3
:1018E00000003E002C000000005A005C000708FFCA
:1018F000007D081C48B0A0C18306990D5C23B08709
:1019000043850419AE99280B818F893E9841500870
:10191000D1C7198420438A1C499059C78110F45DAE
:101920006468704F9E2917053263699026C99B38F9
:1019300049DA5CC8334F02311E640ADC3934A7D15E
:10194000A3327B9CDC13D487CA811013D01121F001
:10195000E91E5904F51145CA35A4C35D457DF498C7
:10196000B1AB07548852BE99A8EA23C732255DE37C
:10197000E264C8AC4759851E58A2315BD28707790B
:101980001540105C40E719C69872131FFC0AF6E276
:10199000293B3C508993B8C624B31315EA34699A9D
:1019A00083478D122CF7C0548CF464C4B1652FAEFC
:1019B000086267459A2C4EF6C464A66F81110E76B4
:1019C000827A50C2E086E18B14406D253DD272418F
:1019D00066F41A80DDAD01CEC072FF4A0CECB12670
:1019E0005ABE0A3C0682B8C1E0772B2C4F881BFFF9
:1019F000AD5B3763C9192ECC3E31B142B6873D0B82
:101A000074A5B129AE420D316B3C3C69D3E6D49E3E
:101A100035B28880C308C3155460570E2548D05886
:101A20002EA0E1431C48E41187122728214510CB42
:101A30001CE683280968308240B2DC20C3877BF033
:101A4000008E353C8957DC2E6529B5E00C17D0C3D4
:101A5000CC1E69C8B20718300491862EE3D0D4C3D7
:101A600017E1F811D41A4E7CE3CB19D5C12002340A
:101A70008845A4E2627691E5504C63E990DE1EABA6
:101A8000E8C21028C4B841411C03E933033D36C401
:101A900030543C60800901163800729386C431B31B
:101AA000CB9833B828931EF3E8408F073FA4F18307
:101AB0003ABBA081060419CDC44C183A58F18942AA
:101AC0007B8892CA1A165041C9024D0DE541A561A5
:101AD000A9C89043338C999A4C33E880820E3DC458
:101AE000C1431AC04030831E2D2AA4CF1863A4FF1F
:101AF000B750650D0C218AA598FA55D48139412437
:101B00005146ABBAA0C70C103183DE1866CCE0C3D7
:101B10001EF5F022CD11174849E82E28D0A083B237
:101B2000027D21E7108DC926D01339E440C12FBDB5
:101B3000F4C2030FBD5C615193999664D2AC16B8A0
:101B4000B806394A045565AC4B141A2A0D28C83A10
:101B50008209E014E042034A39A4070DD62ACB12C9
:101B60003DBB58905F1C259C22317770F4D15B0DF2
:101B70000CC8A30434BCAE28680F1E98C0801D3961
:101B800088A5033E63EC62590F7AB04143B2173522
:101B90009106299D82A5EA186CB0A103A1138922A0
:101BA000001731FCF28F09264C22C3370C9450C227
:101BB00009CF54F08D0C4E5CAA580F0D5CEB8106DA
:101BC0000C7CD3C408CC1C8C8FAC02517B0D1B2E1B
:101BD0002C6B822E9490D080B210B8D005D910AC66
:101BE0007142097648B10AD12A301084040BE4FF0F
:101BF000D0D4A5CBA85542AE0799966243C6C62A53
:101C00000E126F9CC2C00AA2F4A0030DD152596DEE
:101C1000BF0A2DD307283D84A18749A136E389084F
:101C200026B4E1B40C7420D1440923EC51B24039FC
:101C3000C0948706CB3CD1B152A60D176A18BF30AD
:101C4000D01D080C244006A26390AA500FF3B08167
:101C500042315FDC8805362E44BB0B04E8B8E2470E
:101C60001AC754E0CC1B5238E137EC3E4800480E0E
:101C70004FA4E284133780F0A179ECCBD5353DCB6E
:101C8000BC914B1332DC50030CD534836C1875CEE9
:101C900030060A5D400437F6D18D4510010544A891
:101CA00059144C50030EA44F162CA9140B72500259
:101CB000068840044E3881330CE08486E00E2A24E6
:101CC000E108423CE08B249CC00E46A8431D9C21A9
:101CD0008569940105A35A153EF0318F0FECE0158C
:101CE0009A70010ACCB00917B8C00ABAF00207FF0F
:101CF0007C211B86E8431F66094A0264E08B490485
:101D0000C109D050C61BF24014111AEE2C09220F43
:101D1000FB1842C25878C00E78C88C116A008E0F2A
:101D2000C090063EC407D91AD00017E8A00B3A4865
:101D3000473A7C48050D702009CF48CABBF4718230
:101D40001C38C1084678437B4E61249A20D124FA7E
:101D5000D848FB0AE710342CA14553AA8C0F40F059
:101D6000060F8CE014F270021DE8F08B4DD0407924
:101D7000FCD2C1180E88337E61821D17B8800BB863
:101D800000831ADC200F4E2148504EA18CA6C92397
:101D9000014F380512A4B0873D40A0609DFAE0BB1A
:101DA000425297B158A0667799513D649083673845
:101DB000E10927A807039E300314E42C673BC407FE
:101DC0000CABA50062D8005A17988506267183A827
:101DD0000D44141EF8452F39500723C0E109B2C045
:101DE0008306FE8380638E490F7AC0DD1511C2FF22
:101DF000297A84C105C1F481246AF006273C436234
:101E000080718612D0300684CD430B08DBA116D634
:101E1000F68817ECE20FC9B80015606084249CE2D4
:101E2000757CF2012A24F0846FDC4005E1F0410565
:101E30000C009A4E4C010D7AB88095EAB44F84D0CC
:101E40008541FF0CC31198010D5DD0216B15002455
:101E50002041A08F22204C0B3A80C53568100A0C17
:101E60004060097C2880373A90810B58A11E498830
:101E7000453EA221100FF0C2032718800C2A90497A
:101E80000F38A102F618C11780F08919144158F9CA
:101E9000ACE915E95297198421A716A806277E00F8
:101EA000877A8060121DB5C70022514D7EB141A9CD
:101EB000D918063240A1CA5700A103FFB4422E62CE
:101EC000118B6FFC4257E1585A1B9CD1CE11780000
:101ED000063738C508124108CF5DA02C1DF30AA7AC
:101EE00066508CB736205FAAE0C50A72D90606FF95
:101EF0002C0307106828C23E890205B8410E79AA52
:101F0000C2213431042B4C401EECAC000C9A72827E
:101F10001AE0C11E49E0802C7290877A482007EAB7
:101F200008C40588C02ABEA4762454D321BF6660A5
:101F30000A4E68A08F1319411052310F84B94C79A1
:101F40003CDC040A2E0000282CE1132C18400DEC78
:101F5000710A0ED001126D194103EB908F53E8E71F
:101F60001B1A308505B4318B1934805048645708EA
:101F70006B22161D62530F8BE0453D1200030D9836
:101F8000E0061A60C419D9900D0530620C21408119
:101F90002232200A04104003F2E0C113F6704729F0
:101FA00010C80725AC03123C9003112001104B28E8
:101FB0004532D0400F6C39A95735A98B1E44F93FE3
:101FC0002DB0E01FE7BA813D8CA0014FBCB1A10A42
:101FD000B8051044E5802D14000109C81A0FFC064D
:101FE0008D3A70A00DCBC8CB08DEF08D1FF8E0FF56
:101FF0000470C0823E10108C3FCCC92CBFC2493146
:102000001364A705A1210C0D1DC33460008D11E4DC
:10201000E1191C60802B8E8033366C421B6E389920
:102020000EF8408D6EBCA10E99F44B7F2B50814968
:102030002C43202774C21A4E918639D0830C31F874
:10204000E5948E639961F2A4AE7AF0215C83C9971E
:102050008CF4408745B00001E8600006C8C00B372B
:10206000B00409C6B0011816A108CA23822658A0D8
:10207000012F5440064D0141054EF10C6518E10950
:102080007939C11EE220054BC8940B716009638247
:10209000256B80B6C8206389B50ED66D251F0EEB63
:1020A0002155424118D001C65334C117CAD0001976
:1020B00026B7CD6A8D610813F8C70D8C70837AC47A
:1020C000049379F0C029BC00870F11A90248E88663
:1020D0001B4950A839A14754302CDE4C550692BA02
:1020E000A247A6FFDBA6B004E5C644D5A30227FF9E
:1020F00078422E83E0075B880A61D7404103409114
:1021000085493841060C90004656C0809239C10E70
:10211000038083044E504229B4020DE6466AC8ADDE
:10212000C9AF7ED19AD58BD9C592FFE7B2511500C0
:102130001455A04218A24501248416786F504130EE
:102140003491BC4F86210322C80533E9D07096F044
:1021500080013E70020372210F0D489303F908823B
:102160003AF4F0562DB82CA219B792CA3A72986276
:102170001A2E4A3EFCDF2640A18B6F18000613186A
:10218000C20F832182139CC009A778830940D10024
:102190003398A10136C0813C7A7E02242460220A51
:1021A00069420DF2F086DB1881013078C06B8080C7
:1021B0000614149BE963D31304549D90E9107E2800
:1021C00037ED143E3310440766E1161D903C137042
:1021D000B08CF3D9A30EDF78C092B5400254E4CDA1
:1021E0000E3EC8836D87F46623B4C108CA504BFF06
:1021F00034CEF0052E246214465543D361A8837C67
:102200001EB9F714B609441620056704211243D8F5
:10221000042632E1823088E00D356004B1500715A4
:10222000D00247A005CD0005AEF44E60953ECB220E
:10223000104E9004AFA7019CC0046E842C3B840216
:102240006AA07E6C300F00056FB5761C8B444C5D28
:10225000550206F00DD6F00963D00505900CC5C3F4
:102260000274905C3710045070042E20000FE0348C
:10227000BC5032CF504E2C8119CE20031A10095673
:10228000E002A3244A0E400465C70663D05D2661C0
:10229000172178134F982065911A39200574700220
:1022A000CCE0467AB00528300F5490061CC001419E
:1022B0004000C1E0096130042C10806D70050211EE
:1022C0000DF2101E6F960B8EA701FE6001433004C5
:1022D00016F00558070F5530072FB06E71C567C847
:1022E000944507B12951126BB2166BEFA60F3FFF51
:1022F000F00051B0062C430F170043178009C6B0F9
:102300000AAEC004477057F0500FCEC600921014AA
:10231000271004E1B1070C940B300004BB30048E8D
:10232000300BDB60092D000531C00D3B800165E0FD
:102330004364116BE4D66E35232FB36117890743CD
:10234000D884021AF70EF8C404B4800355F00AD4F6
:10235000400F66604DD970017AA0050EE0437F40C2
:1023600000FBF50C0CB03EE2304F7B400E6D703F31
:1023700036A005324702F1D00FD2F04B431053ED97
:10238000D00830940DDB244AD6D46F822825FAB0C9
:1023900032735272FF1372B0320FEFF05668A00A18
:1023A00062300D50E006EE200821C0064B055F0E9E
:1023B000400F57006398D70403E10162C0340C302A
:1023C0000926300D618002D7D00829B00DDB9008B6
:1023D00011400818F00276150A34700D631351F39A
:1023E000308FC5E36E75A24FC621131EA76E2EFF58
:1023F000300A5C9001243002D0B007E880005C70A5
:102400000EEFB05BECE702549091E190030C700A80
:102410002BE103236007DC0103557004F3A0542172
:10242000100A8E800D0AA0003B0004B7500DD41096
:1024300006111572EBE643107006595430E4D1676B
:10244000ECB25ABB7006E8000485200442C00EB509
:10245000707E0DA000D5E232D9E00068400937F067
:10246000067EA30125E02D130102CEA00B643004EB
:10247000A2F25E28E000A23206D4B00722F000AE3D
:10248000A009FFA3038C6025C35227BC225785D225
:102490003EC6B2643A009007B04D1BA8063A600AE7
:1024A00041C0001D541D2B401388760CADD000F3A5
:1024B000C808C5A003D10843F300013EF5005CB095
:1024C0002AB4D66ABB7214EF3285738271288032C7
:1024D00063E0005A80622BA903A8603F9EE503D603
:1024E000600D2CC16D521009D4A0038610023AFF72
:1024F000D00083F008805609A1E002CDC00537E086
:102500000CBC500D9AF04F52929C6FF27E62217C6F
:1025100053C7749F94624470572FB00548450541D6
:10252000E00C6B418A127011710003588009F2555A
:10253000049770077C70048330086C94026E200D41
:1025400068E20C1C000E5CC09C1BD767FB04273E96
:10255000122CB072462C09780170070DE008B540C6
:10256000089A8006FBC01F70311080C0102BC00B72
:102570003BA0030CD95B0DA009D4400888E0438F31
:102580002004E0F000AC700C11870D2FD7749E3939
:10259000937CE66A06D210AB428F7F8730AB393628
:1025A0005FD80882300354C00E29000114900653EE
:1025B000664E7EF103790009BA400B461502C566E6
:1025C00006E7100819D0000E608C45700EA4200498
:1025D000DB0004F0C007A2C45BD79471C2F28B0F7A
:1025E000512C109148108074F4684DD854A5CAFF3E
:1025F00013995AC00F2F600119400567300E41E052
:102600000B20E0260371025260027EB00497130291
:102610009FC4081850008CC090A1D400CDA009C55B
:10262000109DA262064B578CC5430F45B6175372D7
:102630003C63D129E5B6AB8AB86EB1F272A3D20E73
:1026400083D05A6860030F009B4A900A04610D52C0
:10265000A002E5582D9FE45E29664DD7A07E19D7CC
:102660006FB10250FF5472ED065045466B2E524C2E
:10267000F8F9992CC26751122CD06A060AA0085F9B
:102680003803B7700F69160D5130246B900548D090
:102690000A33E0002E93628CBA5BBBF57763A33CF0
:1026A00033451664C122065BB0E69A104FFA7B955B
:1026B000A12AB8E95E9F045FD4700830F03D94E22F
:1026C0001769D00750F0078F3943A5C4061BA04DEA
:1026D000D0BAA811BB4DB1029AC168AE1F849C76D6
:1026E000C1502ED3922B490363400204F00F39FFEF
:1026F000C010CAFA044D8004E390018FA93C0E106B
:102700000AF2583CC852A5C49833FECA842E901AC7
:102710002C411EFB14852171713BE45EDBB4545DDA
:10272000C005FFE0210201087B700A35F00F02505E
:10273000890EB905ED503C8C60016DB492277A4D3D
:1027400055BA54A1542720444C35251675B5A48D8F
:102750008A0248358FA2D0071A400E7E210BA7505F
:102760000174D00F9FA007DB64065AF00181580660
:10277000899008091902D5EAB68ADAA848FBB66E2C
:10278000591A0CB2A4F3286BBC399E9E200A0F1074
:1027900004BAF01F7B6007410003A6600547D00024
:1027A0005A50045A60577A500A836092C3700707E0
:1027B000B00192DBA89EE943C4382A7AC0335CC1D9
:1027C0002916C6A432397563400FD360090B800AFD
:1027D00022A001ABA00141A00238A00A56300A1D78
:1027E0008009A5800B811008C26001B630079BFFED
:1027F000C03F61A008FA1AADEE355376B164EC170C
:10280000060C73B922713CFBE8ABED370384A2647C
:10281000938346C4A7020970023F00064150035249
:10282000A00BB33004D8200758D00DD5800E364009
:10283000005920068E3906F3D000D4E008CDB0A4AC
:102840001B38364BCB1173D2AB9BE9BE08611273B8
:10285000B2BA9EF36E3121893A34364370080C6067
:102860000F93F04E15A20B3C0004BB790168F00AEF
:10287000584009A27006E5800441500D4790873BFF
:102880002007B34005CD608E6A6BADEE371D240A7C
:1028900043BB908F245817BBF04890F47BB7467524
:1028A00044C00974900449307AB9500271200D4B2C
:1028B000F0B03B74019E6009FD6001DE700F356071
:1028C000021200038700045CE006A4B0036E554AC0
:1028D0001C182B8D216E1627252B0B25097B129B8F
:1028E000A20754370647700FD3366568C5002DFF21
:1028F000400AC53006864003EAF76F58E00F5A5089
:102900000C5870313040069F8006474005A3700E7A
:102910006DF49C8A6A8C60831805934573FB84E58B
:102920006138C752752E500DB081076F9004D017D3
:102930000462500D7C29AA6AC00666500642600EE9
:10294000F35004509005FFE007737001FDA8030ADF
:10295000800B5AF0BA52AB3C275B388637B720045D
:10296000A515D697A3A20F50100E7B40076F606D80
:1029700082F404AE20B44C47625B900C9A39067F17
:10298000300DD340022EC0061BB801C5B305F3308D
:102990000F058B1EC488C7B36293D40C5E868B3040
:1029A0004DD8037B00035310050C800778C000F559
:1029B0001007E1800C5A20B208830F26265EEB86B2
:1029C00028D5B28156A20507E4BB4AB10B160643CF
:1029D0000055385CC1112CF39801BD06D010046B72
:1029E000100CBAF00CCFA0017DF0040450053AFFA2
:1029F000340F63000B4C5A76FCF23FB8AB7E0055A7
:102A0000350B392A322175186725501B17753BB0D5
:102A1000D4B1072500061E700B38E0044AF00F22DF
:102A2000E00F42500045102B7E8730B06A06FE6AE8
:102A300025D08A02ACE2D1A23A2AB596B9BE4B2C77
:102A400089F18481B26E1C87A084260A9680034F88
:102A50001004F58003E610A76EE44366507579E232
:102A60009166E74639830F5A501668A0A321902C2F
:102A7000BEE2031E2D4AD7E2C146E1104B80063369
:102A8000391471300ED3F005CCD60B2340079B4789
:102A90000265F056FCA343F8C02FBC0BD033B00442
:102AA0002EE0D54C3893539727D8C21252D77FAC1B
:102AB00062CD91FD15054328F00109FD00018BE071
:102AC00061DA660074E00A0D60D3816A8455D72903
:102AD000A584027B81061025B371B59C9D9BC752CE
:102AE000FA745D31850F211067200E9DC01423FFFD
:102AF000F003C740447150034850051DD9842CA2EF
:102B00000766A0463AF048EFBC546160302E132BA4
:102B10004A81444BA63CA55C104784D4D3FC1417CF
:102B200031243C9037A2164D3FC0B130349380061B
:102B3000D24A71C268548538D32F8DC1D83A144314
:102B4000DE15A52AE2DF1E000874200527B0062343
:102B5000600C3FF005466806C6C332FF330F71E5CF
:102B60003F9F941EC2588F46662C46A805DD7538D7
:102B70004F42107B4001F780041DC4D4E1800EBB9E
:102B8000A003923988D5E474A06361B262173A2A2F
:102B9000D61DC1206D04B7351E165293037E000E5C
:102BA00038D0E11ED0099D90119D778D8337163066
:102BB00014062AD3E2017D1163012BA59C2074F237
:102BC000D671AB221E200B7E80050B00271040D44F
:102BD000F6DC03F958C5CC7DCAFE43DF54B2D711E9
:102BE0004ED268102FF087143671184FC00238FF8C
:102BF000C00253C0109D10034C026BFC03152C3314
:102C00002A83072CA252CA30CE3F7866933DB07B10
:102C1000471D1713C1457BF0043F4000E2D055CB60
:102C2000C2311931279A3E1B52573CB55617BC5931
:102C3000DBC1372C6ACE11B4F1E43ED009E560095E
:102C4000BF603B98E2236301E6676DE2F9FDE3FABA
:102C5000ACC44506A28562DB5DF1117EA10AC0000D
:102C60002636E1DF436130C3A2107441D4F97D6B95
:102C7000EDA7147A1C4C27D1CF5D51E8FF2D132A04
:102C8000C11248B40BCBAEEDB6C68827C1321FB80F
:102C900020B91AE1BADE2487E12D625138BB7004F5
:102CA0009F226EC4198230AED6297B17F70E12F21E
:102CB0005738AAB26A4941D94636D468A03234811D
:102CC000DD078FD40A5210B91A8575A548F4CEF0E5
:102CD000153FD27E0CB586C86ACEFEF17171F1182F
:102CE0006F12DF65F289E1F1EE52F22CAF222E076E
:102CF000DF17E4AE180101003B25454E444854540B
:102D0000502F312E302032303020446F63756D6586
:102D10006E7420666F6C6C6F77730D0A53657276F4
:102D200065723A204156525F536D616C6C5F576516
:102D3000627365727665720D0A436F6E74656E74A8
:102D40002D547970653A20746578742F68746D6CB1
:102D50000D0A0D0A00485454502F312E30203230C5
:102D60003020446F63756D656E7420666F6C6C6F98
:102D700077730D0A5365727665723A204156525F39
:102D8000536D616C6C5F5765627365727665720D29
:102D90000A436F6E74656E742D547970653A2069BC
:102DA0006D6167652F6A70670D0A0D0A00485454FB
:102DB000502F312E302034303120556E61757468BB
:102DC0006F72697A65640D0A5365727665723A208E
:102DD0004156525F536D616C6C5F576562736572EB
:102DE0007665720D0A5757572D41757468656E7474
:102DF00069636174653A2042617369632072656139
:102E00006C6D3D224E65656450617373776F7264BB
:102E1000220D0A436F6E74656E742D547970653A95
:102E200020746578742F68746D6C0D0A0D0A003477
:102E3000303120556E617574686F72697A656425EA
:102E4000454E44006C65646F66662E676966006C6B
:102E500065646F6E2E676966000000636865636B6A
:102E6000656400504F53540053746172742054656C
:102E70006C6E6574205365727665723A0D0A00D9DE
:102E8000000AFA0000000000010400000000000039
:102E90000000000000000000000000000000000032
:102EA00000000000000000C7D6AC7208000000253A
:102EB000454E440A0D4E54502054494D453A202564
:102EC00032693A2532693A2532690D0A002A2A20E8
:102ED0004E545020444154412047455421202A2A31
:102EE0000D0A004B65696E204E5450205365727672
:102EF000657220676566756E64656E21210D0A0036
:102F00002A2A204E545020526571756573742067CB
:102F10006573656E64657421202A2A0D0A002A2AC9
:102F2000204C434420444154412047455420427999
:102F30007465733A202569202A2A0D0A00474554F2
:102F4000202F78616D70702F696E6465782E7068BF
:102F50007020485454502F312E310D0A486F73742D
:102F60003A3139322E3136382E302E39390D0A4366
:102F70006F6E6E656374696F6E3A204B6565702D78
:102F8000416C6976650D0A0D0A005443502045696D
:102F90006E7472616720676566756E64656E202168
:102FA00021210D0A005443502045696E74726167F7
:102FB000206E6963687420676566756E64656E0D62
:102FC0000A0041525020526571756573740A0D00F4
:102FD0002563000011241FBECFEFD0E1DEBFCDBFBF
:102FE00012E0A0E0B1E0E6E2FDE600E00BBF02C0C7
:102FF00007900D92A437B107D9F716E0A4E7B2E025
:1030000001C01D92AC38B107E1F70E940B180C9477
:1030100092360C940000EF92FF920F931F93CF9380
:10302000DF9387E08ABB14BA11BA80E895E20E9468
:10303000711880EA90E09F938F930E94181980E0A6
:1030400090E0A0E0B0E00F900F9000000196A11D6D
:10305000B11D803422E492072FE0A20720E0B207DE
:10306000A1F70E94E1240E940D300E94633189B7CC
:10307000806189BF78940E947D320E9424328FEB58
:10308000E82E85E0F82E0CE810E0C6E9D0E00E94BA
:10309000C6238091350580FF13C0C7010E946629B1
:1030A000882319F0DF93CF9302C01F930F930E94E0
:1030B00018190F900F90809135058E7F80933505FC
:1030C0008091720290917302892B41F488E097E01D
:1030D00090937302809372020E9424320E941A30ED
:1030E000D6CF28E92AB99C0140E050E084E0220FC5
:1030F000331F441F551F8A95D1F760E074E284EFB7
:1031000090E00E94E735215029B9809135058B7FE9
:10311000809335050895982F8091350582FD03C071
:103120005D9BFECF9CB90895CF93DF93EC0103C064
:1031300021960E948B1888818823D1F7DF91CF9147
:1031400008951F920F920FB60F9211241F932F9381
:103150003F934F935F936F937F938F939F93AF931F
:10316000BF93EF93FF938091350582FD33C01CB16F
:10317000812F0E948B188091350580FF04C08091BB
:103180003505826015C01D30B1F4E0917402F0E0A5
:10319000E254FA4F80818C3571F0E0917402F0E0D6
:1031A000E154FA4F108210927402809135058160CB
:1031B000809335052BC080917402813338F580915E
:1031C0007402E82FF0E0E154FA4F10838F5F809390
:1031D00074021CC020910001309101018091020114
:1031E0009091030101972817390781F08CB1F901FB
:1031F0008193F0930101E0930001E05FF54031F429
:10320000205330403093010120930001FF91EF9152
:10321000BF91AF919F918F917F916F915F914F91EE
:103220003F912F911F910F900FBE0F901F901895F7
:103230009F92AF92BF92CF92DF92EF92FF920F9345
:103240001F93CF93DF93CDB7DEB766970FB6F89491
:10325000DEBF0FBECDBFFE01B496E190F190FA83C0
:10326000E983992423E0A22EB12CAC0EBD1E9DE073
:10327000C92ED12CCC0EDD1EF7018491882309F4D0
:103280008AC00894E11CF11C853209F081C0F70165
:103290000894E11CF11C2491822F90E0C0970A97BA
:1032A00010F0822F0BC02D871E86C6010E94D334DA
:1032B000982EF7010894E11CF11C8491893661F184
:1032C0008A3628F48236F1F08336B1F61DC0833792
:1032D00041F0883721F08F3679F648E01EC040E192
:1032E0001CC0E981FA813296FA83E9831291029136
:1032F00004C00F5F1F4F0E948B18F8018081882344
:10330000C1F7BACF42E009C0E981FA813296FA8367
:10331000E983329780813CC04AE0E981FA813296A4
:10332000FA83E98350E0B501929182910E94A5351C
:1033300020E030E0F501E20FF31F80812F5F3F4F67
:103340008823C1F721503040892D90E02817390794
:10335000D4F4921AA0E0B0E0292D30E005C0EA0FC5
:10336000FB1F80E380831196F601A217B307B9F71C
:10337000AC0DBD1D1C92B501C6010E948835B60179
:10338000C5010E949335C5010E949418992474CFF9
:103390000E948B1871CF66960FB6F894DEBF0FBEF1
:1033A000CDBFDF91CF911F910F91FF90EF90DF90F4
:1033B000CF90BF90AF909F900895EF92FF920F93A0
:1033C0001F93CF93DF93CDB7DEB724970FB6F89452
:1033D000DEBF0FBECDBF8C019A01AB0160E07E0164
:1033E0000894E11CF11CE199FECFE62FF0E0DF012B
:1033F000A00FB11F0E941136802DEE0DFF1D80839E
:103400006F5F643080F369817A818B819C816F3F2B
:10341000EFEF7E07EFEF8E07EFEF9E0711F4CA0183
:10342000B90124960FB6F894DEBF0FBECDBFDF9171
:10343000CF911F910F91FF90EF90089520E030E021
:10344000F901EE0FFF1FE20FF31FEE0FFF1FEE0F4C
:10345000FF1FE451FB4F82859385892B59F410821D
:1034600011821282138214821582168217821086AC
:10347000118605C0828593850197938782872F5F88
:103480003F4F25303105E1F60895DC0120E030E0C2
:10349000422FE22FF0E02F5F3F4FEE0FFF1FEE0FA6
:1034A000FF1FEB58FD4F80819181892B89F74330B5
:1034B00020F4B183A083738362830895DC0120E04C
:1034C00030E0422FE22FF0E02F5F3F4FEE0FFF1F63
:1034D000EE0FFF1FEF57FD4F80819181892B89F7F8
:1034E000433020F4B183A0837383628308951F92D5
:1034F0000F920FB60F9211248F938091280581604F
:103500008093280589B78F7E89BF8F910F900FBE5A
:103510000F901F901895CF93DF93C0919F02D09189
:10352000A00260E070E086E0C830D807C1F4FB017B
:10353000EE0FFF1FE60FF71FEE0FFF1FEE0FFF1F2F
:10354000E451FB4F26813781408551858091AF0240
:103550009091B002A091B102B091B2021AC0C830ED
:10356000D105E9F4FB01EE0FFF1FE60FF71FEE0F89
:10357000FF1FEE0FFF1FE451FB4F2681378140856F
:1035800051858091AD029091AE02A091AF02B091B1
:10359000B002281739074A075B0709F45BC06F5F61
:1035A0007F4F6530710509F0BECF20E030E0F901B2
:1035B000EE0FFF1FE20FF31FEE0FFF1FEE0FFF1FB7
:1035C000E451FB4F86819781A085B1850097A105C5
:1035D000B10509F044C086E0C830D807D9F480911D
:1035E0009902808380919A02818380919B028283D9
:1035F00080919C02838380919D02848380919E02AE
:1036000085838091AF029091B002A091B102B091F8
:10361000B2021CC0289749F580919902808380915D
:103620009A02818380919B02828380919C02838392
:1036300080919D02848380919E0285838091AD025A
:103640009091AE02A091AF02B091B00286839783B1
:10365000A087B18784E690E09387828706C02F5FBA
:103660003F4F2530310509F0A2CFDF91CF9108956A
:10367000AB01BC0180E090E09C01FC01EE0FFF1F5C
:10368000E80FF91FEE0FFF1FEE0FFF1FE451FB4F76
:1036900086819781A085B18584179507A607B7070E
:1036A00039F0C90101968530910531F725E030E008
:1036B000C9010895CF93DF93EC01CB01BA010E94B9
:1036C000381B853009F1DE0140E050E090E09C01BC
:1036D000220F331F280F391F220F331F220F331FD2
:1036E000F901E40FF51FE451FB4F80818C93FA013F
:1036F000EF50FA4F8081FD0186834F5F5F4F119637
:103700004630510569F0ECCFA1EFB5E0FE018FEF37
:1037100080838D918683319685E0A73FB807B9F7FE
:10372000DF91CF910895EF92FF920F931F93FC01C9
:1037300079018A0110C080812181329690E0982F12
:103740008827820F911DA0E0B0E0E80EF91E0A1F45
:103750001B1F625070406230710568F7672B51F093
:10376000808190E0982F8827A0E0B0E0E80EF91E55
:103770000A1F1B1F9801442755278FEF9FEFA0E0DA
:10378000B0E0E822F9220A231B232E0D3F1D401F23
:10379000511FCA01AA27BB2740705070820F931F88
:1037A000A41FB51F809590951F910F91FF90EF90EA
:1037B0000895AF92BF92CF92DF92EF92FF920F9354
:1037C0001F937C015A016B010E945A1B88E090E014
:1037D000F701958784878701025F1F4F80E490E09F
:1037E000F8019783868380E8808780918D0290918D
:1037F0008E02019690938E0280938D02292F33279B
:10380000982F8827280F391F3583248385E4F701F3
:103810008687F8011182A08AB18AC28AD38A8091F0
:10382000290590912A05A0912B05B0912C0584873C
:103830009587A687B7871386128620E030E040E0A0
:1038400050E064E170E0C8010E94931B292F3327E8
:10385000982F8827280F391FF801338722871F9157
:103860000F91FF90EF90DF90CF90BF90AF900895B1
:103870006F927F928F929F92AF92BF92CF92DF9280
:10388000EF92FF920F931F93CF93DF9312E2C12E1B
:10389000D12CC80ED91EBC01625F7F4FEB01EC84B6
:1038A000FD840E851F8540E050E086E190E0489F52
:1038B000F001499FF00D589FF00D1124EA5CFA4F7A
:1038C00080819181A281B3818E159F05A007B107E8
:1038D00009F0A0C024813581D6018D919C912817D3
:1038E000390709F097C0E60188859985AA85BB85C7
:1038F00080879187A287B3878C819D81AE81BF81AC
:1039000084879587A687B7878D85808B83898F3F2E
:1039100011F083E0838BEB018A819B81F82EEE24EA
:10392000892F9927E80EF91E8CEE9FEFE80EF91EFD
:10393000E6018C8590E0807F9070959587959595B0
:103940008795E81AF90A00E010E0A484B584C684DB
:10395000D784248535854685578584859585A685B4
:10396000B785648475848684978420703070507025
:10397000232F342F452F5527AD2CBB24CC24DD24F9
:103980002A0D3B1D4C1D5D1D8070A070B070BA2FBC
:10399000A92F982F8827280F391F4A1F5B1F962CA5
:1039A000882477246624260D371D481D591D2E0DA9
:1039B0003F1D401F511FE12CF12C1FEF012F112D36
:1039C000E222F32204231523EF2CF02E012F1127DE
:1039D000852F9927AA27BB27E80EF91E0A1F1B1F50
:1039E000DA01C9018070A070B070BA2FA92F982F8A
:1039F0008827E80EF91E0A1F1B1F522F4427332762
:103A00002227E20EF31E041F151FE486F5860687A3
:103A100017874EC04F5F5F4F4530510509F045CFC6
:103A200020E030E086E190E0289FA001299F500D22
:103A3000389F500D1124FA01EA5CFA4F8081918180
:103A4000A281B3810097A105B10561F5E082F18201
:103A500002831383D6018D919C9195838483E60123
:103A60008A819B819783868388859985AA85BB8572
:103A700080879187A287B3878C819D81AE81BF812A
:103A800084879587A687B7878D85808B128A118A50
:103A900083E0838B148AFA01E55BFA4F80818E7F85
:103AA000808306C02F5F3F4F2530310509F0BACF24
:103AB000DF91CF911F910F91FF90EF90DF90CF900A
:103AC000BF90AF909F908F907F906F900895EF92EE
:103AD000FF920F931F937B018C0180E090E09C018B
:103AE00086E190E0289FF001299FF00D389FF00DAE
:103AF0001124EA5CFA4F80819181A281B3818E15F5
:103B00009F05A007B10729F4848195818417950743
:103B100039F0C90101968530910509F725E030E0BB
:103B2000C9011F910F91FF90EF90089560E070E040
:103B3000E62FF0E0EE0FFF1FEE0FFF1FEF57FD4FD8
:103B40004081518141155105A1F02091B70230917A
:103B5000B8026F5F7F4F832F9927322F2227820F62
:103B6000931F4817590721F70280F381E02D80E069
:103B7000099508951F93CF93DF93182F60E070E0AD
:103B8000282F30E086E190E0289FD001299FB00DDA
:103B9000389FB00D1124AA5CBA4FE62FF0E0EE0F6B
:103BA000FF1FEE0FFF1FEB58FD4F40815181411564
:103BB000510581F0ED012E813F818E819F816F5FE4
:103BC0007F4F892F9927322F2227820F931F481763
:103BD000590719F70280F381E02D812F0995DF91B4
:103BE000CF911F910895863038F5282F30E086E177
:103BF00090E0289FD001299FB00D389FB00D11246F
:103C0000FD01EA5CFA4F1082118212821382158242
:103C100014821782168210861186128613861486E5
:103C2000158616861786108A128A118A138AA55B52
:103C3000BA4F8C918E7F8C9308954F925F926F92C2
:103C40007F928F929F92AF92BF92CF92DF92EF922C
:103C5000FF920F931F93CF93DF932C0170E086E1C7
:103C600090E0689FE001699FD00D789FD00D1124EE
:103C7000CA5CDA4F8E819F819093B6028093B50221
:103C80008C819D819093B8028093B7021092C802F4
:103C90001092C70281E094EF9093C4028093C30214
:103CA00080E58093C102EC84FD840E851F858C85A0
:103CB0009D85AE85BF852C853D854E855F85AC8411
:103CC000BD84CE84DF8480709070B070692E7A2EAF
:103CD0008B2E9924E12EFF24002711276E0C7F1CC8
:103CE000801E911E207040705070542F432F322F31
:103CF0002227620E731E841E951EDA2CCC24BB2450
:103D0000AA246A0C7B1C8C1C9D1C88898093C2028F
:103D1000888981FF05C00894611C711C811C911C5D
:103D2000A4019301207030705070232F342F452F41
:103D30005527892D9927AA27BB27280F391F4A1FE6
:103D40005B1FD401C3018070A070B070BA2FA92F7F
:103D5000982F8827280F391F4A1F5B1FB62DAA27C7
:103D600099278827280F391F4A1F5B1F2093BD0200
:103D70003093BE024093BF025093C002888599855C
:103D8000AA85BB858093B9029093BA02A093BB0227
:103D9000B093BC02C2018896292F3327982F882719
:103DA000280F391F3093A4022093A30286E080934A
:103DB000AA02488159816A817B8183E992E00E944D
:103DC000D91B1092C6021092C5028091A302909155
:103DD000A402782F6627892F9927680F791F685FBB
:103DE0007F4F8091A10290E08F709070880F991F93
:103DF000880F991F681B790B625070409B0140E04F
:103E000050E06E5F7F4F8DEA92E00E94931B292F56
:103E10003327982F8827280F391F3093C602209305
:103E2000C50263E972E0C201C6960E94C82A188AD8
:103E3000DF91CF911F910F91FF90EF90DF90CF9086
:103E4000BF90AF909F908F907F906F905F904F90BA
:103E500008958F929F92AF92BF92DF92EF92FF925E
:103E60000F931F93CF93DF937B018C015A0149017C
:103E700089B78F7E89BF20E030E0D22E86E190E0C6
:103E8000289FE001299FD00D389FD00D1124CA5CD6
:103E9000DA4F88819981AA81BB810097A105B1057C
:103EA000F1F4822F0E94F31DE882F9820A831B83BA
:103EB000BD82AC829F828E8282ED94E0A0E0B0E071
:103EC00088879987AA87BB8789E299E0A0E0B0E05C
:103ED0008C879D87AE87BF878EE18B8B06C0D3947E
:103EE0002F5F3F4F2530310541F62D2D30E086E123
:103EF00090E0289FF001299FF00D389FF00D1124CC
:103F0000EA5CFA4F82E0808B6D2D80E090E00E94A9
:103F10001D1E89B7806189BFDF91CF911F910F91DD
:103F2000FF90EF90DF90BF90AF909F908F9008959B
:103F3000482F50E026E130E0429FF001439FF00D12
:103F4000529FF00D1124EA5CFA4F2FEF3FEF328BB6
:103F5000218B91E1908B682F80E090E00E941D1EE4
:103F600008958F929F92AF92BF92CF92DF92EF927D
:103F7000FF920F931F93CF93DF9340E050E0C42F45
:103F8000D0E0FE01EE0FFF1FEE0FFF1FEB58FD4FBD
:103F90000190F081E02D309709F4DBC12091B70248
:103FA0003091B8024F5F5F4F832F9927322F22271E
:103FB000820F931FE817F90711F72091C20221FF22
:103FC00097C024FF95C083E992E00E94381C40917D
:103FD000B5025091B6026091AD027091AE0280912F
:103FE000AF029091B0020E94671D682F853008F0E3
:103FF000B0C1282F30E086E190E0289F4001299F42
:10400000900C389F900C112486E395E0880E991E41
:104010008EE1F401838BE484F5840685178584851D
:104020009585A685B7852485358546855785A484DD
:10403000B584C684D784E12EFF2400271127807021
:104040009070B070892F9A2FAB2FBB27E80EF91E06
:104050000A1F1B1F0894E11CF11C011D111D20707B
:1040600040705070542F432F322F2227E20EF31E40
:10407000041F151FDA2CCC24BB24AA24EA0CFB1C39
:104080000C1D1D1DA8019701207030705070232F4A
:10409000342F452F5527812F9927AA27BB27280F73
:1040A000391F4A1F5B1FD801C7018070A070B07014
:1040B000BA2FA92F982F8827280F391F4A1F5B1F57
:1040C0001E2D0027FF24EE242E0D3F1D401F511FE3
:1040D000248735874687578780E1808B80E090E092
:1040E0000E941D1E81E090E0F401928B818B31C112
:1040F000223051F583E992E00E94381C4091B502CC
:104100005091B6026091AD027091AE028091AF0203
:104110009091B0020E94671D682F853008F019C188
:10412000282F30E086E190E0289FF001299FF00DD4
:10413000389FF00D1124EA5CFA4F82E1808B80E019
:1041400090E00E941D1E05C14091B5025091B6023B
:104150006091AD027091AE028091AF029091B00279
:104160000E94671D882EF4E0F817C0F483E992E0FE
:104170000E94381C8091C20280FD02C082FFE9C00B
:10418000282D30E086E190E0289FF001299FF00D76
:10419000389FF00D1124EA5CFA4F17C083E992E0D2
:1041A0000E94381C482D50E086E190E0489FF001C5
:1041B000499FF00D589FF00D1124EA5CFA4F808959
:1041C00080FD03C0808982FF6FC0E484F58406858A
:1041D000178584859585A685B7852485358546858B
:1041E0005785A484B584C684D784E12EFF24002794
:1041F000112780709070B070892F9A2FAB2FBB273A
:10420000E80EF91E0A1F1B1F0894E11CF11C011D7A
:10421000111D207040705070542F432F322F2227D1
:10422000E20EF31E041F151FDA2CCC24BB24AA2493
:10423000EA0CFB1C0C1D1D1DA8019701207030709D
:104240005070232F342F452F5527812F9927AA27C8
:10425000BB27280F391F4A1F5B1FD801C701807079
:10426000A070B070BA2FA92F982F8827280F391F58
:104270004A1F5B1F1E2D0027FF24EE242E0D3F1D1D
:10428000401F511F2487358746875787808980FFC5
:1042900007C080E1808B682D80E090E00E941D1EA9
:1042A000882D0E94F31D55C0808983FF0BC0808933
:1042B00084FF08C0818992890196928B818B88E165
:1042C000808B3DC086E190E0489F9001499F300D72
:1042D000589F300D1124F901EA5CFA4F808984FF60
:1042E0000AC0F901E55BFA4F808180FD04C080813E
:1042F000816080832EC086E190E0489F9001499FB5
:10430000300D589F300D1124D901AA5CBA4FFD0120
:10431000808984FF1EC0F901E55BFA4F808180FF30
:1043200018C0FD01818992898F5F9F4F91F080E1D4
:10433000FD01808B818992890196928B818BCC0FB4
:10434000DD1FCC0FDD1FCB58DD4FEA81FB81882DAF
:104350000995DF91CF911F910F91FF90EF90DF9022
:10436000CF90BF90AF909F908F900895CF93DF93A1
:10437000C0E0D0E086E190E0C89FF001C99FF00D59
:10438000D89FF00D1124EA5CFA4F8389882329F520
:1043900080819181A281B3810097A105B10519F1B6
:1043A00083E0838B84898F5F848B8150863088F093
:1043B00089B78F7E89BF84E1808B6C2F80E090E08D
:1043C0000E941D1E89B7806189BF8C2F0E94F31D3A
:1043D0000AC08C2F0E94BA1D06C083898F3F19F036
:1043E00083898150838B2196C530D10519F6DF91E1
:1043F000CF9108958F929F92AF92BF92CF92DF920A
:10440000EF92FF920F931F936C01E5EB8E2EE2E08B
:104410009E2E852F9927542F4427840F951F909304
:10442000B6028093B502832F9927322F2227820F5D
:10443000931F9093B8028093B702C6010896292F64
:104440003327982F8827280F391F3093BA022093DB
:10445000B902C6014C96292F3327982F8827280F99
:10446000391F3093A4022093A30281E18093AA0212
:104470006EEDA62E6FEFB62EA80CB91CB801A701E1
:10448000C5010E94D91B1092BC021092BB02809100
:10449000A3029091A402782F6627892F9927680F8D
:1044A000791F685F7F4F8091A10290E08F709070BC
:1044B000880F991F880F991F681B790B675F7F4FC3
:1044C0009B0140E050E069507040C40108970E9491
:1044D000931B292F3327982F8827280F391F3093B4
:1044E000BC022093BB02B501C6018A960E94C82A6D
:1044F0001F910F91FF90EF90DF90CF90BF90AF9002
:104500009F908F9008950F931F931092B502109271
:10451000B6023093BA022093B9025093BC02409382
:10452000BB021092B8021092B70220E034E530933B
:10453000A4022093A30221E02093AA0203E912E03F
:10454000AB01BC01C8010E94D91B8091A3029091CC
:10455000A402692F7727982F8827680F791F8091E9
:10456000A10290E08F709070880F991F880F991F9B
:10457000681B790B20E030E040E050E085EB92E0F2
:104580000E94931B292F3327982F8827280F391F24
:104590003093B8022093B702B80182E690E00E94FF
:1045A000C82A1F910F910895CF93DF93C1EAD2E0FB
:1045B0008091A1029091A2028050914009F099C08F
:1045C0008091A3029091A402089709F092C0809173
:1045D000A502863009F08DC08091A602843009F0D2
:1045E00088C02091B9023091BA024091BB0250912B
:1045F000BC028091290590912A05A0912B05B091CC
:104600002C05281739074A075B0709F072C080910B
:10461000A7029091A802E1E080309E0709F064C0F3
:104620000E948B1A4091AF025091B0026091B1028A
:104630007091B202CE010E970E945A1B88E096E05C
:104640009093A00280939F026091AF027091B0029C
:104650008091B1029091B2020E94381B853009F11D
:10466000DE0140E050E090E09C01220F331F280F54
:10467000391F220F331F220F331FF901E40FF51FDB
:10468000E451FB4F8081FD01828BFA01EF50FA4F1C
:104690008081FD0180874F5F5F4F11964630510545
:1046A00061F780E092E09F838E838091AF029091CA
:1046B000B002A091B102B091B202888F998FAA8FF7
:1046C000BB8F8091290590912A05A0912B05B0916F
:1046D0002C058E879F87A88BB98B63E972E08CE3EA
:1046E00090E00E94C82A05C08050924011F40E94B8
:1046F0008B1ADF91CF91089580919F029091A00233
:1047000026E08830920719F40E94D4220895089771
:10471000E1F52091B1023091B2024091B302509183
:10472000B4028091290590912A05A0912B05B091A2
:104730002C05281739074A075B0739F50E948B1AA1
:104740008091AA028130B9F48091B5028830E9F4F1
:104750002091B9023091BA024091BB025091BC0243
:104760006091AD027091AE028091AF029091B00263
:104770000E9483220895863011F40E94B11F809117
:10478000AA02813111F40E94961D08950F931F9380
:10479000CF93DF938091280581FF09C00E94B62145
:1047A0000E941E1A809128058D7F80932805809194
:1047B000280580FF37C087E60E942D2A87E60E94E1
:1047C0002D2A80FF1FC0C3E9D2E0BE0188E592E038
:1047D0000E94242BFC01E057FD4F10820E947C2395
:1047E00083E60E942D2A082F62E680E60E94242A92
:1047F00087E60E942D2A182F62E280E60E94242A72
:10480000011719F76FEF87E60E94242A62E280E61B
:104810000E94242A809128058E7F8093280589B7DD
:10482000806189BFDF91CF911F910F9108958F9281
:104830009F92AF92BF92CF92DF92EF92FF920F932F
:104840001F93CF93DF93CDB7DEB7AA970FB6F89437
:10485000DEBF0FBECDBF4B015C011FE0C12ED12CCE
:10486000CC0EDD1E8091310590913205A09133056B
:10487000B091340585017401E822F9220A231B2333
:104880002091290530912A0540912B0550912C0546
:1048900082239323A423B523E816F9060A071B07EE
:1048A00019F48501740108C0E0902D05F0902E05E3
:1048B00000912F051091300588E096E09E878D8746
:1048C000B801A701CE0101960E945A1B80912905CB
:1048D00090912A05A0912B05B0912C05F6018687B1
:1048E0009787A08BB18BE08EF18E028F138FA1EF93
:1048F000B5E08D918087128A319625E0A73FB207F7
:10490000C1F720E031E0F6013183208388E090E0B8
:104910009383828386E0848384E085833783268340
:10492000BE016F5F7F4F8AE290E00E94C82ACC24CC
:10493000C501B4010E94381BD82EC801B7010E94DE
:10494000381B853020F0F4E0FD15A8F025C024E0E8
:104950002D1510F590E0FC01EE0FFF1FE80FF91F79
:10496000EE0FFF1FEE0FFF1FE451FB4F8682978271
:10497000A086B18611C080E090E000000196E7E2D9
:1049800080319E07D1F70E94C623C394F4E1CF166D
:1049900079F680E090E002C081E090E0AA960FB640
:1049A000F894DEBF0FBECDBFDF91CF911F910F9165
:1049B000FF90EF90DF90CF90BF90AF909F908F903F
:1049C00008950E94552540EC58EA60E073E68EE1B8
:1049D00090E00E94DD196093290570932A05809369
:1049E0002B0590932C054FEF5FEF6FEF70E082E2A5
:1049F00090E00E94DD196093310570933205809339
:104A000033059093340540EC58EA60E071E086E2AB
:104A100090E00E94DD1960932D0570932E05809320
:104A20002F05909330051092F10580E28093F205F6
:104A300088E18093F30581EB8093F40585E1809311
:104A4000F5058FE68093F60585ED90E09F938F93B3
:104A50000E9418190E94362A8CEC90E09F938F9345
:104A60000E94181980912C0590E09F938F9380915C
:104A70002B0590E09F938F9380912A0590E09F9360
:104A80008F938091290590E09F938F9381EB90E025
:104A90009F938F930E9418198DB79EB70E960FB6ED
:104AA000F8949EBF0FBE8DBF08958EB58D608EBDEC
:104AB0001DBC1CBC88E09DE39BBD8ABD87B780619F
:104AC00087BF08951F920F920FB60F9211248F93F4
:104AD0009F93AF93BF938091BB059091BC05A0912C
:104AE000BD05B091BE050196A11DB11D8093BB050A
:104AF0009093BC05A093BD05B093BE058091280599
:104B000082608093280580917202909173020197D0
:104B10009093730280937202BF91AF919F918F9196
:104B20000F900FBE0F901F901895282F803231F0F4
:104B30008C3221F080E090E02E3211F481E090E0A0
:104B400090E00895CF93DF93EC0101C0E9018881E3
:104B5000882349F00E9495259E012F5F3F4F8823AF
:104B6000A9F31882E901CE01DF91CF910895E0E029
:104B7000F0E009940895AC018091F7059091F80553
:104B8000892BA1F020E0E199FECFA22FB0E0FD013A
:104B9000EE0FFF1FE950FA4F80819181A40FB51FDE
:104BA000082E0E9419362F5F243068F30895089567
:104BB000EF92FF921F93CF93DF93C1EED0E09FE877
:104BC000E92E92E0F92EFE0121961491812F90E0BA
:104BD0009F938F93FF92EF920E9418190F900F905E
:104BE0000F900F90112379F7DF91CF911F91FF90D4
:104BF000EF9008956F927F928F929F92AF92BF92A3
:104C0000CF92DF92EF92FF920F931F936090BB05BC
:104C10007090BC058090BD059090BE05E090BB05EE
:104C2000F090BC050091BD051091BE056091BB05DB
:104C30007091BC058091BD059091BE052CE330E0DC
:104C400040E050E00E94E7355B016C01BB24C801E5
:104C5000B7012CE330E040E050E00E94E735CA01A4
:104C6000B9012CE330E040E050E00E94E7357B01E1
:104C70008C01FF24C401B30120E13EE040E050E09C
:104C80000E94E735CA01B90128E130E040E050E078
:104C90000E94E73570E0BF92AF92FF92EF927F9350
:104CA0006F9382E992E09F938F930E9418198DB7BA
:104CB0009EB708960FB6F8949EBF0FBE8DBF1F918A
:104CC0000F91FF90EF90DF90CF90BF90AF909F90AB
:104CD0008F907F906F900895E091F705F091F8051F
:104CE0008091F9059091FA0524E532E0EE0FFF1F5F
:104CF000E20FF31F91838083E091F705F091F805AF
:104D0000EE0FFF1FE20FF31F808191812091F705C5
:104D10003091F8059F938F933F932F9388EA92E009
:104D20009F938F930E9418198DB79EB706960FB662
:104D3000F8949EBF0FBE8DBF08952F923F924F9261
:104D40005F926F927F928F929F92AF92BF92CF921B
:104D5000DF92EF92FF920F931F93CF93DF93C0E008
:104D6000D0E099EF292E92E0392E80EF482E82E094
:104D7000582E0BEE602E02E0702E16EE812E12E001
:104D8000912EB1EEAB2EB2E0BB2EA6EDCA2EA2E064
:104D9000DA2EF9ECEF2EF2E0FF2EDF93CF933F9265
:104DA0002F920E94181986E190E0C89F8001C99F48
:104DB000100DD89F100D11240A5C1A4FF801808144
:104DC0009181A281B3819070A070B070BF93AF93B6
:104DD0009F938F935F924F920E941819F8018081E0
:104DE0009181A281B381892F90E0A0E0B0E0BF93D0
:104DF000AF939F938F937F926F920E941819F8013F
:104E000080819181A281B3818A2F90E0A0E0B0E0FF
:104E1000BF93AF939F938F939F928F920E94181985
:104E2000F80180819181A281B3818B2F9927AA27D4
:104E3000BB27BF93AF939F938F93BF92AF920E9474
:104E40001819F8012481358184819581892F99274A
:104E5000322F2227820F931F9F938F93DF92CF923F
:104E60000E941819F80183892DB73EB7205E3F4F85
:104E70000FB6F8943EBF0FBE2DBF90E09F938F9367
:104E8000FF92EF920E94181921960F900F900F90A9
:104E90000F90C530D10509F080CFDF91CF911F91E0
:104EA0000F91FF90EF90DF90CF90BF90AF909F90C9
:104EB0008F907F906F905F904F903F902F900895CC
:104EC0002F923F924F925F926F927F928F929F921A
:104ED000AF92BF92CF92DF92EF92FF920F931F9308
:104EE000CF93DF93C0E0D0E0B7E22B2EB3E03B2EB0
:104EF000A2E24A2EA3E05A2EF9E16F2EF3E07F2EB4
:104F0000E4E18E2EE3E09E2E7FE0A72E73E0B72E25
:104F10006AE0C62E63E0D62E5DEFE52E52E0F52E58
:104F20008E01000F111F0C0F1D1F000F111F000F0E
:104F3000111F04511B4FF801808190E09F938F93C4
:104F4000DF93CF932BE333E03F932F930E94181905
:104F5000F801818190E09F938F9326E333E03F93A4
:104F60002F930E941819F801828190E09F938F93EC
:104F700021E333E03F932F930E941819F8018381B6
:104F800090E09F938F932CE233E03F932F930E9406
:104F90001819F801848190E09F938F933F922F928C
:104FA0000E941819F801858190E09F938F935F927A
:104FB0004F920E941819F80186819781A085B185CA
:104FC0009070A070B070BF93AF939F938F937F92B8
:104FD0006F920E941819F80186819781A085B1858A
:104FE0002DB73EB7205E3F4F0FB6F8943EBF0FBEC1
:104FF0002DBF892F90E0A0E0B0E0BF93AF939F93C7
:105000008F939F928F920E941819F8018681978141
:10501000A085B1858A2F90E0A0E0B0E0BF93AF9368
:105020009F938F93BF92AF920E941819F8018681C7
:105030009781A085B1858B2F9927AA27BB27BF937E
:10504000AF939F938F93DF92CF920E941819F8012C
:10505000828593859F938F93FF92EF920E941819F8
:1050600021962DB73EB72A5E3F4F0FB6F8943EBF4C
:105070000FBE2DBFC530D10509F052CFDF91CF91C2
:105080001F910F91FF90EF90DF90CF90BF90AF9066
:105090009F908F907F906F905F904F903F902F9058
:1050A000089588E493E09F938F930E9418190F90BE
:1050B0000F9008958091F60590E09F938F938091D3
:1050C000F50590E09F938F938091F40590E09F9376
:1050D0008F938091F30590E09F938F938091F205D9
:1050E00090E09F938F938091F10590E09F938F9331
:1050F0008FE593E09F938F930E9418198DB79EB709
:105100000E960FB6F8949EBF0FBE8DBF08950E94F5
:105110002432089586E290E00E94BB2540EC58EAD4
:1051200060E071E086E290E00E94DD1960932D0559
:1051300070932E0580932F05909330058091300554
:1051400090E09F938F9380912F0590E09F938F9392
:1051500080912E0590E09F938F9380912D0590E094
:105160009F938F9381E893E09F938F930E941819E8
:105170008DB79EB70A960FB6F8949EBF0FBE8DBF2F
:10518000089582E290E00E94BB254FEF5FEF6FEF42
:1051900070E082E290E00E94DD1960933105709327
:1051A000320580933305909334058091340590E067
:1051B0009F938F938091330590E09F938F9380917D
:1051C000320590E09F938F938091310590E09F93FB
:1051D0008F938EE993E09F938F930E9418198DB758
:1051E0009EB70A960FB6F8949EBF0FBE8DBF089566
:1051F00082E390E00E94BB254DE455E266E07BE34C
:1052000082E390E00E94DD1960938F027093900218
:1052100080939102909392028091920290E09F93EA
:105220008F938091910290E09F938F938091900251
:1052300090E09F938F9380918F0290E09F938F9344
:1052400089EB93E09F938F930E9418198DB79EB7B7
:105250000A960FB6F8949EBF0FBE8DBF08958EE1DB
:1052600090E00E94BB2540EC58EA60E073E68EE1D6
:1052700090E00E94DD196093290570932A058093C0
:105280002B0590932C0580912C0590E09F938F9394
:1052900080912B0590E09F938F9380912A0590E059
:1052A0009F938F938091290590E09F938F9387ED33
:1052B00093E09F938F930E9418198DB79EB70A961B
:1052C0000FB6F8949EBF0FBE8DBF0895CF92DF92A8
:1052D000EF92FF920F931F93CF93DF936C010E9485
:1052E000A2258C0180EF93E09F938F930E94181961
:1052F000EE24FF240F900F90CE2DD0E0FE01EE0F94
:10530000FF1FEE0FFF1FEC5BFE4F80819181009726
:1053100019F480E090E030C0B6010E942B3508946B
:10532000E11CF11C892B41F7EE24FF24C8010E94E7
:10533000A2256C0140E050E060E070E0C8010E94EE
:10534000BD33F701EE0FFF1FE950FA4F7183608301
:105350000894E11CF11C8AE0E816F10411F08601C2
:10536000E5CFCC0FDD1FCC0FDD1FCC5BDE4FEA811C
:10537000FB81099581E090E0DF91CF911F910F9122
:10538000FF90EF90DF90CF900895EF92FF920F93F0
:105390001F93CF93DF937C01AB013CC090E09695C7
:1053A000879596958795DF018D93E70199919E01E9
:1053B00093709295907F9183E7018981882339F4D6
:1053C000FD013196ED0119821182329629C0829534
:1053D0008F70890F8183E70199819F70990F990FD1
:1053E000928379010894E11CF11CE90189818823E9
:1053F00011F413820DC08295869586958370890F6E
:105400008283E90189818F7383830894E11CF11CF5
:105410004C5F5F4FFA01D7018C91882309F0BECF12
:105420001082DB0107C0F0E0EF73F070EC57FE4F25
:1054300080818D93EC91EE23B1F7DF91CF911F9195
:105440000F91FF90EF9008959FEF9ABB85BB6BBBC8
:10545000AE9800000000AE9A08951ABA85BBAD98C8
:105460000000000089B3AD9A90E00895CF93DF93D8
:105470008FEF84BB85BB1ABAAF9880E090E0000044
:10548000019627E280319207D1F788E70E942D2A02
:105490006FEF88E70E94242A80E090E000000196E8
:1054A00033E0883E9307D1F761E280E60E94242A28
:1054B00080E090E00000019623E0883E9207D1F75B
:1054C00068E58EE60E94242A60E08AE60E94242A8B
:1054D00060E08BE60E94242A64E08CE60E94242A85
:1054E00066E484E60E94242A62E08DE60E94242A73
:1054F00066E481E60E94242A66E483E60E94242A68
:1055000060E682E60E94242A61E680E60E94242A60
:1055100080E090E00000019633E0883E9307D1F7E9
:1055200066E487E60E94242AC0E0D0E0FE01EF5046
:10553000FA4F60819E012F59822F0E94242A2196C2
:10554000C630D10599F761E280E60E94242A68E519
:105550008EE60E94242A62E280E60E94242A6FEFEF
:1055600087E60E94242A61E18FE60E94242A60E0F7
:105570008DE60E94242A62E280E60E94242A8FEFB0
:105580008BBB80E00E942D2A1ABEDF91CF91089537
:10559000EF92FF920F931F93CF93DF93EC018B0158
:1055A0008034910510F4C0E4D0E062E280E60E940D
:1055B000242A60E484E60E94242A60E088E60E94AF
:1055C000242A60E489E60E94242A6FEF87E60E947D
:1055D000242AEC2E6C2F8AE60E94242A6D2F77272E
:1055E000F62E8BE60E94242A62E180E60E94242A9D
:1055F0008FEF8ABB80E785BB20E030E0F801E20F47
:10560000F31F80818BBBAE9800000000AE9A2F5F25
:105610003F4F2C173D0790F387E60E942D2A86FF07
:10562000FBCF6E2D85E60E94242A6F2D86E60E9410
:10563000242A64E280E60E94242ADF91CF911F9100
:105640000F91FF90EF900895CF92DF92EF92FF922B
:105650001F93CF93DF937C016B016AE180E60E9488
:10566000242A80E70E942D2A80E70E942D2A80E7C5
:105670000E942D2A182F80E70E942D2A90E0D82F13
:10568000CC27C10FD11D1ABA80E785BB97012150E5
:1056900030402C173D0720F09E0140E050E003C051
:1056A000AE01421B530BA0E0B0E00AC0AD98000071
:1056B0000000F601EA0FFB1F89B38083AD9A1196B3
:1056C000A217B30799F720E030E007C0AD980000BB
:1056D000000089B3AD9A2F5F3F4F24173507B1F70C
:1056E000AC0DBD1DFD01118287E60E942D2ACE0161
:1056F000DF91CF911F91FF90EF90DF90CF900895B1
:1057000090E02DE030E0A901849F9001859F300D4D
:10571000949F300D1124EFE4F6E0D901AE0FBF1FC6
:105720008C91887F8C933897E20FF31F138212823B
:10573000118210828C91877F8C9383E396E095830E
:1057400084838AE492E0928781878FE492E0948751
:10575000838788E692E09783868308952F923F920D
:105760004F925F927F928F929F92AF92BF92CF9211
:10577000DF92EF92FF920F931F93CF93DF93CDB7FA
:10578000DEB72A970FB6F894DEBF0FBECDBF782ED6
:10579000882E99248DE090E0889E9001899E300D9E
:1057A000989E300D1124F901E15BF94F808180FD55
:1057B00007C0F901E95BF94F8FE29EE29383828390
:1057C00086E190E0889EF001899EF00D989EF00D94
:1057D0001124EA5CFA4F8089882339F4F901E95BE6
:1057E000F94F8081918193838283F901E95BF94FBD
:1057F0008281938191838083CC24DD247F015E01AB
:105800000894A11CB11C2FE4222E2EE2322E9BE51F
:10581000492E9EE2592EF70102811381B8016F5F74
:105820007F4F73836283F8018491F601ED56FD4F3B
:1058300086AB853209F0F8C043E050E085EC91E09A
:105840000E940135892B99F50C5F1F4FF801849157
:105850000F5F1F4FF801349130512AE0829FC00141
:105860001124380FE32FF0E0EE0FFF1FEC5AFD4F2D
:105870004AE050E0B501808191810E94A5356AE03F
:1058800070E0C5010E949A35082F10E0A801B5010B
:10589000C60187539D4F0E94193501501040C00E1C
:1058A000D11EF70182819381059693838283F7014C
:1058B0000281138144E050E0B80189EC91E00E943C
:1058C0000135892B09F044C00B5F1F4FF80134915B
:1058D000305301501040F8016491623461F0633438
:1058E00018F46134C1F405C0633439F0643499F4B8
:1058F00006C02BB305C028B303C025B301C022B333
:1059000081E090E002C0880F991F3A95E2F72823C2
:1059100011F0B20102C069E57EE2C5010E94FA34CD
:105920006AE070E0C5010E949A35082F10E0A801D6
:10593000B501C60187539D4F0E9419350150104093
:10594000C00ED11EF70182819381069693838283D4
:10595000F7010281138143E050E0B8018EEC91E041
:105960000E940135892B09F044C00C5F1F4FF801DC
:105970003491305301501040F8016491623461F069
:10598000633418F46134C1F405C0633439F064340D
:1059900099F406C029B305C026B303C023B301C0E0
:1059A00020B381E090E002C0880F991F3A95E2F79A
:1059B000282311F0B10102C064E47EE2C5010E9417
:1059C000FA346AE070E0C5010E949A35082F10E0B1
:1059D000A801B501C60187539D4F0E94193501509A
:1059E0001040C00ED11EF7018281938105969383EA
:1059F0008283F7016281738143E050E082ED91E0A0
:105A00000E940135892B81F486E190E0889EF001A7
:105A1000899EF00D989EF00D1124EA5CFA4F8DEFEF
:105A20009FEF928B818B09C00894C11CD11CFCE8AC
:105A3000CF16F1E0DF0608F4EECE86E190E0889E16
:105A4000F001899EF00D989EF00D1124EA5CFA4F4A
:105A500088E1808B672DC6010E941D1E2A960FB615
:105A6000F894DEBF0FBECDBFDF91CF911F910F9194
:105A7000FF90EF90DF90CF90BF90AF909F908F906E
:105A80007F905F904F903F902F9008957F928F92DC
:105A90009F92AF92BF92CF92DF92EF92FF920F93BD
:105AA0001F93CF93DF93782E8091C102082F10E0CF
:105AB000007F1070159507951595079563E67EE2B2
:105AC000C8018B549D4F0E946335892B89F01BBA06
:105AD000272D30E08DE090E0289FF001299FF00D08
