:100000000C943A100C9457100C9457100C948714BD
:100010000C9457100C9457100C9457100C945710C4
:100020000C9457100C9457100C9457100C945710B4
:100030000C9457100C946A210C9457100C94571080
:100040000C9457100C9457100C9457100C94571094
:100050000C94E7110C9457100C9457100C945710F3
:100060000C9457100C9457100C9457100C94571074
:100070000C9457100C9457100C945710476574202B
:10008000504F4E473A2025692E25692E25692E2589
:10009000690D0A004552524F520D0A0D0A00526571
:1000A0006164790D0A0D0A000D0A004E5450204576
:1000B00072722E0D0A0047572020202531692E2507
:1000C00031692E2531692E2531690D0A004D4153C4
:1000D0004B202531692E2531692E2531692E253198
:1000E000690D0A000D0A49502020202531692E256E
:1000F00031692E2531692E2531690D0A00436F6D56
:1001000070696C69657274206D697420474343207F
:1001100056657273696F6E20342E332E320D0A00CD
:10012000436F6D70696C6965727420616D204F63F7
:1001300074203132203230303920756D2032303A1F
:1001400032333A33300D0A000A0D53797374656DFA
:100150002052656164790A0D0052455345542020B0
:100160002D20726573657420746865204156522095
:100170002D20436F6E74726F6C6C65720D0A415264
:1001800050202020202D206C697374207468652015
:10019000415250207461626C650D0A544350202016
:1001A00020202D206C69737420746865207463703E
:1001B000207461626C650D0A495020202020202D9A
:1001C000206C6973742F6368616E67652069700DB8
:1001D0000A4E4554202020202D206C6973742F6313
:1001E00068616E6765206E65746D61736B0D0A5290
:1001F0004F55544552202D206C6973742F636861EC
:100200006E676520726F757465722069700D0A4E95
:100210005450202020202D206C6973742F63686156
:100220006E6765204E54500D0A4E545052202020C7
:100230002D204E545020526566726573680D0A4D2C
:100240004143202020202D206C697374204D4143B0
:100250002D616464726573730D0A56455220202027
:10026000202D206C69737420656E6320766572732F
:10027000696F6E206E756D6265720D0A535620208F
:100280002020202D20736574207661726961626C74
:10029000650D0A50494E472020202D2073656E645D
:1002A0002050696E670D0A54494D452020202D20AD
:1002B0006765742074696D650D0A48454C502020AF
:1002C000202D207072696E742048656C707465789A
:1002D000740D0A3F2020202020202D207072696E8E
:1002E000742048656C70746578740D0A002563008D
:1002F0000A0D54494D453A202532693A2532693A6A
:100300002532690D0A00496E68616C74206465725B
:10031000205661726961626C655B2532695D203DC2
:10032000202532690D0A00202054696D653A253474
:10033000690D0A002020504F52543A253469002E8E
:10034000253369002E253369002E253369002020CE
:1003500049503A2533690025326900202054696DDF
:10036000653A2534690D0A002E253369002E2533A0
:1003700069002E25336900202049503A2533690051
:100380002E253278002E253278002E253278002E48
:10039000253278002E2532780025326920204D4103
:1003A000433A25327800454E4332384A36302D568E
:1003B000657273696F6E3A202531780D0A004D79A8
:1003C000204D41433A202532783A2532783A253279
:1003D000783A2532783A2532783A2532780D0A0073
:1003E000526F757465722049503A202531692E2567
:1003F00031692E2531692E2531690D0A004E45548B
:100400004D41534B3A202531692E2531692E253136
:10041000692E2531690D0A004E54505F536572767E
:1004200065723A202531692E2531692E2531692ED4
:100430002531690D0A004D792049503A202531694E
:100440002E2531692E2531692E2531690D0A00418D
:1004500042434445464748494A4B4C4D4E4F505104
:1004600052535455565758595A61626364656667CA
:1004700068696A6B6C6D6E6F707172737475767784
:1004800078797A303132333435363738392B2F3D5D
:10049000000400051A06FF071F080009000AFF0BE9
:1004A00019C100C00DC233CAEECB05C415C612E493
:1004B00000E520E218E3B1E015E16F7500FFFF00F1
:1004C0000100140742FFFF3C21444F43545950455B
:1004D0002068746D6C205055424C494320222D2FCA
:1004E0002F5733432F2F4454442048544D4C20342D
:1004F0002E3031205472616E736974696F6E616C55
:100500002F2F454E222022687474703A2F2F777750
:10051000772E77332E6F72672F54522F68746D6C5D
:10052000342F6C6F6F73652E647464223E0D0A3C29
:1005300068746D6C3E3C686561643E0D0A3C6D6597
:10054000746120687474702D65717569763D2263DD
:100550006F6E74656E742D747970652220636F6E92
:1005600074656E743D22746578742F68746D6C3B8D
:1005700020636861727365743D49534F2D38383577
:10058000392D31223E0D0A3C7469746C653E41562A
:1005900052206D696E692057656273657276657267
:1005A000203A20486F6D653C2F7469746C653E0D70
:1005B0000A3C6C696E6B2072656C3D227374796CB9
:1005C0006573686565742220747970653D22746571
:1005D00078742F637373222020687265663D2273DE
:1005E00074796C65732E637373223E3C2F6865616A
:1005F000643E3C626F64793E0D0A3C68313E415670
:1006000052206D696E6920576562736572766572F6
:10061000203A20486F6D653C2F68313E0D0A3C64DE
:1006200069762069643D226E6176223E3C612068D5
:100630007265663D22696E6465782E68746D223E2F
:10064000486F6D653C2F613E3C6120687265663D78
:10065000227374617475732E68746D223E537461D5
:100660007475733C2F613E3C2F6469763E0D0A3CE5
:100670006469762069643D226D61696E223E3C6842
:10068000323E476CFC636B77756E736368213C2F59
:1006900068323E3C62723E0D0A3C696D672073729F
:1006A000633D2272616B65742E67696622207769EB
:1006B0006474683D22393022206865696768743D3A
:1006C0002239322220616C743D22223E3C62723E0D
:1006D0003C62723E0D0A3C703E4475206861737442
:1006E000206573206765736368616666743A2044A9
:1006F000657220576562736572766572206CE47569
:100700006674213C2F703E3C62723E3C68723E3CF7
:1007100062723E0D0A3C646976207374796C653DA3
:100720002277696474683A32303070783B6D617258
:1007300067696E3A2030206175746F3B223E0D0A66
:100740003C646976207374796C653D22666C6F61D8
:10075000743A6C6566743B77696474683A3130301A
:100760007078223E0D0A3C666F726D206D6574686C
:100770006F643D22706F73742220616374696F6EC1
:100780003D22696E6465782E68746D223E0D0A3CC8
:10079000696E707574206E616D653D224F555422EF
:1007A00020747970653D22636865636B626F78229F
:1007B0002076616C75653D2241222025504F5254B0
:1007C00041303E506F727420412050696E20303CA1
:1007D00062723E0D0A3C696E707574206E616D65C3
:1007E0003D224F55542220747970653D226368651F
:1007F000636B626F78222076616C75653D224222C0
:100800002025504F525441313E506F727420412088
:1008100050696E20313C62723E0D0A3C696E707503
:1008200074206E616D653D224F555422207479709D
:10083000653D22636865636B626F78222076616C28
:1008400075653D2243222025504F525441323E507F
:100850006F727420412050696E20323C62723E3CBF
:1008600062723E0D0A3C696E707574206E616D6532
:100870003D22535542222076616C75653D225365B9
:100880006E64656E2220747970653D227375626DA9
:100890006974223E0D0A3C2F666F726D3E3C2F64D8
:1008A00069763E0D0A3C646976207374796C653D07
:1008B00022666C6F61743A6C6566743B207769647C
:1008C00074683A3130307078223E0D0A3C696D67A9
:1008D000207372633D222550494E44372220616CBB
:1008E000743D22223E20506F727420442050696E65
:1008F00020373C62723E3C696D67207372633D2213
:100900002550494E44362220616C743D22223E20FF
:10091000506F727420442050696E20363C62723EE3
:100920003C696D67207372633D222550494E443502
:100930002220616C743D22223E20506F727420444C
:100940002050696E20353C62723E3C2F6469763ED1
:100950003C2F6469763E0D0A3C64697620636C61C5
:1009600073733D22636C656172223E3C2F6469762D
:100970003E0D0A3C62723E3C68723E3C62723E0D25
:100980000A3C7461626C6520626F726465723D221C
:10099000302220636C6173733D2274656D70546204
:1009A0006C2220616C69676E3D2263656E746572AE
:1009B000222077696474683D2234303070783B229D
:1009C0003E0D0A3C74723E0D0A3C74683E45696EE9
:1009D00067616E673C2F74683E0D0A3C74683E4246
:1009E000616C6B656E3C2F74683E0D0A3C74683E0A
:1009F00054656D70657261747572205BB0435D3CC7
:100A00002F74683E0D0A3C2F74723E3C74723E0D8A
:100A10000A3C74643E41442D4B616E616C303C2F46
:100A200074643E0D0A3C7464207374796C653D22D5
:100A3000746578742D616C69676E3A6C65667422B2
:100A40003E3C696D67207372633D22696E64657810
:100A50002D4461746569656E2F62616C6B652E67EC
:100A600069662220616C743D22222068656967688E
:100A7000743D223130222077696474683D22255606
:100A800041403030223E3C2F74643E0D0A3C746479
:100A90003E2556414030303C2F74643E0D0A3C2FB9
:100AA00074723E3C74723E0D0A3C74643E41442DA7
:100AB0004B616E616C313C2F74643E0D0A3C746472
:100AC000207374796C653D22746578742D616C694E
:100AD000676E3A6C656674223E3C696D672073727E
:100AE000633D22696E6465782D4461746569656E45
:100AF0002F62616C6B652E6769662220616C743DA4
:100B00002222206865696768743D2231302220778F
:100B1000696474683D22255641403031223E3C2FA5
:100B200074643E0D0A3C74643E2556414030313CAD
:100B30002F74643E0D0A3C2F74723E3C74723E0D5D
:100B40000A3C74643E41442D4B616E616C323C2F13
:100B500074643E0D0A3C7464207374796C653D22A4
:100B6000746578742D616C69676E3A6C6566742281
:100B70003E3C696D67207372633D22696E646578DF
:100B80002D4461746569656E2F62616C6B652E67BB
:100B900069662220616C743D22222068656967685D
:100BA000743D223130222077696474683D222556D5
:100BB00041403032223E3C2F74643E0D0A3C746446
:100BC0003E2556414030323C2F74643E0D0A3C2F86
:100BD00074723E3C74723E0D0A3C74643E41442D76
:100BE0004B616E616C333C2F74643E0D0A3C74643F
:100BF000207374796C653D22746578742D616C691D
:100C0000676E3A6C656674223E3C696D672073724C
:100C1000633D22696E6465782D4461746569656E13
:100C20002F62616C6B652E6769662220616C743D72
:100C30002222206865696768743D2231302220775E
:100C4000696474683D22255641403033223E3C2F72
:100C500074643E0D0A3C74643E2556414030333C7A
:100C60002F74643E0D0A3C2F74723E0D0A3C2F74A3
:100C700061626C653E0D0A3C2F6469763E3C646996
:100C8000762069643D227461696C223E3C61206873
:100C90007265663D22687474703A2F2F7777772ECD
:100CA000756C7269636872616469672E6465223E5F
:100CB0007777772E756C7269636872616469672EE5
:100CC00064653C2F613E20556C72696368205261F7
:100CD00064696720323030383C2F6469763E0D0AF3
:100CE0003C2F626F64793E3C2F68746D6C3E2545E5
:100CF0004E44003C21444F43545950452068746D84
:100D00006C205055424C494320222D2F2F573343FE
:100D10002F2F4454442048544D4C20342E30312041
:100D20005472616E736974696F6E616C2F2F454EDA
:100D3000222022687474703A2F2F7777772E7733BA
:100D40002E6F72672F54522F68746D6C342F6C6F36
:100D50006F73652E647464223E0D0A3C68746D6C7A
:100D60003E3C686561643E0D0A3C6D6574612068B7
:100D70007474702D65717569763D22636F6E74654C
:100D80006E742D747970652220636F6E74656E7455
:100D90003D22746578742F68746D6C3B20636861C4
:100DA000727365743D49534F2D383835392D3122D2
:100DB0003E0D0A3C7469746C653E415652206D6963
:100DC0006E6920576562736572766572203A2053AA
:100DD00074617475733C2F7469746C653E0D0A3CC4
:100DE0006C696E6B2072656C3D227374796C6573EF
:100DF000686565742220747970653D227465787425
:100E00002F637373222020687265663D22737479A4
:100E10006C65732E637373223E3C2F686561643E7C
:100E20003C626F64793E3C68313E415652206D69A8
:100E30006E6920576562736572766572203A205339
:100E400074617475733C2F68313E0D0A3C64697699
:100E50002069643D226E6176223E3C6120687265A5
:100E6000663D22696E6465782E68746D223E486F17
:100E70006D653C2F613E3C6120687265663D227362
:100E800074617475732E68746D223E537461747549
:100E9000733C2F613E3C2F6469763E0D0A3C6469C9
:100EA000762069643D226D61696E223E0D0A436FB2
:100EB0006D70696C6965727420616D204F63742078
:100EC0003132203230303920756D2032303A3233B1
:100ED0003A33313C62723E3C62723E0D0A436F6DA2
:100EE00070696C69657274206D6974204743432092
:100EF00056657273696F6E20342E332E323C6272E7
:100F00003E3C62723E0D0A426573756368657220ED
:100F1000736569742053746172742064657320571B
:100F2000656273657276657273202825564140307C
:100F300039293C62723E3C62723E0D0A416B747507
:100F4000656C6C65205A6569743A202554494D4595
:100F50003C62723E3C62723E0D0A3C2F6469763EF2
:100F60003C6469762069643D227461696C223E3C70
:100F70006120687265663D22687474703A2F2F771D
:100F800077772E756C7269636872616469672E6425
:100F900065223E7777772E756C726963687261643B
:100FA00069672E64653C2F613E20556C72696368E9
:100FB00020526164696720323030383C2F64697692
:100FC0003E0D0A3C2F626F64793E3C2F68746D6C55
:100FD0003E0D0A25454E4400626F64797B6D617257
:100FE00067696E3A20343070783B7D20626F647997
:100FF0002C702C6469762C68312C68322C74642C2B
:1010000074687B666F6E742D66616D696C793A7376
:10101000616E732D73657269663B666F6E742D73B6
:10102000697A653A313170787D68317B666F6E74AC
:101030002D73697A653A323070783B636F6C6F72EA
:101040003A77686974653B206261636B67726F759C
:101050006E642D636F6C6F723A23393642313143BF
:101060003B6D617267696E3A3170783B70616464A0
:10107000696E673A3570783B746578742D616C6978
:10108000676E3A63656E7465723B7D68327B666F2E
:101090006E742D73697A653A313870783B636F6C82
:1010A0006F723A233936423131437D702C68327B7E
:1010B0006D617267696E3A3070783070783570782B
:1010C0003070787D696D677B626F726465723A30EB
:1010D0007D68727B636F6C6F723A73696C76657250
:1010E0003B206261636B67726F756E642D636F6C1A
:1010F0006F723A73696C7665723B626F7264657287
:101100003A303B6865696768743A3170787D236E60
:1011100061767B666F6E742D73697A653A2031361D
:1011200070783B206261636B67726F756E642D63CC
:101130006F6C6F723A73696C7665723B6D61726742
:10114000696E3A3170783B70616464696E673A35F4
:1011500070783B666F6E742D7765696768743A6264
:101160006F6C647D236E617620612C20237461692D
:101170006C20617B636F6C6F723A77686974653B52
:101180002070616464696E673A313070783B7465D1
:1011900078742D6465636F726174696F6E3A6E6FF7
:1011A0006E657D236E617620613A686F7665722C7C
:1011B000237461696C20613A686F7665727B74652F
:1011C00078742D6465636F726174696F6E3A756EC1
:1011D0006465726C696E657D237461696C7B2063E4
:1011E0006F6C6F723A77686974653B206261636BFC
:1011F00067726F756E642D636F6C6F723A73696C92
:101200007665723B746578742D616C69676E3A63BC
:10121000656E7465723B70616464696E673A3570BF
:10122000787D236D61696E7B746578742D616C695E
:10123000676E3A63656E7465723B6D617267696E65
:101240003A323070787D2E636C6561727B636C65B9
:1012500061723A6C6566747D2E74656D7054626C53
:10126000207B7461626C652D6C61796F75743A6175
:1012700075746F3B626F726465722D737061636920
:101280006E673A307D2E74656D7054626C207464A4
:101290007B746578742D616C69676E3A63656E74F2
:1012A00065723B70616464696E673A3770787D2E51
:1012B00074656D7054626C2074687B6261636B67E7
:1012C000726F756E642D636F6C6F723A73696C76B2
:1012D00065727D25454E4400474946383961110005
:1012E0001100A2070062626219AD2121E22CA5A5BE
:1012F000A564E66BA5F3A9D5D5D5FFFFFF21F904B9
:1013000001000007002C0000000011001100000384
:101310006078AAD6F366C9D3EABB5156127A170091
:10132000302C4DF109A8D085591308444CA46A48C3
:10133000192A51EC73BA0E2ED8AE10A30544411DE4
:101340008F56130D5EB2A231F478A17ACCA3D3CA22
:101350009C020C4F6EF777A8767D364AE8E4D38E70
:101360001483B5C7439D1842F8FC7B528EE3F70AFD
:1013700009003B25454E4447494638396111001163
:1013800000A207005756576969697E7E7E90919149
:10139000B0B0B0C8C8C8E7E7E7FFFFFF21F9040114
:1013A000000007002C000000001100110000036F76
:1013B00078AA5645B0AC794C73706839AD190120E4
:1013C0000642492C56416A43199001670503446857
:1013D000A5F00A55D1128E47CBA503AA6A85C62D62
:1013E000A7A3390048CCB03482406B99A94004B01F
:1013F0000A58386615C42CBB00029FCE9C23750F7B
:101400002D125B0708280A2E793BF45610767C755E
:101410007C2713782F5C55140B372124840B09008B
:101420003B25454E4447494638396102000A00A22F
:101430000000A2A5ED848FE5667CDD4960D62144DD
:10144000DAFE010200000000000021F9040514008A
:1014500005002C0000000002000A0000030A4834C6
:1014600023120148001D5309003B25454E444749BE
:10147000463839615A005C00A204007979D8F6F444
:10148000E1C9C9E09C98D8FFFFFFF4F6B0F9FD7CF4
:10149000A6A48E21F90401000004002C0000000025
:1014A0005A005C000003FF48BADCFE2E2C4982A5DE
:1014B000B35A21B49618068D64697A8D85A65CA509
:1014C000A88F78CEB429BF99300C541FD7C0E00B39
:1014D00036C4650803C0C018E84C6EC228E9C22CA7
:1014E0001061802C2EB0937A69A04B58614D55B293
:1014F000CB854009837EDF9FDE6E27085FD6EC57E1
:10150000B2FE72C2836E165620493B597C61783C0C
:101510001549794D7C7F80442F05655C4A0B7B4FD4
:101520008A9968126B7E9133622E13959F8E4D5966
:10153000228A1B9E4D7B6E66A271220195056775FE
:10154000033AAF139A04781D9769A5B45362B6B8ED
:101550001600BB599E4F3B206B3CAABCC647C70C2C
:1015600017832015CB01ABC1070790DF052D153A76
:101570002087A3B25282A7210506A785F176B7DDA1
:101580001A75E8E5B693B0450A03CE14BD41B1E43F
:10159000A90860A05E087C4364F8785763E2B965E7
:1015A00094E8D53BD30CFF1C8886959EDCF2A1A065
:1015B0000EAC39739C488C716524A145FA1C6AA84D
:1015C000041215008FB740E6A260A59B0E434A9E09
:1015D0003DE345D1863E668E3426D3B8F1D28153A1
:1015E000DF1ACABC50AE97D0431C1A350B18459F62
:1015F00095A1FD6A4E90BA33CB017D511D3ED22A92
:1016000094688F4B5B6D40007850119B9C213F8A02
:101610004D380897D5ABBC4C4EE840CDDC082ADBF2
:1016200020E06A648817CD4115C85AD8034EC0011E
:10163000B687DA20A9C38183129546BEE8632C548D
:1016400080C6534CCB911340D60A1E349030F0A084
:1016500016B85D9C6C5304FE6A86F9A9CED4E56881
:10166000D63B35D41B150985B0668EE04256B2E3F1
:101670005B9270E9DDFAF76372955EA721D5449518
:10168000A77B22B92373C91D390058CDD030052955
:10169000B53DF6ECCF86254EFEB9D173852BE6C657
:1016A000537861556061FFEBB5D75E01C15572405B
:1016B0007C0F5503562F1BE08213185E6124CC1C4F
:1016C00043AD67A1813D3DA59D1C48F032140199B1
:1016D00071E0A03C15CD34A277577972DA7A677938
:1016E000155C38F1BD70DE6B5B0913C059273AF702
:1016F000033723FE445F85023674A069FE3CF5D5AE
:1017000087C87986206CEFED03CF7E12D687C67925
:1017100041D6438E95375971A05014508320351609
:10172000F806996E42C454532CAEB056E56300B42B
:10173000A81563EAB4E5DD2DEF8D51D42C89E5447D
:10174000965D4205285C439C31560782483C33D95C
:10175000564D3257620AF19055085BA691859D90CF
:10176000E830E6CA2B9C3068594FC655F4DC0D664C
:101770001A306456663145A0985AC608171A2511C2
:101780009584862671F59C1950E6F8C4410560B62B
:10179000CA80A6B245C1A399750763766DF038A2D9
:1017A00093DB1C7BAC18FF8FF90854A44112789589
:1017B0000BB114320C1E46DAE120AF24EA37A280C6
:1017C000CAC2D899B57E0AE38B74C13C6A15913DB3
:1017D00005D8DA984FB0F4A74E96B1AB8856BEED57
:1017E00069DF67BF02104C8A866EBB26B2C5CAEAA3
:1017F000154834667BD9B8879CF69A3554EC01704D
:10180000A9550E470A9E571401258D6D1A59188D3A
:10181000CBC009A60B1C6FD5C4A4D196815B62CC4A
:10182000D9525285A756A26B96D2F24B4D29343A23
:10183000E62EAFC9CC45E60F71B201D201F5E86AD8
:10184000E496E2C4F27271A755DCCDC59E7ECACE85
:1018500056B8106D40CE05BEF9B21334B2EB1A394A
:101860004D3E8D4FCF2DD79A239AB80CFD2ABB48F9
:10187000C7050A4766DD62D99655851D61B80B35E7
:10188000D7E8C01E1FF8CF85B8E63A25D7E7AD1ACE
:10189000A96B6E556DF58003F3C76CDA551A59299B
:1018A000D857AED9C84FFFBFFC952FE594435E31A2
:1018B0007B39CE1AD1B1553DF2C8DCE0A2E309264E
:1018C0002A681EA088A7FE9DB2E352BB7CEB207362
:1018D000736E64B45B32131B5C4446DBD0A1F9E247
:1018E0005D828E796744D3E2038AABCE220A5C6EB6
:1018F000AAE7C3C7E7A0E8DE00B1D0E36B0E7839F2
:1019000072D0C3C8C38A93120D5FC30FDE898D32B4
:101910000237EEF133242F819498EFD55F9556D09E
:101920000E47B07E2C5FF4B9901AAA1FABD4609E0C
:101930007CE9EF46476B5B9BF2671DA9F9CC7FFF03
:10194000930A76E686A2D8F0E255015A8DA974373B
:10195000AFD989ED2DA3EBE0FFD0911D67D08101B8
:10196000ADE0DDBC8E558F08864E6FCA8AE16336C6
:1019700028B90985427A1174A10CF1B6BDBBD10E0C
:101980004A8C1B1A1B38108686E55087A8B9CFA74A
:1019900022203ABD852A48306ADDD47677441DE698
:1019A000AD76EA63949EFF2A7689D6A5EB333B6336
:1019B0004F156B923DA8E1C904D4AB92304A02178F
:1019C0000302507F221CA1CA7E16AFC3EC2D759274
:1019D00061157AD86021C9516E8C3AE18AF60E966B
:1019E000BAB411CB50872A5C0C75F7B96FB5267B5A
:1019F00092E8A0B284F89314D54177C1D9541AB9AA
:101A0000B5378F94088818E9A4222AF98C002E9003
:101A10005403108E6BE208995A91D11D3EB4C44C08
:101A2000C8D216544A4E756E425FEC82172DF631BD
:101A300005313EC36206B668005D718698AA4B65A3
:101A400001866296DCB19224FB211B4B7AE632645C
:101A50004EE92A6E04494796591A7DCCED99477094
:101A6000A01DA1D380158202338EE11D6B6A360062
:101A70000362C8913A99263073131064DE88078098
:101A8000B14CE48A470E625A898C2B7C48444463EB
:101A900021DFD1C63F37999D75B8F54841F00A68F6
:101AA000803091645471FF23255CAE9D3B0BE3BBFA
:101AB0004C350455CE110E66BB030F8664ADDDC5F3
:101AC000B13A1335D53C66F8D1AE18AB585B394402
:101AD0007CBCE627860254A55B98A120077994B7C1
:101AE000B493183662214A6B52503385A414119A6C
:101AF000A724667512EF0CAA4D2B5A6141FFD40D35
:101B00004342B3204F229BE9D0A320A80234A56012
:101B100025632703914579027321DFA3862A1DFAE5
:101B200055B14AC614810C8D5CFF10021BFD444F59
:101B3000550DAB5AB6988B8C582C04DA88C01A61B4
:101B4000111685AC68ACB39489F2A01258A4122285
:101B5000582DC02BB3C42AD9C4CEF1A52B39067A8F
:101B60000473BBBD4A961B62010146B670144595CD
:101B7000691B5DB2D627221BA15BEDF51C8ABD88CF
:101B80002C6B51D6131CE724A0E98E8964E9D0CBD5
:101B9000E2E5B6587562637BE196FE8DCDB51FFD1B
:101BA0006DB2BAE5C4DA5BE6461D88E85F0879EBFA
:101BB000155F22E6B82B13453541F8969EC290B1C9
:101BC000CAA34B4B032B50634041109AB988754907
:101BD0006BC6C69A964CE8156F5F6F75D6F6BA77E6
:101BE000A9A0026F47EBA9D4FB9E9689060BB073A0
:101BF000FD6B94F3F697C08DDDA97D114C5EE42159
:101C00003801003B25454E44485454502F312E3066
:101C10002032303020446F63756D656E7420666FBE
:101C20006C6C6F77730D0A5365727665723A20415A
:101C300056525F536D616C6C5F5765627365727667
:101C400065720D0A436F6E74656E742D54797065FC
:101C50003A20746578742F706C61696E0D0A0D0AF4
:101C600000485454502F312E302032303020446FF1
:101C700063756D656E7420666F6C6C6F77730D0A9B
:101C80005365727665723A204156525F536D616CAE
:101C90006C5F5765627365727665720D0A436F6E8D
:101CA00074656E742D547970653A20746578742F5C
:101CB00068746D6C0D0A0D0A00485454502F312E73
:101CC000302034303120556E617574686F72697AD6
:101CD00065640D0A5365727665723A204156525F0B
:101CE000536D616C6C5F5765627365727665720DDA
:101CF0000A5757572D41757468656E74696361742E
:101D0000653A204261736963207265616C6D3D22A2
:101D10004E65656450617373776F7264220D0A4378
:101D20006F6E74656E742D547970653A20746578A1
:101D3000742F68746D6C0D0A0D0A00485454502FAE
:101D4000312E302032303020446F63756D656E74F3
:101D500020666F6C6C6F77730D0A536572766572CF
:101D60003A204156525F536D616C6C5F57656273E8
:101D700065727665720D0A436F6E74656E742D54CC
:101D80007970653A20696D6167652F6A7065670DC6
:101D90000A0D0A00485454502F312E302032303072
:101DA00020446F63756D656E7420666F6C6C6F7721
:101DB000730D0A5365727665723A204156525F532D
:101DC0006D616C6C5F5765627365727665720D0A42
:101DD00043616368652D436F6E74726F6C3A206D5A
:101DE00061782D6167653D36303030303030436F7B
:101DF0006E74656E742D547970653A20696D6167F3
:101E0000652F6769660D0A0D0A00485454502F313A
:101E10002E302032303020446F63756D656E742033
:101E2000666F6C6C6F77730D0A5365727665723AE4
:101E3000204156525F536D616C6C5F5765627365EC
:101E4000727665720D0A43616368652D436F6E7427
:101E5000726F6C3A206D61782D6167653D36303068
:101E600030303030436F6E74656E742D5479706508
:101E70003A20746578742F6373730D0A0D0A003469
:101E8000303120556E617574686F72697A656425AA
:101E9000454E44006C65646F66662E676966006C2B
:101EA00065646F6E2E676966000000636865636B2A
:101EB00065640025732C20257300504F5354005344
:101EC000746172742054656C6E657420536572760B
:101ED00065723A0D0A00D9000AFA000000000001FC
:101EE00004000000000000000000000000000000EE
:101EF0000000000000000000000000000000C7D645
:101F0000AC7208000000536F004D6F004469004D33
:101F10006900446F004672005361002532753A250E
:101F20003032753A25303275002025752E25303235
:101F3000752E253034750025732C202573002A2A30
:101F4000204C434420444154412047455420427989
:101F50007465733A202569202A2A0D0A00474554E2
:101F6000202F676C6F62616C776561746865722E93
:101F700061736D782F476574576561746865723F4A
:101F8000436974794E616D653D5061646572626F3D
:101F9000726E26436F756E7472794E616D653D4742
:101FA00065726D616E7920485454502F312E310D79
:101FB0000A486F73743A207777772E776562736576
:101FC0007276696365782E6E65740D0A4B6565706F
:101FD0002D416C6976653A203330300D0A436F6EBF
:101FE0006E656374696F6E3A204B6565702D416C48
:101FF0006976650D0A0D0A000D0A0D0A0D0A446185
:1020000074656E20416E666F726465726E0D0A00B3
:102010005443502045696E74726167206765667528
:102020006E64656E2028485454505F434C49454EB9
:102030005429210D0A005443502045696E74726181
:1020400067206E6963687420676566756E64656E87
:102050002028485454505F434C49454E5429210D83
:102060000A0041525020526571756573740A0D0063
:102070002563000011241FBECFEFD0E1DEBFCDBF2E
:1020800012E0A0E0B1E0E0EEF6E702C005900D92AC
:10209000AE36B107D9F718E0AEE6B2E001C01D9246
:1020A000A63EB107E1F70E9459100C946E3B0C94C8
:1020B0000000AF92BF92CF92DF92EF92FF920F9308
:1020C0001F93CF93DF9387E081B986E087B91AB871
:1020D00060E875E280E090E00E94AF1100D088E4F3
:1020E00091E0ADB7BEB712969C938E9311970E9464
:1020F000711280E291E0EDB7FEB7928381830E9476
:1021000071128DEF90E0ADB7BEB712969C938E938F
:1021100011970E94711280E090E0A0E0B0E00F9073
:102120000F9000000196A11DB11D8034E2E49E07CE
:10213000EFE0AE07E0E0BE07A1F70E940F210E948A
:1021400059300E94BA31EA9A78948DB79EB70A97AF
:102150000FB6F8949EBF0FBE8DBFEDB7FEB7319698
:1021600084EE90E0ADB7BEB712969C938E93119714
:10217000809199078283138280919A0784831582C4
:1021800080919B078683178280919C0780871186A8
:102190000E947112EDB7FEB731968DEC90E0ADB7AD
:1021A000BEB712969C938E9311978091A10782835C
:1021B00013828091A207848315828091A30786836E
:1021C00017828091A407808711860E947112EDB753
:1021D000FEB7319686EB90E0ADB7BEB712969C93F2
:1021E0008E93119780919D078283138280919E0721
:1021F0008483158280919F07868317828091A00730
:10220000808711860E947112EDB7FEB73A960FB61D
:10221000F894FEBF0FBEEDBF0E94453480E090E011
:10222000A0E0B0E000000196A11DB11D8034F2E4F1
:102230009F07FFE0AF07F0E0BF07A1F70E94F03370
:102240000E942534882371F000D08BEA90E0ADB76E
:10225000BEB712969C938E9311970E9471120F90A5
:102260000F9002C00E947B2228EAA22E20E0B22E0C
:1022700094E9C92E90E0D92E8EE9E82E80E0F82E60
:1022800004E714E0CCE7D0E00E94B31F8091A507DB
:1022900080FF25C000D0EDB7FEB7B282A1820E94B8
:1022A00071120F900F9083E398E00E94EA26882332
:1022B00041F000D0ADB7BEB71296FC92EE921197E6
:1022C00005C000D0EDB7FEB7D282C1820E94711264
:1022D0000F900F908091A5078E7F8093A507809126
:1022E0006B0290916C02892B31F410936C02009375
:1022F0006B020E94F0330E94663080916A08882346
:1023000019F28DB79EB70A970FB6F8949EBF0FBE0D
:102310008DBFEDB7FEB73196ADB7BEB71296DC9361
:10232000CE9311978091650882831382809166080D
:10233000848315828091670886831782809168085C
:10234000808711860E94711210926A08EDB7FEB75D
:102350003A960FB6F894FEBF0FBEEDBF95CF9B0126
:10236000AC0188E98093C10084E0220F331F441F31
:10237000551F8A95D1F760E074E284EF90E00E94E7
:10238000EB3A21502093C4008091A5078B7F809366
:10239000A5070895982F8091A50782FD06C080911A
:1023A000C00085FFFCCF9093C6000895FC010BC0D0
:1023B00031968091A50782FD06C08091C00085FFFF
:1023C000FCCF9093C6009081992391F708951F92B6
:1023D0000F920FB60F9211242F933F938F939F93D9
:1023E000EF93FF938091A50782FD53C02091C60013
:1023F0008091A50782FD06C08091C00085FFFCCFBB
:102400002093C6008091A50780FF04C08091A50796
:10241000826028C0283069F480916E0290916F022A
:10242000892B09F453C080916E0290916F0201973D
:102430002BC02D30D1F4E0916E02F0916F02EE5C72
:10244000F74F80818C3589F0E0916E02F0916F0238
:10245000ED5CF74F108210926F0210926E02809125
:10246000A50781608093A50731C080916E0290918D
:102470006F02C19758F580916E0290916F02FC0136
:10248000ED5CF74F2083019690936F0280936E026C
:102490001DC02091000130910101809102019091B5
:1024A000030101972817390789F08091C600F901C7
:1024B0008193F0930101E0930001E456F84031F478
:1024C000205330403093010120930001FF91EF91A0
:1024D0009F918F913F912F910F900FBE0F901F9062
:1024E00018956F927F928F929F92AF92BF92CF92E8
:1024F000DF92EF92FF920F931F93DF93CF93CDB7AD
:10250000DEB764970FB6F894DEBF0FBECDBF8E0165
:102510000B5D1F4FD801ED90FD908D01BB243E0156
:102520000894611C711C5BE0852E912C8C0E9D1E05
:1025300040E3A42E02C068018601F701949199231B
:1025400009F4ACC00894E11CF11C953209F09BC061
:10255000F7010894E11CF11C2491822F90E0C097B0
:102560000A9710F0822F0BC02B871C86C4010E9493
:102570001537B82EF7010894E11CF11C84918936B7
:1025800071F08A3628F4823661F08336A1F623C0D2
:10259000833749F0883799F18F3669F62EC04AE0C3
:1025A0002FC042E02DC0D801ED91FC910BC03196B7
:1025B0008091A50782FD06C08091C00085FFFCCFF9
:1025C0009093C6009081992391F732E0C32ED12CCD
:1025D000C00ED11EB1CF22E0C22ED12CC00ED11E12
:1025E000F80190818091A50782FDA6CF8091C0005F
:1025F00085FFFCCF9093C6009FCF48E001C040E12B
:1026000092E0C92ED12CC00ED11ED8018D919C9183
:10261000B30150E00E94FF3720E030E0A9014F5F96
:102620005F4FF301E20FF31F8081882311F09A01BD
:10263000F5CF8B2D90E0281739079CF4B21AF401DE
:10264000C4018B0D911D01C0A192E817F907E1F7B4
:102650001082C401B3010E94CA37C301B4010E94B1
:10266000D537F3010BC031968091A50782FD06C0D6
:102670008091C00085FFFCCF9093C6009081992384
:1026800091F7BB2459CF8091A50782FD54CF80914B
:10269000C00085FFFCCF9093C6004DCF64960FB667
:1026A000F894DEBF0FBECDBFCF91DF911F910F9188
:1026B000FF90EF90DF90CF90BF90AF909F908F9062
:1026C0007F906F900895282F892F922F0895EF9271
:1026D000FF920F931F93162F0027FF24EE24292F1C
:1026E000332744275527E20EF31E041F151F9B01B5
:1026F000AC01207030705070232F342F452F552798
:10270000E20EF31E041F151F607080709070982FEA
:10271000872F762F6627E60EF71E081F191FB701B1
:10272000C8011F910F91FF90EF9008950F931F9391
:10273000DF93CF9300D000D0CDB7DEB7DC01142FEC
:10274000052F20E030E0AE014F5F5F4FF999FECFDB
:10275000F999FECFC9018A0F9B1F92BD81BDF89ADE
:1027600080B5FA01E20FF31F80832F5F3F4F2430C3
:10277000310561F729813A814B815C812F3F8FEFD1
:1027800038078FEF48078FEF580731F4212F302F8C
:10279000C901DB019C01AD01B901CA010F900F9085
:1027A0000F900F90CF91DF911F910F91089540E00E
:1027B00050E09A01220F331F240F351FD901AA0FB1
:1027C000BB1FAA0FBB1FA65AB84F1A968D919C919A
:1027D0001B97892B09F51C9211961C921197F901F0
:1027E000EE0FFF1FEE0FFF1FE45AF84F10821396F3
:1027F0001C921397F901EE0FFF1FEE0FFF1FE25A15
:10280000F84F108215961C92159716961D921D92E0
:102810001D921C92199709C01A968D919C911B9735
:1028200001971B969C938E931A974F5F5F4F45308D
:10283000510509F0BECF0895AC0120E001C02F5F23
:10284000A22FB0E0FD01EE0FFF1FEE0FFF1FE059BA
:10285000FD4F80819181892B91F7253050F4518370
:102860004083AA0FBB1FAA0FBB1FAE58BD4F6D936D
:102870007C93089520E001C02F5FA22FB0E0FD01FE
:10288000EE0FFF1FEE0FFF1FE059FD4F0190F0818B
:10289000E02D309719F0E817F90771F7253040F46B
:1028A000AA0FBB1FAA0FBB1FA059BD4F6D937C93EE
:1028B0000895AC0120E001C02F5FA22FB0E0FD0120
:1028C000EE0FFF1FEE0FFF1FEC57FD4F8081918130
:1028D000892B91F7253050F451834083AA0FBB1FF9
:1028E000AA0FBB1FAA57BD4F6D937C9308959C01FF
:1028F000E4E8F2E0808191818217930711F411825C
:102900001082349682E0E839F807A1F708951F9203
:102910000F920FB60F9211248F93809198078160C8
:102920008093980710922D0810922C08EA988F91A6
:102930000F900FBE0F901F9018950F931F93CF937A
:10294000DF930091B5021091B60260E070E086E07E
:1029500008301807C1F4FB01EE0FFF1FE60FF71F49
:10296000EE0FFF1FEE0FFF1FE65AF84F268137814B
:10297000408551858091C5029091C602A091C70201
:10298000B091C8021AC00830110509F5FB01EE0F1D
:10299000FF1FE60FF71FEE0FFF1FEE0FFF1FE65A98
:1029A000F84F26813781408551858091C3029091EF
:1029B000C402A091C502B091C602281739074A0780
:1029C0005B0729F484E690E09387828788C06F5F75
:1029D0007F4F6530710509F0BACF20E030E0A901E2
:1029E000440F551F420F531FEA01CC0FDD1FCC0FC0
:1029F000DD1FC65AD84FBE016A5F7F4F8E819F810F
:102A0000A885B9850097A105B10509F062C0E6E087
:102A100008301E0749F58091AF0288838091B0028B
:102A200089838091B102FA01EE0FFF1FEE0FFF1FA5
:102A3000E45AF84F80838091B2028B838091B30275
:102A4000FA01EE0FFF1FEE0FFF1FE25AF84F8083CF
:102A50008091B4028D838091C5029091C602A091AD
:102A6000C702B091C8022BC008301105C1F5809192
:102A7000AF0288838091B00289838091B102FA010C
:102A8000EE0FFF1FEE0FFF1FE45AF84F8083809177
:102A9000B2028B838091B302FA01EE0FFF1FEE0F9B
:102AA000FF1FE25AF84F80838091B4028D8380919A
:102AB000C3029091C402A091C502B091C602FB016D
:102AC00080839183A283B38384E690E09B878A8787
:102AD00006C02F5F3F4F2530310509F080CFDF91D1
:102AE000CF911F910F9108951F93AB01BC0120E07E
:102AF00030E0122FF901EE0FFF1FE20FF31FEE0F70
:102B0000FF1FEE0FFF1FE65AF84F86819781A085C1
:102B1000B18584179507A607B70731F02F5F3F4FA0
:102B20002530310531F715E0812F1F910895FF926F
:102B30000F931F93182F092F20E030E0F22EF90198
:102B4000EE0FFF1FE20FF31FEE0FFF1FEE0FFF1F31
:102B5000E65AF84F86819781A085B185841795073D
:102B6000A607B70731F02F5F3F4F2530310531F70A
:102B700026C0212F302FC901DC0140E050E08F2D0D
:102B800090E09C01220F331F280F391F220F331FA3
:102B9000220F331FF901E40FF51FE65AF84F808129
:102BA0008C93FA01E158F74F808116968C93169713
:102BB0004F5F5F4F11964630510561F70FC0AFE789
:102BC000B8E0812F902F9C01F9019FEF90838D91A8
:102BD0008683319688E0A538B807C1F71F910F9119
:102BE000FF900895EF92FF920F931F93CF93DF937F
:102BF0007C018B01EC0111C0888199812296F82F0C
:102C0000E0E0DF01A90FB11DCD01A0E0B0E0280F89
:102C1000391F4A1F5B1F625070406230710560F7B8
:102C2000F801EE7FEE0DFF1D00FF08C0908180E0EF
:102C3000A0E0B0E0280F391F4A1F5B1FCA01AA2776
:102C4000BB2740705070820F931FA41FB51F9D01BA
:102C500044275527A070B070280F391F4A1F5B1FEB
:102C600020953095C901DF91CF911F910F91FF9071
:102C7000EF900895AF92BF92CF92DF92EF92FF92C2
:102C80000F931F937C015A016B018C01025F1F4F50
:102C90000E94971588E090E0F7019587848720913E
:102CA0009802309199022F5F3F4F30939902209301
:102CB000980280E490E0F8019783868380E880871B
:102CC0003483258385E4F7018687F8011182A08A81
:102CD000B18AC28AD38A8091990790919A07A0916C
:102CE0009B07B0919C0784879587A687B787138633
:102CF0001286C80164E170E020E030E040E050E07E
:102D00000E94F215F801928783871F910F91FF901F
:102D1000EF90DF90CF90BF90AF900895AF92BF92A9
:102D2000CF92DF92EF92FF920F931F93CF93DF9397
:102D30008C01EC01A296BC01625F7F4FDB011C9607
:102D4000CD90DD90ED90FC901F9740E050E086E143
:102D5000A82EB12C4A9DF0014B9DF00D5A9DF00D0F
:102D60001124E955F84F80819181A281B3818C159E
:102D70009D05AE05BF0509F097C024813581888186
:102D800099812817390709F08FC088859985AA8508
:102D9000BB8580879187A287B3878C819D81AE8117
:102DA000BF8184879587A687B7878D85808B838928
:102DB0008F3F11F083E0838BFB01B280A3808CEE08
:102DC0009FEFA80EB91E8C8590E0807F907095953E
:102DD000879595958795A81AB90ACC24DD2486E1B4
:102DE00090E0489FF001499FF00D589FF00D11248D
:102DF000E955F84FE484F584068517855E2D442750
:102E000033272227812F9927AA27BB27280F391F6D
:102E10004A1F5B1FD801C70180709070B070892F66
:102E20009A2FAB2FBB27280F391F4A1F5B1F80E04B
:102E30009FEFA0E0B0E0E822F9220A231B23102F25
:102E40000F2DFE2CEE242E0D3F1D401F511F2A0D6D
:102E50003B1D4C1D5D1D122F0027FF24EE24852FE6
:102E60009927AA27BB27E80EF91E0A1F1B1FDA01A4
:102E7000C90180709070B070892F9A2FAB2FBB273B
:102E8000E80EF91E0A1F1B1F207040705070542F4F
:102E9000432F322F2227E20EF31E041F151FE48654
:102EA000F586068717874FC04F5F5F4F4530510546
:102EB00009F050CF20E030E066E170E0269FA001ED
:102EC000279F500D369F500D1124FA01E955F84FF8
:102ED00080819181A281B3810097A105B10569F537
:102EE000C082D182E282F382D80192968D919C9128
:102EF0009397958384838A819B8197838683888532
:102F00009985AA85BB8580879187A287B3878C81A5
:102F10009D81AE81BF8184879587A687B7878D8580
:102F2000808B128A118A83E0838B148AFA01E4541D
:102F3000F84F80818E7F808306C02F5F3F4F253002
:102F4000310509F0BBCFDF91CF911F910F91FF9019
:102F5000EF90DF90CF90BF90AF900895EF92FF92E7
:102F60000F931F93CF93DF937B018C0120E030E020
:102F7000C6E1D0E0622F2C9FF0012D9FF00D3C9F09
:102F8000F00D1124E955F84F80819181A281B38120
:102F90008E159F05A007B10729F4848195818417B8
:102FA000950731F02F5F3F4F2530310519F765E068
:102FB000862FDF91CF911F910F91FF90EF90089591
:102FC00020E001C02F5FA22FB0E0FD01EE0FFF1F38
:102FD000EE0FFF1FEC57FD4F0190F081E02D309771
:102FE00089F09091CD028091CE02E817F90751F750
:102FF000AA0FBB1FAA0FBB1FAA57BD4FED91FC9193
:1030000080E009950895CF93DF93582FC0E7D2E071
:10301000E0E0F0E0282F30E086E190E0289FD0014A
:10302000299FB00D389FB00D1124A355B84F8D9135
:103030009C911197382F292F8881998182179307A6
:1030400031F031962496E630F10589F70DC0E53070
:1030500058F4EE0FFF1FEE0FFF1FEE58FD4F0190CB
:10306000F081E02D852F0995DF91CF91089586306D
:1030700038F5282F30E086E190E0289FD001299F85
:10308000B00D389FB00D1124FD01E955F84F1082A5
:103090001182128213821582148217821682108680
:1030A0001186128613861486158616861786108A50
:1030B000128A118A138AA454B84F8C918E7F8C93F4
:1030C0000895CF92DF92EF92FF920F931F93CF93C9
:1030D000DF93EC0127EBC22E22E0D22E70E086E1D6
:1030E00090E0689FF001699FF00D789FF00D11242A
:1030F000E955F84F868197819093CC028093CB025B
:10310000848195819093CE028093CD021092DE024D
:103110001092DD0284E09CE49093DA028093D9025D
:1031200080E58093D7022485358546855785122F03
:103130000027FF24EE24852F9927AA27BB27E80E16
:10314000F91E0A1F1B1FDA01C90180709070B07050
:10315000892F9A2FAB2FBB27E80EF91E0A1F1B1FC2
:10316000207040705070542F432F322F2227E20ED0
:10317000F31E041F151F80898093D802808981FF68
:1031800015C00894E11CF11C011D111D82E0809303
:10319000DF0284E08093E0028093E1028CE480937C
:1031A000E20280E68093D702C4E0D0E05E2D44279F
:1031B00033272227812F9927AA27BB27280F391FBA
:1031C0004A1F5B1FD801C70180709070B070892FB3
:1031D0009A2FAB2FBB27280F391F4A1F5B1F80E098
:1031E0009FEFA0E0B0E0E822F9220A231B23B02FD2
:1031F000AF2D9E2D8827280F391F4A1F5B1F209354
:10320000D3023093D4024093D5025093D60286E184
:1032100090E0689F8001699F100D789F100D112428
:103220000955184FF80180859185A285B385809353
:10323000CF029093D002A093D102B093D202CE01DC
:103240008896D60112969C93129713968C93139797
:1032500086E019968C93408151816281738189EA5D
:1032600092E00E943A161092DC021092DB027091FA
:10327000B9026091BA02685F7F4F8091B70290E017
:103280008F709070880F991F880F991F681B790B9A
:10329000625070409B0140E050E06E5F7F4F83ECD6
:1032A00092E00E94F2159093DB028093DC02CE0143
:1032B000C69669EA72E00E942428F801108ADF911C
:1032C000CF911F910F91FF90EF90DF90CF900895D5
:1032D000AF92BF92CF92DF92EF92FF920F931F9324
:1032E000CF93DF937B018C016A015901EA9820E0BA
:1032F00030E0C6E1D0E0622F2C9FA0012D9F500D41
:103300003C9F500D1124FA01E955F84F80819181BD
:10331000A281B3810097A105B10509F042C0263012
:10332000D0F41082118212821382158214821782C5
:1033300016821086118612861386148615861686C6
:103340001786108A128A118A138AFA01E454F84FF8
:1033500080818E7F808386E190E0289FF001299F05
:10336000F00D389FF00D1124E955F84FE082F182FD
:1033700002831383D582C482B782A68282ED94E051
:10338000A0E0B0E080879187A287B38789E299E0C7
:10339000A0E0B0E084879587A687B7878EE1838B0E
:1033A00007C06F5F2F5F3F4F2530310509F0A3CF76
:1033B000262F30E086E190E0289FF001299FF00D54
:1033C000389FF00D1124E955F84F82E0808B80E0A2
:1033D00090E00E946118EA9ADF91CF911F910F91BE
:1033E000FF90EF90DF90CF90BF90AF900895682F3F
:1033F000282F30E086E190E0289FF001299FF00D12
:10340000389FF00D1124E955F84F8FEF9FEF928B05
:10341000818B81E1808B80E090E00E9461180895AB
:103420009F92AF92BF92CF92DF92EF92FF920F9353
:103430001F93CF93DF9320E001C02F5FC22FD0E016
:10344000FE01EE0FFF1FEE0FFF1FE059FD4F019031
:10345000F081E02D309709F401C39091CD02809165
:10346000CE02E817F90749F74091D802242F30E03F
:10347000C90182719070429709F0B1C089EA92E067
:103480000E948E162091C3023091C4024091C50261
:103490005091C602C091CB02D091CC0260E070E0A6
:1034A000A6E1CA2ED12C6C9DF0016D9DF00D7C9D86
:1034B000F00D1124E955F84F80819181A281B381EB
:1034C00082179307A407B50729F4848195818C1787
:1034D0009D0731F06F5F7F4F6530710521F7BEC2E8
:1034E000262F30E086E190E0289F6001299FD00CD4
:1034F000389FD00C112487EA97E0C80ED91E8EE1C0
:10350000D60153968C9353971C96ED90FD900D9198
:103510001C911F97212F332744275527BE2DAA27FB
:1035200099278827280F391F4A1F5B1F2F5F3F4F9E
:103530004F4F5F4FD801C70180709070B070892FD6
:103540009A2FAB2FBB27280F391F4A1F5B1F80E024
:103550009FEFA0E0B0E0E822F9220A231B23102FFE
:103560000F2DFE2CEE242E0D3F1D401F511F122F3C
:103570000027FF24EE24852F9927AA27BB27E80ED2
:10358000F91E0A1F1B1FDA01C90180709070B0700C
:10359000892F9A2FAB2FBB27E80EF91E0A1F1B1F7E
:1035A000207040705070542F432F322F2227E20E8C
:1035B000F31E041F151FD6011C96ED92FD920D936C
:1035C0001C931F9780E150968C9380E090E00E94BE
:1035D000611881E090E0F601928B818B3FC242300E
:1035E00009F046C089EA92E00E948E162091C3023B
:1035F0003091C4024091C5025091C602C091CB02E5
:10360000D091CC0260E070E0A6E1CA2ED12C6C9D76
:10361000F0016D9DF00D7C9DF00D1124E955F84FE2
:1036200080819181A281B38182179307A407B50796
:1036300029F4848195818C179D0731F06F5F7F4F4E
:103640006530710521F70AC2262F30E086E190E04F
:10365000289FF001299FF00D389FF00D1124E955A6
:10366000F84F82E1808B80E090E00E946118F6C103
:103670004091C3025091C4026091C5027091C6028C
:10368000C090CB02D090CC0200E010E0F6E1AF2E6B
:10369000B12C902E0A9DF0010B9DF00D1A9DF00D9E
:1036A0001124E955F84F80819181A281B38184175B
:1036B0009507A607B70729F4848195818C159D0588
:1036C00031F00F5F1F4F0530110519F7C2C189EAAC
:1036D00092E00E948E16A02EBB2486E190E0A89E68
:1036E000F001A99EF00DB89EF00D1124E955F84F98
:1036F000808980FDA3C09FC089EA92E00E948E1657
:10370000E0902108F09022080091230810912408ED
:10371000212F332744275527BE2DAA2799278827ED
:10372000280F391F4A1F5B1F2F5F3F4F4F4F5F4FBF
:10373000D801C70180709070B070892F9A2FAB2F7D
:10374000BB27280F391F4A1F5B1F80E09FEFA0E0B7
:10375000B0E0E822F9220A231B23102F0F2DFE2CA4
:10376000EE242E0D3F1D401F511F122F0027FF2456
:10377000EE24852F9927AA27BB27E80EF91E0A1FDA
:103780001B1FDA01C90180709070B070892F9A2FC9
:10379000AB2FBB27E80EF91E0A1F1B1F20704070BD
:1037A0005070542F432F322F2227E20EF31E041F96
:1037B000151FE0922108F09222080093230810932D
:1037C00024088091250880FF08C080E180932508A7
:1037D00080E090E065E00E94611810921508109258
:1037E0001608109217081092180810921A081092D2
:1037F000190810921C0810921B0810921D081092B4
:103800001E0810921F081092200810922108109292
:103810002208109223081092240810922508109272
:103820002708109226081092280880912A088E7F77
:1038300080932A0813C1808982FFA6C086E190E0A8
:10384000A89E6001A99ED00CB89ED00C1124A7EAB6
:10385000B7E0CA0EDB1EF601E484F5840685178501
:10386000212F332744275527BE2DAA27992788279C
:10387000280F391F4A1F5B1F2F5F3F4F4F4F5F4F6E
:10388000D801C70180709070B070892F9A2FAB2F2C
:10389000BB27280F391F4A1F5B1F80E09FEFA0E066
:1038A000B0E0E822F9220A231B23102F0F2DFE2C53
:1038B000EE242E0D3F1D401F511F122F0027FF2405
:1038C000EE24852F9927AA27BB27E80EF91E0A1F89
:1038D0001B1FDA01C90180709070B070892F9A2F78
:1038E000AB2FBB27E80EF91E0A1F1B1F207040706C
:1038F0005070542F432F322F2227E20EF31E041F45
:10390000151FD6011C96ED92FD920D931C931F97E7
:1039100050968C9180FF12C0CC0FDD1FCC0FDD1FA5
:10392000CE58DD4FE881F981892D099581E1F601B5
:10393000808B80E090E0692D0E94611886E190E024
:10394000A89ED001A99EB00DB89EB00D1124FD0116
:10395000E955F84F10821182128213821582148267
:103960001782168210861186128613861486158693
:1039700016861786108A128A118A138AA454B84FA1
:103980008C918E7F8C936AC0808983FF14C080895C
:1039900084FF11C0818992890196928B818B88E185
:1039A000808BCC0FDD1FCC0FDD1FCE58DD4FE881A3
:1039B000F981802F4CC086E190E0A89E9001A99EDD
:1039C000300DB89E300D1124F901E955F84F80896A
:1039D00084FF0AC0F901E454F84F808180FD04C0DF
:1039E0008081816080833AC086E190E0A89EF001EA
:1039F000A99EF00DB89EF00D1124DF01A955B84F16
:103A000050968C91509784FF29C0E454F84F8081E0
:103A100080FF24C051968D919C9152978F5F9F4F4C
:103A2000E9F080E150968C93509751968D919C913E
:103A30005297019652969C938E935197CC0FDD1F0F
:103A4000CC0FDD1FCE58DD4FE881F981892D099516
:103A500005C025703070232B09F04ECEDF91CF9139
:103A60001F910F91FF90EF90DF90CF90BF90AF909C
:103A70009F900895AF92BF92CF92DF92EF92FF9204
:103A80000F931F93CF93DF9300E010E026E1C22E47
:103A9000D12C93E0A92E84E1B82E0C9D70010D9DD0
:103AA000F00C1C9DF00C1124E701C955D84F8B89EF
:103AB0008823B1F588819981AA81BB810097A105EE
:103AC000B105A1F1AB8A8C898F5F8C8B81508630D8
:103AD00018F1EA98B88A80E090E0602F0E9461189F
:103AE000EA9A188219821A821B821D821C821F8206
:103AF0001E82188619861A861B861C861D861E86BF
:103B00001F86188A1A8A198A1B8AF701E454F84F0B
:103B100080818E7F80830AC0802F0E94031806C098
:103B20008B898F3F19F08B8981508B8B0F5F1F4FD3
:103B30000530110509F0B1CFDF91CF911F910F91A1
:103B4000FF90EF90DF90CF90BF90AF9008958F924D
:103B50009F92AF92BF92CF92DF92EF92FF920F931C
:103B60001F935C01FBECCF2EF2E0DF2EECEEEE2E8D
:103B7000EFEFFE2EEC0CFD1C7093CB026093CC0299
:103B80005093CD024093CE0208969093CF0280933B
:103B9000D002C5014C96F7019283838381E181872E
:103BA0004EED842E4FEF942E8C0C9D1CC401B90158
:103BB000A8010E943A161092D2021092D102F70187
:103BC00072816381685F7F4F808190E08F70907019
:103BD000880F991F880F991F681B790B675F7F4FAC
:103BE0009B0140E050E069507040C60108970E9478
:103BF000F2159093D1028093D202C5018A96B40146
:103C00000E9424281F910F91FF90EF90DF90CF909A
:103C1000BF90AF909F908F9008956F927F928F92F8
:103C20009F92AF92BF92CF92DF92EF92FF920F934B
:103C30001F933B014C0187EBA82E82E0B82EB4E124
:103C4000CB2ED12CCA0CDB1C4093CB02F601218376
:103C5000F582E482178306831382128280E094E562
:103C60009093BA028093B90281E08093C00282EF00
:103C70009FEFA80EB91EC501B401A3010E943A1618
:103C80007091B9026091BA028091B70290E08F7092
:103C90009070880F991F880F991F681B790BC601B8
:103CA00020E030E040E050E00E94F215F6019283FF
:103CB000838382E690E0B5010E9424281F910F9132
:103CC000FF90EF90DF90CF90BF90AF909F908F903C
:103CD0007F906F9008950F931F938091B7029091FA
:103CE000B8028050914009F0C1C08091B902909112
:103CF000BA02089709F0BAC08091BB02863009F079
:103D0000B5C08091BC02843009F0B0C02091CF02D0
:103D10003091D0024091D1025091D2028091990706
:103D200090919A07A0919B07B0919C07281739079B
:103D30004A075B0709F09AC08091BD029091BE02CC
:103D4000E1E080309E0709F08CC00E949D1407EBD3
:103D500012E00E5010404091C5025091C602609191
:103D6000C7027091C802C8010E94971588E096E0CA
:103D7000F801958784874091C5025091C6026091F1
:103D8000C7027091C80220E030E0F901EE0FFF1F7A
:103D9000E20FF31FEE0FFF1FEE0FFF1FE65AF84F63
:103DA00086819781A085B18584179507A607B707F7
:103DB00031F02F5F3F4F2530310539F725C0A7EB94
:103DC000B2E040E050E0822F90E09C01220F331FD0
:103DD000280F391F220F331F220F331FF901E40F61
:103DE000F51FE65AF84F808152968C935297FA014C
:103DF000E158F74F808118968C9318974F5F5F4F6B
:103E000011964630510551F780E092E09093BE0242
:103E10008093BD028091C5029091C602A091C70215
:103E2000B091C8028093CF029093D002A093D102A8
:103E3000B093D2028091990790919A07A0919B0725
:103E4000B0919C078093C5029093C602A093C702CD
:103E5000B093C8028CE390E069EA72E00E942428E3
:103E600005C08050924011F40E949D141F910F9143
:103E70000895EF92FF920F931F938091B502909156
:103E8000B60226E08830920719F40E946B1E66C0C5
:103E9000089709F063C02091C7023091C802409191
:103EA000C9025091CA028091990790919A07A091F6
:103EB0009B07B0919C07281739074A075B0709F051
:103EC00042C00E949D148091C0028130B9F580915A
:103ED000CB028823C1F0883009F040C06091C30252
:103EE0007091C4028091C5029091C6020091D102E6
:103EF0001091D202E090CF02F090D00240E020E09A
:103F00000E940D1E2BC020916508309166084091DB
:103F10006708509168088091C3029091C402A091F3
:103F2000C502B091C602281739074A075B07B1F4EA
:103F300080916A08816080936A0810C0863041F4DD
:103F40000E94101A05C02F5F3F4F4F4F5F4F31F453
:103F50008091C002813111F40E94E0171F910F91EE
:103F6000FF90EF9008958091980781FF4BC00E94C9
:103F70003A1D40E050E09A01220F331F240F351FF5
:103F8000D901AA0FBB1FAA0FBB1FA65AB84F1A967A
:103F90008D919C911B97892B09F51C9211961C926F
:103FA0001197F901EE0FFF1FEE0FFF1FE45AF84FB4
:103FB000108213961C921397F901EE0FFF1FEE0F5C
:103FC000FF1FE25AF84F108215961C92159716960D
:103FD0001D921D921D921C92199709C01A968D91DF
:103FE0009C911B9701971B969C938E931A974F5FFA
:103FF0005F4F4530510509F0BECF809198078D7F06
:10400000809398078091980780FD0FC0089580EBFA
:1040100094E069EA72E00E946F29FC01009729F0A0
:10402000E755FD4F11820E94391F1A9BF0CF8091F6
:1040300098078E7F80939807EA9A08958F929F92AF
:10404000AF92BF92CF92DF92EF92FF920F931F93A6
:10405000DF93CF93CDB7DEB7AA970FB6F894DEBF44
:104060000FBECDBF4B015C018E01015F1F4F8091E0
:10407000990790919A07A0919B07B0919C0788257A
:104080009925AA25BB252091A1073091A20740912F
:10409000A3075091A40782239323A423B523009759
:1040A000A105B10519F47501640108C0C0909D0710
:1040B000D0909E07E0909F07F090A00788E096E0E0
:1040C0009E878D87CE010196B701A6010E949715A4
:1040D0008091990790919A07A0919B07B0919C07B6
:1040E000F80186879787A08BB18BC08ED18EE28E28
:1040F000F38EAFE7B8E08D918087128A319628E081
:10410000A538B207C1F720E031E0F8013183208300
:1041100088E090E09383828386E0848384E08583D3
:10412000378326838AE290E0BE016F5F7F4F0E9453
:10413000242810E05AC0422FF901EE0FFF1FE20FB2
:10414000F31FEE0FFF1FEE0FFF1FE65AF84F868199
:104150009781A085B18588159905AA05BB0531F021
:104160002F5F3F4F2530310531F745E020E030E04B
:10417000F901EE0FFF1FE20FF31FEE0FFF1FEE0F0F
:10418000FF1FE65AF84F86819781A085B1858C156F
:104190009D05AE05BF0531F02F5F3F4F253031053E
:1041A00039F73AC0453021F5822F90E0FC01EE0F3F
:1041B000FF1FE80FF91FEE0FFF1FEE0FFF1FE65A5C
:1041C000F84F86829782A086B18612C080E090E088
:1041D00000000196F7E280319F07D1F70E94B31FDC
:1041E0001F5F143111F480E004C020E030E0A3CF61
:1041F00081E0AA960FB6F894DEBF0FBECDBFCF9177
:10420000DF911F910F91FF90EF90DF90CF90BF90C3
:10421000AF909F908F9008954530C1F2E9CF0E94F2
:1042200055218EE190E040EC58EA60E073E60E9490
:1042300096136093990770939A0780939B079093C6
:104240009C0782E290E04FEF5FEF6FEF70E00E941B
:1042500096136093A1077093A2078093A30790938E
:10426000A40786E290E040EC58EA60E071E00E942A
:10427000961360939D0770939E0780939F0790937A
:10428000A00710927F0880E28093800888E18093E5
:10429000810881EB8093820885E1809383088FE613
:1042A000809384080E94C1280895E1E8F0E08081AD
:1042B0008D608083109285001092840088E09DE3D9
:1042C0009093890080938800EFE6F0E0808182601F
:1042D000808308951F920F920FB60F9211242F938F
:1042E0008F939F93AF93BF9380912F089091300845
:1042F000A0913108B09132080196A11DB11D8093A3
:104300002F0890933008A0933108B0933208809121
:104310002C0890912D08019690932D0880932C08DD
:104320000197815B944018F0E0E0F0E009948091FF
:10433000980782608093980780916B0290916C023D
:10434000019790936C0280936B02BF91AF919F9104
:104350008F912F910F900FBE0F901F901895E0E056
:10436000F0E009940895AC0180916B0890916C087D
:10437000892BF9F020E030E0F999FECFF901EE0F3A
:10438000FF1FE559F74F0190F081E02DF999FECF1D
:104390001FBAC901840F951F92BD81BDE0BD0FB644
:1043A000F894FA9AF99A0FBE2F5F3F4F24303105E7
:1043B00019F7089508958EE190E0F999FECFFC0178
:1043C000E558F84FE081F999FECF1FBA92BD81BD43
:1043D000E0BD0FB6F894FA9AF99A0FBE01968232B0
:1043E000910559F782E290E0F999FECFFC01E1587E
:1043F000F84FE081F999FECF1FBA92BD81BDE0BDB3
:104400000FB6F894FA9AF99A0FBE01968632910582
:1044100059F786E290E0F999FECFFC01E958F84F90
:10442000E081F999FECF1FBA92BD81BDE0BD0FB604
:10443000F894FA9AF99A0FBE01968A32910559F7C3
:1044400008958EE190E040EC58EA60E073E60E9447
:1044500096136093990770939A0780939B079093A4
:104460009C0782E290E04FEF5FEF6FEF70E00E94F9
:1044700096136093A1077093A2078093A30790936C
:10448000A40786E290E040EC58EA60E071E00E9408
:10449000961360939D0770939E0780939F07909358
:1044A000A0070895EF92FF921F93CF93DF93C9E582
:1044B000D1E09DEEE92E92E0F92EFE0121961491B5
:1044C00000D000D0EDB7FEB73196ADB7BEB71296AB
:1044D000FC92EE921197128313820E9471120F9038
:1044E0000F900F900F90112341F7DF91CF911F9103
:1044F000FF90EF9008958F929F92AF92BF92CF92CC
:10450000DF92EF92FF920F931F9360912F087091AB
:1045100030088091310890913208C0902F08D090D7
:104520003008E0903108F090320880902F08909089
:104530003008A0903108B09032082DB73EB728500F
:1045400030400FB6F8943EBF0FBE2DBF0DB71EB75B
:104550000F5F1F4F20EF32E0EDB7FEB732832183AC
:1045600020E13EE040E050E00E94EB3ACA01B90190
:1045700028E130E040E050E00E94EB3AF80162832D
:104580001382C701B6012CE330E040E050E00E9406
:10459000EB3ACA01B9012CE330E040E050E00E9460
:1045A000EB3AF80164831582C501B4012CE330E0D5
:1045B00040E050E00E94EB3AF801668317820E94C7
:1045C00071122DB73EB7285F3F4F0FB6F8943EBF2C
:1045D0000FBE2DBF1F910F91FF90EF90DF90CF90F6
:1045E000BF90AF909F908F900895CF93DF93E0910D
:1045F0006B08F0916C0880916D0890916E08A2E5AF
:10460000B2E0EE0FFF1FEA0FFB1F91838083409102
:104610006B0850916C0820916B0830916C0800D0A9
:1046200000D000D0EDB7FEB7319686E093E0CDB76D
:10463000DEB79A83898353834283220F331FA20FED
:10464000B31F8D919C91958384830E9471128DB7C5
:104650009EB706960FB6F8949EBF0FBE8DBFDF9132
:10466000CF9108952F923F924F925F926F927F92D7
:104670008F929F92AF92BF92CF92DF92EF92FF9272
:104680000F931F93CF93DF93C0E0D0E0F6E12F2E7E
:10469000312CEEE44E2EE3E05E2E79E4672E73E0DB
:1046A000772E64E4862E63E0962E5FE3A52E53E01A
:1046B000B52E44E3C42E43E0D42E37E2E32E33E09C
:1046C000F32E00D000D0E7E5F3E0ADB7BEB7129609
:1046D000FC93EE9311971496DC93CE9313970E945C
:1046E0007112C29D8001C39D100DD29D100D112429
:1046F0000955184FF80180819181A281B38100D0C2
:10470000EDB7FEB7528241829070A070B070838383
:104710009483A583B6830E947112F80180819181F0
:10472000A281B381EDB7FEB772826182892F90E0DA
:10473000A0E0B0E083839483A583B6830E947112C6
:10474000F80180819181A281B381EDB7FEB7928299
:1047500081828A2F90E0A0E0B0E083839483A583D8
:10476000B6830E947112F80180819181A281B38188
:10477000EDB7FEB7B282A1828B2F9927AA27BB275C
:1047800083839483A583B6830E947112D801149603
:104790002D913C91159714968D919C9115970F90A2
:1047A0000F90EDB7FEB7D282C182892F9927322FA1
:1047B0002227822B932B948383830E947112D8012A
:1047C00053968C91EDB7FEB73196ADB7BEB7129642
:1047D000FC92EE921197828313820E9471122196AD
:1047E0000F900F900F900F90C530D10509F069CF51
:1047F000DF91CF911F910F91FF90EF90DF90CF90BD
:10480000BF90AF909F908F907F906F905F904F90F0
:104810003F902F9008952F923F924F925F926F9208
:104820007F928F929F92AF92BF92CF92DF92EF9240
:10483000FF920F931F93CF93DF93C0E0D0E0A0E8E7
:104840002A2EA3E03A2EF7E74F2EF3E05F2EE2E7A1
:104850006E2EE3E07E2E7DE6872E73E0972E68E6CF
:10486000A62E63E0B62E5BE5C52E53E0D52E8E0155
:10487000000F111F0C0F1D1F000F111F000F111F24
:104880002AE5E22E27E0F22EE00EF11ED7018C91F0
:1048900000D000D000D0EDB7FEB7319629E933E063
:1048A000ADB7BEB712963C932E931197D383C283B4
:1048B000848315820E947112D70111968C910F90FA
:1048C0000F90EDB7FEB7319624E933E0ADB7BEB730
:1048D00012963C932E931197828313820E94711239
:1048E000F801E45AF84F8081EDB7FEB731962FE812
:1048F00033E0ADB7BEB712963C932E9311978283E7
:1049000013820E947112D70113968C91EDB7FEB7F6
:1049100031962AE833E0ADB7BEB712963C932E939A
:104920001197828313820E947112025A184FD80184
:104930008C91EDB7FEB7319625E833E0ADB7BEB741
:1049400012963C932E931197828313820E947112C8
:10495000D70115968C91EDB7FEB73196ADB7BEB7BE
:1049600012963C922E921197828313820E947112AA
:10497000F70186819781A085B18500D0EDB7FEB79C
:10498000528241829070A070B07083839483A5831B
:10499000B6830E947112F70186819781A085B18547
:1049A000EDB7FEB772826182892F90E0A0E0B0E09F
:1049B00083839483A583B6830E947112F701868155
:1049C0009781A085B185EDB7FEB7928281828A2F4B
:1049D00090E0A0E0B0E083839483A583B6830E9437
:1049E0007112F70186819781A085B185EDB7FEB779
:1049F000B282A1828B2F9927AA27BB278383948316
:104A0000A583B6830E947112D7011A968D919C914D
:104A10001B970F900F90EDB7FEB7D282C18294839F
:104A200083830E94711221960F900F900F900F9028
:104A3000C530D10509F01BCFDF91CF911F910F91A8
:104A4000FF90EF90DF90CF90BF90AF909F908F90AE
:104A50007F906F905F904F903F902F90089500D07F
:104A600000D0EDB7FEB7319686EA93E0ADB7BEB79A
:104A700012969C938E93119780919E02828313824B
:104A80000E9471120F900F900F900F9008958DB7A4
:104A90009EB70E970FB6F8949EBF0FBE8DBFEDB7B1
:104AA000FEB731968EEB93E0ADB7BEB712969C93EE
:104AB0008E93119780917F08828313828091800862
:104AC0008483158280918108868317828091820871
:104AD000808711868091830882871386809184085D
:104AE000848715860E9471128DB79EB70E960FB6F9
:104AF000F8949EBF0FBE8DBF089586E290E00E949D
:104B0000B32186E290E040EC58EA60E071E00E9458
:104B1000961360939D0770939E0780939F079093D1
:104B2000A0078DB79EB70A970FB6F8949EBF0FBE29
:104B30008DBFEDB7FEB7319680EE93E0ADB7BEB74F
:104B400012969C938E93119780919D078283138276
:104B500080919E078483158280919F0786831782A8
:104B60008091A007808711860E9471128DB79EB731
:104B70000A960FB6F8949EBF0FBE8DBF089582E2CD
:104B800090E00E94B32182E290E04FEF5FEF6FEF81
:104B900070E00E9496136093A1077093A207809320
:104BA000A3079093A4078DB79EB70A970FB6F89402
:104BB0009EBF0FBE8DBFEDB7FEB731968DEF93E070
:104BC000ADB7BEB712969C938E9311978091A107B3
:104BD000828313828091A207848315828091A30728
:104BE000868317828091A407808711860E947112A4
:104BF0008DB79EB70A960FB6F8949EBF0FBE8DBFB5
:104C0000089582E390E00E94B32182E390E04DE4B6
:104C100055E266E07BE30E9496136093A5027093D1
:104C2000A6028093A7029093A8028DB79EB70A9719
:104C30000FB6F8949EBF0FBE8DBFEDB7FEB731968D
:104C400088E194E0ADB7BEB712969C938E9311970E
:104C50008091A502828313828091A60284831582AB
:104C60008091A702868317828091A802808711868F
:104C70000E9471128DB79EB70A960FB6F8949EBF28
:104C80000FBE8DBF08958EE190E00E94B3218EE1AA
:104C900090E040EC58EA60E073E60E94961360935F
:104CA000990770939A0780939B0790939C078DB701
:104CB0009EB70A970FB6F8949EBF0FBE8DBFEDB793
:104CC000FEB7319686E394E0ADB7BEB712969C93DB
:104CD0008E931197809199078283138280919A070E
:104CE0008483158280919B078683178280919C071D
:104CF000808711860E9471128DB79EB70A960FB6F3
:104D0000F8949EBF0FBE8DBF0895AF92BF92CF9211
:104D1000DF92EF92FF920F931F9380916B08909117
:104D20006C08892B09F44AC0A0906B08B0906C08FD
:104D300060916D0870916E0820916F083091700835
:104D4000E0907108F090720880E090E0982F872F33
:104D5000762F662740E050E0A90133272227620F13
:104D6000731F841F951FCC24DD246A0D7B1D8C1DB1
:104D70009D1D00E010E01E2D0027FF24EE246E0D87
:104D80007F1D801F911F6093650870936608809354
:104D90006708909368080E941E20609165087091D2
:104DA0006608809167089091680848E020E001E07B
:104DB00010E0B1E0EB2EF12C0E940D1E1F910F911F
:104DC000FF90EF90DF90CF90BF90AF9008950E943A
:104DD000F0330895CF92DF92EF92FF920F931F93DB
:104DE000DF93CF9300D0CDB7DEB79A838983CE010E
:104DF000019664E071E00E94E7376C0110E00FC09B
:104E00001F5FE12FF0E0EE0FFF1FEE0FFF1FE55BCE
:104E1000FE4F80819181892B11F480E03AC0E12E10
:104E2000FF24F701EE0FFF1FEE0FFF1FE55BFE4FA4
:104E300080819181B6010E946D37892B09F700E0CE
:104E400010E06E010894C11CD11CC60166E071E03F
:104E50000E94E73760E070E040E050E00E94E635F5
:104E6000F801EE0FFF1FE559F74F718360830F5F65
:104E70001F4F0A30110549F7EE0CFF1CEE0CFF1C0A
:104E80008DE491E0E80EF91ED701ED91FC910995B2
:104E900081E00F900F90CF91DF911F910F91FF90C4
:104EA000EF90DF90CF900895CF93DF93EC01DB017B
:104EB00034C086958695FD018193888183708295A3
:104EC000807F11968C9311979981992321F4DF01AA
:104ED000119642E026C092959F70890F11968C938F
:104EE000119789818F70880F880F12968C93129773
:104EF0009A81992319F4139641E013C092959695DF
:104F000096959370890F12968C9312978A818F735E
:104F100013968C931397149623968881882349F6C9
:104F200040E01C92EB0108C0E881F0E0EF73F07004
:104F3000E15BFB4FE491E993CA17DB07A9F7FD0199
:104F4000842F9DE302C0919381508823E1F7A40F41
:104F5000B11D1C92DF91CF910895282F382F3F71FA
:104F60003A3140F590E08076907045E095958795D0
:104F70004A95E1F7982F8091A1029817D9F02B98C4
:104F80008FEB8EBD0DB407FEFDCF83E08EBD0DB45B
:104F900007FEFDCF2B9A992359F02B988FE98EBDF0
:104FA0000DB407FEFDCF9EBD0DB407FEFDCF2B9ABD
:104FB0009093A1022B983EBD0DB407FEFDCF1EBC01
:104FC0000DB407FEFDCF27FF04C01EBC0DB407FEC5
:104FD000FDCF8EB52B9A0895282F2F712A3140F5D9
:104FE00090E08076907055E0959587955A95E1F719
:104FF000982F8091A1029817D9F02B988FEB8EBD36
:105000000DB407FEFDCF83E08EBD0DB407FEFDCFCE
:105010002B9A992359F02B988FE98EBD0DB407FE7A
:10502000FDCF9EBD0DB407FEFDCF2B9A9093A1023C
:105030002B9820642EBD0DB407FEFDCF6EBD0DB4C0
:1050400007FEFDCF2B9A0895CF92DF92EF92FF9249
:105050000F931F93DF93CF930F92CDB7DEB77C01F1
:105060006B01198204E610E011C08FE10E94AD27A8
:1050700083FF12C088EE93E001972FEF8F3F9207D6
:1050800029F00000000000000000F6CF01501040A1
:105090008FEF0F3F180749F78FE10E94AD2783FF7D
:1050A00018C02B988FE98EBD0DB407FEFDCF80E8A8
:1050B0008EBD0DB407FEFDCF2B9A2B988FEB8EBDC6
:1050C0000DB407FEFDCF80E88EBD0DB407FEFDCF09
:1050D0002B9A82E060E00E94EC2783E06AE10E9464
:1050E000EC2786E06E2D0E94EC2797012050364E6B
:1050F00087E0632F0E94EC272B988AE78EBD0DB4C2
:1051000007FEFDCF89818EBD0DB407FEFDCF2B9A22
:105110002B988AE78EBD0DB407FEFDCF0CC0F601BB
:1051200080818EBD0DB407FEFDCF0894E108F10823
:105130000894C11CD11CE114F10489F72B9A2B9817
:105140008CEB8EBD0DB407FEFDCF88E08EBD0DB497
:1051500007FEFDCF2B9A2B988FE98EBD0DB407FE6D
:10516000FDCF88E08EBD0DB407FEFDCF2B9A0F90CA
:10517000CF91DF911F910F91FF90EF90DF90CF9033
:105180000895EF92FF920F931F93CF93DF93239A8B
:105190002B9A84B1806A84B92F9A2698249A80E544
:1051A0008CBD81E08DBD80E197E201972FEF8F3FAD
:1051B000920729F00000000000000000F6CF2B98B5
:1051C0008FEF8EBD0DB407FEFDCF2B9A88EE93E0D6
:1051D0000197EFEF8F3F9E0729F0000000000000CD
:1051E0000000F6CF8DE10E94AD2780FFFBCF82E764
:1051F0000E94AD2780939E0210927F0880E28093E8
:10520000800888E18093810881EB8093820885E1A2
:10521000809383088FE680938408C0E0D0E0CE01BD
:10522000FE01EF56FB4F249122968E569B4FFC01B8
:1052300064912F3F11F46F3F21F0822F0E94EC27E1
:10524000EECFCF56DB4FFE0164912196FE01849193
:1052500021976F3F11F48F3F39F1F82EEE242296FB
:10526000FE010491229710E00E291F2984ED0E946F
:10527000EC2786ED602F0E94EC2787ED612F0E94BE
:10528000EC278AE090E00197FFEF8F3F9F0729F01E
:105290000000000000000000F6CF8AEE0E94AD275B
:1052A00080FDFBCF2396CFCF1092A00210929F02D9
:1052B0008BE160EC0E94EC272B988FE98EBD0DB43A
:1052C00007FEFDCF84E08EBD0DB407FEFDCF2B9A07
:1052D000DF91CF911F910F91FF90EF900895CF92A2
:1052E000DF92EF92FF920F931F93DF93CF9300D043
:1052F00000D000D0CDB7DEB77C016B0189E30E94FE
:10530000AD27882319F400E010E09CC060919F0253
:105310007091A00280E00E94EC2720919F023091C2
:10532000A00281E0632F0E94EC272B988AE38EBDB8
:105330000DB407FEFDCFFE0131969E012A5F3F4F5F
:105340001EBC0DB407FEFDCF8EB58083E217F307B8
:1053500011F03196F5CF2B9A898190E09093A002BD
:1053600080939F0220919F023091A0029A8180E059
:10537000822B932B9093A00280939F028B81082F06
:1053800010E09C8180E0082B192B8D81282F30E0C4
:105390009E8180E0282B392B27FF05C037FD03C0F5
:1053A000E016F10610F40E94C12804501040E016E7
:1053B000F10608F487012B988AE38EBD0DB407FE31
:1053C000FDCF98010AC01EBC0DB407FEFDCF8EB5FF
:1053D000F60181936F01215030402115310599F775
:1053E0002B9A80919F029091A002019780509A4140
:1053F000A8F480919F029091A00260919F02709109
:10540000A00261508CE00E94EC2720919F02309115
:10541000A002215030408DE0632F06C08CE06FEF7A
:105420000E94EC278DE069E10E94EC272B988EE921
:105430008EBD0DB407FEFDCF80E48EBD0DB407FE1A
:10544000FDCF2B9AC80126960FB6F894DEBF0FBE8B
:10545000CDBFCF91DF911F910F91FF90EF90DF9023
:10546000CF90089590E02DE030E0A901849F900155
:10547000859F300D949F300D1124EBEAF8E0DF0199
:10548000A20FB31F8C91807E82608C933897E20FBD
:10549000F31F13821282118210828C918F7D8C9364
:1054A00085E898E09583848380E392E09287818702
:1054B00085E392E09487838786E692E097838683EC
:1054C00008952F923F924F925F926F927F928F92A8
:1054D0009F92AF92BF92CF92DF92EF92FF920F9383
:1054E0001F93DF93CF93CDB7DEB7A9970FB6F8948C
:1054F000DEBF0FBECDBF382E482E55248DE090E084
:10550000489E9001499E300D589E300D1124F9019E
:10551000E555F74F808180FD07C0F901ED55F74F44
:105520008FE79EE19383828386E190E0489EF001BD
:10553000499EF00D589EF00D1124E955F84F8089D1
:10554000882379F48DE090E0489EF001499EF00DAB
:10555000589EF00D1124ED55F74F80819181938372
:1055600082838DE090E0489EF001499EF00D589EA8
:10557000F00D1124ED55F74F828193819183808343
:10558000EE24FF2442E0C42ED12CCE0EDF1E4E01AD
:105590000894811C911C31E0632E712C2AE0222E8C
:1055A000D6010D911C911197B8016F5F7F4F6D93DC
:1055B0007C93F80184919FEDA92E92E0B92EAE0C58
:1055C000BF1CD5018C93853209F085C18BE891E031
:1055D00043E050E00E944337892B89F50C5F1F4F51
:1055E000F80184910F5F1F4FF80124912051829D93
:1055F000C0011124280FE22FF0E0EE0FFF1FEE5A3A
:10560000FD4F80819181B4014AE050E00E94FF3754
:10561000C4016AE070E00E94DC37082F10E0C50189
:10562000B401A8010E945B3701501040E00EF11E4A
:10563000D6018D919C91119705968D939C93F601BF
:10564000608171818FE891E044E050E00E9443372F
:10565000892B09F061C080912E08823039F484E9E9
:1056600091E069E971E00E94D5373BC060912F0855
:10567000709130088091310890913208AE01455FF9
:105680005F4F0E94CE314DB75EB7485050400FB6C5
:10569000F8945EBF0FBE4DBFEDB7FEB731964AE33B
:1056A00052E0ADB7BEB712965C934E93119783EB61
:1056B0009EE193838283A3E1B0E0AC0FBD1FB5836D
:1056C000A48341E250E04C0F5D1F578346830E9444
:1056D00028388DB79EB708960FB6F8949EBF0FBEB8
:1056E0008DBF8AE392E068E170E00E94DC37082F0A
:1056F00010E0C70181529D4F6AE372E0A8010E9449
:105700005B3701501040E00EF11ED6018D919C9147
:10571000119704968D939C93F601008111818BE97A
:1057200091E0B80144E050E00E944337892B09F032
:1057300055C00B5F1F4FF8018491805301501040FA
:10574000F8016491623461F0633418F4613441F516
:1057500005C0633471F0643419F514C022B113C06C
:1057600025B1D30102C0AA0FBB1F8A95E2F7CD0174
:1057700011C028B1F30102C0EE0FFF1F8A95E2F7B6
:10578000CF0108C02BB1A30102C0440F551F8A9559
:10579000E2F7CA01282321F0C4016BEA7EE103C0CD
:1057A000C40169EA7EE10E943C37C4016AE070E00E
:1057B0000E94DC37082F10E0C70181529D4FB401D1
:1057C000A8010E945B3701501040E00EF11ED60187
:1057D0008D919C91119706968D939C93F601008173
:1057E000118180EA91E0B80143E050E00E94433724
:1057F000892B09F055C00C5F1F4FF801849180532D
:1058000001501040F8016491623461F0633418F47F
:10581000613441F505C0633471F0643419F514C086
:1058200020B113C023B1D30102C0AA0FBB1F8A95B8
:10583000E2F7CD0111C026B1F30102C0EE0FFF1F48
:105840008A95E2F7CF0108C029B1A30102C0440F35
:10585000551F8A95E2F7CA01282321F0C4016FE998
:105860007EE103C0C40164E97EE10E943C37C401CB
:105870006AE070E00E94DC37082F10E0C701815217
:105880009D4FB401A8010E945B3701501040E00E0B
:10589000F11ED6018D919C91119705968D939C9345
:1058A000F6016081718184EA91E043E050E00E945A
:1058B0004337892B81F486E190E0489EF001499EB0
:1058C000F00D589EF00D1124E955F84F8DEF9FEF24
:1058D000928B818B09C00894E11CF11CF4EEEF1649
:1058E000F3E0FF0608F45CCE86E190E0489EF0010C
:1058F000499EF00D589EF00D1124E955F84F88E1AE
:10590000808BC701632D0E946118A9960FB6F89489
:10591000DEBF0FBECDBFCF91DF911F910F91FF90E2
:10592000EF90DF90CF90BF90AF909F908F907F903F
:105930006F905F904F903F902F9008954F925F929D
:105940006F927F929F92AF92BF92CF92DF92EF922F
:10595000FF920F931F93CF93DF93982E8091D702DE
:10596000082F10E0007F1070159507951595079585
:10597000C80185539D4F6AEB7EE10E94A537892BB4
:1059800081F0292D30E08DE090E0289FF001299FE3
:10599000F00D389FF00D1124E555F74F808180629E
:1059A0008083C92CDD248DE090E0C89EA001C99EB3
:1059B000500DD89E500D1124DA01AD55B74F36E089
:1059C000A32EB12CAA0EBB1E1696ED91FC91179733
:1059D0008081882309F45BC022E2E22EF12CE00EE4
:1059E000F11E8091BA02282F30E02E5D3F4F90913A
:1059F000B90280E0280F391F201B310BB701675512
:105A00007D4FEA01C555D74F149695E8692E98E069
:105A1000792EA50186E6A82E82E0B82E35C08881B1
:105A200080FD17C0FB018081ED91FC911197919150
:105A30001196FC93EE93891719F011967C926E9251
:105A4000ED91FC9111978081882319F48881816000
:105A50008883FB018081FA0140805180F20191919D
:105A60002F01FA0151824082891711F0B182A08280
:105A70006F5F7F4FFA0180819181FC0180818823D3
:105A800031F00894E11CF11CE216F30640F28DE0BF
:105A900090E0C89EB001C99E700DD89E700D112473
:105AA000FB01E555F74FE081E0FF76C0E5FF74C0EC
:105AB000F2E2EF2EF12CE00EF11E8091BA02282FB7
:105AC00030E02E5D3F4F9091B90280E0280F391FE2
:105AD000201B310BA70147555D4FCB018D55974FCB
