:100000000C9446110C9463110C9463110C946215BA
:100010000C9463110C9463110C9463110C94631190
:100020000C9463110C9463110C9463110C94631180
:100030000C9463110C9445220C9463110C9463117D
:100040000C9463110C9463110C9463110C94631160
:100050000C9429400C9463110C9463110C9463115B
:100060000C940A3B0C9463110C9463110C9463116F
:1000700047657420504F4E473A2025692E25692E3A
:1000800025692E25690D0A004552524F520D0A0D61
:100090000A0052656164790D0A0D0A000D0A004ECE
:1000A0005450204572722E0D0A00475720202025FB
:1000B00031692E2531692E2531692E2531690D0AC8
:1000C000004D41534B202531692E2531692E2531B4
:1000D000692E2531690D0A000D0A4950202020257E
:1000E00031692E2531692E2531692E2531690D0A98
:1000F0000043414D4552412052454144590043413E
:100100004D45524120494E49540053797374656DF1
:1001100020526561647900436F6D70696C69657226
:1001200074206D6974204743432056657273696F6C
:100130006E20342E332E320D0A00436F6D70696CC1
:100140006965727420616D204F63742031372032ED
:1001500030303920756D2031383A35363A34370D24
:100160000A000A0D53797374656D205265616479D4
:100170000A0D00524553455420202D2072657365A9
:10018000742074686520415652202D20436F6E7490
:10019000726F6C6C65720D0A415250202020202D28
:1001A000206C69737420746865204152502074611A
:1001B000626C650D0A544350202020202D206C696C
:1001C00073742074686520746370207461626C6558
:1001D0000D0A495020202020202D206C6973742F97
:1001E0006368616E67652069700D0A4E4554202072
:1001F00020202D206C6973742F6368616E67652001
:100200006E65746D61736B0D0A524F5554455220E3
:100210002D206C6973742F6368616E676520726F3F
:10022000757465722069700D0A4E5450202020208C
:100230002D206C6973742F6368616E6765204E545E
:10024000500D0A4E5450522020202D204E54502044
:10025000526566726573680D0A4D41432020202067
:100260002D206C697374204D41432D616464726567
:1002700073730D0A564552202020202D206C69737F
:100280007420656E632076657273696F6E206E757B
:100290006D6265720D0A535620202020202D207398
:1002A0006574207661726961626C650D0A50494E11
:1002B000472020202D2073656E642050696E670DE5
:1002C0000A4D41494C2020202D2073656E64204545
:1002D0005F4D41494C0D0A574F4C202020202D20C6
:1002E00073656E6420574F4C202F20736574204D2A
:1002F0004143202F20736574204D414320616E647B
:100300002049500D0A54494D452020202D20676575
:10031000742074696D650D0A48454C502020202DCD
:10032000207072696E742048656C70746578740D05
:100330000A3F2020202020202D207072696E74201A
:1003400048656C70746578740D0A002563000A0DA9
:1003500054494D453A202532693A2532693A2532C9
:10036000690D0A00496E68616C74206465722056DC
:1003700061726961626C655B2532695D203D202593
:1003800032690D0A00202054696D653A2534690DE3
:100390000A002020504F52543A253469002E25334C
:1003A00069002E253369002E25336900202049502D
:1003B0003A2533690025326900202054696D653A79
:1003C0002534690D0A002E253369002E2533690076
:1003D0002E25336900202049503A253369002E2507
:1003E0003278002E253278002E253278002E2532E4
:1003F00078002E2532780025326920204D41433A7D
:1004000025327800454E4332384A36302D566572D3
:1004100073696F6E3A202531780D0A004D79204DB1
:1004200041433A202532783A2532783A2532783AD3
:100430002532783A2532783A2532780D0A00526F03
:10044000757465722049503A202531692E2531692D
:100450002E2531692E2531690D0A004E45544D4136
:10046000534B3A202531692E2531692E2531692ECD
:100470002531690D0A004E54505F536572766572DE
:100480003A202531692E2531692E2531692E2531F5
:10049000690D0A004D792049503A202531692E25F1
:1004A00031692E2531692E2531690D0A00414243FB
:1004B0004445464748494A4B4C4D4E4F5051525384
:1004C0005455565758595A6162636465666768693E
:1004D0006A6B6C6D6E6F7071727374757677787904
:1004E0007A303132333435363738392B2F3D0004EA
:1004F00000051A06FF071F080009000AFF0B19C1B3
:1005000000C00DC233CAEECB05C415C612E400E527
:1005100020E218E3B1E015E16F7500FFFF00010074
:10052000140742FFFF3C21444F4354595045206873
:10053000746D6C205055424C494320222D2F2F576B
:1005400033432F2F4454442048544D4C20342E30F4
:1005500031205472616E736974696F6E616C2F2FF4
:10056000454E222022687474703A2F2F7777772EA9
:1005700077332E6F72672F54522F68746D6C342F3F
:100580006C6F6F73652E647464223E0D0A3C687450
:100590006D6C3E3C686561643E0D0A3C6D6574613E
:1005A00020687474702D65717569763D22636F6E75
:1005B00074656E742D747970652220636F6E746536
:1005C0006E743D22746578742F68746D6C3B206383
:1005D0006861727365743D49534F2D383835392D34
:1005E00031223E0D0A3C7469746C653E41565220BE
:1005F0006D696E6920576562736572766572203A1F
:1006000020486F6D653C2F7469746C653E0D0A3C23
:100610006C696E6B2072656C3D227374796C6573C6
:10062000686565742220747970653D2274657874FC
:100630002F637373222020687265663D227374797C
:100640006C65732E637373223E3C2F686561643E54
:100650003C626F64793E0D0A3C68313E415652203F
:100660006D696E6920576562736572766572203AAE
:1006700020486F6D653C2F68313E0D0A3C646976F9
:100680002069643D226E6176223E3C61206872657D
:10069000663D22696E6465782E68746D223E486FEF
:1006A0006D653C2F613E3C6120687265663D22733A
:1006B00074617475732E68746D223E537461747521
:1006C000733C2F613E3C2F6469763E0D0A3C6469A1
:1006D000762069643D226D61696E223E3C68323E3F
:1006E000476CFC636B77756E736368213C2F6832CF
:1006F0003E3C62723E0D0A3C696D67207372633D39
:100700002263616D6572612E6A7067222077696469
:1007100074683D2236343022206865696768743D0C
:10072000223438302220616C743D22223E3C6272B9
:100730003E3C62723E0D0A3C703E44752068617317
:1007400074206573206765736368616666743A2018
:1007500044657220576562736572766572206CE439
:10076000756674213C2F703E3C62723E3C68723E5E
:100770003C62723E0D0A3C646976207374796C6544
:100780003D2277696474683A32303070783B6D612D
:100790007267696E3A2030206175746F3B223E0D9E
:1007A0000A3C646976207374796C653D22666C6FCF
:1007B00061743A6C6566743B77696474683A313089
:1007C000307078223E0D0A3C666F726D206D657444
:1007D000686F643D22706F73742220616374696F67
:1007E0006E3D22696E6465782E68746D223E0D0A36
:1007F0003C696E707574206E616D653D224F555475
:100800002220747970653D22636865636B626F783E
:10081000222076616C75653D2241222025504F5281
:100820005441303E506F727420412050696E203028
:100830003C62723E0D0A3C696E707574206E616D8B
:10084000653D224F55542220747970653D226368BE
:1008500065636B626F78222076616C75653D22421C
:10086000222025504F525441313E506F7274204126
:100870002050696E20313C62723E0D0A3C696E70F8
:100880007574206E616D653D224F55542220747938
:1008900070653D22636865636B626F7822207661C4
:1008A0006C75653D2243222025504F525441323E03
:1008B000506F727420412050696E20323C62723E4B
:1008C0003C696E70757420747970653D226368654B
:1008D000636B626F7822206E616D653D224F5554C7
:1008E000222076616C75653D2257223E0D0A5761C4
:1008F0006B65204F6E204C616E3C62723E3C6272B2
:100900003E0D0A3C696E707574206E616D653D2206
:10091000535542222076616C75653D2253656E64A5
:10092000656E2220747970653D227375626D6974FD
:10093000223E0D0A3C2F666F726D3E3C2F64697635
:100940003E0D0A3C646976207374796C653D2266BD
:100950006C6F61743A6C6566743B20776964746887
:100960003A3130307078223E0D0A3C696D67207351
:1009700072633D222550494E44372220616C743DFC
:1009800022223E20506F727420442050696E20371E
:100990003C62723E3C696D67207372633D22255054
:1009A000494E44362220616C743D22223E20506F15
:1009B000727420442050696E20363C62723E3C695D
:1009C0006D67207372633D222550494E44352220C5
:1009D000616C743D22223E20506F7274204420507E
:1009E000696E20353C62723E3C2F6469763E3C2F36
:1009F0006469763E0D0A3C64697620636C617373AA
:100A00003D22636C656172223E3C2F6469763E0D27
:100A10000A3C62723E3C68723E3C62723E0D0A3C89
:100A20007461626C6520626F726465723D2230226F
:100A300020636C6173733D2274656D7054626C2227
:100A400020616C69676E3D2263656E746572222059
:100A500077696474683D2234303070783B223E0DF3
:100A60000A3C74723E0D0A3C74683E45696E6761CB
:100A70006E673C2F74683E0D0A3C74683E42616CA0
:100A80006B656E3C2F74683E0D0A3C74683E54657D
:100A90006D70657261747572205BB0435D3C2F743C
:100AA000683E0D0A3C2F74723E3C74723E0D0A3C47
:100AB00074643E41442D4B616E616C303C2F746414
:100AC0003E0D0A3C7464207374796C653D22746534
:100AD00078742D616C69676E3A6C656674223E3C71
:100AE000696D67207372633D22696E6465782D4479
:100AF00061746569656E2F62616C6B652E676966EE
:100B00002220616C743D2222206865696768743D0B
:100B1000223130222077696474683D222556414095
:100B20003030223E3C2F74643E0D0A3C74643E25F6
:100B300056414030303C2F74643E0D0A3C2F747295
:100B40003E3C74723E0D0A3C74643E41442D4B6140
:100B50006E616C313C2F74643E0D0A3C74642073EA
:100B600074796C653D22746578742D616C69676E6B
:100B70003A6C656674223E3C696D67207372633D12
:100B800022696E6465782D4461746569656E2F62B3
:100B9000616C6B652E6769662220616C743D222250
:100BA000206865696768743D223130222077696466
:100BB00074683D22255641403031223E3C2F7464FA
:100BC0003E0D0A3C74643E2556414030313C2F7442
:100BD000643E0D0A3C2F74723E3C74723E0D0A3C1A
:100BE00074643E41442D4B616E616C323C2F7464E1
:100BF0003E0D0A3C7464207374796C653D22746503
:100C000078742D616C69676E3A6C656674223E3C3F
:100C1000696D67207372633D22696E6465782D4447
:100C200061746569656E2F62616C6B652E676966BC
:100C30002220616C743D2222206865696768743DDA
:100C4000223130222077696474683D222556414064
:100C50003032223E3C2F74643E0D0A3C74643E25C3
:100C600056414030323C2F74643E0D0A3C2F747262
:100C70003E3C74723E0D0A3C74643E41442D4B610F
:100C80006E616C333C2F74643E0D0A3C74642073B7
:100C900074796C653D22746578742D616C69676E3A
:100CA0003A6C656674223E3C696D67207372633DE1
:100CB00022696E6465782D4461746569656E2F6282
:100CC000616C6B652E6769662220616C743D22221F
:100CD000206865696768743D223130222077696435
:100CE00074683D22255641403033223E3C2F7464C7
:100CF0003E0D0A3C74643E2556414030333C2F740F
:100D0000643E0D0A3C2F74723E0D0A3C2F746162E2
:100D10006C653E0D0A3C2F6469763E3C6469762022
:100D200069643D227461696C223E3C612068726591
:100D3000663D22687474703A2F2F7777772E756C22
:100D40007269636872616469672E6465223E7777B1
:100D5000772E756C7269636872616469672E646569
:100D60003C2F613E20556C72696368205261646952
:100D70006720323030383C2F6469763E0D0A3C2FB4
:100D8000626F64793E3C2F68746D6C3E25454E441D
:100D9000003C21444F43545950452068746D6C20E9
:100DA0005055424C494320222D2F2F5733432F2F8C
:100DB0004454442048544D4C20342E303120547239
:100DC000616E736974696F6E616C2F2F454E2220BE
:100DD00022687474703A2F2F7777772E77332E6FBF
:100DE00072672F54522F68746D6C342F6C6F6F7351
:100DF000652E647464223E0D0A3C68746D6C3E3C42
:100E0000686561643E0D0A3C6D65746120687474A8
:100E1000702D65717569763D22636F6E74656E74B1
:100E20002D747970652220636F6E74656E743D2237
:100E3000746578742F68746D6C3B2063686172739D
:100E400065743D49534F2D383835392D31223E0DCB
:100E50000A3C7469746C653E415652206D696E6936
:100E600020576562736572766572203A205374610B
:100E70007475733C2F7469746C653E0D0A3C6C6923
:100E80006E6B2072656C3D227374796C6573686556
:100E900065742220747970653D22746578742F63BF
:100EA0007373222020687265663D227374796C65C5
:100EB000732E637373223E3C2F686561643E3C620F
:100EC0006F64793E3C68313E415652206D696E69CF
:100ED00020576562736572766572203A205374619B
:100EE0007475733C2F68313E0D0A3C646976206945
:100EF000643D226E6176223E3C6120687265663DEB
:100F000022696E6465782E68746D223E486F6D6547
:100F10003C2F613E3C6120687265663D22737461BE
:100F20007475732E68746D223E5374617475733CCE
:100F30002F613E3C2F6469763E0D0A3C6469762041
:100F400069643D226D61696E223E0D0A436F6D70CA
:100F5000696C6965727420616D204F63742031374C
:100F6000203230303920756D2031383A35363A34F8
:100F7000383C62723E3C62723E0D0A436F6D70698E
:100F80006C69657274206D6974204743432056650F
:100F90007273696F6E20342E332E323C62723E3C87
:100FA00062723E0D0A4265737563686572207365EF
:100FB000697420537461727420646573205765628C
:100FC0007365727665727320282556414030392941
:100FD0003C62723E3C62723E0D0A416B7475656CF8
:100FE0006C65205A6569743A202554494D453C6228
:100FF000723E3C62723E0D0A3C2F6469763E3C6450
:1010000069762069643D227461696C223E3C6120EE
:10101000687265663D22687474703A2F2F7777770F
:101020002E756C7269636872616469672E646522EB
:101030003E7777772E756C72696368726164696751
:101040002E64653C2F613E20556C726963682052A6
:101050006164696720323030383C2F6469763E0D18
:101060000A3C2F626F64793E3C2F68746D6C3E0DB4
:101070000A25454E4400626F64797B6D6172676931
:101080006E3A20343070783B7D20626F64792C702A
:101090002C6469762C68312C68322C74642C74684A
:1010A0007B666F6E742D66616D696C793A73616EE3
:1010B000732D73657269663B666F6E742D73697A02
:1010C000653A313170787D68317B666F6E742D734F
:1010D000697A653A323070783B636F6C6F723A7739
:1010E000686974653B206261636B67726F756E64DB
:1010F0002D636F6C6F723A233936423131433B6D49
:10110000617267696E3A3170783B70616464696ED0
:10111000673A3570783B746578742D616C69676ED9
:101120003A63656E7465723B7D68327B666F6E7480
:101130002D73697A653A313870783B636F6C6F72E2
:101140003A233936423131437D702C68327B6D61F0
:101150007267696E3A3070783070783570783070B8
:10116000787D696D677B626F726465723A307D6805
:10117000727B636F6C6F723A73696C7665723B2039
:101180006261636B67726F756E642D636F6C6F72F3
:101190003A73696C7665723B626F726465723A305D
:1011A0003B6865696768743A3170787D236E617653
:1011B0007B666F6E742D73697A653A20313670786C
:1011C0003B206261636B67726F756E642D636F6C39
:1011D0006F723A73696C7665723B6D617267696EA6
:1011E0003A3170783B70616464696E673A35707843
:1011F0003B666F6E742D7765696768743A626F6CD1
:10120000647D236E617620612C20237461696C20DB
:10121000617B636F6C6F723A77686974653B2070AD
:10122000616464696E673A313070783B74657874D4
:101230002D6465636F726174696F6E3A6E6F6E656F
:101240007D236E617620613A686F7665722C237417
:1012500061696C20613A686F7665727B7465787439
:101260002D6465636F726174696F6E3A756E646543
:10127000726C696E657D237461696C7B20636F6C31
:101280006F723A77686974653B206261636B67725D
:101290006F756E642D636F6C6F723A73696C7665EF
:1012A000723B746578742D616C69676E3A63656E24
:1012B0007465723B70616464696E673A3570787DFD
:1012C000236D61696E7B746578742D616C69676EDE
:1012D0003A63656E7465723B6D617267696E3A322E
:1012E0003070787D2E636C6561727B636C656172B2
:1012F0003A6C6566747D2E74656D7054626C207BEB
:101300007461626C652D6C61796F75743A61757486
:101310006F3B626F726465722D73706163696E6793
:101320003A307D2E74656D7054626C2074647B74E9
:101330006578742D616C69676E3A63656E74657269
:101340003B70616464696E673A3770787D2E7465AE
:101350006D7054626C2074687B6261636B67726F3E
:10136000756E642D636F6C6F723A73696C7665721B
:101370007D25454E4400474946383961110011002A
:10138000A2070062626219AD2121E22CA5A5A56425
:10139000E66BA5F3A9D5D5D5FFFFFF21F904010020
:1013A0000007002C0000000011001100000360780D
:1013B000AAD6F366C9D3EABB5156127A1700302C6D
:1013C0004DF109A8D085591308444CA46A48192A3C
:1013D00051EC73BA0E2ED8AE10A30544411D8F56A2
:1013E000130D5EB2A231F478A17ACCA3D3CA9C02C9
:1013F0000C4F6EF777A8767D364AE8E4D38E1483D7
:10140000B5C7439D1842F8FC7B528EE3F70A0900EA
:101410003B25454E4447494638396111001100A229
:1014200007005756576969697E7E7E909191B0B0EA
:10143000B0C8C8C8E7E7E7FFFFFF21F904010000D3
:1014400007002C000000001100110000036F78AAB3
:101450005645B0AC794C73706839AD19012006421D
:10146000492C56416A431990016705034468A5F069
:101470000A55D1128E47CBA503AA6A85C62DA7A30C
:10148000390048CCB03482406B99A94004B00A5866
:10149000386615C42CBB00029FCE9C23750F2D12FD
:1014A0005B0708280A2E793BF45610767C757C275A
:1014B00013782F5C55140B372124840B09003B252E
:1014C000454E4447494638396102000A00A20000EF
:1014D000A2A5ED848FE5667CDD4960D62144DAFE65
:1014E000010200000000000021F9040514000500BD
:1014F0002C0000000002000A0000030A48342312F6
:101500000148001D5309003B25454E4447494638D4
:1015100039615A005C00A204007979D8F6F4E1C977
:10152000C9E09C98D8FFFFFFF4F6B0F9FD7CA6A4B3
:101530008E21F90401000004002C000000005A0074
:101540005C000003FF48BADCFE2E2C4982A5B35A8A
:1015500021B49618068D64697A8D85A65CA5A88F3E
:1015600078CEB429BF99300C541FD7C0E00B36C4D5
:10157000650803C0C018E84C6EC228E9C22C10618F
:10158000802C2EB0937A69A04B58614D55B2CB8513
:101590004009837EDF9FDE6E27085FD6EC57B2FEE0
:1015A00072C2836E165620493B597C61783C1549BE
:1015B000794D7C7F80442F05655C4A0B7B4F8A996F
:1015C00068126B7E9133622E13959F8E4D59228A3D
:1015D0001B9E4D7B6E66A271220195056775033ACD
:1015E000AF139A04781D9769A5B45362B6B8160074
:1015F000BB599E4F3B206B3CAABCC647C70C178308
:101600002015CB01ABC1070790DF052D153A2087C8
:10161000A3B25282A7210506A785F176B7DD1A7518
:10162000E8E5B693B0450A03CE14BD41B1E4A9087C
:1016300060A05E087C4364F8785763E2B96594E87B
:10164000D53BD30CFF1C8886959EDCF2A1A00EAC86
:1016500039739C488C716524A145FA1C6AA8041250
:1016600015008FB740E6A260A59B0E434A9E3DE35E
:1016700045D1863E668E3426D3B8F1D28153DF1A27
:10168000CABC50AE97D0431C1A350B18459F95A184
:10169000FD6A4E90BA33CB017D511D3ED22A94682B
:1016A0008F4B5B6D40007850119B9C213F8A4D38D9
:1016B0000897D5ABBC4C4EE840CDDC082ADB20E0D7
:1016C0006A648817CD4115C85AD8034EC001B68741
:1016D000DA20A9C38183129546BEE8632C5480C6E4
:1016E000534CCB911340D60A1E349030F0A016B85C
:1016F0005D9C6C5304FE6A86F9A9CED4E568D63B9E
:1017000035D41B150985B0668EE04256B2E35B9274
:1017100070E9DDFAF76372955EA721D54495A77B42
:1017200022B92373C91D390058CDD0300529B53DE4
:10173000F6ECCF86254EFEB9D173852BE6C65378DD
:1017400061556061FFEBB5D75E01C15572407C0FFA
:101750005503562F1BE08213185E6124CC1C43AD49
:1017600067A1813D3DA59D1C48F03214019971E0AF
:10177000A03C15CD34A277577972DA7A6779155C77
:1017800038F1BD70DE6B5B0913C059273AF7033798
:1017900023FE445F85023674A069FE3CF5D587C8F8
:1017A0007986206CEFED03CF7E12D687C67941D6BD
:1017B000438E95375971A050145083203516F80682
:1017C000996E42C454532CAEB056E56300B4A815CC
:1017D00063EAB4E5DD2DEF8D51D42C89E544965DA7
:1017E0004205285C439C31560782483C33D9564D0C
:1017F0003257620AF19055085BA691859D90E830BA
:10180000E6CA2B9C3068594FC655F4DC0D661A3079
:101810006456663145A0985AC608171A2511958452
:10182000862671F59C1950E6F8C4410560B6CA8059
:10183000A6B245C1A399750763766DF038A293DB14
:101840001C7BAC18FF8FF90854A4411278950BB19A
:1018500014320C1E46DAE120AF24EA37A280CAC255
:10186000D899B57E0AE38B74C13C6A15913D05D8C1
:10187000DA984FB0F4A74E96B1AB8856BEED69DF4B
:1018800067BF02104C8A866EBB26B2C5CAEA1548ED
:1018900034667BD9B8879CF69A3554EC0170A9550B
:1018A0000E470A9E571401258D6D1A59188DCBC00D
:1018B00009A60B1C6FD5C4A4D196815B62CCD9520A
:1018C0005285A756A26B96D2F24B4D29343AE62E9A
:1018D000AFC9CC45E60F71B201D201F5E86AE496D2
:1018E000E2C4F27271A755DCCDC59E7ECACE56B851
:1018F000106D40CE05BEF9B21334B2EB1A394D3E2D
:101900008D4FCF2DD79A239AB80CFD2ABB48C70517
:101910000A4766DD62D99655851D61B80B35D7E853
:10192000C01E1FF8CF85B8E63A25D7E7AD1AA96BD8
:101930006E556DF58003F3C76CDA551A5929D857DF
:10194000AED9C84FFFBFFC952FE594435E317B397C
:10195000CE1AD1B1553DF2C8DCE0A2E309262A68CF
:101960001EA088A7FE9DB2E352BB7CEB2073736E72
:1019700064B45B32131B5C4446DBD0A1F9E25D82A8
:101980008E796744D3E2038AABCE220A5C6EAAE763
:10199000C3C7E7A0E8DE00B1D0E36B0E783972D0A0
:1019A000C3C8C38A93120D5FC30FDE898D3202371D
:1019B000EEF133242F819498EFD55F9556D00E47E2
:1019C000B07E2C5FF4B9901AAA1FABD4609E7CE95C
:1019D000EF46476B5B9BF2671DA9F9CC7FFF930A2B
:1019E00076E686A2D8F0E255015A8DA97437AFD9B0
:1019F00089ED2DA3EBE0FFD0911D67D08101ADE013
:101A0000DDBC8E558F08864E6FCA8AE1633628B9D1
:101A10000985427A1174A10CF1B6BDBBD10E4A8C76
:101A20001B1A1B38108686E55087A8B9CFA722203D
:101A30003ABD852A48306ADDD47677441DE6AD7616
:101A4000EA63949EFF2A7689D6A5EB333B634F1554
:101A50006B923DA8E1C904D4AB92304A021703024D
:101A6000507F221CA1CA7E16AFC3EC2D7592611562
:101A70007AD86021C9516E8C3AE18AF60E96BAB4D2
:101A800011CB50872A5C0C75F7B96FB5267B92E8AD
:101A9000A0B284F89314D54177C1D9541AB9B53797
:101AA0008F94088818E9A4222AF98C002E905403F8
:101AB000108E6BE208995A91D11D3EB4C44CC8D225
:101AC00016544A4E756E425FEC82172DF631053181
:101AD0003EC36206B668005D718698AA4B650186B2
:101AE0006296DCB19224FB211B4B7AE632644EE90C
:101AF0002A6E04494796591A7DCCED994770A01D6E
:101B0000A1D380158202338EE11D6B6A3600036219
:101B1000C8913A99263073131064DE880780B14C5F
:101B2000E48A470E625A898C2B7C4844446321DF47
:101B3000D1C63F37999D75B8F54841F00A688030A5
:101B400091645471FF23255CAE9D3B0BE3BB4C3588
:101B50000455CE110E66BB030F8664ADDDC5B13AE8
:101B60001335D53C66F8D1AE18AB585B39447CBC14
:101B7000E627860254A55B98A120077994B7B49311
:101B8000183662214A6B52503385A414119AA72447
:101B9000667512EF0CAA4D2B5A6141FFD40D4342DA
:101BA000B3204F229BE9D0A320A80234A56025636F
:101BB0002703914579027321DFA3862A1DFA55B1C7
:101BC0004AC614810C8D5CFF10021BFD444F550D5D
:101BD000AB5AB6988B8C582C04DA88C01A6111164F
:101BE00085AC68ACB39489F2A01258A41222582D87
:101BF000C02BB3C42AD9C4CEF1A52B39067A0473FD
:101C0000BBBD4A961B62010146B670144595691B1F
:101C10005DB2D627221BA15BEDF51C8ABD882C6B1B
:101C200051D6131CE724A0E98E8964E9D0CBE2E504
:101C3000B6587562637BE196FE8DCDB51FFD6DB222
:101C4000BAE5C4DA5BE6461D88E85F0879EB155F04
:101C500022E6B82B13453541F8969EC290B1CAA32F
:101C60004B4B032B50634041109AB98875496BC6A2
:101C7000C69A964CE8156F5F6F75D6F6BA77A9A02D
:101C8000026F47EBA9D4FB9E9689060BB073FD6BE0
:101C900094F3F697C08DDDA97D114C5EE4213801E7
:101CA000003B25454E44485454502F312E302032AD
:101CB000303020446F63756D656E7420666F6C6C98
:101CC0006F77730D0A5365727665723A20415652EA
:101CD0005F536D616C6C5F57656273657276657298
:101CE0000D0A436F6E74656E742D547970653A20D9
:101CF000746578742F706C61696E0D0A0D0A004866
:101D00005454502F312E302032303020446F6375C0
:101D10006D656E7420666F6C6C6F77730D0A53651A
:101D2000727665723A204156525F536D616C6C5FFA
:101D30005765627365727665720D0A436F6E7465DE
:101D40006E742D547970653A20746578742F6874B8
:101D50006D6C0D0A0D0A00485454502F312E30205E
:101D600034303120556E617574686F72697A6564BC
:101D70000D0A5365727665723A204156525F536D73
:101D8000616C6C5F5765627365727665720D0A5798
:101D900057572D41757468656E7469636174653A4F
:101DA000204261736963207265616C6D3D224E65EE
:101DB000656450617373776F7264220D0A436F6EAE
:101DC00074656E742D547970653A20746578742F3B
:101DD00068746D6C0D0A0D0A00485454502F312E52
:101DE000302032303020446F63756D656E7420662C
:101DF0006F6C6C6F77730D0A5365727665723A205B
:101E00004156525F536D616C6C5F576562736572CA
:101E10007665720D0A436F6E74656E742D54797019
:101E2000653A20696D6167652F6A7065670D0A0DF7
:101E30000A00485454502F312E3020323030204484
:101E40006F63756D656E7420666F6C6C6F77730D64
:101E50000A5365727665723A204156525F536D613E
:101E60006C6C5F5765627365727665720D0A4361CB
:101E70006368652D436F6E74726F6C3A206D617884
:101E80002D6167653D36303030303030436F6E74D1
:101E9000656E742D547970653A20696D6167652FA0
:101EA0006769660D0A0D0A00485454502F312E30D0
:101EB0002032303020446F63756D656E7420666F1C
:101EC0006C6C6F77730D0A5365727665723A2041B8
:101ED00056525F536D616C6C5F57656273657276C5
:101EE00065720D0A43616368652D436F6E74726F8E
:101EF0006C3A206D61782D6167653D363030303049
:101F00003030436F6E74656E742D547970653A206D
:101F1000746578742F6373730D0A0D0A00343031C1
:101F200020556E617574686F72697A656425454ED7
:101F300044006C65646F66662E676966006C656454
:101F40006F6E2E676966000000636865636B656489
:101F50000025732C20257300504F53540053746197
:101F600072742054656C6E65742053657276657268
:101F70003A0D0A00D9000AFA00000000000104002E
:101F80000000000000000000000000000000000051
:101F9000000000000000000000000000C7D6AC7286
:101FA00008000000536F004D6F004469004D690048
:101FB000446F004672005361002532753A25303275
:101FC000753A25303275002025752E253032752E54
:101FD000253034750025732C202573002A2A204CC7
:101FE000434420444154412047455420427974657C
:101FF000733A202569202A2A0D0A002A2A204D61D9
:102000006769635061636B657420676573656E64AF
:10201000657420616E3A202531692E2531692E259F
:1020200031692E253169202830782532782D307895
:102030002532782D30782532782D30782532782D5C
:1020400030782532782D307825327829202A2A0DCB
:102050000A002A2A20574F4C2D494E4954204950F6
:102060003A2531692E2531692E2531692E253169B0
:1020700020204D41433A30782532782D3078253272
:10208000782D30782532782D30782532782D3078BB
:102090002532782D3078253278202A2A0D0A0047FB
:1020A0004554202F676C6F62616C77656174686559
:1020B000722E61736D782F4765745765617468651A
:1020C000723F436974794E616D653D50616465721C
:1020D000626F726E26436F756E7472794E616D65B4
:1020E0003D4765726D616E7920485454502F312EF2
:1020F000310D0A486F73743A207777772E776562CF
:1021000073657276696365782E6E65740D0A4B652A
:1021100065702D416C6976653A203330300D0A4385
:102120006F6E6E656374696F6E3A204B6565702DD6
:10213000416C6976650D0A0D0A000D0A0D0A0D0A3B
:10214000446174656E20416E666F726465726E0DD7
:102150000A005443502045696E74726167206765B8
:1021600066756E64656E2028485454505F434C4930
:10217000454E5429210D0A005443502045696E7480
:10218000726167206E6963687420676566756E6446
:10219000656E2028485454505F434C49454E54299D
:1021A000210D0A0041525020526571756573740A01
:1021B0000D0025630048454C4F204554485F4D3382
:1021C000325F45580D0A0041555448204C4F47494D
:1021D0004E0D0A00525345540D0A004D41494C2002
:1021E00046524F4D3A3C6D61696C40756C72696343
:1021F0006872616469672E64653E0D0A005243503F
:102200005420544F3A3C6D61696C40756C7269633F
:102210006872616469672E64653E0D0A004441542A
:10222000410D0A0046726F6D3A20224554485F4DB9
:1022300033325F455822203C6D61696C40756C7289
:1022400069636872616469672E64653E0D0A53753F
:10225000626A6563743A20546573745F454D6169C1
:102260006C210D0A0D0A48616C6C6F0D0A4772757E
:10227000737320556C692E000D0A2E0D0A005155FE
:1022800049540D0A000D0A000D0A000011241FBE5A
:10229000CFEFD0E1DEBFCDBF12E0A0E0B1E0ECE3D4
:1022A000FDE802C005900D92AE3AB107D9F71EE0E5
:1022B000AEEAB2E001C01D92A630B107E1F70E947C
:1022C00065110C949C460C9400009F92AF92BF92B3
:1022D000CF92DF92EF92FF920F931F93CF93DF93F2
:1022E00087E081B986E087B91AB80E94CC4060E8DF
:1022F00075E280E090E00E9432130E94033B00D020
:1023000082E691E0ADB7BEB712969C938E9311977B
:102310000E946F138AE391E0EDB7FEB79283818349
:102320000E946F1387E191E0ADB7BEB712969C9300
:102330008E9311970E946F1380E090E0A0E0B0E0D0
:102340000F900F9000000196A11DB11D8034E2E4B2
:102350009E07EFE0AE07E0E0BE07A1F70E94EA218A
:102360000E94B1320E944F340E948E380E943D3745
:102370000E946E3781E08093E30200D000D0EDB779
:10238000FEB73196ADB7BEB711961C9211828AE0A6
:1023900091E0938382830E947737EA9A7894EDB72D
:1023A000FEB7319681E0ADB7BEB711968C9311821E
:1023B0008EEF90E0938382830E94773780E090E0F5
:1023C000A0E0B0E00F900F900F900F9000000196EA
:1023D000A11DB11D8038E4E89E07EEE1AE07E0E004
:1023E000BE07A1F70E94B63F80E00E940B3F6093BA
:1023F000770D7093780D8093790D90937A0D1092EC
:10240000E30200D000D0EDB7FEB7319681E0ADB762
:10241000BEB711968C93118281EF90E093838283F3
:102420000E94773700D000D000D0EDB7FEB73196CC
:1024300088ED90E0ADB7BEB712969C938E9311973E
:102440008091F907828313828091FA078483158231
:102450008091FB07868317828091FC078087118615
:102460000E946F13EDB7FEB7319681EC90E0ADB7E7
:10247000BEB712969C938E93119780910108828328
:1024800013828091020884831582809103088683D9
:10249000178280910408808711860E946F13EDB720
:1024A000FEB731968AEA90E0ADB7BEB712969C931C
:1024B0008E9311978091FD07828313828091FE078E
:1024C000848315828091FF0786831782809100089C
:1024D000808711860E946F13EDB7FEB73A960FB64C
:1024E000F894FEBF0FBEEDBF0E94DA3680E090E0A8
:1024F000A0E0B0E000000196A11DB11D8034F2E41F
:102500009F07FFE0AF07F0E0BF07A1F70E94853605
:102510000E94BA36882371F000D08FE990E0ADB701
:10252000BEB712969C938E9311970E946F130F90D3
:102530000F9002C00E9459230E9409390E94BF3D9A
:102540003FEE932E2CE9A22E20E0B22E98E8C92E61
:1025500090E0D92E82E9E82E80E0F82E04E714E01E
:10256000C0E7D0E090927A000E948E20809105080A
:1025700080FF25C000D0EDB7FEB7B282A1820E94D5
:102580006F130F900F9085E49DE00E942028882310
:1025900041F000D0ADB7BEB71296FC92EE92119703
:1025A00005C000D0EDB7FEB7D282C1820E946F1382
:1025B0000F900F90809105088E7F809305080E94F0
:1025C0009B398091920290919302892B31F4109360
:1025D0009302009392020E9485368091E802813036
:1025E00021F41092E8020E943C3B8091E402813089
:1025F00021F41092E4020E9495380E94BE3280912C
:10260000840D882309F4AECF8DB79EB70A970FB615
:10261000F8949EBF0FBE8DBFEDB7FEB73196ADB734
:10262000BEB71296DC93CE93119780917F0D828373
:1026300013828091800D848315828091810D868321
:1026400017828091820D808711860E946F131092ED
:10265000840DEDB7FEB73A960FB6F894FEBF0FBEE5
:10266000EDBF80CF08951F93182F8091050882FF3A
:1026700027C08091020190910301019720910001F0
:10268000309101012817390749F40E94BE3202C077
:102690000E948E2080913B0D80FDFACF8091000139
:1026A00090910101FC011193F0930101E09300016D
:1026B000E657FD4029F4C0979093010180930001F3
:1026C0001F910895CF93DF93EC0103C021960E94E0
:1026D000331388818823D1F7DF91CF9108956F92CA
:1026E0007F928F929F92AF92BF92CF92DF92EF92A2
:1026F000FF920F931F93DF93CF93CDB7DEB764970D
:102700000FB6F894DEBF0FBECDBF8E010B5D1F4F1D
:10271000F801E190F1908F01BB243E010894611C07
:10272000711C4BE0842E912C8C0E9D1E30E3A32E49
:1027300002C068018601F7018491882309F489C0E9
:102740000894E11CF11C853209F080C0F70108945F
:10275000E11CF11C2491822F90E0C0970A9710F0A1
:10276000822F0BC02B871C86C4010E940742B82E03
:10277000F7010894E11CF11C8491893671F08A36C6
:1027800028F4823661F08336A1F61DC0833749F004
:10279000883729F18F3669F620C04AE021C042E02F
:1027A0001FC022E0C22ED12CC00ED11EF801008124
:1027B000118104C00F5F1F4F0E943313F801808105
:1027C0008823C1F7B7CF92E0C92ED12CC00ED11EFD
:1027D000F80180810E943313ADCF48E001C040E191
:1027E00082E0C82ED12CC00ED11EF80180819181CB
:1027F000B30150E00E94214320E030E0A9014F5F87
:102800005F4FF301E20FF31F8081882311F09A01DB
:10281000F5CF8B2D90E0281739079CF4B21AF401FC
:10282000C4018B0D911D01C0A192E817F907E1F7D2
:102830001082C401B3010E94EC42C301B4010E94A2
:10284000F742C3010E946213BB2474CF0E9433136A
:1028500070CF64960FB6F894DEBF0FBECDBFCF9198
:10286000DF911F910F91FF90EF90DF90CF90BF907D
:10287000AF909F908F907F906F900895282F892F11
:10288000922F0895EF92FF920F931F93162F002718
:10289000FF24EE24292F332744275527E20EF31E69
:1028A000041F151F9B01AC01207030705070232F46
:1028B000342F452F5527E20EF31E041F151F60709D
:1028C00080709070982F872F762F6627E60EF71E60
:1028D000081F191FB701C8011F910F91FF90EF90BA
:1028E00008950F931F93DF93CF9300D000D0CDB7FF
:1028F000DEB7DC01142F052F20E030E0AE014F5F82
:102900005F4FF999FECFF999FECFC9018A0F9B1F3E
:1029100092BD81BDF89A80B5FA01E20FF31F808362
:102920002F5F3F4F2430310561F729813A814B8178
:102930005C812F3F8FEF38078FEF48078FEF5807E5
:1029400031F4212F302FC901DB019C01AD01B90108
:10295000CA010F900F900F900F90CF91DF911F91B0
:102960000F91089540E050E09A01220F331F240F89
:10297000351FD901AA0FBB1FAA0FBB1FA654B84F02
:102980001A968D919C911B97892B09F51C92119693
:102990001C921197F901EE0FFF1FEE0FFF1FE45479
:1029A000F84F108213961C921397F901EE0FFF1F38
:1029B000EE0FFF1FE254F84F108215961C921597E8
:1029C00016961D921D921D921C92199709C01A9677
:1029D0008D919C911B9701971B969C938E931A97B0
:1029E0004F5F5F4F4530510509F0BECF0895AC01F0
:1029F00020E001C02F5FA22FB0E0FD01EE0FFF1F0E
:102A0000EE0FFF1FE055FD4F80819181892B91F7DB
:102A1000253050F451834083AA0FBB1FAA0FBB1F60
:102A2000AE54BD4F6D937C93089520E001C02F5F9D
:102A3000A22FB0E0FD01EE0FFF1FEE0FFF1FE055CC
:102A4000FD4F0190F081E02D309719F0E817F9075C
:102A500071F7253040F4AA0FBB1FAA0FBB1FA0556A
:102A6000BD4F6D937C930895AC0120E001C02F5FB2
:102A7000A22FB0E0FD01EE0FFF1FEE0FFF1FEC5382
:102A8000FD4F80819181892B91F7253050F451833E
:102A90004083AA0FBB1FAA0FBB1FAA53BD4F6D9344
:102AA0007C9308959C01E4ECF2E08081918182178F
:102AB000930711F411821082349682E0E83DF80702
:102AC000A1F708951F920F920FB60F9211248F93C2
:102AD0008091F80781608093F80710923D0D109265
:102AE0003C0DEA988F910F900FBE0F901F90189594
:102AF0000F931F93CF93DF9300911503109116034B
:102B000060E070E086E008301807C1F4FB01EE0FCA
:102B1000FF1FE60FF71FEE0FFF1FEE0FFF1FE6541C
:102B2000F84F26813781408551858091250390910A
:102B30002603A0912703B09128031AC0083011057D
:102B400009F5FB01EE0FFF1FE60FF71FEE0FFF1F4A
:102B5000EE0FFF1FE654F84F2681378140855185DF
:102B60008091230390912403A0912503B091260323
:102B7000281739074A075B0729F484E690E0938712
:102B8000828788C06F5F7F4F6530710509F0BACFCB
:102B900020E030E0A901440F551F420F531FEA0106
:102BA000CC0FDD1FCC0FDD1FC654D84FBE016A5FAE
:102BB0007F4F8E819F81A885B9850097A105B105BA
:102BC00009F062C0E6E008301E0749F580910F0366
:102BD000888380911003898380911103FA01EE0F9D
:102BE000FF1FEE0FFF1FE454F84F80838091120304
:102BF0008B8380911303FA01EE0FFF1FEE0FFF1F6F
:102C0000E254F84F8083809114038D8380912503D3
:102C100090912603A0912703B09128032BC0083080
:102C20001105C1F580910F0388838091100389837A
:102C300080911103FA01EE0FFF1FEE0FFF1FE45406
:102C4000F84F8083809112038B8380911303FA01E4
:102C5000EE0FFF1FEE0FFF1FE254F84F80838091AD
:102C600014038D838091230390912403A091250365
:102C7000B0912603FB0180839183A283B38384E612
:102C800090E09B878A8706C02F5F3F4F2530310534
:102C900009F080CFDF91CF911F910F9108951F937D
:102CA000AB01BC0120E030E0122FF901EE0FFF1F55
:102CB000E20FF31FEE0FFF1FEE0FFF1FE654F84F5A
:102CC00086819781A085B18584179507A607B707E8
:102CD00031F02F5F3F4F2530310531F715E0812F5F
:102CE0001F910895FF920F931F93182F092F20E033
:102CF00030E0F22EF901EE0FFF1FE20FF31FEE0F8F
:102D0000FF1FEE0FFF1FE654F84F86819781A085C5
:102D1000B18584179507A607B70731F02F5F3F4F9E
:102D20002530310531F726C0212F302FC901DC01B4
:102D300040E050E08F2D90E09C01220F331F280FC0
:102D4000391F220F331F220F331FF901E40FF51F24
:102D5000E654F84F80818C93FA01E756F24F808158
:102D600016968C9316974F5F5F4F1196463051051C
:102D700061F70FC0A9E9BDE0812F902F9C01F901F7
:102D80009FEF90838D91868331968DE0AF39B807A0
:102D9000C1F71F910F91FF900895EF92FF920F934B
:102DA0001F93CF93DF937C018B01EC0111C08881CD
:102DB00099812296F82FE0E0DF01A90FB11DCD0126
:102DC000A0E0B0E0280F391F4A1F5B1F625070401F
:102DD0006230710560F7F801EE7FEE0DFF1D00FF18
:102DE00008C0908180E0A0E0B0E0280F391F4A1FA2
:102DF0005B1FCA01AA27BB2740705070820F931F28
:102E0000A41FB51F9D0144275527A070B070280F3F
:102E1000391F4A1F5B1F20953095C901DF91CF9163
:102E20001F910F91FF90EF900895AF92BF92CF92B4
:102E3000DF92EF92FF920F931F937C015A016B0177
:102E40008C01025F1F4F0E94721688E090E0F7012C
:102E5000958784872091D8023091D9022F5F3F4F08
:102E60003093D9022093D80280E490E0F801978350
:102E7000868380E880873483258385E4F70186870D
:102E8000F8011182A08AB18AC28AD38A8091F90797
:102E90009091FA07A091FB07B091FC078487958772
:102EA000A687B78713861286C80164E170E020E028
:102EB00030E040E050E00E94CD16F8019287838711
:102EC0001F910F91FF90EF90DF90CF90BF90AF9048
:102ED0000895AF92BF92CF92DF92EF92FF920F933D
:102EE0001F93CF93DF938C01EC01A296BC01625F2C
:102EF0007F4FDB011C96CD90DD90ED90FC901F97ED
:102F000040E050E086E1A82EB12C4A9DF0014B9D97
:102F1000F00D5A9DF00D1124E95FF74F80819181EA
:102F2000A281B3818C159D05AE05BF0509F097C040
:102F300024813581888199812817390709F08FC04C
:102F400088859985AA85BB8580879187A287B38765
:102F50008C819D81AE81BF8184879587A687B78745
:102F60008D85808B83898F3F11F083E0838BFB01FC
:102F7000B280A3808CEE9FEFA80EB91E8C8590E0E6
:102F8000807F90709595879595958795A81AB90A31
:102F9000CC24DD2486E190E0489FF001499FF00DAC
:102FA000589FF00D1124E95FF74FE484F5840685FE
:102FB00017855E2D442733272227812F9927AA279B
:102FC000BB27280F391F4A1F5B1FD801C70180701C
:102FD0009070B070892F9A2FAB2FBB27280F391F05
:102FE0004A1F5B1F80E09FEFA0E0B0E0E822F922DB
:102FF0000A231B23102F0F2DFE2CEE242E0D3F1D18
:10300000401F511F2A0D3B1D4C1D5D1D122F002717
:10301000FF24EE24852F9927AA27BB27E80EF91E47
:103020000A1F1B1FDA01C90180709070B070892FD0
:103030009A2FAB2FBB27E80EF91E0A1F1B1F20700B
:1030400040705070542F432F322F2227E20EF31E70
:10305000041F151FE486F586068717874FC04F5F4C
:103060005F4F4530510509F050CF20E030E066E178
:1030700070E0269FA001279F500D369F500D112410
:10308000FA01E95FF74F80819181A281B3810097B6
:10309000A105B10569F5C082D182E282F382D8012F
:1030A00092968D919C919397958384838A819B813D
:1030B0009783868388859985AA85BB858087918734
:1030C000A287B3878C819D81AE81BF8184879587DC
:1030D000A687B7878D85808B128A118A83E0838BC0
:1030E000148AFA01E45EF74F80818E7F808306C0E8
:1030F0002F5F3F4F2530310509F0BBCFDF91CF91D6
:103100001F910F91FF90EF90DF90CF90BF90AF9005
:103110000895EF92FF920F931F93CF93DF937B015C
:103120008C0120E030E0C6E1D0E0622F2C9FF0015E
:103130002D9FF00D3C9FF00D1124E95FF74F80812A
:103140009181A281B3818E159F05A007B10729F453
:10315000848195818417950731F02F5F3F4F25308B
:10316000310519F765E0862FDF91CF911F910F91FF
:10317000FF90EF90089520E001C02F5FA22FB0E0F4
:10318000FD01EE0FFF1FEE0FFF1FEC53FD4F0190EF
:10319000F081E02D309789F090912D0380912E03DE
:1031A000E817F90751F7AA0FBB1FAA0FBB1FAA53B5
:1031B000BD4FED91FC9180E009950895CF93DF9389
:1031C000582FC0EBD2E0E0E0F0E0282F30E086E1BD
:1031D00090E0289FD001299FB00D389FB00D112499
:1031E000A35FB74F8D919C911197382F292F88811C
:1031F00099818217930731F031962496E630F105D4
:1032000089F70DC0E53058F4EE0FFF1FEE0FFF1FDA
:10321000EE54FD4F0190F081E02D852F0995DF914F
:10322000CF910895863038F5282F30E086E190E080
:10323000289FD001299FB00D389FB00D1124FD01AA
:10324000E95FF74F10821182128213821582148275
:1032500017821682108611861286138614861586AA
:1032600016861786108A128A118A138AA45EB74FAF
:103270008C918E7F8C930895CF92DF92EF92FF9284
:103280000F931F93CF93DF93EC0127E1C22E23E02E
:10329000D22E70E086E190E0689FF001699FF00D0A
:1032A000789FF00D1124E95FF74F86819781909305
:1032B0002C0380932B038481958190932E0380931C
:1032C0002D0310923E0310923D0384E09CE4909302
:1032D0003A038093390380E580933703248535854D
:1032E00046855785122F0027FF24EE24852F992726
:1032F000AA27BB27E80EF91E0A1F1B1FDA01C90106
:1033000080709070B070892F9A2FAB2FBB27E80E7A
:10331000F91E0A1F1B1F207040705070542F432F3E
:10332000322F2227E20EF31E041F151F808980937F
:103330003803808981FF15C00894E11CF11C011D30
:10334000111D82E080933F0384E0809340038093CB
:1033500041038CE48093420380E680933703C4E00A
:10336000D0E05E2D442733272227812F9927AA27D3
:10337000BB27280F391F4A1F5B1FD801C701807068
:103380009070B070892F9A2FAB2FBB27280F391F51
:103390004A1F5B1F80E09FEFA0E0B0E0E822F92227
:1033A0000A231B23B02FAF2D9E2D8827280F391FEE
:1033B0004A1F5B1F2093330330933403409335033C
:1033C0005093360386E190E0689F8001699F100D5D
:1033D000789F100D1124095F174FF80180859185A2
:1033E000A285B38580932F0390933003A09331037C
:1033F000B0933203CE018896D60112969C93129711
:1034000013968C93139786E019968C934081518183
:103410006281738189E093E00E94151710923C034A
:1034200010923B037091190360911A03685F7F4FFC
:103430008091170390E08F709070880F991F880F0C
:10344000991F681B790B625070409B0140E050E06F
:103450006E5F7F4F83E293E00E94CD1690933B0313
:1034600080933C03CE01C69669E073E00E945A291E
:10347000F801108ADF91CF911F910F91FF90EF908B
:10348000DF90CF900895AF92BF92CF92DF92EF92EC
:10349000FF920F931F93CF93DF937B018C016A01FF
:1034A0005901EA9820E030E0C6E1D0E0622F2C9F7D
:1034B000A0012D9F500D3C9F500D1124FA01E95F92
:1034C000F74F80819181A281B3810097A105B10559
:1034D00009F042C02630D0F4108211821282138289
:1034E0001582148217821682108611861286138620
:1034F0001486158616861786108A128A118A138AF0
:10350000FA01E45EF74F80818E7F808386E190E050
:10351000289FF001299FF00D389FF00D1124E95FDD
:10352000F74FE082F18202831383D582C482B7828F
:10353000A68282ED94E0A0E0B0E080879187A28728
:10354000B38789E299E0A0E0B0E084879587A687F9
:10355000B7878EE1838B07C06F5F2F5F3F4F2530AA
:10356000310509F0A3CF262F30E086E190E0289FB7
:10357000F001299FF00D389FF00D1124E95FF74FFE
:1035800082E0808B80E090E00E943C19EA9ADF9113
:10359000CF911F910F91FF90EF90DF90CF90BF9050
:1035A000AF900895682F282F30E086E190E0289FA3
:1035B000F001299FF00D389FF00D1124E95FF74FBE
:1035C0008FEF9FEF928B818B81E1808B80E090E089
:1035D0000E943C1908959F92AF92BF92CF92DF92C2
:1035E000EF92FF920F931F93CF93DF9320E001C0E0
:1035F0002F5FC22FD0E0FE01EE0FFF1FEE0FFF1F67
:10360000E055FD4F0190F081E02D309709F401C3A2
:1036100090912D0380912E03E817F90749F7409107
:103620003803242F30E0C90182719070429709F06D
:10363000B1C089E093E00E94691720912303309183
:1036400024034091250350912603C0912B03D09170
:103650002C0360E070E0A6E1CA2ED12C6C9DF00135
:103660006D9DF00D7C9DF00D1124E95FF74F808179
:103670009181A281B38182179307A407B50729F42A
:10368000848195818C179D0731F06F5F7F4F653086
:10369000710521F7BEC2262F30E086E190E0289F19
:1036A0006001299FD00C389FD00C112487E098E04E
:1036B000C80ED91E8EE1D60153968C9353971C9653
:1036C000ED90FD900D911C911F97212F33274427DA
:1036D0005527BE2DAA2799278827280F391F4A1F4B
:1036E0005B1F2F5F3F4F4F4F5F4FD801C701807067
:1036F0009070B070892F9A2FAB2FBB27280F391FDE
:103700004A1F5B1F80E09FEFA0E0B0E0E822F922B3
:103710000A231B23102F0F2DFE2CEE242E0D3F1DF0
:10372000401F511F122F0027FF24EE24852F9927B9
:10373000AA27BB27E80EF91E0A1F1B1FDA01C901C1
:1037400080709070B070892F9A2FAB2FBB27E80E36
:10375000F91E0A1F1B1F207040705070542F432FFA
:10376000322F2227E20EF31E041F151FD6011C96CE
:10377000ED92FD920D931C931F9780E150968C93D0
:1037800080E090E00E943C1981E090E0F601928B8D
:10379000818B3FC2423009F046C089E093E00E942D
:1037A0006917209123033091240340912503509100
:1037B0002603C0912B03D0912C0360E070E0A6E1BA
:1037C000CA2ED12C6C9DF0016D9DF00D7C9DF00DED
:1037D0001124E95FF74F80819181A281B381821723
:1037E0009307A407B50729F4848195818C179D0759
:1037F00031F06F5F7F4F6530710521F70AC2262FC8
:1038000030E086E190E0289FF001299FF00D389F7D
:10381000F00D1124E95FF74F82E1808B80E090E0AA
:103820000E943C19F6C140912303509124036091FA
:10383000250370912603C0902B03D0902C0300E049
:1038400010E0F6E1AF2EB12C902E0A9DF0010B9DF9
:10385000F00D1A9DF00D1124E95FF74F80819181E1
:10386000A281B38184179507A607B70729F484813D
:1038700095818C159D0531F00F5F1F4F05301105A7
:1038800019F7C2C189E093E00E946917A02EBB24FA
:1038900086E190E0A89EF001A99EF00DB89EF00D83
:1038A0001124E95FF74F808980FDA3C09FC089E0A4
:1038B00093E00E946917E0908108F09082080091DF
:1038C000830810918408212F332744275527BE2DC4
:1038D000AA2799278827280F391F4A1F5B1F2F5FA8
:1038E0003F4F4F4F5F4FD801C70180709070B0704D
:1038F000892F9A2FAB2FBB27280F391F4A1F5B1F19
:1039000080E09FEFA0E0B0E0E822F9220A231B2329
:10391000102F0F2DFE2CEE242E0D3F1D401F511F8A
:10392000122F0027FF24EE24852F9927AA27BB27D3
:10393000E80EF91E0A1F1B1FDA01C9018070907082
:10394000B070892F9A2FAB2FBB27E80EF91E0A1FE4
:103950001B1F207040705070542F432F322F22278E
:10396000E20EF31E041F151FE0928108F0928208F8
:1039700000938308109384088091850880FF08C015
:1039800080E18093850880E090E065E00E943C192A
:1039900010927508109276081092770810927808A5
:1039A00010927A081092790810927C0810927B0885
:1039B00010927D0810927E0810927F081092800865
:1039C0001092810810928208109283081092840845
:1039D0001092850810928708109286081092880825
:1039E00080918A088E7F80938A0813C1808982FF24
:1039F000A6C086E190E0A89E6001A99ED00CB89E6A
:103A0000D00C1124A7E0B8E0CA0EDB1EF601E48456
:103A1000F58406851785212F332744275527BE2D8A
:103A2000AA2799278827280F391F4A1F5B1F2F5F56
:103A30003F4F4F4F5F4FD801C70180709070B070FB
:103A4000892F9A2FAB2FBB27280F391F4A1F5B1FC7
:103A500080E09FEFA0E0B0E0E822F9220A231B23D8
:103A6000102F0F2DFE2CEE242E0D3F1D401F511F39
:103A7000122F0027FF24EE24852F9927AA27BB2782
:103A8000E80EF91E0A1F1B1FDA01C9018070907031
:103A9000B070892F9A2FAB2FBB27E80EF91E0A1F93
:103AA0001B1F207040705070542F432F322F22273D
:103AB000E20EF31E041F151FD6011C96ED92FD9217
:103AC0000D931C931F9750968C9180FF12C0CC0FC2
:103AD000DD1FCC0FDD1FCE54DD4FE881F981892D2C
:103AE000099581E1F601808B80E090E0692D0E94CC
:103AF0003C1986E190E0A89ED001A99EB00DB89E29
:103B0000B00D1124FD01E95FF74F1082118212827E
:103B100013821582148217821682108611861286ED
:103B200013861486158616861786108A128A118ABD
:103B3000138AA45EB74F8C918E7F8C936AC0808964
:103B400083FF14C0808984FF11C081899289019606
:103B5000928B818B88E1808BCC0FDD1FCC0FDD1F1A
:103B6000CE54DD4FE881F981802F4CC086E190E092
:103B7000A89E9001A99E300DB89E300D1124F90128
:103B8000E95FF74F808984FF0AC0F901E45EF74FCF
:103B9000808180FD04C08081816080833AC086E19D
:103BA00090E0A89EF001A99EF00DB89EF00D1124A2
:103BB000DF01A95FB74F50968C91509784FF29C0C1
:103BC000E45EF74F808180FF24C051968D919C91D7
:103BD00052978F5F9F4FE9F080E150968C935097FA
:103BE00051968D919C915297019652969C938E93EB
:103BF0005197CC0FDD1FCC0FDD1FCE54DD4FE88178
:103C0000F981892D099505C025703070232B09F0A5
:103C10004ECEDF91CF911F910F91FF90EF90DF90EB
:103C2000CF90BF90AF909F900895AF92BF92CF92E8
:103C3000DF92EF92FF920F931F93CF93DF9300E0F9
:103C400010E026E1C22ED12C93E0A92E84E1B82EFB
:103C50000C9D70010D9DF00C1C9DF00C1124E701D2
:103C6000C95FD74F8B898823B1F588819981AA8153
:103C7000BB810097A105B105A1F1AB8A8C898F5F4B
:103C80008C8B8150863018F1EA98B88A80E090E0F9
:103C9000602F0E943C19EA9A188219821A821B82AC
:103CA0001D821C821F821E82188619861A861B8618
:103CB0001C861D861E861F86188A1A8A198A1B8AE8
:103CC000F701E45EF74F80818E7F80830AC0802FEA
:103CD0000E94DE1806C08B898F3F19F08B898150B6
:103CE0008B8B0F5F1F4F0530110509F0B1CFDF91AE
:103CF000CF911F910F91FF90EF90DF90CF90BF90E9
:103D0000AF9008958F929F92AF92BF92CF92DF9221
:103D1000EF92FF920F931F935C01FBE2CF2EF3E033
:103D2000DF2EECEEEE2EEFEFFE2EEC0CFD1C709372
:103D30002B0360932C0350932D0340932E0308967E
:103D400090932F0380933003C5014C96F701928323
:103D5000838381E181874EED842E4FEF942E8C0C6E
:103D60009D1CC401B901A8010E94151710923203CD
:103D700010923103F70172816381685F7F4F808108
:103D800090E08F709070880F991F880F991F681BA3
:103D9000790B675F7F4F9B0140E050E069507040B6
:103DA000C60108970E94CD16909331038093320389
:103DB000C5018A96B4010E945A291F910F91FF9064
:103DC000EF90DF90CF90BF90AF909F908F9008952D
:103DD0006F927F928F929F92AF92BF92CF92DF921B
:103DE000EF92FF920F931F933B014C0187E1A82EA6
:103DF00083E0B82EB4E1CB2ED12CCA0CDB1C40934F
:103E00002B03F6012183F582E48217830683138254
:103E1000128280E094E590931A038093190381E065
:103E20008093200382EF9FEFA80EB91EC501B40155
:103E3000A3010E9415177091190360911A038091D4
:103E4000170390E08F709070880F991F880F991F4B
:103E5000681B790BC60120E030E040E050E00E9492
:103E6000CD16F6019283838382E690E0B5010E942D
:103E70005A291F910F91FF90EF90DF90CF90BF9044
:103E8000AF909F908F907F906F9008950F931F93A6
:103E900080911703909118038050914009F0C1C0A0
:103EA0008091190390911A03089709F0BAC0809184
:103EB0001B03863009F0B5C080911C03843009F0E3
:103EC000B0C020912F0330913003409131035091C5
:103ED00032038091F9079091FA07A091FB07B09106
:103EE000FC07281739074A075B0709F09AC0809139
:103EF0001D0390911E03E1E080309E0709F08CC005
:103F00000E94781507E113E00E5010404091250300
:103F1000509126036091270370912803C8010E94E5
:103F2000721688E096E0F801958784874091250312
:103F300050912603609127037091280320E030E020
:103F4000F901EE0FFF1FE20FF31FEE0FFF1FEE0F41
:103F5000FF1FE654F84F86819781A085B1858417AD
:103F60009507A607B70731F02F5F3F4F2530310582
:103F700039F725C0A7E1B3E040E050E0822F90E0A0
:103F80009C01220F331F280F391F220F331F220FCE
:103F9000331FF901E40FF51FE654F84F8081529664
:103FA0008C935297FA01E756F24F808118968C93C2
:103FB00018974F5F5F4F11964630510551F780E0DB
:103FC00092E090931E0380931D03809125039091AE
:103FD0002603A0912703B091280380932F03909389
:103FE0003003A0933103B09332038091F90790918D
:103FF000FA07A091FB07B091FC07809325039093EB
:104000002603A0932703B09328038CE390E069E094
:1040100073E00E945A2905C08050924011F40E941A
:1040200078151F910F910895EF92FF920F931F93B0
:10403000809115039091160326E08830920719F4B9
:104040000E94461F66C0089709F063C020912703AD
:10405000309128034091290350912A038091F90758
:104060009091FA07A091FB07B091FC072817390738
:104070004A075B0709F042C00E947815809120032F
:104080008130B9F580912B038823C1F0883009F085
:1040900040C0609123037091240380912503909187
:1040A00026030091310310913203E0902F03F0902A
:1040B000300340E020E00E94E81E2BC020917F0DDD
:1040C0003091800D4091810D5091820D809123039C
:1040D00090912403A0912503B09126032817390756
:1040E0004A075B07B1F48091840D81608093840D51
:1040F00010C0863041F40E94EB1A05C02F5F3F4F7D
:104100004F4F5F4F31F480912003813111F40E94B1
:10411000BB181F910F91FF90EF9008958091F807C1
:1041200081FF4BC00E94151E40E050E09A01220F13
:10413000331F240F351FD901AA0FBB1FAA0FBB1FA6
:10414000A654B84F1A968D919C911B97892B09F50F
:104150001C9211961C921197F901EE0FFF1FEE0FA2
:10416000FF1FE454F84F108213961C921397F90125
:10417000EE0FFF1FEE0FFF1FE254F84F108215964F
:104180001C92159716961D921D921D921C921997BE
:1041900009C01A968D919C911B9701971B969C9331
:1041A0008E931A974F5F5F4F4530510509F0BECF90
:1041B0008091F8078D7F8093F8078091F80780FD44
:1041C0000FC0089580EB94E069E073E00E94A52A97
:1041D000FC01009729F0E75FFC4F11820E94142038
:1041E0001A9BF0CF8091F8078E7F8093F807EA9AA8
:1041F00008958F929F92AF92BF92CF92DF92EF92EB
:10420000FF920F931F93DF93CF93CDB7DEB7AA979B
:104210000FB6F894DEBF0FBECDBF4B015C018E011F
:10422000015F1F4F8091F9079091FA07A091FB075A
:10423000B091FC0788259925AA25BB252091010866
:10424000309102084091030850910408822393237F
:10425000A423B5230097A105B10519F475016401E4
:1042600008C0C090FD07D090FE07E090FF07F090D7
:10427000000888E096E09E878D87CE010196B70101
:10428000A6010E9472168091F9079091FA07A091F9
:10429000FB07B091FC07F80186879787A08BB18B4D
:1042A000C08ED18EE28EF38EA9E9BDE08D9180871C
:1042B000128A31962DE0AF39B207C1F720E031E024
:1042C000F8013183208388E090E09383828386E045
:1042D000848384E08583378326838AE290E0BE016D
:1042E0006F5F7F4F0E945A2910E05AC0422FF90198
:1042F000EE0FFF1FE20FF31FEE0FFF1FEE0FFF1F6A
:10430000E654F84F86819781A085B1858815990577
:10431000AA05BB0531F02F5F3F4F2530310531F73E
:1043200045E020E030E0F901EE0FFF1FE20FF31F40
:10433000EE0FFF1FEE0FFF1FE654F84F86819781A7
:10434000A085B1858C159D05AE05BF0531F02F5FA9
:104350003F4F2530310539F73AC0453021F5822FDE
:1043600090E0FC01EE0FFF1FE80FF91FEE0FFF1F9B
:10437000EE0FFF1FE654F84F86829782A086B18623
:1043800012C080E090E000000196F7E280319F07C4
:10439000D1F70E948E201F5F143111F480E004C019
:1043A00020E030E0A3CF81E0AA960FB6F894DEBFFC
:1043B0000FBECDBFCF91DF911F910F91FF90EF9076
:1043C000DF90CF90BF90AF909F908F900895453031
:1043D000C1F2E9CF0E9430228EE190E040EC58EA31
:1043E00060E073E60E9471146093F9077093FA0716
:1043F0008093FB079093FC0782E290E04FEF5FEF22
:104400006FEF70E00E9471146093010870930208CE
:10441000809303089093040886E290E040EC58EA09
:1044200060E071E00E9471146093FD077093FE07D5
:104430008093FF07909300081092990D80E280937B
:104440009A0D88E180939B0D81EB80939C0D85E113
:1044500080939D0D8FE680939E0D0E94F72908950D
:10446000E1E8F0E080818D608083109285001092F9
:1044700084008FE398E39093890080938800EFE6AF
:10448000F0E080818260808308951F920F920FB6C2
:104490000F9211242F938F939F93AF93BF9380918B
:1044A000410D9091420DA091430DB091440D0196A4
:1044B000A11DB11D8093410D9093420DA093430D1A
:1044C000B093440D80913C0D90913D0D01969093D9
:1044D0003D0D80933C0D0197815B944018F0E0E026
:1044E000F0E009948091F80782608093F80780914A
:1044F000920290919302019790939302809392027B
:10450000BF91AF919F918F912F910F900FBE0F9000
:104510001F901895E0E0F0E009940895AC018091B7
:10452000850D9091860D892BF9F020E030E0F99906
:10453000FECFF901EE0FFF1FEB57F24F0190F08114
:10454000E02DF999FECF1FBAC901840F951F92BDC6
:1045500081BDE0BD0FB6F894FA9AF99A0FBE2F5FAD
:104560003F4F2430310519F7089581E08093E80228
:1045700008958EE190E0F999FECFFC01E552F84FE5
:10458000E081F999FECF1FBA92BD81BDE0BD0FB6A3
:10459000F894FA9AF99A0FBE01968232910559F76A
:1045A00082E290E0F999FECFFC01E152F84FE08100
:1045B000F999FECF1FBA92BD81BDE0BD0FB6F89448
:1045C000FA9AF99A0FBE01968632910559F786E25A
:1045D00090E0F999FECFFC01E952F84FE081F9999A
:1045E000FECF1FBA92BD81BDE0BD0FB6F894FA9A16
:1045F000F99A0FBE01968A32910559F708958EE116
:1046000090E040EC58EA60E073E60E947114609319
:10461000F9077093FA078093FB079093FC0782E2F7
:1046200090E04FEF5FEF6FEF70E00E9471146093C6
:10463000010870930208809303089093040886E2AF
:1046400090E040EC58EA60E071E00E9471146093E1
:10465000FD077093FE078093FF079093000808956D
:10466000EF92FF921F93CF93DF93C3E7D1E09BE4D8
:10467000E92E93E0F92EFE012196149100D000D08E
:10468000EDB7FEB73196ADB7BEB71296FC92EE927B
:104690001197128313820E946F130F900F900F9047
:1046A0000F90112341F7DF91CF911F91FF90EF9071
:1046B00008958F929F92AF92BF92CF92DF92EF9226
:1046C000FF920F931F936091410D7091420D809165
:1046D000430D9091440DC090410DD090420DE0905B
:1046E000430DF090440D8090410D9090420DA090AC
:1046F000430DB090440D2DB73EB7285030400FB653
:10470000F8943EBF0FBE2DBF0DB71EB70F5F1F4FF2
:104710002EE433E0EDB7FEB73283218320E13EE0A3
:1047200040E050E00E943846CA01B90128E130E07B
:1047300040E050E00E943846F80162831382C701CE
:10474000B6012CE330E040E050E00E943846CA0158
:10475000B9012CE330E040E050E00E943846F80117
:1047600064831582C501B4012CE330E040E050E0E1
:104770000E943846F801668317820E946F132DB796
:104780003EB7285F3F4F0FB6F8943EBF0FBE2DBF18
:104790001F910F91FF90EF90DF90CF90BF90AF905F
:1047A0009F908F900895CF93DF93E091850DF091C6
:1047B000860D8091870D9091880DA9E7B2E0EE0FEC
:1047C000FF1FEA0FFB1F918380834091850D50915D
:1047D000860D2091850D3091860D00D000D000D03F
:1047E000EDB7FEB7319684E693E0CDB7DEB79A8396
:1047F000898353834283220F331FA20FB31F8D91EE
:104800009C91958384830E946F138DB79EB7069603
:104810000FB6F8949EBF0FBE8DBFDF91CF91089564
:104820002F923F924F925F926F927F928F929F92C0
:10483000AF92BF92CF92DF92EF92FF920F931F93AE
:10484000CF93DF93C0E0D0E0F6E12F2E312CECEADD
:104850004E2EE3E05E2E77EA672E73E0772E62EA53
:10486000862E63E0962E5DE9A52E53E0B52E42E933
:10487000C42E43E0D42E35E8E32E33E0F32E00D0EF
:1048800000D0E5EBF3E0ADB7BEB71296FC93EE9324
:1048900011971496DC93CE9313970E946F13C29DC9
:1048A0008001C39D100DD29D100D1124095F174F7B
:1048B000F80180819181A281B38100D0EDB7FEB76C
:1048C000528241829070A070B07083839483A583DC
:1048D000B6830E946F13F80180819181A281B38118
:1048E000EDB7FEB772826182892F90E0A0E0B0E060
:1048F00083839483A583B6830E946F13F80180811C
:104900009181A281B381EDB7FEB7928281828A2F15
:1049100090E0A0E0B0E083839483A583B6830E94F7
:104920006F13F80180819181A281B381EDB7FEB749
:10493000B282A1828B2F9927AA27BB2783839483D6
:10494000A583B6830E946F13D80114962D913C91D4
:10495000159714968D919C9115970F900F90EDB728
:10496000FEB7D282C182892F9927322F2227822B2C
:10497000932B948383830E946F13D80153968C9159
:10498000EDB7FEB73196ADB7BEB71296FC92EE9278
:104990001197828313820E946F1321960F900F90BC
:1049A0000F900F90C530D10509F069CFDF91CF91FD
:1049B0001F910F91FF90EF90DF90CF90BF90AF903D
:1049C0009F908F907F906F905F904F903F902F902F
:1049D00008952F923F924F925F926F927F928F92A3
:1049E0009F92AF92BF92CF92DF92EF92FF920F937E
:1049F0001F93CF93DF93C0E0D0E0AEED2A2EA3E06B
:104A00003A2EF5ED4F2EF3E05F2EE0ED6E2EE3E053
:104A10007E2E7BEC872E73E0972E66ECA62E63E04D
:104A2000B62E59EBC52E53E0D52E8E01000F111F67
:104A30000C0F1D1F000F111F000F111F2AEBE22E7C
:104A400027E0F22EE00EF11ED7018C9100D000D0AD
:104A500000D0EDB7FEB7319627EF33E0ADB7BEB764
:104A600012963C932E931197D383C283848315822D
:104A70000E946F13D70111968C910F900F90EDB794
:104A8000FEB7319622EF33E0ADB7BEB712963C9336
:104A90002E931197828313820E946F13F801E454BE
:104AA000F84F8081EDB7FEB731962DEE33E0ADB70C
:104AB000BEB712963C932E931197828313820E9465
:104AC0006F13D70113968C91EDB7FEB7319628EE90
:104AD00033E0ADB7BEB712963C932E931197828305
:104AE00013820E946F130254184FD8018C91EDB7B6
:104AF000FEB7319623EE33E0ADB7BEB712963C93C6
:104B00002E931197828313820E946F13D7011596FB
:104B10008C91EDB7FEB73196ADB7BEB712963C9209
:104B20002E921197828313820E946F13F701868160
:104B30009781A085B18500D0EDB7FEB75282418242
:104B40009070A070B07083839483A583B6830E9415
:104B50006F13F70186819781A085B185EDB7FEB708
:104B600072826182892F90E0A0E0B0E08383948319
:104B7000A583B6830E946F13F70186819781A08574
:104B8000B185EDB7FEB7928281828A2F90E0A0E0D6
:104B9000B0E083839483A583B6830E946F13F701EB
:104BA00086819781A085B185EDB7FEB7B282A182DB
:104BB0008B2F9927AA27BB2783839483A583B6834A
:104BC0000E946F13D7011A968D919C911B970F909D
:104BD0000F90EDB7FEB7D282C182948383830E9487
:104BE0006F1321960F900F900F900F90C530D10545
:104BF00009F01BCFDF91CF911F910F91FF90EF90A4
:104C0000DF90CF90BF90AF909F908F907F906F90EC
:104C10005F904F903F902F90089500D000D0EDB757
:104C2000FEB7319684E094E0ADB7BEB712969C9380
:104C30008E9311978091DE02828313820E946F13FC
:104C40000F900F900F900F9008958DB79EB70E970D
:104C50000FB6F8949EBF0FBE8DBFEDB7FEB731966D
:104C60008CE194E0ADB7BEB712969C938E931197EA
:104C70008091990D8283138280919A0D848315828D
:104C800080919B0D8683178280919C0D8087118671
:104C900080919D0D8287138680919E0D8487158655
:104CA0000E946F138DB79EB70E960FB6F8949EBFF5
:104CB0000FBE8DBF089586E290E00E948E2286E2AC
:104CC00090E040EC58EA60E071E00E94711460935B
:104CD000FD077093FE078093FF07909300088DB740
:104CE0009EB70A970FB6F8949EBF0FBE8DBFEDB763
:104CF000FEB731968EE394E0ADB7BEB712969C93A3
:104D00008E9311978091FD07828313828091FE0715
:104D1000848315828091FF07868317828091000823
:104D2000808711860E946F138DB79EB70A960FB6C3
:104D3000F8949EBF0FBE8DBF089582E290E00E945E
:104D40008E2282E290E04FEF5FEF6FEF70E00E9403
:104D50007114609301087093020880930308909384
:104D600004088DB79EB70A970FB6F8949EBF0FBE82
:104D70008DBFEDB7FEB731968BE594E0ADB7BEB70A
:104D800012969C938E9311978091010882831382CF
:104D9000809102088483158280910308868317829C
:104DA00080910408808711860E946F138DB79EB78B
:104DB0000A960FB6F8949EBF0FBE8DBF089582E38A
:104DC00090E00E948E2282E390E04DE455E266E09E
:104DD0007BE30E9471146093050370930603809334
:104DE0000703909308038DB79EB70A970FB6F89400
:104DF0009EBF0FBE8DBFEDB7FEB7319686E794E03C
:104E0000ADB7BEB712969C938E9311978091050310
:104E10008283138280910603848315828091070325
:104E20008683178280910803808711860E946F1302
:104E30008DB79EB70A960FB6F8949EBF0FBE8DBF72
:104E400008958EE190E00E948E228EE190E040EC89
:104E500058EA60E073E60E9471146093F90770935A
:104E6000FA078093FB079093FC078DB79EB70A97CC
:104E70000FB6F8949EBF0FBE8DBFEDB7FEB731964B
:104E800084E994E0ADB7BEB712969C938E931197C8
:104E90008091F907828313828091FA0784831582B7
:104EA0008091FB07868317828091FC07808711869B
:104EB0000E946F138DB79EB70A960FB6F8949EBFE7
:104EC0000FBE8DBF0895AF92BF92CF92DF92EF9247
:104ED000FF920F931F938091850D9091860D892BE2
:104EE00009F44AC0A090850DB090860D6091870DA1
:104EF0007091880D2091890D30918A0DE0908B0D75
:104F0000F0908C0D80E090E0982F872F762F662709
:104F100040E050E0A90133272227620F731F841F4E
:104F2000951FCC24DD246A0D7B1D8C1D9D1D00E08A
:104F300010E01E2D0027FF24EE246E0D7F1D801F24
:104F4000911F60937F0D7093800D8093810D9093DE
:104F5000820D0E94F92060917F0D7091800D8091EB
:104F6000810D9091820D48E020E001E010E0B1E079
:104F7000EB2EF12C0E94E81E1F910F91FF90EF90F5
:104F8000DF90CF90BF90AF9008958091850D909164
:104F9000860D892B69F48091870D9091880D892B5E
:104FA00039F48091890D90918A0D892B09F442C0C2
:104FB00080E090E0F999FECFFC01EE0FFF1FEB5768
:104FC000F24F0190F081E02DF999FECF1FBACC96F7
:104FD00092BD81BDE0BD0FB6F894FA9AF99A0FBE62
:104FE000CB978630910531F722E430E01AC0F99969
:104FF000FECFF901EE0FFF1FE35FF24F0190F0814A
:10500000E02DF999FECF1FBA32BD21BDE0BD0FB62C
:10501000F894FA9AF99A0FBE2F5F3F4F2634310564
:1050200031F08091910D9091920D892B01F70E94A2
:10503000093908950E94953808950E94853608958B
:10504000CF92DF92EF92FF920F931F93DF93CF9354
:1050500000D0CDB7DEB79A838983CE01019664E094
:1050600071E00E9409436C0110E00FC01F5FE12F47
:10507000F0E0EE0FFF1FEE0FFF1FEC5AFE4F808196
:105080009181892B11F480E03AC0E12EFF24F701D1
:10509000EE0FFF1FEE0FFF1FEC5AFE4F8081918134
:1050A000B6010E948F42892B09F700E010E06E01E3
:1050B0000894C11CD11CC60166E071E00E9409433E
:1050C00060E070E040E050E00E94D840F801EE0F50
:1050D000FF1FEB57F24F718360830F5F1F4F0A3042
:1050E000110549F7EE0CFF1CEE0CFF1C86E591E064
:1050F000E80EF91ED701ED91FC91099581E00F9022
:105100000F90CF91DF911F910F91FF90EF90DF9063
:10511000CF900895CF93DF93EC01DB0134C08695E7
:105120008695FD018193888183708295807F119699
:105130008C9311979981992321F4DF01119642E014
:1051400026C092959F70890F11968C931197898133
:105150008F70880F880F12968C9312979A819923DB
:1051600019F4139641E013C0929596959695937015
:10517000890F12968C9312978A818F7313968C9352
:105180001397149623968881882349F640E01C9251
:10519000EB0108C0E881F0E0EF73F070E355FB4FDE
:1051A000E491E993CA17DB07A9F7FD01842F9DE37A
:1051B00002C0919381508823E1F7A40FB11D1C9286
:1051C000DF91CF910895282F382F3F713A3140F564
:1051D00090E08076907045E0959587954A95E1F747
:1051E000982F8091E1029817D9F02B988FEB8EBD04
:1051F0000DB407FEFDCF83E08EBD0DB407FEFDCFDD
:105200002B9A992359F02B988FE98EBD0DB407FE88
:10521000FDCF9EBD0DB407FEFDCF2B9A9093E1020A
:105220002B983EBD0DB407FEFDCF1EBC0DB407FE8E
:10523000FDCF27FF04C01EBC0DB407FEFDCF8EB509
:105240002B9A0895282F2F712A3140F590E080760F
:10525000907055E0959587955A95E1F7982F809134
:10526000E1029817D9F02B988FEB8EBD0DB407FE95
:10527000FDCF83E08EBD0DB407FEFDCF2B9A9923A1
:1052800059F02B988FE98EBD0DB407FEFDCF9EBD62
:105290000DB407FEFDCF2B9A9093E1022B9820646A
:1052A0002EBD0DB407FEFDCF6EBD0DB407FEFDCFC4
:1052B0002B9A0895CF92DF92EF92FF920F931F9354
:1052C000DF93CF930F92CDB7DEB77C016B011982CC
:1052D00004E610E011C08FE10E94E32883FF12C0B2
:1052E00088EE93E001972FEF8F3F920729F000009F
:1052F000000000000000F6CF015010408FEF0F3F7C
:10530000180749F78FE10E94E32883FF18C02B9804
:105310008FE98EBD0DB407FEFDCF80E88EBD0DB4C4
:1053200007FEFDCF2B9A2B988FEB8EBD0DB407FE99
:10533000FDCF80E88EBD0DB407FEFDCF2B9A82E035
:1053400060E00E94222983E06AE10E94222986E02F
:105350006E2D0E94222997012050364E87E0632F40
:105360000E9422292B988AE78EBD0DB407FEFDCF3F
:1053700089818EBD0DB407FEFDCF2B9A2B988AE74D
:105380008EBD0DB407FEFDCF0CC0F60180818EBD31
:105390000DB407FEFDCF0894E108F1080894C11C84
:1053A000D11CE114F10489F72B9A2B988CEB8EBD5C
:1053B0000DB407FEFDCF88E08EBD0DB407FEFDCF16
:1053C0002B9A2B988FE98EBD0DB407FEFDCF88E098
:1053D0008EBD0DB407FEFDCF2B9A0F90CF91DF91BC
:1053E0001F910F91FF90EF90DF90CF900895EF9273
:1053F000FF920F931F93CF93DF93239A2B9A84B13D
:10540000806A84B92F9A2698249A80E58CBD81E021
:105410008DBD80E197E201972FEF8F3F920729F032
:105420000000000000000000F6CF2B988FEF8EBD2B
:105430000DB407FEFDCF2B9A88EE93E00197EFEFB6
:105440008F3F9E0729F00000000000000000F6CF0B
:105450008DE10E94E32880FFFBCF82E70E94E328D2
:105460008093DE021092990D80E280939A0D88E17C
:1054700080939B0D81EB80939C0D85E180939D0D26
:105480008FE680939E0DC0E0D0E0CE01FE01E15199
:10549000FB4F2491229680519B4FFC0164912F3F3A
:1054A00011F46F3F21F0822F0E942229EECFC151CB
:1054B000DB4FFE0164912196FE01849121976F3F9D
:1054C00011F48F3F39F1F82EEE242296FE0104915B
:1054D000229710E00E291F2984ED0E94222986EDD3
:1054E000602F0E94222987ED612F0E9422298AE0E5
:1054F00090E00197FFEF8F3F9F0729F00000000029
:1055000000000000F6CF8AEE0E94E32880FDFBCF6A
:105510002396CFCF1092E0021092DF028BE160EC75
:105520000E9422292B988FE98EBD0DB407FEFDCF76
:1055300084E08EBD0DB407FEFDCF2B9ADF91CF9195
:105540001F910F91FF90EF900895CF92DF92EF920D
:10555000FF920F931F93DF93CF9300D000D000D022
:10556000CDB7DEB77C016B0189E30E94E328882375
:1055700019F400E010E09CC06091DF027091E0023D
:1055800080E00E9422292091DF023091E00281E038
:10559000632F0E9422292B988AE38EBD0DB407FE4B
:1055A000FDCFFE0131969E012A5F3F4F1EBC0DB418
:1055B00007FEFDCF8EB58083E217F30711F0319619
:1055C000F5CF2B9A898190E09093E0028093DF02DF
:1055D0002091DF023091E0029A8180E0822B932BB0
:1055E0009093E0028093DF028B81082F10E09C8172
:1055F00080E0082B192B8D81282F30E09E8180E0E0
:10560000282B392B27FF05C037FD03C0E016F10614
:1056100010F40E94F72904501040E016F10608F437
:1056200087012B988AE38EBD0DB407FEFDCF98014C
:105630000AC01EBC0DB407FEFDCF8EB5F6018193E6
:105640006F01215030402115310599F72B9A809137
:10565000DF029091E002019780509A41A8F4809176
:10566000DF029091E0026091DF027091E0026150F0
:105670008CE00E9422292091DF023091E00221502B
:1056800030408DE0632F06C08CE06FEF0E9422292E
:105690008DE069E10E9422292B988EE98EBD0DB420
:1056A00007FEFDCF80E48EBD0DB407FEFDCF2B9A23
:1056B000C80126960FB6F894DEBF0FBECDBFCF91BE
:1056C000DF911F910F91FF90EF90DF90CF900895A1
:1056D0000F931F9390E09C01220F331F890143E039
:1056E000000F111F4A95E1F7021B130B45EC5DE01B
:1056F000BA01600F711FFB012081207E2260208390
:10570000FC0123E0EE0FFF1F2A95E1F7E81BF90BE0
:105710003196DA011897EE0FFF1FEA0FFB1F118277
:105720001082A00FB11F11961C921E92FB01808166
:105730008F7D80838FE99DE015969C938E931497BF
:1057400087E592E01A969C938E9319978CE592E0E8
:105750001C969C938E931B978DE892E017969C93D2
:105760008E9316974B5F5F4F400F511FFA01808158
:105770008C7F80831F910F9108952F923F924F92BB
:105780005F926F927F928F929F92AF92BF92CF92D1
:10579000DF92EF92FF920F931F93DF93CF93CDB7DA
:1057A000DEB7A9970FB6F894DEBF0FBECDBF382E77
:1057B000882E9924C401880F991F9C0113E0220FA1
:1057C000331F1A95E1F7281B390BF901EB53F24F00
:1057D000808180FD16C0F401B3E0EE0FFF1FBA9583
:1057E000E1F7E819F909EE0FFF1FE154F24F8DE1DF
:1057F0009FE191838083F901E653F24F80818C7F92
:105800008083C401880F991FDC01E3E0AA0FBB1F4E
:10581000EA95E1F7A81BB90B8D010653124FF80169
:105820008081837009F470C0813081F480E00E942F
:105830000B3F6093770D7093780D8093790D909363
:105840007A0DD8018C918C7F82608C93CC24DD24DE
:1058500086E190E0889E5001899EB00C989EB00C25
:105860001124E7E0F8E0AE0EBF1E71E1672E712C47
:105870006A0C7B1C60E7462E64E0562ED3018D91A6
:105880009C91849D7001859DF00C949DF00C1124D9
:10589000E0EBF2EFEE0EFF1EEC0CFD1C00E010E062
:1058A000C801B7010E94433EF601E75FFC4F86AB9B
:1058B0008091770D9091780DA091790DB0917A0D2E
:1058C00096012F5F3F4F8E159F05A007B10740F44B
:1058D0008DEF9FEFD50152969C938E93519705C003
:1058E0006901B4E020373B0749F686E190E0889EE5
:1058F000F001899EF00D989EF00D1124E95FF74F9D
:1059000088E1808BC901FAC186E190E0889EF001B0
:10591000899EF00D989EF00D1124E95FF74F808964
:10592000882391F4F40153E0EE0FFF1F5A95E1F73D
:10593000E819F909EE0FFF1FE154F24FA354B24FDB
:105940008D919C9191838083C401880F991FDC0104
:1059500023E0AA0FBB1F2A95E1F7A81BB90BA3549C
:10596000B24FF40103E0EE0FFF1F0A95E1F7E819CB
:10597000F909EE0FFF1FE154F24F808191818D9361
:105980009C93CC24DD245F017E010894E11CF11C72
:10599000A1E04A2E512CFAE02F2EF5010081118151
:1059A000B8016F5F7F4F71836083F8018491EFE3EB
:1059B0006E2EE3E07E2E6C0C7D1CD3018C93853221
:1059C00009F085C18CE991E043E050E00E945C421F
:1059D000892B89F50C5F1F4FF80184910F5F1F4FD2
:1059E000F80124912051829DC0011124280FE22F3B
:1059F000F0E0EE0FFF1FE758FD4F80819181B70166
:105A00004AE050E00E942143C7016AE070E00E9432
:105A1000FE42082F10E0C301B701A8010E947D4299
:105A200001501040C00ED11ED5018D919C9111974F
:105A300005968D939C93F5016081718180EA91E0D8
:105A400044E050E00E945C42892B09F061C08091E3
:105A50003E0D823039F485EA91E06AEA71E00E94F5
:105A6000F7423BC06091410D7091420D8091430D12
:105A70009091440DAE01455F5F4F0E9463344DB776
:105A80005EB7485050400FB6F8945EBF0FBE4DBF92
:105A9000EDB7FEB7319641E652E0ADB7BEB712960C
:105AA0005C934E93119781E59FE193838283A3E1F9
:105AB000B0E0AC0FBD1FB583A48341E250E04C0FB2
:105AC0005D1F578346830E945F438DB79EB708963C
:105AD0000FB6F8949EBF0FBE8DBF81E692E068E1DD
