:100000000C943A100C9457100C9457100C949D14A7
:100010000C9457100C9457100C9457100C94852185
:100020000C9457100C9457100C9457100C945710B4
:100030000C9457100C940E120C9457100C945710EB
:100040000C9457100C9457100C9457100C94571094
:100050000C94571047657420504F4E473A2025693D
:100060002E25692E25692E25690D0A0064686370A6
:10007000206C656173652072656E6577616C2066C2
:1000800061696C65640D0A004552524F520D0A0DAC
:100090000A0052656164790D0A0D0A000D0A004ECE
:1000A0005450204572722E0D0A00475720202025FB
:1000B00031692E2531692E2531692E2531690D0AC8
:1000C000004D41534B202531692E2531692E2531B4
:1000D000692E2531690D0A000D0A4950202020257E
:1000E00031692E2531692E2531692E2531690D0A98
:1000F0000044484350206661696C0D0A00436F6DEF
:1001000070696C69657274206D697420474343207F
:1001100056657273696F6E20342E332E320D0A00CD
:10012000436F6D70696C6965727420616D204A61FE
:100130006E203137203230313020756D2032323A26
:1001400033383A32310D0A000A0D53797374656DF4
:100150002052656164790A0D0052455345542020B0
:100160002D20726573657420746865204156522095
:100170002D20436F6E74726F6C6C65720D0A415264
:1001800050202020202D206C697374207468652015
:10019000415250207461626C650D0A544350202016
:1001A00020202D206C69737420746865207463703E
:1001B000207461626C650D0A495020202020202D9A
:1001C000206C6973742F6368616E67652069700DB8
:1001D0000A4E4554202020202D206C6973742F6313
:1001E00068616E6765206E65746D61736B0D0A5290
:1001F0004F55544552202D206C6973742F636861EC
:100200006E676520726F757465722069700D0A4E95
:100210005450202020202D206C6973742F63686156
:100220006E6765204E54500D0A4E545052202020C7
:100230002D204E545020526566726573680D0A4D2C
:100240004143202020202D206C697374204D4143B0
:100250002D616464726573730D0A56455220202027
:10026000202D206C69737420656E6320766572732F
:10027000696F6E206E756D6265720D0A535620208F
:100280002020202D20736574207661726961626C74
:10029000650D0A50494E472020202D2073656E645D
:1002A0002050696E670D0A54494D452020202D20AD
:1002B0006765742074696D650D0A48454C502020AF
:1002C000202D207072696E742048656C707465789A
:1002D000740D0A3F2020202020202D207072696E8E
:1002E000742048656C70746578740D0A002563008D
:1002F0000A0D54494D453A202532693A2532693A6A
:100300002532690D0A00496E68616C74206465725B
:10031000205661726961626C655B2532695D203DC2
:10032000202532690D0A00202054696D653A253474
:10033000690D0A002020504F52543A253469002E8E
:10034000253369002E253369002E253369002020CE
:1003500049503A2533690025326900202054696DDF
:10036000653A2534690D0A002E253369002E2533A0
:1003700069002E25336900202049503A2533690051
:100380002E253278002E253278002E253278002E48
:10039000253278002E2532780025326920204D4103
:1003A000433A25327800454E4332384A36302D568E
:1003B000657273696F6E3A202531780D0A004D79A8
:1003C000204D41433A202532783A2532783A253279
:1003D000783A2532783A2532783A2532780D0A0073
:1003E000526F757465722049503A202531692E2567
:1003F00031692E2531692E2531690D0A004E45548B
:100400004D41534B3A202531692E2531692E253136
:10041000692E2531690D0A004E54505F536572767E
:1004200065723A202531692E2531692E2531692ED4
:100430002531690D0A004D792049503A202531694E
:100440002E2531692E2531692E2531690D0A00418D
:1004500042434445464748494A4B4C4D4E4F505104
:1004600052535455565758595A61626364656667CA
:1004700068696A6B6C6D6E6F707172737475767784
:1004800078797A303132333435363738392B2F3D5D
:10049000000400051A06FF071F080009000AFF0BE9
:1004A00019C100C00DC233CAEECB05C415C612E493
:1004B00000E520E218E3B1E015E16F7500FFFF00F1
:1004C0000100140742FFFF3C21444F43545950455B
:1004D0002068746D6C205055424C494320222D2FCA
:1004E0002F5733432F2F4454442048544D4C20342D
:1004F0002E3031205472616E736974696F6E616C55
:100500002F2F454E222022687474703A2F2F777750
:10051000772E77332E6F72672F54522F68746D6C5D
:10052000342F6C6F6F73652E647464223E0D0A3C29
:1005300068746D6C3E3C686561643E0D0A3C6D6597
:10054000746120687474702D65717569763D2263DD
:100550006F6E74656E742D747970652220636F6E92
:1005600074656E743D22746578742F68746D6C3B8D
:1005700020636861727365743D49534F2D38383577
:10058000392D31223E0D0A3C7469746C653E41562A
:1005900052206D696E692057656273657276657267
:1005A000203A20486F6D653C2F7469746C653E0D70
:1005B0000A3C6C696E6B2072656C3D227374796CB9
:1005C0006573686565742220747970653D22746571
:1005D00078742F637373222020687265663D2273DE
:1005E00074796C65732E637373223E3C2F6865616A
:1005F000643E3C626F64793E0D0A3C68313E415670
:1006000052206D696E6920576562736572766572F6
:10061000203A20486F6D653C2F68313E0D0A3C64DE
:1006200069762069643D226E6176223E3C612068D5
:100630007265663D22696E6465782E68746D223E2F
:10064000486F6D653C2F613E3C6120687265663D78
:10065000227374617475732E68746D223E537461D5
:100660007475733C2F613E3C2F6469763E0D0A3CE5
:100670006469762069643D226D61696E223E3C6842
:10068000323E476CFC636B77756E736368213C2F59
:1006900068323E3C62723E0D0A3C696D672073729F
:1006A000633D2272616B65742E67696622207769EB
:1006B0006474683D22393022206865696768743D3A
:1006C0002239322220616C743D22223E3C62723E0D
:1006D0003C62723E0D0A3C703E4475206861737442
:1006E000206573206765736368616666743A2044A9
:1006F000657220576562736572766572206CE47569
:100700006674213C2F703E3C62723E3C68723E3CF7
:1007100062723E0D0A3C646976207374796C653DA3
:100720002277696474683A32303070783B6D617258
:1007300067696E3A2030206175746F3B223E0D0A66
:100740003C646976207374796C653D22666C6F61D8
:10075000743A6C6566743B77696474683A3130301A
:100760007078223E0D0A3C666F726D206D6574686C
:100770006F643D22706F73742220616374696F6EC1
:100780003D22696E6465782E68746D223E0D0A3CC8
:10079000696E707574206E616D653D224F555422EF
:1007A00020747970653D22636865636B626F78229F
:1007B0002076616C75653D2241222025504F5254B0
:1007C00041303E506F727420412050696E20303CA1
:1007D00062723E0D0A3C696E707574206E616D65C3
:1007E0003D224F55542220747970653D226368651F
:1007F000636B626F78222076616C75653D224222C0
:100800002025504F525441313E506F727420412088
:1008100050696E20313C62723E0D0A3C696E707503
:1008200074206E616D653D224F555422207479709D
:10083000653D22636865636B626F78222076616C28
:1008400075653D2243222025504F525441323E507F
:100850006F727420412050696E20323C62723E3CBF
:1008600062723E0D0A3C696E707574206E616D6532
:100870003D22535542222076616C75653D225365B9
:100880006E64656E2220747970653D227375626DA9
:100890006974223E0D0A3C2F666F726D3E3C2F64D8
:1008A00069763E0D0A3C646976207374796C653D07
:1008B00022666C6F61743A6C6566743B207769647C
:1008C00074683A3130307078223E0D0A3C696D67A9
:1008D000207372633D222550494E44372220616CBB
:1008E000743D22223E20506F727420442050696E65
:1008F00020373C62723E3C696D67207372633D2213
:100900002550494E44362220616C743D22223E20FF
:10091000506F727420442050696E20363C62723EE3
:100920003C696D67207372633D222550494E443502
:100930002220616C743D22223E20506F727420444C
:100940002050696E20353C62723E3C2F6469763ED1
:100950003C2F6469763E0D0A3C64697620636C61C5
:1009600073733D22636C656172223E3C2F6469762D
:100970003E0D0A3C62723E3C68723E3C62723E0D25
:100980000A3C7461626C6520626F726465723D221C
:10099000302220636C6173733D2274656D70546204
:1009A0006C2220616C69676E3D2263656E746572AE
:1009B000222077696474683D2234303070783B229D
:1009C0003E0D0A3C74723E0D0A3C74683E45696EE9
:1009D00067616E673C2F74683E0D0A3C74683E4246
:1009E000616C6B656E3C2F74683E0D0A3C74683E0A
:1009F00054656D70657261747572205BB0435D3CC7
:100A00002F74683E0D0A3C2F74723E3C74723E0D8A
:100A10000A3C74643E41442D4B616E616C303C2F46
:100A200074643E0D0A3C7464207374796C653D22D5
:100A3000746578742D616C69676E3A6C65667422B2
:100A40003E3C696D67207372633D22696E64657810
:100A50002D4461746569656E2F62616C6B652E67EC
:100A600069662220616C743D22222068656967688E
:100A7000743D223130222077696474683D22255606
:100A800041403030223E3C2F74643E0D0A3C746479
:100A90003E2556414030303C2F74643E0D0A3C2FB9
:100AA00074723E3C74723E0D0A3C74643E41442DA7
:100AB0004B616E616C313C2F74643E0D0A3C746472
:100AC000207374796C653D22746578742D616C694E
:100AD000676E3A6C656674223E3C696D672073727E
:100AE000633D22696E6465782D4461746569656E45
:100AF0002F62616C6B652E6769662220616C743DA4
:100B00002222206865696768743D2231302220778F
:100B1000696474683D22255641403031223E3C2FA5
:100B200074643E0D0A3C74643E2556414030313CAD
:100B30002F74643E0D0A3C2F74723E3C74723E0D5D
:100B40000A3C74643E41442D4B616E616C323C2F13
:100B500074643E0D0A3C7464207374796C653D22A4
:100B6000746578742D616C69676E3A6C6566742281
:100B70003E3C696D67207372633D22696E646578DF
:100B80002D4461746569656E2F62616C6B652E67BB
:100B900069662220616C743D22222068656967685D
:100BA000743D223130222077696474683D222556D5
:100BB00041403032223E3C2F74643E0D0A3C746446
:100BC0003E2556414030323C2F74643E0D0A3C2F86
:100BD00074723E3C74723E0D0A3C74643E41442D76
:100BE0004B616E616C333C2F74643E0D0A3C74643F
:100BF000207374796C653D22746578742D616C691D
:100C0000676E3A6C656674223E3C696D672073724C
:100C1000633D22696E6465782D4461746569656E13
:100C20002F62616C6B652E6769662220616C743D72
:100C30002222206865696768743D2231302220775E
:100C4000696474683D22255641403033223E3C2F72
:100C500074643E0D0A3C74643E2556414030333C7A
:100C60002F74643E0D0A3C2F74723E0D0A3C2F74A3
:100C700061626C653E0D0A3C2F6469763E3C646996
:100C8000762069643D227461696C223E3C61206873
:100C90007265663D22687474703A2F2F7777772ECD
:100CA000756C7269636872616469672E6465223E5F
:100CB0007777772E756C7269636872616469672EE5
:100CC00064653C2F613E20556C72696368205261F7
:100CD00064696720323030383C2F6469763E0D0AF3
:100CE0003C2F626F64793E3C2F68746D6C3E2545E5
:100CF0004E44003C21444F43545950452068746D84
:100D00006C205055424C494320222D2F2F573343FE
:100D10002F2F4454442048544D4C20342E30312041
:100D20005472616E736974696F6E616C2F2F454EDA
:100D3000222022687474703A2F2F7777772E7733BA
:100D40002E6F72672F54522F68746D6C342F6C6F36
:100D50006F73652E647464223E0D0A3C68746D6C7A
:100D60003E3C686561643E0D0A3C6D6574612068B7
:100D70007474702D65717569763D22636F6E74654C
:100D80006E742D747970652220636F6E74656E7455
:100D90003D22746578742F68746D6C3B20636861C4
:100DA000727365743D49534F2D383835392D3122D2
:100DB0003E0D0A3C7469746C653E415652206D6963
:100DC0006E6920576562736572766572203A2053AA
:100DD00074617475733C2F7469746C653E0D0A3CC4
:100DE0006C696E6B2072656C3D227374796C6573EF
:100DF000686565742220747970653D227465787425
:100E00002F637373222020687265663D22737479A4
:100E10006C65732E637373223E3C2F686561643E7C
:100E20003C626F64793E3C68313E415652206D69A8
:100E30006E6920576562736572766572203A205339
:100E400074617475733C2F68313E0D0A3C64697699
:100E50002069643D226E6176223E3C6120687265A5
:100E6000663D22696E6465782E68746D223E486F17
:100E70006D653C2F613E3C6120687265663D227362
:100E800074617475732E68746D223E537461747549
:100E9000733C2F613E3C2F6469763E0D0A3C6469C9
:100EA000762069643D226D61696E223E0D0A436FB2
:100EB0006D70696C6965727420616D204A616E2085
:100EC0003137203230313020756D2032323A3338AC
:100ED0003A32323C62723E3C62723E0D0A436F6DA2
:100EE00070696C69657274206D6974204743432092
:100EF00056657273696F6E20342E332E323C6272E7
:100F00003E3C62723E0D0A426573756368657220ED
:100F1000736569742053746172742064657320571B
:100F2000656273657276657273202825564140307C
:100F300039293C62723E3C62723E0D0A416B747507
:100F4000656C6C65205A6569743A202554494D4595
:100F50003C62723E3C62723E0D0A3C2F6469763EF2
:100F60003C6469762069643D227461696C223E3C70
:100F70006120687265663D22687474703A2F2F771D
:100F800077772E756C7269636872616469672E6425
:100F900065223E7777772E756C726963687261643B
:100FA00069672E64653C2F613E20556C72696368E9
:100FB00020526164696720323030383C2F64697692
:100FC0003E0D0A3C2F626F64793E3C2F68746D6C55
:100FD0003E0D0A25454E4400626F64797B6D617257
:100FE00067696E3A20343070783B7D20626F647997
:100FF0002C702C6469762C68312C68322C74642C2B
:1010000074687B666F6E742D66616D696C793A7376
:10101000616E732D73657269663B666F6E742D73B6
:10102000697A653A313170787D68317B666F6E74AC
:101030002D73697A653A323070783B636F6C6F72EA
:101040003A77686974653B206261636B67726F759C
:101050006E642D636F6C6F723A23393642313143BF
:101060003B6D617267696E3A3170783B70616464A0
:10107000696E673A3570783B746578742D616C6978
:10108000676E3A63656E7465723B7D68327B666F2E
:101090006E742D73697A653A313870783B636F6C82
:1010A0006F723A233936423131437D702C68327B7E
:1010B0006D617267696E3A3070783070783570782B
:1010C0003070787D696D677B626F726465723A30EB
:1010D0007D68727B636F6C6F723A73696C76657250
:1010E0003B206261636B67726F756E642D636F6C1A
:1010F0006F723A73696C7665723B626F7264657287
:101100003A303B6865696768743A3170787D236E60
:1011100061767B666F6E742D73697A653A2031361D
:1011200070783B206261636B67726F756E642D63CC
:101130006F6C6F723A73696C7665723B6D61726742
:10114000696E3A3170783B70616464696E673A35F4
:1011500070783B666F6E742D7765696768743A6264
:101160006F6C647D236E617620612C20237461692D
:101170006C20617B636F6C6F723A77686974653B52
:101180002070616464696E673A313070783B7465D1
:1011900078742D6465636F726174696F6E3A6E6FF7
:1011A0006E657D236E617620613A686F7665722C7C
:1011B000237461696C20613A686F7665727B74652F
:1011C00078742D6465636F726174696F6E3A756EC1
:1011D0006465726C696E657D237461696C7B2063E4
:1011E0006F6C6F723A77686974653B206261636BFC
:1011F00067726F756E642D636F6C6F723A73696C92
:101200007665723B746578742D616C69676E3A63BC
:10121000656E7465723B70616464696E673A3570BF
:10122000787D236D61696E7B746578742D616C695E
:10123000676E3A63656E7465723B6D617267696E65
:101240003A323070787D2E636C6561727B636C65B9
:1012500061723A6C6566747D2E74656D7054626C53
:10126000207B7461626C652D6C61796F75743A6175
:1012700075746F3B626F726465722D737061636920
:101280006E673A307D2E74656D7054626C207464A4
:101290007B746578742D616C69676E3A63656E74F2
:1012A00065723B70616464696E673A3770787D2E51
:1012B00074656D7054626C2074687B6261636B67E7
:1012C000726F756E642D636F6C6F723A73696C76B2
:1012D00065727D25454E4400474946383961110005
:1012E0001100A2070062626219AD2121E22CA5A5BE
:1012F000A564E66BA5F3A9D5D5D5FFFFFF21F904B9
:1013000001000007002C0000000011001100000384
:101310006078AAD6F366C9D3EABB5156127A170091
:10132000302C4DF109A8D085591308444CA46A48C3
:10133000192A51EC73BA0E2ED8AE10A30544411DE4
:101340008F56130D5EB2A231F478A17ACCA3D3CA22
:101350009C020C4F6EF777A8767D364AE8E4D38E70
:101360001483B5C7439D1842F8FC7B528EE3F70AFD
:1013700009003B25454E4447494638396111001163
:1013800000A207005756576969697E7E7E90919149
:10139000B0B0B0C8C8C8E7E7E7FFFFFF21F9040114
:1013A000000007002C000000001100110000036F76
:1013B00078AA5645B0AC794C73706839AD190120E4
:1013C0000642492C56416A43199001670503446857
:1013D000A5F00A55D1128E47CBA503AA6A85C62D62
:1013E000A7A3390048CCB03482406B99A94004B01F
:1013F0000A58386615C42CBB00029FCE9C23750F7B
:101400002D125B0708280A2E793BF45610767C755E
:101410007C2713782F5C55140B372124840B09008B
:101420003B25454E4447494638396102000A00A22F
:101430000000A2A5ED848FE5667CDD4960D62144DD
:10144000DAFE010200000000000021F9040514008A
:1014500005002C0000000002000A0000030A4834C6
:1014600023120148001D5309003B25454E444749BE
:10147000463839615A005C00A204007979D8F6F444
:10148000E1C9C9E09C98D8FFFFFFF4F6B0F9FD7CF4
:10149000A6A48E21F90401000004002C0000000025
:1014A0005A005C000003FF48BADCFE2E2C4982A5DE
:1014B000B35A21B49618068D64697A8D85A65CA509
:1014C000A88F78CEB429BF99300C541FD7C0E00B39
:1014D00036C4650803C0C018E84C6EC228E9C22CA7
:1014E0001061802C2EB0937A69A04B58614D55B293
:1014F000CB854009837EDF9FDE6E27085FD6EC57E1
:10150000B2FE72C2836E165620493B597C61783C0C
:101510001549794D7C7F80442F05655C4A0B7B4FD4
:101520008A9968126B7E9133622E13959F8E4D5966
:10153000228A1B9E4D7B6E66A271220195056775FE
:10154000033AAF139A04781D9769A5B45362B6B8ED
:101550001600BB599E4F3B206B3CAABCC647C70C2C
:1015600017832015CB01ABC1070790DF052D153A76
:101570002087A3B25282A7210506A785F176B7DDA1
:101580001A75E8E5B693B0450A03CE14BD41B1E43F
:10159000A90860A05E087C4364F8785763E2B965E7
:1015A00094E8D53BD30CFF1C8886959EDCF2A1A065
:1015B0000EAC39739C488C716524A145FA1C6AA84D
:1015C000041215008FB740E6A260A59B0E434A9E09
:1015D0003DE345D1863E668E3426D3B8F1D28153A1
:1015E000DF1ACABC50AE97D0431C1A350B18459F62
:1015F00095A1FD6A4E90BA33CB017D511D3ED22A92
:1016000094688F4B5B6D40007850119B9C213F8A02
:101610004D380897D5ABBC4C4EE840CDDC082ADBF2
:1016200020E06A648817CD4115C85AD8034EC0011E
:10163000B687DA20A9C38183129546BEE8632C548D
:1016400080C6534CCB911340D60A1E349030F0A084
:1016500016B85D9C6C5304FE6A86F9A9CED4E56881
:10166000D63B35D41B150985B0668EE04256B2E3F1
:101670005B9270E9DDFAF76372955EA721D5449518
:10168000A77B22B92373C91D390058CDD030052955
:10169000B53DF6ECCF86254EFEB9D173852BE6C657
:1016A000537861556061FFEBB5D75E01C15572405B
:1016B0007C0F5503562F1BE08213185E6124CC1C4F
:1016C00043AD67A1813D3DA59D1C48F032140199B1
:1016D00071E0A03C15CD34A277577972DA7A677938
:1016E000155C38F1BD70DE6B5B0913C059273AF702
:1016F000033723FE445F85023674A069FE3CF5D5AE
:1017000087C87986206CEFED03CF7E12D687C67925
:1017100041D6438E95375971A05014508320351609
:10172000F806996E42C454532CAEB056E56300B42B
:10173000A81563EAB4E5DD2DEF8D51D42C89E5447D
:10174000965D4205285C439C31560782483C33D95C
:10175000564D3257620AF19055085BA691859D90CF
:10176000E830E6CA2B9C3068594FC655F4DC0D664C
:101770001A306456663145A0985AC608171A2511C2
:101780009584862671F59C1950E6F8C4410560B62B
:10179000CA80A6B245C1A399750763766DF038A2D9
:1017A00093DB1C7BAC18FF8FF90854A44112789589
:1017B0000BB114320C1E46DAE120AF24EA37A280C6
:1017C000CAC2D899B57E0AE38B74C13C6A15913DB3
:1017D00005D8DA984FB0F4A74E96B1AB8856BEED57
:1017E00069DF67BF02104C8A866EBB26B2C5CAEAA3
:1017F000154834667BD9B8879CF69A3554EC01704D
:10180000A9550E470A9E571401258D6D1A59188D3A
:10181000CBC009A60B1C6FD5C4A4D196815B62CC4A
:10182000D9525285A756A26B96D2F24B4D29343A23
:10183000E62EAFC9CC45E60F71B201D201F5E86AD8
:10184000E496E2C4F27271A755DCCDC59E7ECACE85
:1018500056B8106D40CE05BEF9B21334B2EB1A394A
:101860004D3E8D4FCF2DD79A239AB80CFD2ABB48F9
:10187000C7050A4766DD62D99655851D61B80B35E7
:10188000D7E8C01E1FF8CF85B8E63A25D7E7AD1ACE
:10189000A96B6E556DF58003F3C76CDA551A59299B
:1018A000D857AED9C84FFFBFFC952FE594435E31A2
:1018B0007B39CE1AD1B1553DF2C8DCE0A2E309264E
:1018C0002A681EA088A7FE9DB2E352BB7CEB207362
:1018D000736E64B45B32131B5C4446DBD0A1F9E247
:1018E0005D828E796744D3E2038AABCE220A5C6EB6
:1018F000AAE7C3C7E7A0E8DE00B1D0E36B0E7839F2
:1019000072D0C3C8C38A93120D5FC30FDE898D32B4
:101910000237EEF133242F819498EFD55F9556D09E
:101920000E47B07E2C5FF4B9901AAA1FABD4609E0C
:101930007CE9EF46476B5B9BF2671DA9F9CC7FFF03
:10194000930A76E686A2D8F0E255015A8DA974373B
:10195000AFD989ED2DA3EBE0FFD0911D67D08101B8
:10196000ADE0DDBC8E558F08864E6FCA8AE16336C6
:1019700028B90985427A1174A10CF1B6BDBBD10E0C
:101980004A8C1B1A1B38108686E55087A8B9CFA74A
:1019900022203ABD852A48306ADDD47677441DE698
:1019A000AD76EA63949EFF2A7689D6A5EB333B6336
:1019B0004F156B923DA8E1C904D4AB92304A02178F
:1019C0000302507F221CA1CA7E16AFC3EC2D759274
:1019D00061157AD86021C9516E8C3AE18AF60E966B
:1019E000BAB411CB50872A5C0C75F7B96FB5267B5A
:1019F00092E8A0B284F89314D54177C1D9541AB9AA
:101A0000B5378F94088818E9A4222AF98C002E9003
:101A10005403108E6BE208995A91D11D3EB4C44C08
:101A2000C8D216544A4E756E425FEC82172DF631BD
:101A300005313EC36206B668005D718698AA4B65A3
:101A400001866296DCB19224FB211B4B7AE632645C
:101A50004EE92A6E04494796591A7DCCED99477094
:101A6000A01DA1D380158202338EE11D6B6A360062
:101A70000362C8913A99263073131064DE88078098
:101A8000B14CE48A470E625A898C2B7C48444463EB
:101A900021DFD1C63F37999D75B8F54841F00A68F6
:101AA000803091645471FF23255CAE9D3B0BE3BBFA
:101AB0004C350455CE110E66BB030F8664ADDDC5F3
:101AC000B13A1335D53C66F8D1AE18AB585B394402
:101AD0007CBCE627860254A55B98A120077994B7C1
:101AE000B493183662214A6B52503385A414119A6C
:101AF000A724667512EF0CAA4D2B5A6141FFD40D35
:101B00004342B3204F229BE9D0A320A80234A56012
:101B100025632703914579027321DFA3862A1DFAE5
:101B200055B14AC614810C8D5CFF10021BFD444F59
:101B3000550DAB5AB6988B8C582C04DA88C01A61B4
:101B4000111685AC68ACB39489F2A01258A4122285
:101B5000582DC02BB3C42AD9C4CEF1A52B39067A8F
:101B60000473BBBD4A961B62010146B670144595CD
:101B7000691B5DB2D627221BA15BEDF51C8ABD88CF
:101B80002C6B51D6131CE724A0E98E8964E9D0CBD5
:101B9000E2E5B6587562637BE196FE8DCDB51FFD1B
:101BA0006DB2BAE5C4DA5BE6461D88E85F0879EBFA
:101BB000155F22E6B82B13453541F8969EC290B1C9
:101BC000CAA34B4B032B50634041109AB988754907
:101BD0006BC6C69A964CE8156F5F6F75D6F6BA77E6
:101BE000A9A0026F47EBA9D4FB9E9689060BB073A0
:101BF000FD6B94F3F697C08DDDA97D114C5EE42159
:101C00003801003B25454E44485454502F312E3066
:101C10002032303020446F63756D656E7420666FBE
:101C20006C6C6F77730D0A5365727665723A20415A
:101C300056525F536D616C6C5F5765627365727667
:101C400065720D0A436F6E74656E742D54797065FC
:101C50003A20746578742F706C61696E0D0A0D0AF4
:101C600000485454502F312E302032303020446FF1
:101C700063756D656E7420666F6C6C6F77730D0A9B
:101C80005365727665723A204156525F536D616CAE
:101C90006C5F5765627365727665720D0A436F6E8D
:101CA00074656E742D547970653A20746578742F5C
:101CB00068746D6C0D0A0D0A00485454502F312E73
:101CC000302034303120556E617574686F72697AD6
:101CD00065640D0A5365727665723A204156525F0B
:101CE000536D616C6C5F5765627365727665720DDA
:101CF0000A5757572D41757468656E74696361742E
:101D0000653A204261736963207265616C6D3D22A2
:101D10004E65656450617373776F7264220D0A4378
:101D20006F6E74656E742D547970653A20746578A1
:101D3000742F68746D6C0D0A0D0A00485454502FAE
:101D4000312E302032303020446F63756D656E74F3
:101D500020666F6C6C6F77730D0A536572766572CF
:101D60003A204156525F536D616C6C5F57656273E8
:101D700065727665720D0A436F6E74656E742D54CC
:101D80007970653A20696D6167652F6A7065670DC6
:101D90000A0D0A00485454502F312E302032303072
:101DA00020446F63756D656E7420666F6C6C6F7721
:101DB000730D0A5365727665723A204156525F532D
:101DC0006D616C6C5F5765627365727665720D0A42
:101DD00043616368652D436F6E74726F6C3A206D5A
:101DE00061782D6167653D36303030303030436F7B
:101DF0006E74656E742D547970653A20696D6167F3
:101E0000652F6769660D0A0D0A00485454502F313A
:101E10002E302032303020446F63756D656E742033
:101E2000666F6C6C6F77730D0A5365727665723AE4
:101E3000204156525F536D616C6C5F5765627365EC
:101E4000727665720D0A43616368652D436F6E7427
:101E5000726F6C3A206D61782D6167653D36303068
:101E600030303030436F6E74656E742D5479706508
:101E70003A20746578742F6373730D0A0D0A003469
:101E8000303120556E617574686F72697A656425AA
:101E9000454E44006C65646F66662E676966006C2B
:101EA00065646F6E2E676966000000636865636B2A
:101EB00065640025732C20257300504F5354005344
:101EC000746172742054656C6E657420536572760B
:101ED00065723A0D0A00D9000AFA000000000001FC
:101EE00004000000000000000000000000000000EE
:101EF0000000000000000000000000000000C7D645
:101F0000AC7208000000536F004D6F004469004D33
:101F10006900446F004672005361002532753A250E
:101F20003032753A25303275002025752E25303235
:101F3000752E253034750025732C202573002A2A30
:101F4000204C434420444154412047455420427989
:101F50007465733A202569202A2A0D0A00474554E2
:101F6000202F676C6F62616C776561746865722E93
:101F700061736D782F476574576561746865723F4A
:101F8000436974794E616D653D5061646572626F3D
:101F9000726E26436F756E7472794E616D653D4742
:101FA00065726D616E7920485454502F312E310D79
:101FB0000A486F73743A207777772E776562736576
:101FC0007276696365782E6E65740D0A4B6565706F
:101FD0002D416C6976653A203330300D0A436F6EBF
:101FE0006E656374696F6E3A204B6565702D416C48
:101FF0006976650D0A0D0A000D0A0D0A0D0A446185
:1020000074656E20416E666F726465726E0D0A00B3
:102010005443502045696E74726167206765667528
:102020006E64656E2028485454505F434C49454EB9
:102030005429210D0A005443502045696E74726181
:1020400067206E6963687420676566756E64656E87
:102050002028485454505F434C49454E5429210D83
:102060000A0041525020526571756573740A0D0063
:102070002563000011241FBECFE5D8E0DEBFCDBF31
:1020800011E0A0E6B0E0E2EBFEE702C005900D92A1
:10209000AE3CB107D9F716E0AEECB1E001C01D923D
:1020A000AE30B107E1F70E9459100C94573F0C94E1
:1020B00000008F929F92AF92BF92CF92DF92EF92E9
:1020C000FF920F931F93CF93DF9387E08ABB86E045
:1020D00084BB11BA60E875E280E090E00E94DE11F6
:1020E00000D088E491E0ADB7BEB712969C938E9372
:1020F00011970E94931280E291E0EDB7FEB79283B0
:1021000081830E9493128DEF90E0ADB7BEB7129617
:102110009C938E9311970E94931280E090E0A0E030
:10212000B0E00F900F9000000196A11DB11D80340A
:10213000E2E49E07EFE0AE07E0E0BE07A1F70E94F1
:1021400032210E9476300E94D4318BB780628BBFDF
:1021500078940E94C6390E940939882319F40E9494
:102160001D220FC000D081EF90E0ADB7BEB7129630
:102170009C938E9311970E9493120F900F900E9440
:102180006022EDB7FEB73A970FB6F894FEBF0FBEC8
:10219000EDBF319688ED90E0ADB7BEB712969C9337
:1021A0008E93119780916C058283138280916D05C7
:1021B0008483158280916E058683178280916F05D6
:1021C000808711860E949312EDB7FEB7319681EC9D
:1021D00090E0ADB7BEB712969C938E931197809105
:1021E00074058283138280917505848315828091A2
:1021F00076058683178280917705808711860E94F5
:102200009312EDB7FEB731968AEA90E0ADB7BEB74C
:1022100012969C938E9311978091700582831382FE
:10222000809171058483158280917205868317825F
:1022300080917305808711860E949312EDB7FEB7D7
:102240003A960FB6F894FEBF0FBEEDBF0E945F3402
:1022500080E090E0A0E0B0E000000196A11DB11D7B
:102260008034F2E49F07FFE0AF07F0E0BF07A1F77B
:102270000E940A340E943F34882371F000D08FE915
:1022800090E0ADB7BEB712969C938E9311970E94C3
:1022900093120F900F9002C00E94BA223CE9832E45
:1022A00030E0932E28E8A22E20E0B22E92E9C92E2B
:1022B00090E0D92E84E7E82E84E0F82E0CE610E0BA
:1022C000C4E5D0E00E94D41F80914D0280FF25C05C
:1022D00000D0EDB7FEB7928281820E9493120F90D8
:1022E0000F908BED92E00E942927882341F000D0C7
:1022F000ADB7BEB71296DC92CE92119705C000D052
:10230000EDB7FEB7B282A1820E9493120F900F9098
:1023100080914D028E7F80934D028091CB019091F0
:10232000CC01892B31F4F092CC01E092CB010E94D8
:102330000A340E940939882371F000D0ADB7BEB7C6
:1023400012961C930E9311970E949312E0E0F0E016
:1023500009940F900F900E94833080916B05882321
:1023600009F4B0CFEDB7FEB73A970FB6F894FEBFB9
:102370000FBEEDBF3196ADB7BEB71296DC93CE93CC
:10238000119780916605828313828091670584830B
:102390001582809168058683178280916905808700
:1023A00011860E94931210926B05EDB7FEB73A9614
:1023B0000FB6F894FEBF0FBEEDBF84CF9B01AC01FA
:1023C00088E98AB984E0220F331F441F551F8A957C
:1023D000D1F760E074E284EF90E00E94D43E215097
:1023E00029B980914D028B7F80934D020895982FDB
:1023F00080914D0282FD03C05D9BFECF9CB9089584
:10240000FC0108C0319680914D0282FD03C05D9BA6
:10241000FECF9CB990819923A9F708951F920F923E
:102420000FB60F9211242F933F938F939F93EF93A7
:10243000FF9380914D0282FD4FC02CB180914D02DF
:1024400082FD03C05D9BFECF2CB980914D0280FFC1
:1024500004C080914D02826028C0283069F48091C8
:10246000CE019091CF01892B09F452C08091CE0109
:102470009091CF0101972BC02D30D1F4E091CE0186
:10248000F091CF01E652FD4F80818C3589F0E091CB
:10249000CE01F091CF01E552FD4F10821092CF0195
:1024A0001092CE0180914D02816080934D0230C028
:1024B0008091CE019091CF01C19750F58091CE01CE
:1024C0009091CF01FC01E552FD4F2083019690933E
:1024D000CF018093CE011CC020916000309161003B
:1024E000809162009091630001972817390781F06D
:1024F0008CB1F9018193F0936100E0936000EC509E
:10250000F34031F420533040309361002093600059
:10251000FF91EF919F918F913F912F910F900FBE5F
:102520000F901F9018956F927F928F929F92AF920B
:10253000BF92CF92DF92EF92FF920F931F93DF93A0
:10254000CF93CDB7DEB764970FB6F894DEBF0FBE5A
:10255000CDBF8E010B5D1F4FD801ED90FD908D0119
:10256000BB243E010894611C711C5BE0852E912CFC
:102570008C0E9D1E40E3A42E02C068018601F70167
:102580009491992309F4A0C00894E11CF11C9532A0
:1025900009F092C0F7010894E11CF11C2491822FEC
:1025A00090E0C0970A9710F0822F0BC02B871C86F3
:1025B000C4010E94FE3AB82EF7010894E11CF11CF8
:1025C0008491893671F08A3628F4823661F0833638
:1025D000A1F620C0833749F0883769F18F3669F654
:1025E00028C04AE029C042E027C0D801ED91FC9103
:1025F00008C0319680914D0282FD03C05D9BFECFE5
:102600009CB990819923A9F732E0C32ED12CC00E3A
:10261000D11EB4CF22E0C22ED12CC00ED11EF801A3
:10262000908180914D0282FDA9CF5D9BFECF9CB928
:10263000A5CF48E001C040E192E0C92ED12CC00EE8
:10264000D11ED8018D919C91B30150E00E94E83BCE
:1026500020E030E0A9014F5F5F4FF301E20FF31F6D
:102660008081882311F09A01F5CF8B2D90E02817F7
:1026700039079CF4B21AF401C4018B0D911D01C0FD
:10268000A192E817F907E1F71082C401B3010E9493
:10269000B33BC301B4010E94BE3BF30108C03196B5
:1026A00080914D0282FD03C05D9BFECF9CB990815D
:1026B0009923A9F7BB2462CF80914D0282FD5DCFA3
:1026C0005D9BFECF9CB959CF64960FB6F894DEBFE0
:1026D0000FBECDBFCF91DF911F910F91FF90EF9073
:1026E000DF90CF90BF90AF909F908F907F906F9032
:1026F0000895282F892F922F0895EF92FF920F931C
:102700001F93162F0027FF24EE24292F3327442759
:102710005527E20EF31E041F151F9B01AC0120700C
:1027200030705070232F342F452F5527E20EF31EA3
:10273000041F151F607080709070982F872F762F60
:102740006627E60EF71E081F191FB701C8011F9163
:102750000F91FF90EF9008950F931F93DF93CF9306
:1027600000D000D0CDB7DEB7DC01142F052F20E05C
:1027700030E0AE014F5F5F4FE199FECFE199FECFB0
:10278000C9018A0F9B1F9FBB8EBBE09A8DB3FA01D4
:10279000E20FF31F80832F5F3F4F2430310561F735
:1027A00029813A814B815C812F3F8FEF38078FEF72
:1027B00048078FEF580731F4212F302FC901DB0173
:1027C0009C01AD01B901CA010F900F900F900F90BD
:1027D000CF91DF911F910F91089540E050E09A0151
:1027E000220F331F240F351FD901AA0FBB1FAA0FB9
:1027F000BB1FA25FBD4F1A968D919C911B97892B91
:1028000009F51C9211961C921197F901EE0FFF1F0A
:10281000EE0FFF1FE05FFD4F108213961C9213977F
:10282000F901EE0FFF1FEE0FFF1FEE5EFD4F10824E
:1028300015961C92159716961D921D921D921C922C
:10284000199709C01A968D919C911B9701971B9619
:102850009C938E931A974F5F5F4F4530510509F057
:10286000BECF0895AC0120E001C02F5FA22FB0E0E1
:10287000FD01EE0FFF1FEE0FFF1FE053FE4F8081A3
:102880009181892B91F7253050F451834083AA0F11
:10289000BB1FAA0FBB1FAE52BE4F6D937C93089512
:1028A00020E001C02F5FA22FB0E0FD01EE0FFF1F5F
:1028B000EE0FFF1FE053FE4F0190F081E02D3097A7
:1028C00019F0E817F90771F7253040F4AA0FBB1F7C
:1028D000AA0FBB1FA053BE4F6D937C930895AC010C
:1028E00020E001C02F5FA22FB0E0FD01EE0FFF1F1F
:1028F000EE0FFF1FEC51FE4F80819181892B91F7E4
:10290000253050F451834083AA0FBB1FAA0FBB1F71
:10291000AA51BE4F6D937C9308959C01E4EEF1E0C3
:10292000808191818217930711F41182108234966D
:1029300081E0E83FF807A1F708951F920F920FB6C4
:102940000F9211248F9380914C02816080934C02EE
:102950001092D5021092D4028BB78F7D8BBF8F91CE
:102960000F900FBE0F901F9018950F931F93CF934A
:10297000DF930091190310911A0360E070E086E084
:1029800008301807C1F4FB01EE0FFF1FE60FF71F19
:10299000EE0FFF1FEE0FFF1FE25FFD4F2681378115
:1029A000408551858091290390912A03A0912B03A2
:1029B000B0912C031AC00830110509F5FB01EE0F88
:1029C000FF1FE60FF71FEE0FFF1FEE0FFF1FE25F67
:1029D000FD4F268137814085518580912703909155
:1029E0002803A0912903B0912A03281739074A0721
:1029F0005B0729F484E690E09387828788C06F5F45
:102A00007F4F6530710509F0BACF20E030E0A901B1
:102A1000440F551F420F531FEA01CC0FDD1FCC0F8F
:102A2000DD1FC25FDD4FBE016A5F7F4F8E819F81D8
:102A3000A885B9850097A105B10509F062C0E6E057
:102A400008301E0749F58091130388838091140391
:102A5000898380911503FA01EE0FFF1FEE0FFF1F10
:102A6000E05FFD4F8083809116038B838091170375
:102A7000FA01EE0FFF1FEE0FFF1FEE5EFD4F80838A
:102A8000809118038D838091290390912A03A0914E
:102A90002B03B0912C032BC008301105C1F5809198
:102AA0001303888380911403898380911503FA01AD
:102AB000EE0FFF1FEE0FFF1FE05FFD4F8083809141
:102AC00016038B8380911703FA01EE0FFF1FEE0FA1
:102AD000FF1FEE5EFD4F8083809118038D838091F0
:102AE000270390912803A0912903B0912A03FB01A9
:102AF00080839183A283B38384E690E09B878A8757
:102B000006C02F5F3F4F2530310509F080CFDF91A0
:102B1000CF911F910F9108951F93AB01BC0120E04D
:102B200030E0122FF901EE0FFF1FE20FF31FEE0F3F
:102B3000FF1FEE0FFF1FE25FFD4F86819781A0858B
:102B4000B18584179507A607B70731F02F5F3F4F70
:102B50002530310531F715E0812F1F910895FF923F
:102B60000F931F93182F092F20E030E0F22EF90168
:102B7000EE0FFF1FE20FF31FEE0FFF1FEE0FFF1F01
:102B8000E25FFD4F86819781A085B1858417950707
:102B9000A607B70731F02F5F3F4F2530310531F7DA
:102BA00026C0212F302FC901DC0140E050E08F2DDD
:102BB00090E09C01220F331F280F391F220F331F73
:102BC000220F331FF901E40FF51FE25FFD4F8081F3
:102BD0008C93FA01E457FA4F808116968C931697DE
:102BE0004F5F5F4F11964630510561F70FC0ACE85B
:102BF000B5E0812F902F9C01F9019FEF90838D917B
:102C00008683319685E0A239B807C1F71F910F91ED
:102C1000FF900895EF92FF920F931F93CF93DF934E
:102C20007C018B01EC0111C0888199812296F82FDB
:102C3000E0E0DF01A90FB11DCD01A0E0B0E0280F59
:102C4000391F4A1F5B1F625070406230710560F788
:102C5000F801EE7FEE0DFF1D00FF08C0908180E0BF
:102C6000A0E0B0E0280F391F4A1F5B1FCA01AA2746
:102C7000BB2740705070820F931FA41FB51F9D018A
:102C800044275527A070B070280F391F4A1F5B1FBB
:102C900020953095C901DF91CF911F910F91FF9041
:102CA000EF900895AF92BF92CF92DF92EF92FF9292
:102CB0000F931F937C015A016B018C01025F1F4F20
:102CC0000E94AF1588E090E0F701958784872091F6
:102CD000F8013091F9012F5F3F4F3093F9012093B4
:102CE000F80180E490E0F8019783868380E880878C
:102CF0003483258385E4F7018687F8011182A08A51
:102D0000B18AC28AD38A80916C0590916D05A09199
:102D10006E05B0916F0584879587A687B787138660
:102D20001286C80164E170E020E030E040E050E04D
:102D30000E940A16F801928783871F910F91FF90D6
:102D4000EF90DF90CF90BF90AF900895AF92BF9279
:102D5000CF92DF92EF92FF920F931F93CF93DF9367
:102D60008C01EC01A296BC01625F7F4FDB011C96D7
:102D7000CD90DD90ED90FC901F9740E050E086E113
:102D8000A82EB12C4A9DF0014B9DF00D5A9DF00DDF
:102D90001124E15BFD4F80819181A281B3818C156B
:102DA0009D05AE05BF0509F097C024813581888156
:102DB00099812817390709F08FC088859985AA85D8
:102DC000BB8580879187A287B3878C819D81AE81E7
:102DD000BF8184879587A687B7878D85808B8389F8
:102DE0008F3F11F083E0838BFB01B280A3808CEED8
:102DF0009FEFA80EB91E8C8590E0807F907095950E
:102E0000879595958795A81AB90ACC24DD2486E183
:102E100090E0489FF001499FF00D589FF00D11245C
:102E2000E15BFD4FE484F584068517855E2D44271C
:102E300033272227812F9927AA27BB27280F391F3D
:102E40004A1F5B1FD801C70180709070B070892F36
:102E50009A2FAB2FBB27280F391F4A1F5B1F80E01B
:102E60009FEFA0E0B0E0E822F9220A231B23102FF5
:102E70000F2DFE2CEE242E0D3F1D401F511F2A0D3D
:102E80003B1D4C1D5D1D122F0027FF24EE24852FB6
:102E90009927AA27BB27E80EF91E0A1F1B1FDA0174
:102EA000C90180709070B070892F9A2FAB2FBB270B
:102EB000E80EF91E0A1F1B1F207040705070542F1F
:102EC000432F322F2227E20EF31E041F151FE48624
:102ED000F586068717874FC04F5F5F4F4530510516
:102EE00009F050CF20E030E066E170E0269FA001BD
:102EF000279F500D369F500D1124FA01E15BFD4FC5
:102F000080819181A281B3810097A105B10569F506
:102F1000C082D182E282F382D80192968D919C91F7
:102F20009397958384838A819B8197838683888501
:102F30009985AA85BB8580879187A287B3878C8175
:102F40009D81AE81BF8184879587A687B7878D8550
:102F5000808B128A118A83E0838B148AFA01EC59E0
:102F6000FD4F80818E7F808306C02F5F3F4F2530CD
:102F7000310509F0BBCFDF91CF911F910F91FF90E9
:102F8000EF90DF90CF90BF90AF900895EF92FF92B7
:102F90000F931F93CF93DF937B018C0120E030E0F0
:102FA000C6E1D0E0622F2C9FF0012D9FF00D3C9FD9
:102FB000F00D1124E15BFD4F80819181A281B381ED
:102FC0008E159F05A007B10729F484819581841788
:102FD000950731F02F5F3F4F2530310519F765E038
:102FE000862FDF91CF911F910F91FF90EF90089561
:102FF00020E001C02F5FA22FB0E0FD01EE0FFF1F08
:10300000EE0FFF1FEC51FE4F0190F081E02D309745
:1030100089F09091310380913203E817F90751F755
:10302000AA0FBB1FAA0FBB1FAA51BE4FED91FC9167
:1030300080E009950895CF93DF93582FC0EDD1E03C
:10304000E0E0F0E0282F30E086E190E0289FD0011A
:10305000299FB00D389FB00D1124AB5ABD4F8D91F3
:103060009C911197382F292F888199818217930776
:1030700031F031962496E630F10589F70DC0E53040
:1030800058F4EE0FFF1FEE0FFF1FEE52FE4F0190A0
:10309000F081E02D852F0995DF91CF91089586303D
:1030A00038F5282F30E086E190E0289FD001299F55
:1030B000B00D389FB00D1124FD01E15BFD4F108272
:1030C0001182128213821582148217821682108650
:1030D0001186128613861486158616861786108A20
:1030E000128A118A138AAC59BD4F8C918E7F8C93B2
:1030F0000895CF92DF92EF92FF920F931F93CF9399
:10310000DF93EC012BE1C22E23E0D22E70E086E1AA
:1031100090E0689FF001699FF00D789FF00D1124F9
:10312000E15BFD4F868197819093300380932F035D
:1031300084819581909332038093310310924203EE
:103140001092410381E094EF90933E0380933D03FE
:1031500080E580933B032485358546855785122F6E
:103160000027FF24EE24852F9927AA27BB27E80EE6
:10317000F91E0A1F1B1FDA01C90180709070B07020
:10318000892F9A2FAB2FBB27E80EF91E0A1F1B1F92
:10319000207040705070542F432F322F2227E20EA0
:1031A000F31E041F151F808980933C03808981FFD3
:1031B00016C00894E11CF11C011D111D82E08093D2
:1031C000430384E08093440381E08093450384EFCC
:1031D0008093460380E680933B03C4E0D0E05E2DFD
:1031E000442733272227812F9927AA27BB27280F77
:1031F000391F4A1F5B1FD801C70180709070B070E3
:10320000892F9A2FAB2FBB27280F391F4A1F5B1F0F
:1032100080E09FEFA0E0B0E0E822F9220A231B2320
:10322000B02FAF2D9E2D8827280F391F4A1F5B1FF7
:1032300020933703309338034093390350933A0374
:1032400086E190E0689F8001699F100D789F100DC6
:103250001124015B1D4FF80180859185A285B385FE
:103260008093330390933403A0933503B0933603D4
:10327000CE018896D60112969C93129713968C9342
:10328000139786E019968C934081518162817381F6
:103290008DE093E00E9452161092400310923F037B
:1032A00070911D0360911E03685F7F4F80911B0327
:1032B00090E08F709070880F991F880F991F681B7E
:1032C000790B625070409B0140E050E06E5F7F4F91
:1032D00087E293E00E940A1690933F038093400395
:1032E000CE01C6966DE073E00E945628F801108A60
:1032F000DF91CF911F910F91FF90EF90DF90CF90D2
:103300000895AF92BF92CF92DF92EF92FF920F9308
:103310001F93CF93DF937B018C016A0159018BB717
:103320008F7D8BBF20E030E0C6E1D0E0622F2C9F84
:10333000A0012D9F500D3C9F500D1124FA01E15B1F
:10334000FD4F80819181A281B3810097A105B105D4
:1033500009F042C02630D0F410821182128213820A
:1033600015821482178216821086118612861386A1
:103370001486158616861786108A128A118A138A71
:10338000FA01EC59FD4F80818E7F808386E190E0C9
:10339000289FF001299FF00D389FF00D1124E15B6B
:1033A000FD4FE082F18202831383D582C482B7820B
:1033B000A68282ED94E0A0E0B0E080879187A287AA
:1033C000B38789E299E0A0E0B0E084879587A6877B
:1033D000B7878EE1838B07C06F5F2F5F3F4F25302C
:1033E000310509F0A3CF262F30E086E190E0289F39
:1033F000F001299FF00D389FF00D1124E15BFD4F86
:1034000082E0808B80E090E00E9479188BB7806228
:103410008BBFDF91CF911F910F91FF90EF90DF90C5
:10342000CF90BF90AF900895682F282F30E086E1AD
:1034300090E0289FF001299FF00D389FF00D112496
:10344000E15BFD4F8FEF9FEF928B818B81E1808B52
:1034500080E090E00E94791808959F92AF92BF9209
:10346000CF92DF92EF92FF920F931F93CF93DF9350
:1034700020E001C02F5FC22FD0E0FE01EE0FFF1F42
:10348000EE0FFF1FE053FE4F0190F081E02D3097CB
:1034900009F401C39091310380913203E817F907D1
:1034A00049F740913C03242F30E0C90182719070AC
:1034B000429709F0B1C08DE093E00E94A6162091DA
:1034C0002703309128034091290350912A03C0918A
:1034D0002F03D091300360E070E0A6E1CA2ED12C1A
:1034E0006C9DF0016D9DF00D7C9DF00D1124E15B54
:1034F000FD4F80819181A281B38182179307A40738
:10350000B50729F4848195818C179D0731F06F5F91
:103510007F4F6530710521F7BEC2262F30E086E16E
:1035200090E0289F6001299FD00C389FD00C112477
:103530008FE492E0C80ED91E8EE1D60153968C938B
:1035400053971C96ED90FD900D911C911F97212F84
:10355000332744275527BE2DAA2799278827280FC8
:10356000391F4A1F5B1F2F5F3F4F4F4F5F4FD801DF
:10357000C70180709070B070892F9A2FAB2FBB2736
:10358000280F391F4A1F5B1F80E09FEFA0E0B0E0CB
:10359000E822F9220A231B23102F0F2DFE2CEE24E4
:1035A0002E0D3F1D401F511F122F0027FF24EE2418
:1035B000852F9927AA27BB27E80EF91E0A1F1B1F74
:1035C000DA01C90180709070B070892F9A2FAB2FEB
:1035D000BB27E80EF91E0A1F1B1F20704070507099
:1035E000542F432F322F2227E20EF31E041F151FE4
:1035F000D6011C96ED92FD920D931C931F9780E1CE
:1036000050968C9380E090E00E94791881E090E0E1
:10361000F601928B818B3FC2423009F046C08DE0AB
:1036200093E00E94A6162091270330912803409131
:10363000290350912A03C0912F03D091300360E0F9
:1036400070E0A6E1CA2ED12C6C9DF0016D9DF00DAD
:103650007C9DF00D1124E15BFD4F80819181A28161
:10366000B38182179307A407B50729F48481958154
:103670008C179D0731F06F5F7F4F6530710521F723
:103680000AC2262F30E086E190E0289FF001299FB2
:10369000F00D389FF00D1124E15BFD4F82E1808B2E
:1036A00080E090E00E947918F6C140912703509184
:1036B00028036091290370912A03C0902F03D090B2
:1036C000300300E010E0F6E1AF2EB12C902E0A9D01
:1036D000F0010B9DF00D1A9DF00D1124E15BFD4FE3
:1036E00080819181A281B38184179507A607B707CE
:1036F00029F4848195818C159D0531F00F5F1F4F52
:103700000530110519F7C2C18DE093E00E94A6169D
:10371000A02EBB2486E190E0A89EF001A99EF00DAA
:10372000B89EF00D1124E15BFD4F808980FDA3C0A0
:103730009FC08DE093E00E94A616E090C902F09031
:10374000CA020091CB021091CC02212F33274427CB
:103750005527BE2DAA2799278827280F391F4A1FCA
:103760005B1F2F5F3F4F4F4F5F4FD801C7018070E6
:103770009070B070892F9A2FAB2FBB27280F391F5D
:103780004A1F5B1F80E09FEFA0E0B0E0E822F92233
:103790000A231B23102F0F2DFE2CEE242E0D3F1D70
:1037A000401F511F122F0027FF24EE24852F992739
:1037B000AA27BB27E80EF91E0A1F1B1FDA01C90141
:1037C00080709070B070892F9A2FAB2FBB27E80EB6
:1037D000F91E0A1F1B1F207040705070542F432F7A
:1037E000322F2227E20EF31E041F151FE092C9029A
:1037F000F092CA020093CB021093CC028091CD02CA
:1038000080FF08C080E18093CD0280E090E065E019
:103810000E9479181092BD021092BE021092BF024F
:103820001092C0021092C2021092C1021092C40201
:103830001092C3021092C5021092C6021092C702E3
:103840001092C8021092C9021092CA021092CB02C2
:103850001092CC021092CD021092CF021092CE02A2
:103860001092D0028091D2028E7F8093D20213C137
:10387000808982FFA6C086E190E0A89E6001A99E93
:10388000D00CB89ED00C1124AFE4B2E0CA0EDB1EFF
:10389000F601E484F58406851785212F3327442714
:1038A0005527BE2DAA2799278827280F391F4A1F79
:1038B0005B1F2F5F3F4F4F4F5F4FD801C701807095
:1038C0009070B070892F9A2FAB2FBB27280F391F0C
:1038D0004A1F5B1F80E09FEFA0E0B0E0E822F922E2
:1038E0000A231B23102F0F2DFE2CEE242E0D3F1D1F
:1038F000401F511F122F0027FF24EE24852F9927E8
:10390000AA27BB27E80EF91E0A1F1B1FDA01C901EF
:1039100080709070B070892F9A2FAB2FBB27E80E64
:10392000F91E0A1F1B1F207040705070542F432F28
:10393000322F2227E20EF31E041F151FD6011C96FC
:10394000ED92FD920D931C931F9750968C9180FFE2
:1039500012C0CC0FDD1FCC0FDD1FCE52DE4FE88131
:10396000F981892D099581E1F601808B80E090E055
:10397000692D0E94791886E190E0A89ED001A99E49
:10398000B00DB89EB00D1124FD01E15BFD4F10821A
:103990001182128213821582148217821682108677
:1039A0001186128613861486158616861786108A47
:1039B000128A118A138AAC59BD4F8C918E7F8C93D9
:1039C0006AC0808983FF14C0808984FF11C0818907
:1039D00092890196928B818B88E1808BCC0FDD1FC1
:1039E000CC0FDD1FCE52DE4FE881F981802F4CC015
:1039F00086E190E0A89E9001A99E300DB89E300D02
:103A00001124F901E15BFD4F808984FF0AC0F901AF
:103A1000EC59FD4F808180FD04C0808181608083EE
:103A20003AC086E190E0A89EF001A99EF00DB89EF4
:103A3000F00D1124DF01A15BBD4F50968C91509782
:103A400084FF29C0EC59FD4F808180FF24C051962E
:103A50008D919C9152978F5F9F4FE9F080E1509636
:103A60008C93509751968D919C91529701965296B6
:103A70009C938E935197CC0FDD1FCC0FDD1FCE5240
:103A8000DE4FE881F981892D099505C025703070D8
:103A9000232B09F04ECEDF91CF911F910F91FF9014
:103AA000EF90DF90CF90BF90AF909F900895AF922E
:103AB000BF92CF92DF92EF92FF920F931F93CF931B
:103AC000DF9300E010E026E1C22ED12C93E0A92E76
:103AD00084E1B82E0C9D70010D9DF00C1C9DF00C26
:103AE0001124E701C15BDD4F8B898823D1F58881E3
:103AF0009981AA81BB810097A105B105C1F1AB8A6B
:103B00008C898F5F8C8B8150863038F18BB78F7D9D
:103B10008BBFB88A80E090E0602F0E9479188BB745
:103B200080628BBF188219821A821B821D821C82BE
:103B30001F821E82188619861A861B861C861D8681
:103B40001E861F86188A1A8A198A1B8AF701EC5961
:103B5000FD4F80818E7F80830AC0802F0E941B18BA
:103B600006C08B898F3F19F08B8981508B8B0F5F3B
:103B70001F4F0530110509F0ADCFDF91CF911F9197
:103B80000F91FF90EF90DF90CF90BF90AF9008958E
:103B90008F929F92AF92BF92CF92DF92EF92FF925D
:103BA0000F931F935C01FFE2CF2EF3E0DF2EECEECC
:103BB000EE2EEFEFFE2EEC0CFD1C70932F036093A6
:103BC00030035093310340933203089690933303AC
:103BD00080933403C5014C96F7019283838381E17E
:103BE00081874EED842E4FEF942E8C0C9D1CC401CA
:103BF000B901A8010E9452161092360310923503A3
:103C0000F70172816381685F7F4F808190E08F70E0
:103C10009070880F991F880F991F681B790B675F39
:103C20007F4F9B0140E050E069507040C60108970B
:103C30000E940A169093350380933603C5018A9635
:103C4000B4010E9456281F910F91FF90EF90DF90D2
:103C5000CF90BF90AF909F908F9008956F927F927A
:103C60008F929F92AF92BF92CF92DF92EF92FF928C
:103C70000F931F933B014C018BE1A82E83E0B82EDC
:103C8000B4E1CB2ED12CCA0CDB1C40932F03F601E0
:103C90002183F582E482178306831382128280E0F7
:103CA00094E590931E0380931D0381E08093240389
:103CB00082EF9FEFA80EB91EC501B401A3010E94B7
:103CC000521670911D0360911E0380911B0390E0BA
:103CD0008F709070880F991F880F991F681B790B40
:103CE000C60120E030E040E050E00E940A16F601F4
:103CF0009283838382E690E0B5010E9456281F914B
:103D00000F91FF90EF90DF90CF90BF90AF909F907A
:103D10008F907F906F9008950F931F9380911B0356
:103D200090911C038050914009F0C1C080911D0307
:103D300090911E03089709F0BAC080911F03863046
:103D400009F0B5C080912003843009F0B0C0209103
:103D50003303309134034091350350913603809101
:103D60006C0590916D05A0916E05B0916F052817B7
:103D700039074A075B0709F09AC0809121039091A7
:103D80002203E1E080309E0709F08CC00E94B51448
:103D90000BE113E00E5010404091290350912A038B
:103DA00060912B0370912C03C8010E94AF1588E02D
:103DB00096E0F801958784874091290350912A0362
:103DC00060912B0370912C0320E030E0F901EE0F9D
:103DD000FF1FE20FF31FEE0FFF1FEE0FFF1FE25F4B
:103DE000FD4F86819781A085B18584179507A60729
:103DF000B70731F02F5F3F4F2530310539F725C028
:103E0000ABE1B3E040E050E0822F90E09C01220F54
:103E1000331F280F391F220F331F220F331FF901C1
:103E2000E40FF51FE25FFD4F808152968C9352970D
:103E3000FA01E457FA4F808118968C9318974F5FD8
:103E40005F4F11964630510551F780E092E0909314
:103E50002203809321038091290390912A03A0914A
:103E60002B03B0912C038093330390933403A093DE
:103E70003503B093360380916C0590916D05A09148
:103E80006E05B0916F058093290390932A03A09348
:103E90002B03B0932C038CE390E06DE073E00E9461
:103EA000562805C08050924011F40E94B5141F910D
:103EB0000F910895EF92FF920F931F938091190332
:103EC00090911A0326E08830920719F40E948C1E04
:103ED00066C0089709F063C020912B0330912C0332
:103EE00040912D0350912E0380916C0590916D05AA
:103EF000A0916E05B0916F05281739074A075B0737
:103F000009F042C00E94B514809124038130B9F5B4
:103F100080912F038823C1F0883009F040C0609160
:103F20002703709128038091290390912A0300911F
:103F3000350310913603E0903303F090340340E0F2
:103F400020E00E942E1E2BC020916605309167054F
:103F5000409168055091690580912703909128034D
:103F6000A0912903B0912A03281739074A075B0754
:103F7000B1F480916B05816080936B0510C0863031
:103F800041F40E942D1A05C02F5F3F4F4F4F5F4FE6
:103F900031F480912403813111F40E94F8171F91AC
:103FA0000F91FF90EF90089580914C0281FF4BC0DC
:103FB0000E94571D40E050E09A01220F331F240F4A
:103FC000351FD901AA0FBB1FAA0FBB1FA25FBD4F90
:103FD0001A968D919C911B97892B09F51C9211962D
:103FE0001C921197F901EE0FFF1FEE0FFF1FE05F0C
:103FF000FD4F108213961C921397F901EE0FFF1FCD
:10400000EE0FFF1FEE5EFD4F108215961C92159766
:1040100016961D921D921D921C92199709C01A9610
:104020008D919C911B9701971B969C938E931A9749
:104030004F5F5F4F4530510509F0BECF80914C0274
:104040008D7F80934C0280914C0280FD0FC00895BB
:1040500088E592E06DE073E00E949229FC010097F0
:1040600029F0E35FFC4F11820E945A1FB29BF0CFF0
:1040700080914C028E7F80934C028BB780628BBF05
:1040800008958F929F92AF92BF92CF92DF92EF925C
:10409000FF920F931F93DF93CF93CDB7DEB7AA970D
:1040A0000FB6F894DEBF0FBECDBF4B015C018E0191
:1040B000015F1F4F80916C0590916D05A0916E0579
:1040C000B0916F0588259925AA25BB2520917405F7
:1040D00030917505409176055091770582239323A1
:1040E000A423B5230097A105B10519F47501640156
:1040F00008C0C0907005D0907105E0907205F090F6
:10410000730588E096E09E878D87CE010196B70102
:10411000A6010E94AF1580916C0590916D05A0914C
:104120006E05B0916F05F80186879787A08BB18BDC
:10413000C08ED18EE28EF38EACE8B5E08D91808793
:10414000128A319625E0A239B207C1F720E031E0AA
:10415000F8013183208388E090E09383828386E0B6
:10416000848384E08583378326838AE290E0BE01DE
:104170006F5F7F4F0E94562810E05AC0422FF9010E
:10418000EE0FFF1FE20FF31FEE0FFF1FEE0FFF1FDB
:10419000E25FFD4F86819781A085B18588159905DD
:1041A000AA05BB0531F02F5F3F4F2530310531F7B0
:1041B00045E020E030E0F901EE0FFF1FE20FF31FB2
:1041C000EE0FFF1FEE0FFF1FE25FFD4F868197810D
:1041D000A085B1858C159D05AE05BF0531F02F5F1B
:1041E0003F4F2530310539F73AC0453021F5822F50
:1041F00090E0FC01EE0FFF1FE80FF91FEE0FFF1F0D
:10420000EE0FFF1FE25FFD4F86829782A086B18688
:1042100012C080E090E000000196F7E280319F0735
:10422000D1F70E94D41F1F5F143111F480E004C045
:1042300020E030E0A3CF81E0AA960FB6F894DEBF6D
:104240000FBECDBFCF91DF911F910F91FF90EF90E7
:10425000DF90CF90BF90AF909F908F9008954530A2
:10426000C1F2E9CF0E9478218EE190E040EC58EA5B
:1042700060E073E60E94AC1360936C0570936D056B
:1042800080936E0590936F0582E290E04FEF5FEFB1
:104290006FEF70E00E94AC13609374057093750526
:1042A000809376059093770586E290E040EC58EA9B
:1042B00060E071E00E94AC1360937005709371052B
:1042C000809372059093730510928C0580E2809321
:1042D0008D0588E180938E0581EB80938F0585E1C4
:1042E000809390058FE6809391050E94E7280895BA
:1042F0008EB58D608EBD1DBC1CBC88E09DE39BBD52
:104300008ABD89B7806189BF08951F920F920FB649
:104310000F9211242F938F939F93AF93BF9380910C
:10432000D7029091D802A091D902B091DA020196F9
:10433000A11DB11D8093D7029093D802A093D902FA
:10434000B093DA028091D4029091D50201969093B5
:10435000D5028093D4020197815B944018F0E0E08D
:10436000F0E0099480914C02826080934C0280912D
:10437000CB019091CC0101979093CC018093CB011C
:1043800080910A0290910B02A0910C02B0910D0253
:104390000097A105B10599F080910A0290910B0256
:1043A000A0910C02B0910D020197A109B10980936F
:1043B0000A0290930B02A0930C02B0930D0280911D
:1043C0004E02882329F080914E02815080934E0244
:1043D000BF91AF919F918F912F910F900FBE0F9032
:1043E0001F901895E0E0F0E009940895AC018091E9
:1043F000780590917905892BF1F020E030E0E19982
:10440000FECFF901EE0FFF1FE858FA4F0190F0813F
:10441000E02DE199FECFC901840F951F9FBB8EBB94
:10442000EDBB0FB6F894E29AE19A0FBE2F5F3F4FB3
:104430002430310521F7089508958EE190E0E19947
:10444000FECFFC01E25BFA4FE081E199FECF9FBB1A
:104450008EBBEDBB0FB6F894E29AE19A0FBE0196BF
:104460008232910561F782E290E0E199FECFFC0192
:10447000EE5AFA4FE081E199FECF9FBB8EBBEDBBB8
:104480000FB6F894E29AE19A0FBE01968632910532
:1044900061F786E290E0E199FECFFC01E65BFA4F1E
:1044A000E081E199FECF9FBB8EBBEDBB0FB6F894C8
:1044B000E29AE19A0FBE01968A32910561F708955A
:1044C0008EE190E040EC58EA60E073E60E94AC13A5
:1044D00060936C0570936D0580936E0590936F05E6
:1044E00082E290E04FEF5FEF6FEF70E00E94AC135D
:1044F00060937405709375058093760590937705A6
:1045000086E290E040EC58EA60E071E00E94AC1373
:104510006093700570937105809372059093730595
:104520000895EF92FF921F93CF93DF93C9E5D1E0F7
:104530009DEEE92E92E0F92EFE012196149100D015
:1045400000D0EDB7FEB73196ADB7BEB71296FC926C
:10455000EE921197128313820E9493120F900F9084
:104560000F900F90112341F7DF91CF911F91FF9092
:10457000EF9008958F929F92AF92BF92CF92DF9269
:10458000EF92FF920F931F936091D7027091D80220
:104590008091D9029091DA02C090D702D090D802CF
:1045A000E090D902F090DA028090D7029090D80281
:1045B000A090D902B090DA022DB73EB72850304013
:1045C0000FB6F8943EBF0FBE2DBF0DB71EB70F5FDD
:1045D0001F4F20EF32E0EDB7FEB73283218320E199
:1045E0003EE040E050E00E94D43ECA01B90128E11B
:1045F00030E040E050E00E94D43EF8016283138234
:10460000C701B6012CE330E040E050E00E94D43E08
:10461000CA01B9012CE330E040E050E00E94D43EF2
:10462000F80164831582C501B4012CE330E040E059
:1046300050E00E94D43EF801668317820E949312D4
:104640002DB73EB7285F3F4F0FB6F8943EBF0FBE61
:104650002DBF1F910F91FF90EF90DF90CF90BF90F3
:10466000AF909F908F900895CF93DF93E09178055E
:10467000F091790580917A0590917B05A2EBB1E0EC
:10468000EE0FFF1FEA0FFB1F918380834091780597
:1046900050917905209178053091790500D000D0AE
:1046A00000D0EDB7FEB7319686E093E0CDB7DEB728
:1046B0009A83898353834283220F331FA20FB31F30
:1046C0008D919C91958384830E9493128DB79EB7A0
:1046D00006960FB6F8949EBF0FBE8DBFDF91CF91A7
:1046E00008952F923F924F925F926F927F928F9296
:1046F0009F92AF92BF92CF92DF92EF92FF920F9371
:104700001F93CF93DF93C0E0D0E0F6E12F2E312C42
:10471000EEE44E2EE3E05E2E79E4672E73E0772E12
:1047200064E4862E63E0962E5FE3A52E53E0B52E5B
:1047300044E3C42E43E0D42E37E2E32E33E0F32EDD
:1047400000D000D0E7E5F3E0ADB7BEB71296FC931A
:10475000EE9311971496DC93CE9313970E949312C5
:10476000C29D8001C39D100DD29D100D1124015BCF
:104770001D4FF80180819181A281B38100D0EDB7F6
:10478000FEB7528241829070A070B0708383948390
:10479000A583B6830E949312F80180819181A28142
:1047A000B381EDB7FEB772826182892F90E0A0E0FD
:1047B000B0E083839483A583B6830E949312F801AB
:1047C00080819181A281B381EDB7FEB7928281820F
:1047D0008A2F90E0A0E0B0E083839483A583B68322
:1047E0000E949312F80180819181A281B381EDB77B
:1047F000FEB7B282A1828B2F9927AA27BB2783837A
:104800009483A583B6830E949312D80114962D91A8
:104810003C91159714968D919C9115970F900F9040
:10482000EDB7FEB7D282C182892F9927322F222776
:10483000822B932B948383830E949312D8015396E7
:104840008C91EDB7FEB73196ADB7BEB71296FC921C
:10485000EE921197828313820E94931221960F90F9
:104860000F900F900F90C530D10509F069CFDF91FF
:10487000CF911F910F91FF90EF90DF90CF90BF905D
:10488000AF909F908F907F906F905F904F903F90F0
:104890002F9008952F923F924F925F926F927F9246
:1048A0008F929F92AF92BF92CF92DF92EF92FF9240
:1048B0000F931F93CF93DF93C0E0D0E0A0E82A2EA0
:1048C000A3E03A2EF7E74F2EF3E05F2EE2E76E2EDD
:1048D000E3E07E2E7DE6872E73E0972E68E6A62E17
:1048E00063E0B62E5BE5C52E53E0D52E8E01000F9A
:1048F000111F0C0F1D1F000F111F000F111F2EE0A5
:10490000E22E22E0F22EE00EF11ED7018C9100D0B3
:1049100000D000D0EDB7FEB7319629E933E0ADB74E
:10492000BEB712963C932E931197D383C283848390
:1049300015820E949312D70111968C910F900F90BF
:10494000EDB7FEB7319624E933E0ADB7BEB71296A6
:104950003C932E931197828313820E949312F80145
:10496000E05FFD4F8081EDB7FEB731962FE833E071
:10497000ADB7BEB712963C932E93119782831382E4
:104980000E949312D70113968C91EDB7FEB7319622
:104990002AE833E0ADB7BEB712963C932E93119739
:1049A000828313820E9493120E5E1D4FD8018C9158
:1049B000EDB7FEB7319625E833E0ADB7BEB7129636
:1049C0003C932E931197828313820E949312D701F6
:1049D00015968C91EDB7FEB73196ADB7BEB712966E
:1049E0003C922E921197828313820E949312F701B8
:1049F00086819781A085B18500D0EDB7FEB7528240
:104A000041829070A070B07083839483A583B68335
:104A10000E949312F70186819781A085B185EDB739
:104A2000FEB772826182892F90E0A0E0B0E08383BC
:104A30009483A583B6830E949312F70186819781A0
:104A4000A085B185EDB7FEB7928281828A2F90E072
:104A5000A0E0B0E083839483A583B6830E94931281
:104A6000F70186819781A085B185EDB7FEB7B28247
:104A7000A1828B2F9927AA27BB2783839483A583A1
:104A8000B6830E949312D7011A968D919C911B9721
:104A90000F900F90EDB7FEB7D282C18294838383CB
:104AA0000E94931221960F900F900F900F90C53097
:104AB000D10509F01BCFDF91CF911F910F91FF908E
:104AC000EF90DF90CF90BF90AF909F908F907F90AE
:104AD0006F905F904F903F902F90089500D000D03E
:104AE000EDB7FEB7319686EA93E0ADB7BEB7129642
:104AF0009C938E9311978091FE01828313820E9472
:104B000093120F900F900F900F9008958DB79EB74E
:104B10000E970FB6F8949EBF0FBE8DBFEDB7FEB7D0
:104B200031968EEB93E0ADB7BEB712969C938E9301
:104B3000119780918C058283138280918D058483E7
:104B4000158280918E058683178280918F058087DC
:104B500011868091900582871386809191058487C4
:104B600015860E9493128DB79EB70E960FB6F894D5
:104B70009EBF0FBE8DBF089586E290E00E94F62191
:104B800086E290E040EC58EA60E071E00E94AC13ED
:104B9000609370057093710580937205909373050F
:104BA0008DB79EB70A970FB6F8949EBF0FBE8DBF04
:104BB000EDB7FEB7319680EE93E0ADB7BEB7129673
:104BC0009C938E93119780917005828313828091BC
:104BD0007105848315828091720586831782809186
:104BE0007305808711860E9493128DB79EB70A962F
:104BF0000FB6F8949EBF0FBE8DBF089582E290E07D
:104C00000E94F62182E290E04FEF5FEF6FEF70E0DD
:104C10000E94AC13609374057093750580937605BC
:104C2000909377058DB79EB70A970FB6F8949EBFFD
:104C30000FBE8DBFEDB7FEB731968DEF93E0ADB7E8
:104C4000BEB712969C938E931197809174058283C0
:104C50001382809175058483158280917605868301
:104C6000178280917705808711860E9493128DB7F5
:104C70009EB70A960FB6F8949EBF0FBE8DBF0895DB
:104C800082E390E00E94F62182E390E04DE455E259
:104C900066E07BE30E94AC1360930502709306020A
:104CA00080930702909308028DB79EB70A970FB6BC
:104CB000F8949EBF0FBE8DBFEDB7FEB7319688E169
:104CC00094E0ADB7BEB712969C938E9311978091E6
:104CD000050282831382809106028483158280916B
:104CE00007028683178280910802808711860E94BE
:104CF00093128DB79EB70A960FB6F8949EBF0FBE5B
:104D00008DBF08958EE190E00E94F6218EE190E043
:104D100040EC58EA60E073E60E94AC1360936C05C7
:104D200070936D0580936E0590936F058DB79EB758
:104D30000A970FB6F8949EBF0FBE8DBFEDB7FEB7B2
:104D4000319686E394E0ADB7BEB712969C938E93EE
:104D5000119780916C058283138280916D05848305
:104D6000158280916E058683178280916F058087FA
:104D700011860E9493128DB79EB70A960FB6F894CB
:104D80009EBF0FBE8DBF0895AF92BF92CF92DF92AC
:104D9000EF92FF920F931F93809178059091790580
:104DA000892B09F44AC0A0907805B09079056091EC
:104DB0007A0570917B0520917C0530917D05E0900E
:104DC0007E05F0907F0580E090E0982F872F762F6A
:104DD000662740E050E0A90133272227620F731FA6
:104DE000841F951FCC24DD246A0D7B1D8C1D9D1D09
:104DF00000E010E01E2D0027FF24EE246E0D7F1D25
:104E0000801F911F60936605709367058093680506
:104E1000909369050E944120609166057091670535
:104E2000809168059091690548E020E001E010E07C
:104E3000B1E0EB2EF12C0E942E1E1F910F91FF90DE
:104E4000EF90DF90CF90BF90AF9008950E940A340A
:104E50000895CF92DF92EF92FF920F931F93DF930B
:104E6000CF9300D0CDB7DEB79A838983CE01019668
:104E700064E670E00E94D03B6C0110E00FC01F5F41
:104E8000E12FF0E0EE0FFF1FEE0FFF1FE555FF4F84
:104E900080819181892B11F480E03AC0E12EFF24BA
:104EA000F701EE0FFF1FEE0FFF1FE555FF4F80814B
:104EB0009181B6010E94563B892B09F700E010E072
:104EC0006E010894C11CD11CC60166E670E00E9408
:104ED000D03B60E070E040E050E00E94CF39F80144
:104EE000EE0FFF1FE858FA4F718360830F5F1F4F6B
:104EF0000A30110549F7EE0CFF1CEE0CFF1C8DEA81
:104F000090E0E80EF91ED701ED91FC91099581E042
:104F10000F900F90CF91DF911F910F91FF90EF9025
:104F2000DF90CF900895CF93DF93EC01DB0134C085
:104F300086958695FD018193888183708295807F17
:104F400011968C9311979981992321F4DF01119681
:104F500042E026C092959F70890F11968C9311970D
:104F600089818F70880F880F12968C9312979A817F
:104F7000992319F4139641E013C09295969596954E
:104F80009370890F12968C9312978A818F73139660
:104F90008C931397149623968881882349F640E0D2
:104FA0001C92EB0108C0E881F0E0EF73F070E15B68
:104FB000FB4FE491E993CA17DB07A9F7FD01842FA2
:104FC0009DE302C0919381508823E1F7A40FB11DA6
:104FD0001C92DF91CF910895282F382F3F713A31DD
:104FE00020F590E08076907045E0959587954A95FC
:104FF000E1F7982F809101029817B9F0C3988FEBD1
:105000008FB9779BFECF83E08FB9779BFECFC39A92
:10501000992349F0C3988FE98FB9779BFECF9FB949
:10502000779BFECFC39A90930102C3983FB9779BB9
:10503000FECF1FB8779BFECF27FF03C01FB8779B1B
:10504000FECF8FB1C39A0895282F2F712A3120F5F2
:1050500090E08076907055E0959587955A95E1F7A8
:10506000982F809101029817B9F0C3988FEB8FB9F0
:10507000779BFECF83E08FB9779BFECFC39A9923AE
:1050800049F0C3988FE98FB9779BFECF9FB9779B83
:10509000FECFC39A90930102C39820642FB9779BE7
:1050A000FECF6FB9779BFECFC39A0895CF92DF9260
:1050B000EF92FF920F931F93DF93CF930F92CDB791
:1050C000DEB77C016B01198204E610E011C08FE1AC
:1050D0000E94EC2783FF12C088EE93E001972FEF28
:1050E0008F3F920729F00000000000000000F6CF7B
:1050F000015010408FEF0F3F180749F78FE10E94D2
:10510000EC2783FF14C0C3988FE98FB9779BFECF3C
:1051100080E88FB9779BFECFC39AC3988FEB8FB986
:10512000779BFECF80E88FB9779BFECFC39A82E052
:1051300060E00E94242883E06AE10E94242886E03F
:105140006E2D0E94242897012050364E87E0632F51
:105150000E942428C3988AE78FB9779BFECF898164
:105160008FB9779BFECFC39AC3988AE78FB9779B95
:10517000FECF0BC0F60180818FB9779BFECF0894DC
:10518000E108F1080894C11CD11CE114F10491F765
:10519000C39AC3988CEB8FB9779BFECF88E08FB909
:1051A000779BFECFC39AC3988FE98FB9779BFECFC9
:1051B00088E08FB9779BFECFC39A0F90CF91DF9194
:1051C0001F910F91FF90EF90DF90CF900895EF9295
:1051D000FF920F931F93CF93DF93BB9AC39A87B32A
:1051E000806A87BBC79ABE98BC9A80E58DB981E07A
:1051F0008EB980E197E201972FEF8F3F920729F058
:105200000000000000000000F6CFC3988FEF8FB9B8
:10521000779BFECFC39A88EE93E00197EFEF8F3F25
:105220009E0729F00000000000000000F6CF8DE18D
:105230000E94EC2780FFFBCF82E70E94EC2780933F
:10524000FE0110928C0580E280938D0588E18093A9
:105250008E0581EB80938F0585E1809390058FE625
:1052600080939105C0E0D0E0CE01FE01EF56FB4FE8
:10527000249122968E569B4FFC0164912F3F11F48E
:105280006F3F21F0822F0E942428EECFCF56DB4FB4
:10529000FE0164912196FE01849121976F3F11F4E4
:1052A0008F3F39F1F82EEE242296FE0104912297C9
:1052B00010E00E291F2984ED0E94242886ED602F1E
:1052C0000E94242887ED612F0E9424288AE090E024
:1052D0000197FFEF8F3F9F0729F0000000000000BB
:1052E0000000F6CF8AEE0E94EC2780FDFBCF2396CC
:1052F000CFCF109200021092FF018BE160EC0E9470
:105300002428C3988FE98FB9779BFECF84E08FB9AB
:10531000779BFECFC39ADF91CF911F910F91FF90A2
:10532000EF900895CF92DF92EF92FF920F931F9329
:10533000DF93CF9300D000D000D0CDB7DEB77C0193
:105340006B0189E30E94EC27882319F400E010E048
:1053500096C06091FF017091000280E00E942428B5
:105360002091FF013091000281E0632F0E942428E8
:10537000C3988AE38FB9779BFECFFE0131969E01D9
:105380002A5F3F4F1FB8779BFECF8FB18083E21714
:10539000F30711F03196F6CFC39A898190E090938C
:1053A00000028093FF012091FF01309100029A8159
:1053B00080E0822B932B909300028093FF018B81DE
:1053C000082F10E09C8180E0082B192B8D81282F5D
:1053D00030E09E8180E0282B392B27FF05C037FD68
:1053E00003C0E016F10610F40E94E72804501040B4
:1053F000E016F10608F48701C3988AE38FB9779B1A
:10540000FECF980109C01FB8779BFECF8FB1F60180
:1054100081936F012150304021153105A1F7C39AC6
:105420008091FF0190910002019780509A41A8F469
:105430008091FF01909100026091FF017091000244
:1054400061508CE00E9424282091FF0130910002DD
:10545000215030408DE0632F06C08CE06FEF0E943A
:1054600024288DE069E10E942428C3988EE98FB931
:10547000779BFECF80E48FB9779BFECFC39AC8019C
:1054800026960FB6F894DEBF0FBECDBFCF91DF9149
:105490001F910F91FF90EF90DF90CF90089590E0D3
:1054A0002DE030E0A901849F9001859F300D949FED
:1054B000300D1124E8EBF5E0DF01A20FB31F8C9152
:1054C000807E82608C933897E20FF31F13821282E2
:1054D000118210828C918F7D8C9382E995E0958367
:1054E000848380E991E09287818785E991E09487C0
:1054F000838786EC91E09783868308952F923F926D
:105500004F925F926F927F928F929F92AF92BF92D3
:10551000CF92DF92EF92FF920F931F93DF93CF937F
:10552000CDB7DEB7A9970FB6F894DEBF0FBECDBFDB
:10553000382E482E55248DE090E0489E9001499EDB
:10554000300D589E300D1124F901E854FA4F808136
:1055500080FD07C0F901E055FA4F8FE79EE1938384
:10556000828386E190E0489EF001499EF00D589EAE
:10557000F00D1124E15BFD4F8089882379F48DE0E3
:1055800090E0489EF001499EF00D589EF00D1124C8
:10559000E055FA4F80819181938382838DE090E082
:1055A000489EF001499EF00D589EF00D1124E055E3
:1055B000FA4F8281938191838083EE24FF2442E01D
:1055C000C42ED12CCE0EDF1E4E010894811C911CDE
:1055D00031E0632E712C2AE0222ED6010D911C9110
:1055E0001197B8016F5F7F4F6D937C93F8018491A1
:1055F00093E4A92E93E0B92EAE0CBF1CD5018C9379
:10560000853209F085C18BEE90E043E050E00E94C6
:105610002C3B892B89F50C5F1F4FF80184910F5F9C
:105620001F4FF80124912051829DC0011124280FA1
:10563000E22FF0E0EE0FFF1FEE54FE4F80819181CC
:10564000B4014AE050E00E94E83BC4016AE070E027
:105650000E94C53B082F10E0C501B401A8010E94BB
:10566000443B01501040E00EF11ED6018D919C91FB
:10567000119705968D939C93F601608171818FEE51
:1056800090E044E050E00E942C3B892B09F061C07F
:105690008091D602823039F484EF90E069EF70E0B7
:1056A0000E94BE3B3BC06091D7027091D8028091AE
:1056B000D9029091DA02AE01455F5F4F0E94E83156
:1056C0004DB75EB7485050400FB6F8945EBF0FBE5E
:1056D0004DBFEDB7FEB731964AE951E0ADB7BEB761
:1056E00012965C934E93119783EB9EE19383828392
:1056F000A3E1B0E0AC0FBD1FB583A48341E250E04D
:105700004C0F5D1F578346830E94113C8DB79EB797
:1057100008960FB6F8949EBF0FBE8DBF8AE991E040
:1057200068E170E00E94C53B082F10E0C7018D5B67
:105730009C4F6AE971E0A8010E94443B015010406F
:10574000E00EF11ED6018D919C91119704968D93D8
:105750009C93F601008111818BEF90E0B80144E049
:1057600050E00E942C3B892B09F055C00B5F1F4F66
:10577000F8018491805301501040F8016491623423
:1057800061F0633418F4613441F505C0633471F09D
:10579000643419F514C02BB313C028B3D30102C06D
:1057A000AA0FBB1F8A95E2F7CD0111C025B3F30103
:1057B00002C0EE0FFF1F8A95E2F7CF0108C022B3A7
:1057C000A30102C0440F551F8A95E2F7CA0128239E
:1057D00021F0C4016BEA7EE103C0C40169EA7EE105
:1057E0000E94253BC4016AE070E00E94C53B082F7F
:1057F00010E0C7018D5B9C4FB401A8010E94443B9F
:1058000001501040E00EF11ED6018D919C91119730
:1058100006968D939C93F6010081118180E091E0C2
:10582000B80143E050E00E942C3B892B09F055C0A1
:105830000C5F1F4FF8018491805301501040F80114
:105840006491623461F0633418F4613441F505C049
:10585000633471F0643419F514C029B313C026B34E
:10586000D30102C0AA0FBB1F8A95E2F7CD0111C078
:1058700023B3F30102C0EE0FFF1F8A95E2F7CF01B9
:1058800008C020B3A30102C0440F551F8A95E2F758
:10589000CA01282321F0C4016FE97EE103C0C401DD
:1058A00064E97EE10E94253BC4016AE070E00E9449
:1058B000C53B082F10E0C7018D5B9C4FB401A801C8
:1058C0000E94443B01501040E00EF11ED6018D9124
:1058D0009C91119705968D939C93F601608171813F
:1058E00084E091E043E050E00E942C3B892B81F45E
:1058F00086E190E0489EF001499EF00D589EF00D23
:105900001124E15BFD4F8DEF9FEF928B818B09C0DE
:105910000894E11CF11CFCE8EF16F1E0FF0608F426
:105920005CCE86E190E0489EF001499EF00D589EC5
:10593000F00D1124E15BFD4F88E1808BC701632DE1
:105940000E947918A9960FB6F894DEBF0FBECDBF9E
:10595000CF91DF911F910F91FF90EF90DF90CF904B
:10596000BF90AF909F908F907F906F905F904F907F
:105970003F902F9008954F925F926F927F929F92E7
:10598000AF92BF92CF92DF92EF92FF920F931F934D
:10599000CF93DF93982E80913B03082F10E0007F78
:1059A00010701595079515950795C801815D9C4F59
:1059B0006AEB7EE10E948E3B892B81F0292D30E03D
:1059C0008DE090E0289FF001299FF00D389FF00DA9
:1059D0001124E854FA4F808180628083C92CDD2431
:1059E0008DE090E0C89EA001C99E500DD89E500D3C
:1059F0001124DA01A055BA4F36E0A32EB12CAA0E1D
:105A0000BB1E1696ED91FC9117978081882309F4AF
:105A10005BC022E2E22EF12CE00EF11E80911E030B
:105A2000282F30E02E5D3F4F90911D0380E0280F1E
:105A3000391F201B310BB701635F7C4FEA01C8544B
:105A4000DA4F149692E9692E95E0792EA50186EC3D
:105A5000A82E81E0B82E35C0888180FD17C0FB01DB
:105A60008081ED91FC91119791911196FC93EE93A9
:105A7000891719F011967C926E92ED91FC91119715
:105A80008081882319F4888181608883FB0180816B
:105A9000FA0140805180F20191912F01FA01518267
:105AA0004082891711F0B182A0826F5F7F4FFA01A7
:105AB00080819181FC018081882331F00894E11C70
:105AC000F11CE216F30640F28DE090E0C89EB001B2
:105AD000C99E700DD89E700D1124FB01E854FA4F39
